:020000040800F2
:10000000C80400209D190008791900087B19000810
:100010007D1900087F190008811900080000000000
:10002000000000000000000000000000831900082C
:1000300085190008000000008719000889190008C8
:10004000D1190008D5190008D9190008DD190008D0
:10005000E1190008E5190008E9190008ED19000880
:10006000F1190008F5190008F9190008FD19000830
:10007000011A0008051A0008091A00080D1A0008DC
:10008000111A0008151A0008191A00081D1A00088C
:10009000211A0008251A0008291A00082D1A00083C
:1000A000311A0008351A0008391A00083D1A0008EC
:1000B000411A0008451A0008491A00084D1A00089C
:1000C000511A0008551A0008591A00085D1A00084C
:1000D000611A0008651A0008691A00086D1A0008FC
:1000E000711A0008751A0008791A00087D1A0008AC
:1000F000811A0008851A0008891A00088D1A00085C
:10010000911A00080000000000000000951A000885
:10011000991A00089D1A0008A11A0008A51A0008DB
:10012000A91A0008AD1A0008B11A0008B51A00088B
:10013000B91A0008BD1A0008000000000000000005
:10014000C11A0008C51A0008C91A000800000000FA
:10015000000000000000000000000000000000009F
:10016000CD1A0008D11A0008D51A0008D91A0008BB
:10017000DD1A0008E11A0008E51A0008E91A00086B
:10018000ED1A0008F11A000800000000000000004D
:10019000F51A000838B5DFF82C45206840F001005A
:1001A000206000F0BBFA05462068810706D400F005
:1001B000B5FA401B0328F7D3032032BD2068DFF8CF
:1001C000081520F0F80040F08000206060680840CA
:1001D000606000F0A3FA0546606810F00C0F07D0CD
:1001E00000F09CFA401B41F289318842F4D3E3E7E6
:1001F000DFF8D824DFF8D804DFF8D81410600868D6
:1002000000F092FA08B1012032BD2168DFF8C8047D
:1002100001402160226822F48022226000F07EFAF0
:1002200005462068810105D500F078FA401B0328B7
:10023000F7D3C1E700206060E0622063A168DFF8C7
:100240009C2441F41F01A160A0600121116032BD16
:100250002DE9F843040019D02078DFF86854C1076D
:1002600016D5686800F00C0004280AD0686800F011
:100270000C00082802BF686800F4C030B0F5803F69
:1002800044D100F0F1F918B16068002800F06881ED
:100290002078DFF84C6481071ED5686810F00C0FD9
:1002A0000AD0686800F00C00082802BF686800F4F3
:1002B000C030B0F5004F63D12868C0F3400000287B
:1002C0001CBFE068012840F04B812968206921F0BB
:1002D000F80141EAC00129602178080740F18680D1
:1002E0006069DFF80014002872D001220A6000F073
:1002F00015FA0746686AC0F34000002876D100F07E
:100300000DFAC01B0228F5D903202CE16068B0F576
:10031000803F04D1286840F48030286014E008B998
:1003200028680AE0B0F5A02F286806D140F48020A4
:100330002860296841F4803105E020F4803028608D
:10034000296821F480212960606860B100F0E6F935
:10035000064600F089F900289AD100F0DFF9801BE9
:100360006528F6D3D0E700F0D9F9064600F07CF90D
:1003700000288DD000F0D2F9801B6528F6D3C3E7A2
:10038000E068B0B10121316000F0C8F90746286883
:10039000C0F3400028B900F0C1F9C01B0228F6D90B
:1003A000B2E72868216920F0F80040EAC10028601F
:1003B00092E7306000F0B2F907462868C0F34000C9
:1003C000002889D000F0AAF9C01B0228F5D99BE7C4
:1003D000086000F0A3F90746686AC0F3400028B13E
:1003E00000F09CF9C01B0228F6D98DE72078410760
:1003F00063D5E8690027C10009D4E86940F080505E
:10040000E8610127E86900F0805000900098DFF86B
:10041000D882D8F80000C10513D4D8F8000040F401
:100420008070C8F8000000F079F98146D8F8000023
:10043000C10506D400F072F9A0EB09006528F5D3D8
:1004400062E7A068012808D008B9286A09E00528F1
:10045000286A06D140F004002862286A40F00100B2
:1004600005E0400840002862286A20F00400286265
:1004700041F28938A06868B100F050F98146286AD5
:10048000C0F34000A0B900F049F9A0EB09004045D5
:10049000F5D339E700F042F98146286AC0F34000FD
:1004A00030B100F03BF9A0EB09004045F5D32BE754
:1004B0001FB1E86920F08050E861A069002851D0A0
:1004C000696801F00C01082937D0022828D100F012
:1004D0004CF807462868C0F3406028B100F01EF9C8
:1004E000C01B0228F6D90FE7E86A616A000941EAF1
:1004F0000010E8626868216AE26920F47610084317
:1005000010436860012000F031F804462868C0F309
:10051000406038BB00F002F9001B0228F6D9F3E670
:1005200000F023F804462868C0F34060D0B100F022
:10053000F5F8001B0228F6D9E6E6012810D0686815
:10054000E96AE36900F4C0329A4202BF00F4701015
:10055000226A904202BF01F00F01606A814201D01D
:10056000012000E00020BDE8F2830020306600F0AA
:10057000D5B82DE9F0410400884645D05B4E30687F
:1005800000F00700404502D200F064F83CD120782A
:100590004C4D810705D56A68A06822F0F00202433D
:1005A0006A602178C80727D56168012902D100F067
:1005B0005BF804E00229286803D1C0F3406018B951
:1005C00022E0C0F34000F8B16868800841EA800189
:1005D000696000F0A3F807466868616800F00C00E5
:1005E000B0EB810F08D000F099F8C01B41F28931BF
:1005F0008842F1D303202BE0306800F007008045EB
:1006000004D200F027F801D0012021E02078410732
:1006100005D56A68E06822F4E06202436A602178E6
:10062000080706D56968206921F4605141EAC001D4
:10063000696000F01DF86A682D49244BC2F303126B
:10064000895CC84018602348006800F06DF80020FD
:10065000BDE8F0813168C90848EAC10131603068FD
:1006600000F00700404570472868C0F340407047DD
:1006700020490A6802F00C0008280ED11FA3C2F31B
:100680008340185CD1F8281020A301F00F01595CB9
:100690000F4BB3FBF1F3584370470D4870470B48BD
:1006A000144A006813681449C3F3022206E007489D
:1006B000104A006813681049C3F3C222895CC8401D
:1006C00070470000001002400CC0FFF80C00002032
:1006D00000127A0008000020FFFFF6FEE00442420C
:1006E000000042428004424200700040002002406C
:1006F0002019000804100240C8190008020304056C
:10070000060708090A0B0C0D0E0F10100102030456
:1007100005060708090A0B0C0D0E0F10014840686A
:10072000704700BF0000002038B50D4D0D4B2A78F2
:1007300004464FF47A711868B1FBF2F2B0FBF2F0A4
:1007400000F049F850B9102C08D2002221464FF091
:10075000FF3000F023F8AC60002032BD012032BD34
:10076000000000200C0000200901020002D42448EF
:1007700081547047234B02F00F021A4402F8041C04
:100780007047214B19684FF6FF020002114000F438
:10079000E06008431D4908431860704770B51A4B64
:1007A0001C68C4F302230124C3F10705052D2EBFE5
:1007B0000F2504FA05F56D1E1E1D072E34BF0023FC
:1007C000DB1E2940994004FA03F3BDE870405B1E2C
:1007D0001A401143C8E710B5401EB0F1807F01D325
:1007E000012010BD0A4C60600F214FF0FF30FFF771
:1007F000BBFF0021A16007202060002010BD000089
:1008000000E400E018ED00E00CED00E00000FA0567
:1008100010E000E038B5040009D004F178056968FB
:1008200009B900F01EF800F021F8012801D10120DB
:1008300032BD606A08B100F02AF800F00AF821F031
:100840002A01FFE7816000F01BF8BDE8324000F0AC
:10085000C6B92068416821F49041416020688168F0
:10086000704700202870204600F091BA242169606A
:1008700020680268520852000260204600F06CB8FE
:100880002068016841F00101016020467047204660
:1008900000F042B92DE9F843054605F150060C4633
:1008A000F06A2028174699463ED10CB1380001D194
:1008B00001203AE0002070632121F162FFF72EFF52
:1008C000378080467780A868B0F5805F04BF2869CC
:1008D00000281ABF204600272746044611E00022C0
:1008E000802100F024F8D8B92868002C12BF14F831
:1008F000011B37F8021BC1F3080101857088411EF6
:10090000718043467088CDF800900028E7D100221E
:10091000402100F00CF818B92020F062002004E01B
:100920002020F062032000E00220BDE8F283284688
:1009300000F09EB9286850E8001F024670472868FA
:1009400000F1080151E8001F490800F108034900BF
:1009500043E800100028704770B5044666482268D6
:100960001368A168034020690B4361690343E06990
:100970000B430343136000255168E06821F44051A4
:10098000014351609368A169206A23F430630B43EB
:100990005A4903438A42936059480AD1006800F0DB
:1009A0000300032815D8DFE800F00260744D012130
:1009B00010E054498A4235D1006810F4403066D0C6
:1009C000B0F5803F51D0B0F5003F62D0B0F5403F68
:1009D00038D01021E3694C48B3F5004F4FF6F0765C
:1009E0004FF400425FD141B1012954D0022908D00F
:1009F000042953D0082954D077E0FFF750FE00288F
:100A000074D061684A0802EB4002B2FBF1F0A0F139
:100A10001001B14269D20640C0F34200064320688B
:100A2000C66063E039498A420ED1006810F4402064
:100A30002DD0B0F5802F18D0B0F5002F29D0B0F50B
:100A4000402FC6D10221C5E731498A420FD1006843
:100A500010F440101BD0B0F5801F06D0B0F5001F79
:100A600017D0B0F5401FEDD0B3E70421B2E7294914
:100A70008A42AED1006810F4400008D0B0F5800F73
:100A8000F3D0B0F5000F04D0B0F5400FEBE7002134
:100A9000A0E708219EE7FFF70AFEB0E7FFF7E8FDB1
:100AA000ADE71046ADE741B1012916D0022907D0C4
:100AB000042915D0082916D017E0FFF7F0FDA8B1DA
:100AC000616800EB5100B0FBF1F0A0F11001B14200
:100AD0000BD2226880B2D06008E0FFF7E8FDEEE7B5
:100AE000FFF7C6FDEBE71046EAE701250020A06608
:100AF000E066284670BD0000F369FFEF0038014052
:100B0000301002400044004000127A0000480040CB
:100B1000004C00400050004090F82410CA0706D551
:100B200002685368816A23F400330B43536090F8E2
:100B300024108A0706D502685368C16A23F48033FB
:100B40000B43536090F824104A0706D50268536897
:100B5000016B23F480230B43536090F824100A07A1
:100B600006D502685368416B23F400430B4353607E
:100B700090F82410CA0606D502689368816B23F4A6
:100B800080530B43936090F824108A0606D50268C0
:100B90009368C16B23F400530B43936090F82410C7
:100BA0004A0610D502685368016C23F480130B4386
:100BB0005360036CB3F5801F05D15368416C23F477
:100BC000C0030B43536090F824100A0606D5016851
:100BD0004A68806C22F4002202434A607047F8B5EC
:100BE000054605F178040020E0606FF07E47FFF7CE
:100BF00095FD0646286801680A0711D50097334617
:100C000000224FF40011FFF792FE48B1FFF792FE69
:100C100021F0800100F028F8F8D12020606015E074
:100C2000286801684A0715D50097334600224FF41B
:100C30008001FFF77CFE68B1FFF77CFE00F012F840
:100C4000FAD1FFF77CFEFCD12020A06000212170AA
:100C50000320F2BD20206060A06000202866686646
:100C60002070F2BD21F4907142E800100028704716
:100C70002DE9F041069C05460E4690461F46286821
:100C8000C1693140B1420CBF0120002040452BD149
:100C900014F1010FF3D0FFF741FDC01B844200D3D4
:100CA00014B90320BDE8F081286801684A07E6D539
:100CB000C1690A070DD4C1690A05E0D54FF4006186
:100CC00000F014F805F178002021C16000220270C4
:100CD000E7E7082100F00AF805F178000821C16073
:100CE000002202700120DDE70020DBE701622846D8
:100CF000FFE710B500F011F8FCD100F018F8FCD1B6
:100D0000016E012902D100F01FF8FCD12021C0F8AA
:100D1000801000220266826610BD016851E8002F33
:100D20000B4622F4907243E80021002970470168C5
:100D300001F1080252E8002F520801F108045200A4
:100D400044E8002100297047026852E8002F036838
:100D500022F0100243E800210029704780B52448A2
:100D6000244901604FF4165200230C214260836035
:100D7000C360036141618361C36103624362FFF742
:100D800049FD18B1BDE8014000F0DAB801BD10B569
:100D900086B004461422002101A800F03BF9216826
:100DA0001448814221D11448816841F48021816036
:100DB000816801F4802100910099026842F4802248
:100DC00002604FF44061006800F48020009002222D
:100DD00000980A4801910292002103910322072101
:100DE0000591049201A900F01FF906B010BD0000A2
:100DF0001000002000480040141002400004004889
:100E000038B500F001FA00F05AF800F021FAFFF7C7
:100E1000A5FF00BF4BA1224C012000F06FFA00BFDC
:100E200050A1012000F06AFA55A1012000F066FAF5
:100E30001C4801682160AA29406860601AD100BF7F
:100E400056A1194D00F038F85BA100F035F84B21A0
:100E5000284600F0AFFA154900F02EF862681448F1
:100E6000294600F05FFA00BF5AA100F025F80D48AE
:100E700000F082FA5FA100F01FF8FFF78BF900F095
:100E8000D3F90C48016821F4E0210160064841686B
:100E9000A160E160006880F308888847FEE70000F1
:100EA000B800002000F0040800400008A418000862
:100EB0000098020824ED00E0022000F01FBA00B5FF
:100EC000A5B02822002105A800F0A4F814220021D2
:100ED000684600F09FF8582200210FA800F09AF809
:100EE0001022099201214FF4004208910C92022035
:100EF00005900B904FF4002100220D910E9205A851
:100F0000FFF7A6F908B100F01BF80F2002210090AE
:100F10000191002202920392049201216846FFF798
:100F200028FB08B172B6FEE7042100220F9113924C
:100F30000FA800F069FA08B172B6FEE725B000BD4F
:100F400072B6FEE70D0A3D3D3D3D3D3D3D3D3D3D1B
:100F50003D3D3D3D3D3D3D3D3D3D3D3D3D3D3D0DF1
:100F60000A0000003D3D3D3D3D5553455220424F56
:100F70004F54204C4F414445523D3D3D3D0D0A00EC
:100F80003D3D3D3D3D3D3D3D3D3D3D3D3D3D3D3D91
:100F90003D3D3D3D3D3D3D3D3D0D0A00755F6D6173
:100FA000696E3A2066696E64206E657720696D61AE
:100FB00067650D0A00000000755F6D61696E3A207B
:100FC0006572617365206D61696E20696D61676529
:100FD0000D0A0000755F6D61696E3A20657261737C
:100FE00065206D61726B206E657720696D61676544
:100FF0000D0A0000755F6D61696E3A206A756D209B
:10100000746F206170706C69636174696F6E0D0A32
:101010000000000010B5044610460A46014620466E
:1010200000F00CFB204610BD2DE9F84F00276D4A5B
:101030006D4B4FF00F0805460E4634E06B4CA54251
:1010400014BF072406248C40694944EA0E0441F881
:101050002C40C143946801EA040C7468E40248BF60
:1010600040EA0C0CC2F808C0D46801EA040C7468A9
:10107000A40248BF40EA0C0CC2F80CC0546801EA54
:10108000040C7468A40348BF40EA0C0CC2F804C006
:10109000146801EA040C7168C90348BF40EA0C0CEB
:1010A000C2F800C07F1C316831FA07F000F093806D
:1010B0000124BC4014EA0100F4D04FEA470C03219C
:1010C00001FA0CF16FEA010E716801F00309B9F140
:1010D000010F1CBF01F00301022912D1A968D6F843
:1010E0000C900EEA010109FA0CF949EA0101A96024
:1010F000696821EA04047168C1F30011B9400C4326
:101100006C60B900347904F00304032C21D0EC683E
:10111000D6F808900EEA040409FA0CF949EA040426
:10112000EC60347904F00304022C12D1FC0805EBC6
:10113000840401F01C09D4F820A008FA09FB2AEA6B
:101140000B0AD6F810B00BFA09F949EA0A09C4F8F3
:1011500020902C680EEA040E347904F0030404FA9B
:101160000CF444EA0E042C60746814F4403F99D0E7
:101170001C6844F001041C604FEA970C1C6804F0E2
:101180000104009401F00C01009C194C54F82C400F
:1011900008FA01FE24EA0E0EB5F1904F08BF0024B4
:1011A00018D0144CA54208BF012413D0124CA542FC
:1011B00008BF02240ED0114CA54208BF032409D059
:1011C0000F4CA54208BF042404D00E4CA5427FF466
:1011D00035AF052437E7BDE8F18F0AB1816170476B
:1011E0008162704700040140181002400018004856
:1011F000080001400004004800080048000C0048B6
:10120000001000480014004880B50F48016841F004
:10121000100101600320FFF7B4FA0F20FFF784FAF2
:1012200000F02CFA002002BD80B508484FF0FF31D5
:1012300041600022426001600260C161C26100F051
:1012400035FA002002BD0000002002400C100240D0
:1012500010B586B01422002101A8FFF7DBFE144868
:10126000144C016841F480210160026802F480227C
:1012700000920099026842F4003202600022006885
:1012800000F4003000904FF4805100982046FFF7A2
:10129000A4FF4FF480510191012200210391049198
:1012A000029201A92046FFF7BFFE06B010BD00BFA5
:1012B000141002400004004870B503280C4615467F
:1012C0001BDA164E01224FF480513046FFF785FF9E
:1012D000052000F0EDF94FF47A732A4621461048B4
:1012E000FFF7D8FA052000F0E3F93046BDE870407A
:1012F00000224FF48051FFF770BF70BD38B500F089
:1013000006F882B229462046BDE83840D4E70446B4
:101310000D46284600F0E0B9000000000004004837
:10132000100000202DE9F0410024012512F0030FE8
:101330000646884614D1970800F013FA00F018F812
:101340000120454602E0361D2D1D641CBC4204D21E
:10135000326800F008F80128F5D1054600F011FACE
:101360002846BDE8F08100232946022000F0BEB9DE
:101370004FF47A7000F018BA38B5044600F0F1F96D
:101380000546FFF7F5FF15B9204600F055FAFFF7BF
:10139000EFFF04460648016821F00201016002687F
:1013A00022F04002026000F0ECF9204632BD00005D
:1013B0001020024070B504460D46002604E004EB00
:1013C000C620FFF7D9FF761CAE42F8D370BD30B40B
:1013D000002513E050F8042BD30744BFA9F1010303
:1013E0009A18091F042942F8045BFAD213468C07A5
:1013F00044BF15809B1CC90748BF1D7050F8041BD3
:101400000029E7D130BC70472DE9FC410546002496
:101410002868DFF81C62C10352D5B069C10009D445
:10142000B06940F08050B0610124B06900F0805094
:1014300000900098DFF8FC713868C10511D4386855
:1014400040F480703860FFF769F980463868C1055C
:1014500007D4FFF763F9A0EB08006528F6D3032053
:10146000E3E0F06910F440701EBF696801F4407158
:1014700088421AD0DFF8C011F06901220A60002307
:1014800020F440700B60F061C0070ED5FFF746F9FD
:101490000746F069C0F3400038B9FFF73FF9C01BB9
:1014A00041F289318842F4D3D9E7F269686822F4BD
:1014B00040720243F2611CB1B06920F08050B0610B
:1014C0002878C10705D5F26AA868920840EA820226
:1014D000F2622978880705D5F16AE86821F440317D
:1014E0000143F1622978480705D5F16A286921F49A
:1014F00040210143F1622978880605D5F16AE8693F
:1015000021F010010143F1622968880305D5316893
:10151000686D21F48001014331602978480605D5C2
:10152000F16A286A21F020010143F1622968480329
:1015300005D5F16A686A21F040010143F16229781A
:10154000080705D5F16A686921F440110143F16289
:101550002978C80605D5F16AA86921F4400101433C
:10156000F1622968880505D53168286B21F40001EE
:10157000014331602978080605D5B16AA86A21F4CB
:10158000F8710143B1622968C80505D5B16AE86AF6
:1015900021F478510143B1622968C80405D5F16A84
:1015A000686B21F480710143F1622968880405D5D4
:1015B000F16A286C21F400710143F1622968C802C4
:1015C00005D5F16AA86B21F080710143F1622968A9
:1015D000880205D5F16AE86B21F000710143F162E0
:1015E0002968480205D5F16A686C21F480610143DD
:1015F000F1622968080205D5F16AA86C21F400613E
:101600000143F1622968C80105D5F16AE86C21F44B
:1016100000510143F1622968880105D5F16A286DFE
:1016200021F400410143F1620020BDE8F681000091
:101630000410024000700040400442424018491C1F
:101640001CBFB1F1010100F8012DF9D1704730B490
:101650000EE00268436802440830DC0744BFA9F189
:101660000104E31852F8045B43F8045B091FF9D145
:1016700050F8041B0029ECD130BC70470A4881B0F7
:10168000016841F001010160026802F0010200926C
:101690000099426842F080524260406800F08050F9
:1016A0000090009801B07047181002407047000089
:1016B00038B50446FFF732F814F1010F054602D0A1
:1016C000044801786418FFF729F8401BA042FAD3B8
:1016D00031BD00BF0000002000F1010310F8011B24
:1016E00011B110F8011BFBE7C01A70472DE9F84F44
:1016F0004B4E0746307E01288B461446994608BF5C
:1017000002202CD0012030764CF2503A504600F0A6
:101710004BF8010021D1012F08BF012103D0022F76
:101720000CBF0221042100253E4F884600E06D1CBD
:10173000454512DA204649462A0100F08FF881B269
:101740000BEB450000F025F8504600F02DF8396805
:101750004908490002003960E9D000213176BDE82E
:10176000F28F3249CA680020130600D4704710B5C2
:101770002F4A304C0A600C60C9680A0648BF012035
:1017800010BD2848016841F08001FFE7016000209A
:10179000704710B5224B0022DA61224A146844F0E7
:1017A00001041460018010BD70B50446FEF7B6FF59
:1017B00006461D4D2868C1070AD514F1010FF9D05E
:1017C00024B1FEF7ABFF801B8442F3D2032070BD2F
:1017D0002868810644BF202028602968C80602D4F2
:1017E0002968480703D500F004F8012070BD0020E7
:1017F00070BD10B50C4A0A4913680020DC0604D5F8
:10180000C86940F00200C861102013685C0705D564
:10181000CB6943F00103CB6140F00400106010BDC0
:1018200098000020102002400C20024004200240BA
:1018300023016745AB89EFCD064A0021D1610649F6
:101840000B6843F002030B604860086840F04000FA
:10185000086070479800002010200240D2B2203A61
:1018600022BF21FA02F0002170472032D141D0403E
:1018700048409140D14048407047000010B50749AA
:1018800079441831064C7C44163404E00A68081D7B
:10189000114488470146A142F8D110BD5000000014
:1018A00070000000755F6D61696E3A20636F70793A
:1018B000206E657720696D61676520746F206D61AA
:1018C000696E0D0A000000004EF68851CEF200014C
:1018D000086840F470000860BFF34F8FBFF36F8F4C
:1018E0004FF00070E1EE100A70470000E3FAFFFFCE
:1018F000B8000000100000200000000053FDFFFFB2
:1019000010000000A80000000000002000000000FF
:101910000248016841F470010160704788ED00E001
:10192000000000000000000001020304060708098F
:1019300000F00DF8002801D0FFF7A0FFAFF3008002
:101940000020AFF30080FFF75BFA00F002F80120FF
:10195000704700F001B800000746384600F002F872
:10196000FBE7000080B5AFF30080024A11001820A9
:10197000ABBEFBE726000200FEE7FEE7FEE7FEE760
:10198000FEE770477047704700F000B802484168B2
:1019900002788A18426070470000002001488047A2
:1019A0000148004711190008BD1900080100000096
:1019B000000000001000000000127A00AFF3008069
:1019C000FFF782FFFFF7B4FF0000000001020304ED
:1019D000FFF7FEBFFFF7FEBFFFF7FEBFFFF7FEBF3B
:1019E000FFF7FEBFFFF7FEBFFFF7FEBFFFF7FEBF2B
:1019F000FFF7FEBFFFF7FEBFFFF7FEBFFFF7FEBF1B
:101A0000FFF7FEBFFFF7FEBFFFF7FEBFFFF7FEBF0A
:101A1000FFF7FEBFFFF7FEBFFFF7FEBFFFF7FEBFFA
:101A2000FFF7FEBFFFF7FEBFFFF7FEBFFFF7FEBFEA
:101A3000FFF7FEBFFFF7FEBFFFF7FEBFFFF7FEBFDA
:101A4000FFF7FEBFFFF7FEBFFFF7FEBFFFF7FEBFCA
:101A5000FFF7FEBFFFF7FEBFFFF7FEBFFFF7FEBFBA
:101A6000FFF7FEBFFFF7FEBFFFF7FEBFFFF7FEBFAA
:101A7000FFF7FEBFFFF7FEBFFFF7FEBFFFF7FEBF9A
:101A8000FFF7FEBFFFF7FEBFFFF7FEBFFFF7FEBF8A
:101A9000FFF7FEBFFFF7FEBFFFF7FEBFFFF7FEBF7A
:101AA000FFF7FEBFFFF7FEBFFFF7FEBFFFF7FEBF6A
:101AB000FFF7FEBFFFF7FEBFFFF7FEBFFFF7FEBF5A
:101AC000FFF7FEBFFFF7FEBFFFF7FEBFFFF7FEBF4A
:101AD000FFF7FEBFFFF7FEBFFFF7FEBFFFF7FEBF3A
:101AE000FFF7FEBFFFF7FEBFFFF7FEBFFFF7FEBF2A
:081AF000FFF7FEBFFFF7FEBF88
:04000005080019BD19
:00000001FF
