:020000040800F2
:1000000080040020491C0008211C0008231C000853
:10001000251C0008271C0008291C000800000000FF
:100020000000000000000000000000002B1C000881
:100030002D1C0008000000002F1C0008311C0008C7
:10004000851C0008891C00088D1C0008911C0008F4
:10005000951C0008991C00089D1C0008A11C0008A4
:10006000A51C0008A91C0008AD1C0008B11C000854
:10007000B51C0008B91C0008BD1C0008C11C000804
:10008000C51C0008C91C0008CD1C0008D11C0008B4
:10009000D51C0008D91C0008DD1C0008E11C000864
:1000A00000000000E51C0008E91C0008ED1C000829
:1000B000F11C0008F51C0008F91C0008FD1C0008D4
:1000C000011D0008051D0008091D00080D1D000880
:1000D000111D0008151D0008191D00081D1D000830
:1000E000211D0008251D0008291D00082D1D0008E0
:1000F000311D000800000000351D0008391D0008F2
:1001000000000000000000003D1D0008411D000827
:10011000451D0008491D00084D1D00080000000095
:10012000511D00082DE9F041DFF8F008016831F0B9
:10013000FF2151F430410160DFF8E458286850F4A1
:100140008070286000F094FC06002868800506D4C2
:1001500000F08EFC801B0328F7D303204BE0DFF870
:10016000C4783868800880003860386810F00C0F58
:1001700008D000F07DFC801B41F289318842F4D325
:10018000032038E0DFF8A008DFF8A0180860DFF8E7
:10019000A008006800F072FC04002000C0B2002833
:1001A00002D02000C0B226E02968DFF888080140AC
:1001B0002960286830F48020286000F059FC8046CF
:1001C0002868800107D500F053FCB0EB0800032835
:1001D000F6D303200FE000203860DFF85C08002130
:1001E00001605FF47F010160DFF85008016851F0A1
:1001F000807101600020BDE8F0812DE9FE4F040010
:10020000002C01D1012089E2DFF81898D9F80050BC
:1002100015F00C05D9F8006016F480362078C00778
:1002200061D5082D04D00C2D0CD1B6F5803F09D135
:10023000DFF8EC070068800355D56068002852D1CC
:1002400001206BE26068012806D1DFF8D40701685D
:1002500051F48031016025E0606800280AD1DFF8A0
:10026000C007016831F480310160016831F48021F8
:10027000016017E0606805280AD1DFF8A40701686B
:1002800051F480210160016851F48031016009E07E
:10029000DFF88C07016831F480310160016831F4C6
:1002A00080210160606800280ED000F0E1FB0700AB
:1002B000DFF86C070068800315D400F0D9FBC01B81
:1002C0006528F5D3032029E200F0D2FB0700DFF810
:1002D00050070068800306D500F0CAFBC01B6528E4
:1002E000F5D303201AE2207880074CD5042D03D0E3
:1002F0000C2D15D1002E13D1DFF8240700688007DC
:1003000004D5E068012801D0012007E2DFF80C07DE
:10031000016831F4F851226951EA0221016032E0AA
:10032000E06800281CD00120DFF81417086000F0F6
:100330009FFB0700DFF8E8060068800706D400F09E
:1003400097FBC01B0328F5D30320E7E1DFF8CC06B9
:10035000016831F4F851226951EA0221016012E08A
:100360000020DFF8DC16086000F082FB0700DFF8F1
:10037000B0060068800706D500F07AFBC01B032892
:10038000F5D30320CAE12078C00640F1A080002DFB
:1003900064D1DFF88C060068800504D5A0690028C8
:1003A00001D10120BAE1DFF87486D8F8000010F41A
:1003B0006040216A884218D2206A00F0ECFA0028D6
:1003C00001D00120AAE1D8F8001031F46041206A80
:1003D0000143C8F80010D8F8000020F07F40E16920
:1003E00050EA0160C8F8000017E0D8F8001031F4B6
:1003F0006041206A0143C8F80010D8F8000020F0DE
:100400007F40E16950EA0160C8F80000206A00F00E
:10041000C2FA002801D0012080E10121206A400BAE
:10042000401C81404FF400404143DFF81806D9F8E2
:100430000020C2F30312805CC140DFF8F0050160C8
:10044000DFF8EC05006800F019FB8DF800009DF85E
:10045000000000283BD09DF800005FE1A069002863
:1004600022D00120DFF8E015086000F001FB070052
:10047000DFF8AC050068800506D400F0F9FAC01B6F
:100480000328F5D3032049E1DFF890150A6832F418
:100490006042206A02430A60086820F07F40E269F7
:1004A00050EA0260086012E00020DFF89C15086046
:1004B00000F0DEFA0700DFF868050068800506D561
:1004C00000F0D6FAC01B0328F5D3032026E12078DC
:1004D000000728D56069002812D00120DFF86C15CC
:1004E000086000F0C5FA0700DFF8500500688007D3
:1004F00019D400F0BDFAC01B0328F5D303200DE189
:100500000020DFF84815086000F0B2FA0700DFF8B5
:100510002C050068800706D500F0AAFAC01B032846
:10052000F5D30320FAE02078400740F18F805FF098
:100530000008DFF81CA5DAF80000C0000DD4DAF8D6
:10054000000050F08050CAF80000DAF8000010F007
:1005500080500190019801208046DFF8F8B4DBF864
:100560000000C00513D4DBF8000050F48070CBF815
:10057000000000F07DFA0700DBF80000C00506D49B
:1005800000F076FAC01B6528F6D30320C6E0A06809
:10059000012806D1DFF8A404016851F480710160DC
:1005A00025E0A06800280AD1DFF89004016831F442
:1005B00080710160016831F48061016017E0A0681A
:1005C00005280AD1DFF87404016851F480610160E4
:1005D000016851F48071016009E0DFF8600401688E
:1005E00031F480710160016831F480610160A068BC
:1005F000002810D000F03CFA0700DFF84004006843
:10060000800519D400F034FAC01B41F289318842C8
:10061000F3D3032082E000F02BFA0700DFF81C047C
:100620000068800508D500F023FAC01B41F289312B
:100630008842F3D3032071E04046C0B2012805D1BF
:10064000DAF8000030F08050CAF80000606A002834
:1006500063D00C2D48D0606A022832D1DFF8F8B39D
:100660000020CBF8000000F003FA8046DFF8B0A3CA
:10067000DAF80000800107D500F0FAF9B0EB0800C5
:100680000328F3D3032049E0D9F8001031F47D01A9
:10069000A06A0143E06A0143206B0143C9F80010DE
:1006A0000120CBF8000000F0E3F90700DAF80000C1
:1006B000800132D400F0DCF9C01B0328F6D30320FC
:1006C0002CE00020DFF89013086000F0D1F907005B
:1006D000DFF84C03006880011FD500F0C9F9C01B8A
:1006E0000328F5D3032019E0606A012801D1012015
:1006F00014E0D9F80000060016F48030A16A8842A0
:1007000009D116F47010E16A884204D116F4400051
:10071000216B884201D0012000E00020BDE8FE8F5F
:100720002DE9F04104000D00002C01D10120D8E09A
:10073000DFF82873386810F00100A84211D2012DAB
:1007400003D1386850F00400386038684008400031
:1007500028433860386810F00100A84201D0012019
:10076000BFE02078800707D5DFF8B8120A6832F0BA
:10077000F002A06802430A602078C00775D560685F
:10078000022806D1DFF89802006880031CD40120FB
:10079000A7E06068032806D1DFF8840200688001C2
:1007A00012D401209DE06068012806D1DFF87002B4
:1007B0000068800708D4012093E0DFF86402006835
:1007C000800501D401208CE0DFF85882D8F80010B1
:1007D0008908890060680143C8F8001000F048F9F2
:1007E0000600606802280ED1D8F8000010F00C0056
:1007F00008283AD000F03CF9801B41F28931884248
:10080000F2D303206DE0606803280ED1D8F8000011
:1008100010F00C000C2828D000F02AF9801B41F2BF
:1008200089318842F2D303205BE0606801280ED151
:10083000D8F8000010F00C00042816D000F018F9C9
:10084000801B41F289318842F2D3032049E0D8F875
:10085000000010F00C0F08D000F00AF9801B41F2E4
:1008600089318842F3D303203BE0386810F001005F
:10087000854211D2012D03D1386850F00400386050
:1008800038684008400028433860386810F001009C
:10089000A84201D0012024E02078400706D5614914
:1008A0000A6832F4E062E06802430A6020780007D8
:1008B00007D55C48016831F46051226951EAC201F0
:1008C000016000F010F85F49564A1268C2F3031243
:1008D000895CC840554908605548006800F0CEF86A
:1008E000C0B2BDE8F0812DE9F0414E48066816F02F
:1008F0000C01042904D0082904D00C2904D022E0DA
:1009000057482DE057482BE05749C6F38342895C8E
:100910000F00C6F38151491C0C000068C00308D5C4
:100920005048A0FB07012200002300F0D7F8050083
:1009300007E04B48A0FB07012200002300F0CEF89F
:10094000050028000CE035480068C0F342308046BE
:10095000012118F1010011FA00F04FF40041484361
:10096000BDE8F08131480068704780B5FFF7FAFFB5
:100970003E492C4A1268C2F30222895CC84002BD7B
:1009800080B5FFF7EFFF3949264A1268C2F3C22249
:10099000895CC84002BD18B40100002321480068EA
:1009A00010F0F00F23D12A480468E40005D5294847
:1009B000006810F4C050020011E0046854F0805444
:1009C0000460046814F080540094009C214C246856
:1009D00014F4C0542200046834F080540460B2F56A
:1009E000C05F04D1B1F5404F01D101200300012BBC
:1009F00004D11A48046854F00404046017480468D9
:100A0000640864001C430460006810F00100984210
:100A100001D0012000E0002012BC704704380240E1
:100A2000003802400838024068FF1F00080000201C
:100A300000000020FEFFFEEE0C3802403438024079
:100A400000004742381C0008200047428006474209
:100A5000243802400070004060004742003C0240E1
:100A60000024F40000366E01581C00087C1C0008AD
:100A700001480068704700BF7C00002038B50400C2
:100A800000251349086800281DD04FF47A700968C2
:100A9000B0FBF1F00F490968B1FBF0F000F0B5F9D7
:100AA00000280DD1102C08D2002221005FF0FF3069
:100AB00000F096F90848046007E00120050004E012
:100AC0000120050001E0012005002800C0B232BD70
:100AD000040000200800002000000020BBBBE1B1A2
:100AE000B2F5803F80F07E80022A1ED98C46B1FB91
:100AF000F2F102FB11C31B0443EA1043B3FBF2FC07
:100B000002FB1C3380B240EA0343B3FBF2F002FB6A
:100B1000103240EA0C4000237047022A05D984466F
:100B2000B0FBF2F002FB10C270474AB105D100F0F1
:100B3000010249085FEA3000704700220023704735
:100B400000F078B90B0002000021002070479042AD
:100B500071EB030CF6D3B3F5803F2FD2F0B5B3FAA7
:100B600083F7B1FA81F4A7F10F0E3D1B5340CEF18C
:100B7000200602FA0EF2F3415340B5F10F0746D8B2
:100B80000F3C2C444140C4F12006A040F1414140BB
:100B9000B1FBF3F603FB1611A2FB0645001BA941AE
:100BA00002D2761E8018594180EA010221FA0EF322
:100BB00062FA0EF200215A403046F0BD30B4B1FB6B
:100BC000F3FC03FB1C11A2FB0C45001BA94103D243
:100BD000ACF1010C8018594130BC02460B4660460E
:100BE00000217047B2F1807F65D3F0B5B2FA82F789
:100BF000B1FA81F4C7F10F063D1B22FA06F307F1A3
:100C0000110EF24120355A40B5F10F07B8D94140D5
:100C1000C4F12006A040F1414140B1FBF3FC03FBCD
:100C20001C11A2FB0C45001BA94103D2BCF1010C15
:100C3000801859410F2F12D30F3FC90341EA504189
:100C4000B1FBF3F603FB1611A2FB0645D4EBC03053
:100C5000A94102D2761E8018594146EACC3C07B31E
:100C60004140C7F12006B840F1414140B1FBF3F6E5
:100C700003FB1611A2FB0645001BA94102D2761EFA
:100C80008018594180EA010221FA0EF3C7F12004CD
:100C900062FA0EF20CFA07F05A402CFA04F13043D3
:100CA000F0BD80EA010221FA0EF3002162FA0EF291
:100CB00060465A40F0BD8C46B1FBF2F102FB11C315
:100CC0001B0243EA1063B3FBF2FC02FB1C331B0262
:100CD0004CEA002043EA1063B3FBF2FC02FB1C3336
:100CE0001B024CEA002043EA1063B3FBF2FC02FB58
:100CF0001C331B024CEA002043EA1063B3FBF2FCF6
:100D000002FB1C324CEA00200023704710B410F0A4
:100D10000703DFF8044122684FF6FF010A40DFF8BD
:100D2000FC1051EA03210A43226010BC70473A4884
:100D30000068C0F30220704710B4020052B2002ACB
:100D400005D40A01364B040064B21A5508E00A01C2
:100D5000344B040064B214F00F04234403F8042C51
:100D600010BC704770B4030013F00704D4F10700FF
:100D7000052801D3042001E0D4F10700251D072D2B
:100D800001D2002500E0E51E012616FA00F0401E03
:100D90000140A94016FA05F56D1E2A4011430800CE
:100DA00070BC704710B50400601EB0F1807F01D3A5
:100DB00001200EE0601E1C4908600F215FF0FF302B
:100DC000FFF7BAFF0020194908600720184908609A
:100DD000002010BD10B504002000FFF797FF10BDE4
:100DE0002DE9F04104000D0016000027FFF79FFFDA
:100DF0008046320029004046FFF7B4FF0100200082
:100E000040B2FFF799FFBDE8F08110B50400200063
:100E1000FFF7C8FF10BD00000CED00E00000FA0570
:100E200000E400E018ED00E014E000E018E000E06D
:100E300010E000E0704730B4002513E050F8042BB8
:100E4000D30744BFA9F101039A18091F042942F8E6
:100E5000045BFAD213468C0744BF15809B1CC9075C
:100E600048BF1D7050F8041B0029E7D130BC704703
:100E700010B50400002C01D1012035E0A069002844
:100E8000FFD194F84100002805D1002084F84000EB
:100E9000200000F0A7F9242084F841002068C068F1
:100EA00030F400502168C860200000F0C6F82068C7
:100EB000006930F49040216808612068406930F092
:100EC0002A00216848612068C06850F400502168F9
:100ED000C86000206064202084F84100202084F84D
:100EE000420000206063002010BD2DE9FC47060091
:100EF0000D0017009846002496F84100202851D193
:100F0000002D03D0380080B2002801D101204AE032
:100F100000207064212086F84100FFF7A9FD81467A
:100F2000B784F784B068B0F5805F05D130690028D8
:100F300002D10024AA4602E02C005FF0000AF08CE7
:100F400000281ED0CDF800804B46002280213000C2
:100F500000F02BF8002801D0032024E0002C08D159
:100F6000BAF80000C005C00D316848601AF1020AE5
:100F700003E0207831684860641CF08C401EF084E7
:100F8000DDE7CDF800804B4600224021300000F024
:100F90000CF8002801D0032005E0202086F841004D
:100FA000002000E00220BDE8F6872DE9F0410500B1
:100FB0000E0017009846069C286800683040B04232
:100FC00001D1012000E000203900C9B2884231D1AE
:100FD00014F1010FF0D0002C05D0FFF749FDB0EB64
:100FE00008008442E8D228680C3050E8000F30F442
:100FF000D0700100286810F10C0242E800100028AF
:10100000F1D12868143050E8000F4008400001007A
:10101000286810F1140242E800100028F1D12020C5
:1010200085F84100202085F84200002085F8400026
:10103000032000E00020BDE8F081F8B5040020683E
:10104000016931F44051E068014320680161A568FD
:101050002069054360690543E06905432068C1686C
:101060005148014029432068C1602068416931F43A
:101070004071A06901432068416120684B49884262
:1010800002D1FFF77DFC01E0FFF76FFCE169B1F5EC
:10109000004F44D16421192202FB00F366687600F8
:1010A000B3FBF6F36426B3FBF6F302FB00F66768C6
:1010B0007F00B6FBF7F602FB00F7D4F804C05FEA46
:1010C0004C0CB7FBFCF75FF0640CB7FBFCF701FBC3
:1010D0001766F60032366427B6FBF7F6760016F48C
:1010E000F87616EB031602FB00F367687F00B3FB8C
:1010F000F7F302FB00F267687F00B2FBF7F26427A8
:10110000B2FBF7F201FB1231C90032316422B1FBAC
:10111000F2F111F007018E1921688E6042E064211E
:10112000192202FB00F36668B600B3FBF6F36426EF
:10113000B3FBF6F302FB00F66768BF00B6FBF7F6F9
:1011400002FB00F7D4F804C05FEA8C0CB7FBFCF795
:101150005FF0640CB7FBFCF701FB17663601323613
:101160006427B6FBF7F616F0F00616EB031602FB43
:1011700000F36768BF00B3FBF7F302FB00F2676898
:10118000BF00B2FBF7F26427B2FBF7F201FB1231AA
:10119000090132316422B1FBF2F111F00F018E1915
:1011A00021688E60F1BD0000F369FFFF0038014047
:1011B00080B52548254901605FF4E1314160002197
:1011C00081600021C160002101610C214161002189
:1011D00081610021C161FFF74BFE002801D000F0C2
:1011E000FBF801BD10B586B004001422002101A84F
:1011F00000F0F4F820681549884222D114480168AB
:1012000051F480210160006810F480200090009863
:101210001048016851F004010160006810F00400FA
:10122000009000984FF4406001900220029000204E
:101230000390032004900720059001A9064800F0C0
:10124000D7F806B010BD00000C0000200048004098
:10125000243802401C3802400008024038B500F033
:10126000C1F900F054F800F0E9F9FFF7A1FF474990
:10127000012000F00CFA4649012000F008FA454927
:10128000012000F004FA4448444909680160444CD4
:101290004449096821600068AA281DD142490220FA
:1012A00000F0F5F94149022000F0F1F9404D4FF40A
:1012B000D471280000F05EFA3E49022000F0E7F900
:1012C000226829003C4800F0F3F93C49022000F074
:1012D000DEF9324800F027FA3949022000F0D7F948
:1012E000FEF720FF00F090F93648016831F4E02164
:1012F0000160354835490968016035490068086072
:101300002B48006880F3088808688047FEE780B5AE
:1013100092B03422002105A800F060F814220021C8
:10132000684600F05BF82B48016831F4C05151F475
:1013300000610160022005900120089010200990B2
:1013400002200E9000200F905FF4802010905FF438
:101350008000119005A8FEF750FF002801D000F092
:101360003BF80F2000900320019000200290002005
:1013700003900020049001216846FFF7D1F900286E
:1013800001D000F029F813B000BD0000F01A0008E9
:10139000981B0008B41B00086C000020008603089E
:1013A0007000002004860308D01B0008EC1B000816
:1013B000002C0008A81A000800D80108101B00081B
:1013C000301B000824ED00E074000020042C00080D
:1013D000780000200070004072B6FEE710B50446A9
:1013E00010460A460146204600F0EAF9204610BDA4
:1013F000F8B402000B000024002000251968E14029
:10140000002900F0D78001261F6816FA04F10F406A
:101410003800002800F0CC80197911F0030101296F
:1014200004D0197911F0030102291DD197685FF0EA
:10143000030C2100C9B249001CFA01FC37EA0C0771
:10144000D3F80CC02100C9B249001CFA01FC5CEAC7
:10145000070797605168A640B1435E68C6F300165F
:10146000A64031430D005560197911F0030103299D
:101470000ED0D66803272100C9B249008F40BE4371
:101480009F682100C9B249008F403E433500D560B6
:10149000197911F00301022918D12100C90802EBC2
:1014A00081010E6A0F2714F00701C9B289008F402D
:1014B000BE431F6914F00701C9B289008F403E4343
:1014C00035002100C90802EB81010D62166803276F
:1014D0002100C9B249008F40BE431F7917F00307AE
:1014E0002100C9B249008F403E433500156059685C
:1014F00011F4403F5CD030490E6856F001060E6092
:10150000096811F00101009100992C4F2100890810
:1015100057F821605FF00F0C14F00301C9B2890085
:101520001CFA01FC36EA0C0625498A4201D1002545
:1015300014E024498A4201D101250FE022498A4260
:1015400001D102250AE021498A4201D1032505E0A3
:101550001F498A4201D1042500E0052514F003014A
:10156000C9B289008D402E432100890847F82160C7
:10157000184D296881435F68FF0200D50143296047
:10158000154E356885435F68BF0200D50543356059
:10159000124E316881435F68BF0300D5014331605B
:1015A0000F4E356885435F68FF0300D505433560FE
:1015B000641C23E7F1BC704720380240080001405A
:1015C000000002400004024000080240000C0240FB
:1015D00000100240080401400C04014004040140D2
:1015E0000004014010B500240320FFF7F3FB0F2097
:1015F000FFF744FA002802D00120040001E000F0C7
:1016000013F92000C0B210BD80B509485FF0FF316A
:101610000160002202600748016000220260064863
:1016200001600021016000F023F9002002BD0000EC
:1016300018380240143802401038024081B00A487D
:10164000016851F004010160016811F0040100918A
:101650000099016851F001010160006810F001007B
:101660000090009801B070471C38024070B504002B
:101670000D0016002000C0B2032807DA4FF47A7379
:10168000320092B229000948FFF72FFC70BD38B52F
:1016900004000D00280000F0EDF8020092B22900CD
:1016A0002000C0B2FFF7E2FF31BD00000C000020B7
:1016B0002DE9F14F82B00C00150000260027002014
:1016C0000021CDE900015FF000085FF00109DDF8BD
:1016D00008A0A34615F0030F21D1280080080700B9
:1016E00000F00EF94FF47A7000F02EF90020060099
:1016F000BE4212D2DAF80000804642465946022025
:1017000000F0D4F881464846C0B2012805D01AF14D
:10171000040A1BF1040B761CEAE700F00EF94846B8
:10172000C0B2BDE8FE8F70B50400012500F0E8F8F6
:1017300006004FF47A7000F007F93000C0B20028BC
:1017400002D1200000F086F94FF47A7000F0FCF826
:1017500005000748016831F400710160016831F04B
:101760000801016000F0E9F82800C0B270BD000077
:10177000043C024070B504000D000026AE4207D2C2
:101780004FF4807000FB0640FFF7CDFF761CF5E7B5
:1017900070BD30B40EE00268436802440830DC07D4
:1017A00044BFA9F10104E31852F8045B43F8045B59
:1017B000091FF9D150F8041B0029ECD130BC704747
:1017C00062F30F2262F31F42401810F0030308D0A7
:1017D000C91A1FD3DB0748BF00F8012D28BF20F826
:1017E000022D130030B414461546103928BF20E9E5
:1017F0003C00FAD8490728BF20E90C0048BF40F850
:10180000042D890028BF20F8022D48BF00F8012DC3
:1018100030BC7047C91818BF00F8012DCB0728BF8E
:1018200000F8012D7047000081B00F48016851F0A9
:1018300000410160016811F00041009100990B49DD
:101840000A6852F001020A60096811F00101009172
:101850000099016851F080510160006810F08050DB
:101860000090009801B070472438024020380240B0
:101870007047000000F10103810704D010F8011B3C
:10188000820781B1FAD10268A2F10131914311F0CE
:10189000803104BF50F8042FF6E709BAB1FA81F19C
:1018A00000EBD100401CC01A704700002DE9F04742
:1018B00004000D0016000127DFF8748198F810006D
:1018C000012801D1022019E0012088F810004CF213
:1018D0005039484600F038F882465046C0B20028D9
:1018E00007D10020C8F814002E60484600F02CF8FC
:1018F0008246002088F810005046C0B2BDE8F0874C
:101900004C480168890716D50168C90709D54B49B4
:101910004B4A0A604B4A0A600168C90701D5012099
:101920000AE04949494A0A60494A0A600068800752
:1019300001D5012000E0002070473E48016851F0C9
:10194000020101600020704738B50400FFF790F8ED
:10195000050039480168C9070BD514F1010FF8D00B
:10196000002C04D0FFF784F8401B8442F1D20320FE
:101970001BE00168890701D5022101600168C905E2
:101980000ED4016809050BD40168890408D40168E4
:10199000C90405D40168490502D40068800503D54F
:1019A00000F004F8012000E0002032BD00212248B0
:1019B0000268D20506D51E4A536953F002035361EB
:1019C00051F480710268920506D5194A536953F0A3
:1019D0000103536151F400710268120506D5144ADF
:1019E000536953F00403536151F400610268920497
:1019F00006D50F4A536953F01003536151F4005157
:101A00000268D20406D50A4A536953F02003536191
:101A100051F480510268520506D5054A536953F0C6
:101A20000803536151F480610160704700000000B9
:101A300054000020043C0240183C02400C3C024090
:101A4000EFCDAB8905040302103C0240BFAE9D8C74
:101A5000161514130021084A516108490A6852F406
:101A600000720A600A6852F008020A600021020A45
:101A7000120211607047000054000020043C024034
:101A800010B5074979441831064C7C44163404E0FB
:101A90000A68081D114488470146A142F8D110BDCB
:101AA0002C0000004C000000755F6D61696E3A20EB
:101AB000636F7079206E657720696D61676520744A
:101AC0006F206D61696E0D0A000000006BF3FFFF6F
:101AD000740000000C00002000000000B7FCFFFFB5
:101AE0000C0000008C01000000000020000000003D
:101AF0000D0A3D3D3D3D3D3D3D3D3D3D3D3D3D3D79
:101B00003D3D3D3D3D3D3D3D3D3D3D0D0A0000001F
:101B1000755F6D61696E3A206572617365206D61F4
:101B2000726B206E657720696D6167650D0A000034
:101B3000755F6D61696E3A206A756D20746F206102
:101B400070706C69636174696F6E0D0A000000004B
:101B500000F00DF8002801D0FFF792FFAFF30080EE
:101B60000020AFF30080FFF779FB00F002F80120BE
:101B7000704700F001B800000746384600F002F850
:101B8000FBE7000080B5AFF30080024A1100182087
:101B9000ABBEFBE7260002003D3D3D3D3D555345B4
:101BA0005220424F4F54204C4F414445523D3D3D01
:101BB0003D0D0A003D3D3D3D3D3D3D3D3D3D3D3DF5
:101BC0003D3D3D3D3D3D3D3D3D3D3D3D3D0D0A00E5
:101BD000755F6D61696E3A2066696E64206E657727
:101BE00020696D6167650D0A00000000755F6D6119
:101BF000696E3A206572617365206D61696E206956
:101C00006D6167650D0A000003490A6803480068B2
:101C100082180A60704700BF7C000020040000208A
:101C2000FEE7FEE7FEE7FEE7FEE770477047704716
:101C300080B5FFF7E9FF01BD0000000000000000D3
:101C400001020304060708090148804701480047CC
:101C5000551D0008651C0008030406080C10182018
:101C600030000000AFF30080AFF30080FFF770FF9B
:101C7000100000000100000068FF1F0000000000CD
:101C800001020304FFF7FEBFFFF7FEBFFFF7FEBF31
:101C9000FFF7FEBFFFF7FEBFFFF7FEBFFFF7FEBF78
:101CA000FFF7FEBFFFF7FEBFFFF7FEBFFFF7FEBF68
:101CB000FFF7FEBFFFF7FEBFFFF7FEBFFFF7FEBF58
:101CC000FFF7FEBFFFF7FEBFFFF7FEBFFFF7FEBF48
:101CD000FFF7FEBFFFF7FEBFFFF7FEBFFFF7FEBF38
:101CE000FFF7FEBFFFF7FEBFFFF7FEBFFFF7FEBF28
:101CF000FFF7FEBFFFF7FEBFFFF7FEBFFFF7FEBF18
:101D0000FFF7FEBFFFF7FEBFFFF7FEBFFFF7FEBF07
:101D1000FFF7FEBFFFF7FEBFFFF7FEBFFFF7FEBFF7
:101D2000FFF7FEBFFFF7FEBFFFF7FEBFFFF7FEBFE7
:101D3000FFF7FEBFFFF7FEBFFFF7FEBFFFF7FEBFD7
:101D4000FFF7FEBFFFF7FEBFFFF7FEBFFFF7FEBFC7
:061D5000FFF7FEBF704723
:0400000508001C656E
:00000001FF
