:020000040800F2
:10000000B0370020A5FE000845F5000847F50008B8
:1000100049F500084BF500084DF500080000000008
:100020000000000000000000000000004FF5000884
:1000300051F500080000000053F5000855F50008D0
:10004000BD010108C1010108C5010108C90101087C
:10005000CD010108D1010108D5010108D90101082C
:10006000DD010108E1010108E501010865F500086D
:10007000E9010108ED010108F10101086FF500082F
:10008000F5010108F9010108FD010108010201085B
:1000900079F5000805020108090201080D020108AE
:1000A00000000000110201081502010819020108F0
:1000B00083F500081D02010821020108250201083C
:1000C000290201082D020108310201083502010848
:1000D000390201088DF500083D02010841020108BE
:1000E0004502010897F50008490201084D02010880
:1000F00051020108000000005502010859020108E0
:1001000000000000000000005D020108610201081B
:1001100065020108690201086D0201080000000083
:100120007102010810B5040001F027FC0121DFF87D
:10013000940801F0ADFF012010BD10B50400DFF8F8
:100140008808007800280AD001280BD002280CD09B
:1001500004280DD005280ED006280FD011E001F09C
:10016000C1FD0EE001F081FD0BE001F02DFD08E086
:1001700001F0F3FC05E001F0B6FC02E001F063FCE5
:10018000FFE72100C9B2DFF8AC0A01F090FF0120BF
:1001900010BD10B50400DFF830180878002807D02B
:1001A0000020087001F0E9FB00F05FFF00F09BFE0B
:1001B000012010BD10B5040000220421DFF8780AE8
:1001C00002F035F9012010BD80B5322000F07CFE30
:1001D000002000F04DF801BD80B5322000F074FE23
:1001E000022000F045F801BD80B5322000F06CFE21
:1001F000042000F03DF801BD80B5322000F064FE1F
:10020000062000F035F801BD80B5012000F030F87F
:1002100001BD80B5032000F02BF801BD80B505209D
:1002200000F026F801BD80B5072000F021F801BDDF
:1002300080B5322000F048FE082000F019F801BD1A
:1002400080B5322000F040FE092000F011F801BD19
:1002500080B5322000F038FE0A2000F009F801BD18
:1002600080B5322000F030FE0B2000F001F801BD17
:1002700010B504000221DFF84C0701F018FFDFF889
:1002800048070078002809D0022811D00BD3042891
:1002900018D012D306281FD019D322E02000C0B2F4
:1002A00000F020F81DE02000C0B200F041F818E096
:1002B0002000C0B200F06FF813E02000C0B200F0E0
:1002C000A8F90EE02000C0B200F012FA09E0200008
:1002D000C0B200F07BFB04E02000C0B200F0AEFC36
:1002E000FFE710BD10B504002000C0B200280CD0FC
:1002F000401E11D0401E05280FD9801F0ED0401E71
:1003000013D0401E012811D911E00120DFF8B816E2
:10031000087001F005FB0AE009E008E00220DFF8C0
:10032000A816087001F0D8FA01E000E0FFE710BD60
:1003300010B504002000C0B2002811D0022817D048
:1003400015D304281CD01AD306281AD018D308288D
:1003500018D016D30A281CD01BD30B2819D019E0AB
:100360000020DFF86416087001F007FB12E011E0CE
:100370000020DFF85416087001F0FFFA0AE009E0E7
:1003800008E007E00220DFF84016087001F0A4FA48
:1003900000E0FFE710BD38B504002000C0B200281F
:1003A0001AD0022865D063D3042800F0A380C0F0DF
:1003B000A080062800F0E380C0F09C80082800F0B0
:1003C0002381C0F0DC800A2800F02181C0F01C816C
:1003D0000B2800F01C811BE1DFF8EC556878002841
:1003E00008D0022815D00CD3042822D019D3052810
:1003F0002AD03AE0012068700120DFF8C81A487658
:1004000033E0022068700120DFF8B81A81F8250077
:100410002BE0032068700120DFF8A81A81F8310072
:1004200023E0042068700120DFF8981A81F83D006D
:100430001BE005206870DFF88C0A012180F8491064
:10044000012180F8611010E000F04DFD012804D179
:100450000320287001F028FA06E001F03DFA01209F
:10046000DFF8601A81F86D00FFE701F031F8CFE0A6
:10047000CEE0DFF854054178002908D0022914D0D5
:100480000CD3042920D017D3052925D02EE0002134
:10049000017000F028FD01F070FA27E000214170A2
:1004A0000120DFF8201A487320E00121417001206B
:1004B000DFF8101A487619E0022141700120DFF8B8
:1004C000041A81F8250011E0032141700120DFF8B2
:1004D000F41981F8310009E004214170DFF8E409E2
:1004E000012180F83D10012180F8551000F0F0FF47
:1004F0008EE08DE0DFF8D0044078002808D0022894
:1005000018D00ED3042827D01DD305282DD035E0D0
:10051000DFF8CC0AC189092902DAC189491CC181E5
:100520002CE0DFF8BC0A018A092902DA018A491C99
:10053000018223E0DFF8A80A418A092902DA418A08
:10054000491C41821AE0DFF8980A818A092902DAF7
:10055000818A491C818211E0DFF8840AC18A092955
:1005600002DAC18A491CC18208E0DFF8740A018BF3
:10057000092902DA018B491C0183FFE748E0DFF813
:1005800048044078002808D0022818D00ED3042848
:1005900027D01DD305282DD035E0DFF8441AC889AF
:1005A000002802D0C889401EC8812CE0DFF8301A2C
:1005B000088A002802D0088A401E088223E0DFF85B
:1005C000201A488A002802D0488A401E48821AE031
:1005D000DFF80C1A888A002802D0888A401E888298
:1005E00011E0DFF8FC19C88A002802D0C88A401E32
:1005F000C88208E0DFF8E819088B002802D0088BD1
:10060000401E0883FFE703E001F043FF00E0FFE73F
:1006100031BD10B504002000C0B2002811D002285E
:1006200029D027D304282ED02CD3062844D02AD36F
:1006300008285BD040D30A2858D057D30B2855D070
:1006400055E0DFF884038178002903D002290BD01C
:1006500005D30EE00421017001F0F6F809E0052150
:10066000017001F0C1F804E00621017001F09AF870
:10067000FFE73CE03BE00020DFF84C13087001F09E
:100680007CF934E033E0DFF840038178012902D0BF
:10069000022908D00FE000218170DFF8980A807BE2
:1006A00001F0B0FB07E001218170DFF8880A807E4D
:1006B00001F0A8FBFFE71AE0DFF80C0381780029BE
:1006C00002D0012908D010E001218170DFF8640A0E
:1006D000807E01F097FB08E002218170DFF8540A68
:1006E00090F8260001F08EFBFFE700E0FFE710BD69
:1006F00010B504002000C0B200281CD0022800F071
:100700008980C0F08680042800F0B280C0F0AF80FD
:10071000062800F00081C0F0AB80082800F050816E
:10072000C0F0F9800A2800F04B81C0F049810B2805
:1007300000F0468145E1A448C17800290BD0022988
:100740001AD010D3042929D01FD3062942D033D37D
:1007500007294DD05AE00421C170DFF8DC09807B05
:1007600001F084FB52E00521C170DFF8CC0990F85C
:10077000260001F07BFB49E00621C170DFF8B809D3
:1007800090F83E0001F072FB40E00721C170DFF8F5
:10079000A80990F8560001F069FB37E00021C1700C
:1007A000DFF898094189DFF83808008802F0F9FA83
:1007B000042001F05BFB29E00121C170DFF8200873
:1007C0004188DFF87809008902F0EBFA042001F093
:1007D0004DFB1BE00221C170DFF86009C189DFF821
:1007E0000008808802F0B8FB042001F03FFB0DE018
:1007F0000321C170DFF8E807C188DFF8400980896C
:1008000002F0AAFB042001F031FBFFE700F09AFDA3
:10081000D7E0D6E06C48C1780029032903D9091F25
:10082000032905D922E00321017001F03DF81DE004
:10083000C178042906D011D3062909D005D3072988
:1008400009D00BE00021C17008E00121C17005E072
:100850000221C17002E00321C170FFE700F005FC36
:1008600000F070FD042001F001FBFFE7A9E0A8E023
:100870005548C17801290AD04CD3032918D00ED38A
:10088000052927D01DD3072937D02CD342E00021DA
:10089000C170DFF8A408807B01F0B4FA3AE00121CE
:1008A000C170DFF8940890F8260001F0ABFA31E04F
:1008B0000221C170DFF8800890F83E0001F0A2FA32
:1008C00028E0DFF81C070188C82902DA0188491CE2
:1008D00001801FE0DFF808074188642902DA4188B7
:1008E000491C418016E0DFF8F8068188B1F5FA7FEF
:1008F00002DA8188491C81800CE0DFF8E406C188B7
:10090000DFF838289289521E914202DAC188491CC8
:10091000C180FFE755E02C48C17800290CD001299F
:1009200013D002291AD0042921D0052928D006295C
:100930002FD007293AD042E00121C170DFF8F80733
:1009400090F8260001F05EFA39E00221C170DFF86C
:10095000E80790F83E0001F055FA30E00321C1703D
:10096000DFF8D40790F8560001F04CFA27E0DFF8E2
:1009700070160888002802D00888401E08801EE0F3
:10098000DFF85C164888002802D04888401E48805E
:1009900015E0DFF84C06DFF8A417C989491C8288E6
:1009A000914202DA8188491E818008E0DFF8301622
:1009B000C888002802D0C888401EC880FFE700E031
:1009C000FFE710BD400800201C33002010B50400D4
:1009D0002000C0B200281AD0022871D06FD304289A
:1009E00000F09880C0F09580062800F0D980C0F013
:1009F0009180082800F01C81C0F0D2800A2800F005
:100A00001781C0F015810B2800F0128111E1DFF889
:100A100030070179002908D0022917D00DD3042905
:100A20002CD01CD3052938D046E003210171DFF812
:100A30001407807B01F01AFA3EE004210171DFF80F
:100A4000040790F8320001F011FA35E00521017138
:100A5000DFF8F00690F8560001F008FA2CE00021CB
:100A60000171DFF8D806828B418ADFF874050089AE
:100A700002F0F6F9042001F0F9F91DE001210171FD
:100A8000DFF8B806828BDFF858154989008A02F032
:100A9000E7F9042001F0EAF90EE002210171DFF824
:100AA0009C06DFF83C158A89418A008A02F0D8F951
:100AB000042001F0DBF9FFE700F0D7FBB9E0B8E074
:100AC000DFF87C0601790029022903D9C91E022911
:100AD00005D91DE00321017000F0E6FE18E0017960
:100AE000032904D00CD3052907D003D308E0002143
:100AF000017105E00121017102E002210171FFE7AE
:100B000000F0B3FA00F0B1FB042001F0AFF9FFE709
:100B10008FE08EE0DFF828060179012907D03ED367
:100B2000032915D00BD3052930D020D337E000217D
:100B30000171DFF81006807B01F064F92FE00121DC
:100B40000171DFF8000690F8320001F05BF926E051
:100B5000DFF88C040189002902D0012903D005E0C7
:100B60000121018102E000210181FFE717E0DFF8A8
:100B700070044189002902D0012903D005E0012138
:100B8000418102E000214181FFE708E0DFF85004E5
:100B90008189142902DA8189491C8181FFE748E0B3
:100BA000DFF89C050179002908D001290FD003291D
:100BB00016D0042923D0052930D038E00121017155
:100BC000DFF8800590F8320001F01CF92FE00221D7
:100BD0000171DFF8700590F8560001F013F926E076
:100BE000DFF8FC030189002902D0012903D005E0C8
:100BF0000121018102E000210181FFE717E0DFF818
:100C0000E0034189002902D0012903D005E0012138
:100C1000418102E000214181FFE708E0DFF8C003E5
:100C20008189032902DB8189491E8181FFE700E078
:100C3000FFE710BD400800200004024038B5040062
:100C40002000C0B200281AD0022866D064D304283D
:100C500000F0AC80C0F0A980062800F0E680C0F06B
:100C6000A580082800F02081C0F0DF800A2800F06D
:100C70001B81C0F019810B2800F0168115E1DFF807
:100C8000C0546879002809D0022816D00DD3042852
:100C900023D01AD3062838D02AD33AE0012068712D
:100CA0000120DFF8A414487633E0022068710120A7
:100CB000DFF8941481F825002BE0032068710120EF
:100CC000DFF8841481F8310023E0042068710120EA
:100CD000DFF8741481F83D001BE005206871DFF82F
:100CE0006804012180F84910012180F8611010E0AA
:100CF00000F026F906206871DFF84C04012180F825
:100D00005510012180F8791003E00020287000F0D0
:100D100034FE00F03DFAC8E0C7E0DFF824546879FB
:100D2000002809D0022815D00DD3042821D018D3CB
:100D3000062831D025D335E000F097F9032028703C
:100D400000F0B2FD2EE0002068710120DFF8F813FA
:100D5000487327E0012068710120DFF8EC13487622
:100D600020E0022068710120DFF8DC1381F8250003
:100D700018E0032068710120DFF8CC1381F83100FE
:100D800010E004206871DFF8C003012180F83D10F5
:100D9000012180F86D1005E00020287000F065F951
:100DA00000F0EBFD00F0F4F97FE07EE0DFF8900367
:100DB0004079002808D0022816D00DD3042823D06B
:100DC0001AD3052828D02FE08548418B092902DA5B
:100DD000418B491C418327E08148818B092902DA34
:100DE000818B491C81831FE07D48C18B092902DA70
:100DF000C18B491CC18317E07948018C092902DAAB
:100E0000018C491C01840FE07548418C092902DAE4
:100E1000418C491C418407E07148818C092902DA20
:100E2000818C491C8184FFE73FE0DFF8140340799F
:100E3000002808D0022816D00DD3042823D01AD3B6
:100E4000052828D02FE06649488B002802D0488B1F
:100E5000401E488327E06249888B002802D0888B97
:100E6000401E88831FE05E49C88B002802D0C88BD3
:100E7000401EC88317E05A49088C002802D0088C0D
:100E8000401E08840FE05649488C002802D0488C48
:100E9000401E488407E05249888C002802D0888C84
:100EA000401E8884FFE700E0FFE731BDA448002131
:100EB000417000218170002101710021C170002169
:100EC000417170474804002010B50400012204213C
:100ED0009E4801F0ACFA9E48210089B2816303214B
:100EE00001F0E5F810BD10B400209A4A3C49CB89C6
:100EF0001488A34215D10B8A5488A34211D14B8A7E
:100F00009488A3420DD18B8AD488A34209D1CB8A7D
:100F10001489A34205D10B8B5289934201D101223E
:100F200010000022CA8100220A8200224A82002286
:100F30008A820022CA8200220A83C0B210BC704793
:100F40001CB5082100226C46200002F091FB002411
:100F50002349488B0A2841DA888B0A283EDAC88B55
:100F60000A283BDA088C0A2838DA488C0A2835DA4D
:100F7000888C0A2832DA77484A8B02808A8B428032
:100F8000CA8B82800A8CC2804A8C0281898C418102
:100F9000694602882300DBB2CA54641C42882300DD
:100FA000DBB2CA54641C82882300DBB2CA54641CBE
:100FB000C2882300DBB2CA54641C02892300DBB25E
:100FC000CA54641C40892200D2B28854641C220096
:100FD000D2B292B26946604802F022FC13BD000012
:100FE000D431002080B55C480078C0B2AA2818D15E
:100FF00058485A490978C9B2018059490978C9B293
:10100000418058490978C9B2818057490978C9B2E5
:10101000C18056490978C9B2018155490978C9B2D8
:1010200041814C4801880A290EDA41880A290BDAE5
:1010300081880A2908DAC1880A2905DA01890A297A
:1010400002DA41890A290DDB00210180002141805B
:10105000002181800021C180002101810021418186
:10106000FFF76EFF00F001F801BD424839490A88D8
:1010700042834A8882838A88C283CA8802840A8912
:101080004284498981842D490A8902804A894280A3
:101090000A8A02814A8A42818A898280CA89C280F8
:1010A000898B8181704780B5FFF79CFF01BD70B5CA
:1010B0000020002400252800C0B2042836DA244E7F
:1010C0002800C0B200013044407801282CD1012012
:1010D00004002800C0B200013044406800280ED04F
:1010E00002F0E2FB2900C9B2090131444968401A03
:1010F0002900C9B2090131448968884214D300200B
:101100002900C9B209013144487002F0CDFB290021
:10111000C9B20901314448602800C0B22900C9B2EF
:1011200009013144C96888476D1CC4E72000C0B27A
:1011300070BD000008050020380500202432002082
:101140001C330020D40500204C060020000402407F
:1011500040080020F832002000F5030802F50308DB
:1011600003F5030804F5030805F5030806F503086D
:1011700007F50308D431002010B504000021DFF882
:10118000E40C00F085FF012010BD01000120704734
:101190007FB500242000C0B20B282EDA0C25DFF822
:1011A000386B2000C0B2684330444078012822D117
:1011B0002000C0B268433044806801900120009054
:1011C0002000C0B26843304403792000C0B26843B5
:1011D0003044C2782000C0B2684330448178DFF8E0
:1011E000EC0C02F02CFE2000C0B205FB00F506EB73
:1011F000050000214170641CCCE700242000C0B22F
:10120000062831DADFF8D45A0C262000C0B2704329
:1012100028444078012825D1002002902000C0B247
:1012200070432844806800880190012000902000CD
:10123000C0B27043284403792000C0B270432844F0
:10124000C2782000C0B2704328448178DFF87C0C5B
:1012500002F0A1FE2000C0B206FB00F605EB06007E
:1012600000214170641CC9E77FBD7FB500242000C8
:10127000C0B209282EDA0C25DFF8646A2000C0B25B
:10128000684330444078012822D12000C0B268432E
:10129000304480680190012000902000C0B2684373
:1012A000304403792000C0B268433044C278200043
:1012B000C0B2684330448178DFF8100C02F0BFFD03
:1012C0002000C0B205FB00F506EB050000214170CF
:1012D000641CCCE700242000C0B2002831D1DFF824
:1012E000205B0C262000C0B27043284440780128BF
:1012F00025D1002002902000C0B2704328448068AD
:1013000000880190012000902000C0B27043284462
:1013100003792000C0B270432844C2782000C0B2D4
:10132000704328448178DFF8A40B02F034FE2000DB
:10133000C0B206FB00F605EB060000214170641CFC
:10134000C9E77FBD7FB500242000C0B209282EDA8E
:101350000C25DFF8146B2000C0B26843304440789D
:10136000012822D12000C0B2684330448068019037
:10137000012000902000C0B268433044037920006F
:10138000C0B268433044C2782000C0B268433044E1
:101390008178DFF8440C02F052FD2000C0B205FB5A
:1013A00000F506EB050000214170641CCCE7002429
:1013B0002000C0B2042854DADFF8145B0C262000A9
:1013C000C0B2704328444078012848D12000C0B200
:1013D00001281ED1002002902000C0B27043284492
:1013E000806800880190012000902000C0B2704306
:1013F000284403792000C0B270432844C2782000FA
:10140000C0B2704328448178DFF8CC0B02F0C3FDF2
:101410001DE0012002902000C0B270432844806883
:1014200000880190012000902000C0B27043284441
:1014300003792000C0B270432844C2782000C0B2B3
:10144000704328448178DFF8900B02F0A4FD20005F
:10145000C0B206FB00F605EB060000214170641CDB
:10146000A6E77FBD7CB500242000C0B204282EDA98
:101470000C25DFF8D46A2000C0B2684330444078BD
:10148000012822D12000C0B2684330448068019016
:10149000012000902000C0B268433044037920004E
:1014A000C0B268433044C2782000C0B268433044C0
:1014B0008178DFF8240B02F0C2FC2000C0B205FBEB
:1014C00000F506EB050000214170641CCCE773BDFC
:1014D0007FB500242000C0B20A282EDA0C25DFF8E0
:1014E000FC6A2000C0B2684330444078012822D111
:1014F0002000C0B268433044806801900120009011
:101500002000C0B26843304403792000C0B2684371
:101510003044C2782000C0B2684330448178DFF89C
:10152000B80A02F08CFC2000C0B205FB00F506EB07
:10153000050000214170641CCCE700242000C0B2EB
:10154000062831DADFF8985A0C262000C0B2704322
:1015500028444078012825D1002002902000C0B204
:10156000704328448068008801900120009020008A
:10157000C0B27043284403792000C0B270432844AD
:10158000C2782000C0B2704328448178DFF8480A4E
:1015900002F001FD2000C0B206FB00F605EB0600DC
:1015A00000214170641CC9E77FBD7FB50024200085
:1015B000C0B209282EDA0C25DFF8286A2000C0B254
:1015C000684330444078012822D12000C0B26843EB
:1015D000304480680190012000902000C0B2684330
:1015E000304403792000C0B268433044C278200000
:1015F000C0B2684330448178DFF8DC0902F01FFC98
:101600002000C0B205FB00F506EB0500002141708B
:10161000641CCCE700242000C0B2042854DADFF8B0
:10162000C8590C262000C0B27043284440780128D5
:1016300048D12000C0B201281ED100200290200015
:10164000C0B2704328448068008801900120009057
:101650002000C0B27043284403792000C0B2704318
:101660002844C2782000C0B2704328448178DFF853
:10167000680902F090FC1DE0012002902000C0B239
:101680007043284480680088019001200090200069
:10169000C0B27043284403792000C0B2704328448C
:1016A000C2782000C0B2704328448178DFF828094E
:1016B00002F071FC2000C0B206FB00F605EB06004C
:1016C00000214170641CA6E77FBD7FB50024200087
:1016D000C0B212282EDA0C25DFF810692000C0B243
:1016E000684330444078012822D12000C0B26843CA
:1016F000304480680190012000902000C0B268430F
:10170000304403792000C0B268433044C2782000DE
:10171000C0B2684330448178DFF8BC0802F08FFB28
:101720002000C0B205FB00F506EB0500002141706A
:10173000641CCCE700242000C0B2042831DADFF8B2
:10174000B0580C262000C0B27043284440780128CD
:1017500025D1012002902000C0B270432844806847
:1017600000880190012000902000C0B270432844FE
:1017700003792000C0B270432844C2782000C0B270
:10178000704328448178DFF8500802F004FC200000
:10179000C0B206FB00F605EB060000214170641C98
:1017A000C9E77FBD80B5DFF8300501214173012114
:1017B00080F86D10DFF8240501214170012141738B
:1017C00001214176012180F82510012180F8311096
:1017D000012180F83D10DFF8000802F068FAFFF7F9
:1017E000D7FCFFF763FB01BD80B5DFF8F4040121EE
:1017F0004173012180F82510012180F83110012169
:1018000080F85510012180F86110DFF8E817498948
:10181000002905D0012907D1012180F83D1003E0FE
:10182000012180F84910FFE70120DFF8D415487046
:10183000DFF8A40702F03BFAFFF717FD002000F0E5
:10184000E1FAFFF733FB01BD80B5DFF81C0601218B
:10185000417301214176012180F82510012180F892
:101860003110012180F83D10012180F8491001213B
:1018700080F85510012180F86110DFF8540601212D
:1018800041700121417301214176012180F8251029
:10189000DFF8440702F00BFAFFF754FD002000F0D8
:1018A000B1FAFFF703FB01BD80B5DFF89C0601210B
:1018B000417001214173012180F8251001214176F9
:1018C000DFF8140702F0F3F9FFF7CCFD012000F078
:1018D00099FAFFF7EBFA01BD80B5DFF800070121A7
:1018E000417001214173012180F85510DFF8F006A5
:1018F000012141700121417301214176012180F8CC
:101900002510012180F83110012180F83D10DFF809
:10191000C80602F0CCF9FFF7DBFDFFF7C7FA01BDFF
:1019200080B5DFF8C0060121417301214176012114
:1019300080F82510012180F83110012180F83D1038
:10194000012180F84910012180F85510012180F80B
:101950006110DFF8940601214170012141730121DA
:101960004176012180F82510DFF86C0602F09FF91E
:10197000FFF71BFEFFF79AFA01BD80B5DFF86C1682
:1019800001204870DFF870269078002802D10120ED
:10199000487301E001204876012081F82500D078C5
:1019A000002803D1012081F8310002E0012081F8F4
:1019B0003D005078002803D0022809D004D30BE062
:1019C000012081F8490007E0012081F8550003E07B
:1019D000012081F86100FFE7012081F86D000120FE
:1019E00081F87900012081F88500012081F89100BB
:1019F000012081F89D00012081F8A900DFF8FC2575
:101A0000907B002803D1012081F8B50002E001207D
:101A100081F8C100DFF8D8050C32C262012281F8DA
:101A2000CD20012141700121417301214176012125
:101A300080F82510DFF8A00502F039F9FFF745FE20
:101A4000FFF734FA01BD80B5DFF8B415A34882680A
:101A500012880B889A4204D0826812880A80012179
:101A60004170DFF8A015426912880B889A4204D0B1
:101A7000426912880A8001214173DFF88C15026ADD
:101A800012880B889A4204D0026A12880A800121C7
:101A90004176DFF87815C26A12880B889A4205D021
:101AA000C26A12880A80012180F82510DFF86015CB
:101AB000826B12880B889A4205D0826B12880A804A
:101AC000012180F83110DFF84C15426C12880B8828
:101AD0009A4205D0426C12880A80012180F83D109C
:101AE000FFF756FB01BD10B5DFF80815DFF8280534
:101AF00002880B899A420CD00A8902800889002842
:101B000004D10120764A82F8250002E00120744ABF
:101B10005076BB48DFF80425138884682488A342E4
:101B200004D083681B88138001224270DFF8F00420
:101B300002884B899A420DD04A8902804889002840
:101B400004D10120664981F8490003E0012064497D
:101B500081F83D00FFF789FB10BD80B5DFF8C414A4
:101B6000DFF86C03826812880B889A4204D082687E
:101B700012880A8001214170DFF8AC144269128892
:101B80000B889A4204D0426912880A80012141736D
:101B9000DFF89814026A12880B889A4204D0026A0D
:101BA00012880A8001214176DFF88414C26A128803
:101BB0000B889A4205D0C26A12880A80012180F8F7
:101BC0002510FFF7BFFB01BD80B5DFF86814DFF813
:101BD0001004826812880B889A4204D082681288A6
:101BE0000A8001214170DFF85014426912880B8885
:101BF0009A4204D0426912880A8001214173DFF8B9
:101C00003C14026A12880B889A4204D0026A128835
:101C10000A8001214176DFF82814C26A12880B88F5
:101C20009A4205D0C26A12880A80012180F82510E4
:101C3000DFF81014826B12880B889A4205D0826BF1
:101C400012880A80012180F83110DFF8FC13426C01
:101C500012880B889A4205D0426C12880A800121B2
:101C600080F83D10FFF734FC01BD80B5DFF8DC13D0
:101C7000DFF87403826812880B889A4204D0826865
:101C800012880A8001214170DFF8C413426912886A
:101C90000B889A4204D0426912880A80012141735C
:101CA000DFF8B013026A12880B889A4204D0026AE5
:101CB00012880A8001214176DFF89C13C26A1288DB
:101CC0000B889A4205D0C26A12880A80012180F8E6
:101CD0002510FFF76AFC01BD4C060020D00600204D
:101CE000D405002080B5C449DFF8700302788B78F2
:101CF0009A420BD08A7802708878002803D101209C
:101D0000BA4A507302E00120B84A5076DFF8500317
:101D10000278CB789A420DD0CA780270C878002831
:101D200004D10120B14A82F8310003E00120AF4A1A
:101D300082F83D00CB4802784B789A4217D04A7817
:101D400002704878002803D002280BD005D30EE09B
:101D50000120A64981F8490009E00120A34981F842
:101D6000550004E00120A14981F86100FFE7BE4968
:101D70009F48826812880B789BB29A4204D082688E
:101D800012880A7001214170B849426912880B78A3
:101D90009BB29A4204D0426912880A7001214173B1
:101DA000B349026A12880B789BB29A4204D0026A45
:101DB00012880A7001214176AE49C26A12880B78F6
:101DC0009BB29A4205D0C26A12880A70012180F83B
:101DD00025108A49A84A10788B7B98420DD0887BC1
:101DE000002804D10120814B83F8B50003E00120D5
:101DF0007E4B83F8C100887B1070FFF766FC01BD45
:101E00004006002070B504002000C0B2052827DA83
:101E100000252800C0B2042822DA28002100C0B220
:101E2000C9B288420FD12800C0B2042816D06A4E29
:101E30002A00D2B20021300001F0D6FE3E2130004F
:101E400001F011FF0AE0644E2A00D2B200213000F6
:101E500001F0CAFE2021300001F005FF6D1CD8E71B
:101E600070BD0000400800203805002070B5040057
:101E70002000C0B2052827DA00252800C0B20428B7
:101E800022DA28002100C0B2C9B288420FD128004E
:101E9000C0B2042816D0504E2A00D2B20F21300012
:101EA00001F0A2FE3C21300001F0DDFE0AE04A4EC6
:101EB0002A00D2B20F21300001F096FE202130001E
:101EC00001F0D1FE6D1CD8E770BD0000742F00201A
:101ED000A405002018B58BB03F4C684B68484FF400
:101EE00080710A9109908021089107904021069104
:101EF00005904FF40040049003934FF4804002900B
:101F000001934FF48050009004221021200001F032
:101F1000E9FD322002F042F9200001F0C8FE012262
:101F20000121200001F060FE5649200001F0B2FEC0
:101F300003220121200001F057FE5349200001F047
:101F4000A9FE0CB010BD00000805002080B5FFF709
:101F5000C1FF01BD70B50020002400252800C0B2DB
:101F6000022836DA494E2800C0B2000130444078D9
:101F700001282CD1012004002800C0B20001304407
:101F8000406800280ED001F08FFC2900C9B2090179
:101F900031444968401A2900C9B2090131448968AD
:101FA000884214D300202900C9B209013144487085
:101FB00001F07AFC2900C9B20901314448602800C7
:101FC000C0B22900C9B209013144C96888476D1CF3
:101FD000C4E72000C0B270BD742F00204804002068
:101FE000C0040020AC03002018040020A40200203C
:101FF0007C030020D431002024320020DC32002079
:1020000062330020643300206633002068330020F0
:102010006A3300206C3300206E33002072330020BE
:102020007033002074330020763300207833002092
:102030007A3300207C3300207E3300208033002060
:102040008233002084330020863300208833002030
:102050008A3300208C3300208E330020A1330020EF
:10206000A2330020A33300209D3300209E330020A4
:102070009F330020A0330020A4330020000402403E
:102080000008024004FD000814FD0008840200203E
:10209000020001200B00DBB21B011344587000202A
:1020A0000B00DBB21B01134458600120704738B5A8
:1020B00004000D0001202900C9B209012144487023
:1020C00001F0F2FB2900C9B2090121444860012056
:1020D00032BD020000200B00DBB21B01134458701C
:1020E00001207047F8B402000B00002400200025F6
:1020F0001968E140002900F0D78001261F6816FA10
:1021000004F10F403800002800F0CC80197911F05C
:102110000301012904D0197911F0030102291DD10D
:1021200097685FF0030C2100C9B249001CFA01FC5A
:1021300037EA0C07D3F80CC02100C9B249001CFAD9
:1021400001FC5CEA070797605168A640B1435E68EE
:10215000C6F30016A64031430D005560197911F001
:10216000030103290ED0D66803272100C9B2490014
:102170008F40BE439F682100C9B249008F403E4353
:102180003500D560197911F00301022918D1210019
:10219000C90802EB81010E6A0F2714F00701C9B2CA
:1021A00089008F40BE431F6914F00701C9B289003E
:1021B0008F403E4335002100C90802EB81010D62CA
:1021C000166803272100C9B249008F40BE431F791A
:1021D00017F003072100C9B249008F403E43350084
:1021E0001560596811F4403F5CD097490E6856F06D
:1021F00001060E60096811F0010100910099934FEA
:102200002100890857F821605FF00F0C14F00301DA
:10221000C9B289001CFA01FC36EA0C068C498A42D4
:1022200001D1002514E08B498A4201D101250FE03C
:1022300089498A4201D102250AE088498A4201D1AE
:10224000032505E086498A4201D1042500E00525E1
:1022500014F00301C9B289008D402E432100890882
:1022600047F821607F4D296881435F68FF0200D5F0
:10227000014329607C4E356885435F68BF0200D505
:1022800005433560794E316881435F68BF0300D5EF
:1022900001433160764E356885435F68FF0300D5A2
:1022A00005433560641C23E7F1BC70472DE9F0411C
:1022B00003000A000024002000251100E14000294D
:1022C00000F0A880012616FA04F111400800002849
:1022D00000F09E80DFF874C1210089085CF82110AD
:1022E0000F2714F0030E5FFA8EFE5FEA8E0E17FAC8
:1022F0000EFE1EEA01010D0055498B4202D15FF02E
:10230000000E19E053498B4202D15FF0010E13E039
:1023100051498B4202D15FF0020E0DE04F498B42D2
:1023200002D15FF0030E07E04D498B4202D15FF00E
:10233000040E01E05FF0050E14F00301C9B289003C
:102340001EFA01FE75452CD14949D1F800E03EEA5C
:10235000000EC1F800E04549D1F800E03EEA000E69
:10236000C1F800E04049D1F800E03EEA000EC1F8B3
:1023700000E03C49D1F800E03EEA000EC1F800E080
:1023800014F00301C9B2890017FA01F10D00210010
:1023900089085CF82110A943A6465FEA9E0E4CF816
:1023A0002E105FF0030C1968A6465FFA8EFE5FEAF6
:1023B0004E0E1CFA0EFE31EA0E0119602100C9080A
:1023C00003EB810E2100C90803EB8101D1F82080C5
:1023D00014F00701C9B289008F4038EA0707CEF828
:1023E0002070D9682700FFB27F001CFA07F7B943B5
:1023F000D9605968A64031EA06065E609E682100F1
:10240000C9B249001CFA01FC36EA0C0CC3F808C03A
:10241000641C52E7BDE8F081020010690B009BB21A
:10242000184201D0012000E00020C0B27047130024
:10243000DBB2002B03D00B009BB2836103E00B00E7
:102440009BB21B04836170472038024008000140A2
:10245000000002400004024000080240000C02405C
:1024600000100240080401400C0401400404014033
:1024700000040140BFF34F8FDFF8B0120A6812F476
:10248000E062DFF8AC0202430A60BFF34F8F00BF87
:10249000FDE780B501F00EF84FF4FA7001F07EFE12
:1024A0001321A44800F004F872B6FFF7E3FF02BD61
:1024B00070B504000D002A0092B22100022002F043
:1024C00047F89D483B21C26BB0F84030D154B0F87A
:1024D0004010491CA0F8401000210A002B0092B2C5
:1024E0009BB29A4212D2B0F84020B2F5806F0DDA5A
:1024F0000A0092B2A25CC36BB0F840609A55B0F883
:102500004020521CA0F84020491CE6E770BD2DE990
:10251000F84304000D0016001F005FF000082000C3
:10252000C0B2401E03D0401E012806D985E031000C
:1025300089B2280002F093F87FE0DFF800924FF4B0
:1025400080720021484601F0DBFF7B49002088852E
:10255000888E002842D028208A8D09F80200888DB4
:10256000401C8885002002008B8E92B29A420BD2CA
:102570000A6B03009BB2D25C8B8D09F803208A8D15
:10258000521C8A85401CEEE729228B8D09F8032016
:102590008A8D521C8A8528228B8D09F803208A8D0A
:1025A000521C8A855FF000084046320080B292B229
:1025B00090420BD2404680B2285C8A8D09F8020016
:1025C000888D401C888518F10108EDE729208A8D47
:1025D00009F80200888D401C88852BE0002200202D
:1025E0000300B4469BB21FFA8CFC63450BD2030078
:1025F0009BB2EB5CB1F82CC009F80C308B8D5B1CE6
:102600008B85401CECE78B8D5B1C8B855FF0000895
:10261000404680B28B8D5B1E984207DA404680B2FE
:1026200019F80000424018F10108F1E7888D48448C
:1026300000F8012C00208886FFE7BDE8F18380B513
:1026400000F00EF83E4802F06EF801BD80B500F0D3
:1026500043F802F091FC02F021FD01BD7047704784
:1026600010B586B01421002201AC200001F000F862
:102670003448016851F001010160016811F0010165
:1026800000910099016851F002010160016811F0A8
:10269000020100910099016851F004010160016894
:1026A00011F0040100910099016851F008010160E6
:1026B000006810F0080000900098032002900020AD
:1026C0000390214C01A92000FFF70CFD01A9200077
:1026D000FFF708FD06B010BD81B01A48016851F03F
:1026E00001010160016811F0010100910099016888
:1026F00051F002010160016811F00201009100999E
:10270000016851F004010160016811F004010091B9
:102710000099016851F008010160006810F008009C
:102720000090009801B07047000000000CED00E040
:102730000400FA0580FC0008F40A0020F02B0020B9
:10274000083100201C3802400000024010B504008F
:10275000DFF8C40802F025FD0521DFF8540DFFF76E
:10276000A6FC012010BDF8B50400DFF8B0584FF406
:1027700000612800FFF750FE002804D10220DFF896
:102780008C1D48700FE04FF480612800FFF744FE75
:10279000002804D10120DFF8741D487003E00020F8
:1027A000DFF8681D4870DFF87858DFF8606D28782A
:1027B000717888423BD07078002812D0022801D06E
:1027C00020D330E0DFF8E87C04213800FFF760FC1C
:1027D00002213800FFF77DFC03213800FFF779FC68
:1027E00021E000F022FADFF8C87C04213800FFF76E
:1027F00070FC02213800FFF76CFC03213800FFF762
:1028000068FC10E000F011FADFF8A47C0421380025
:10281000FFF75FFC02213800FFF75BFC0321380063
:10282000FFF757FCFFE70020B07070782870210098
:10283000C9B2DFF87C0CFFF73AFC0120F2BD2DE9AC
:10284000F84304005FF000095FF000080025DFF89E
:10285000BC6C3078002801D100F0CFF9DFF8C40754
:10286000C7883900028989B2914201D201890F00DB
:102870003900428989B2914201D241890F00B0F8F2
:10288000069001894A4692B2914201D20189894655
:1028900041894A4692B2914201D2408981463089AB
:1028A000390089B2884205D27079082802DA707935
:1028B000401C7071390089B2484680B2091A642000
:1028C0004143380080B291FBF0F87089404506D250
:1028D0007079082805DA7079401C707101E00020D9
:1028E00070710321DFF8C80CFFF7D2FB0120BDE8AF
:1028F000F28338B50400DFF8145C687908280BDB34
:102900000120A87000F091F9002068710421DFF81F
:10291000A00CFFF7CCFB14E0687900280CD12878D4
:10292000002801D100F069F90020A8700221DFF829
:10293000800CFFF7BCFB04E00221DFF8740CFFF70A
:10294000B6FBDFF8E006C18804290CDA0189042906
:1029500009DA4089042806DA2879052805DA287971
:10296000401C287101E0002028712879052803DB2C
:102970000120A87000206871288A002814D1002046
:102980002871002068712878002801D100F035F9FD
:102990000020A870DFF8185C02212800FFF787FBF1
:1029A00004212800FFF795FB012032BD10B504007B
:1029B00000F023F9DFF8540B00214171002101716F
:1029C0000221DFF8EC0BFFF772FB012010BD2DE9AF
:1029D000F04104000026DFF8345BA878012802D11A
:1029E00000F062FF2862DFF83C76B7F80C8000F058
:1029F0005BFF296A401A4EF66121884202D2288A7A
:102A0000002813D14046E98980B2884204D3A889BE
:102A1000414689B2884206D2A879052808DAA87901
:102A2000401CA87104E00020A87101E00020A871FA
:102A30006878002804D0022801D007D315E014E0FC
:102A40000020A87100F030FF28620EE0F888062808
:102A50000ADA3889062807DA7889062804DA002095
:102A6000A87100F021FF2862FFE70621DFF8400B84
:102A7000FFF70EFB0120BDE8F08110B50400DFF880
:102A80008C1A8879052802DB0120C87004E0887957
:102A9000002801D10020C870488A002801D10020F8
:102AA000C8700521DFF8080BFFF701FB012010BDFE
:102AB00070B504000020DFF8541A8A78012A01D189
:102AC000012505E0C978012901D1012500E0002593
:102AD0002800C0B2002802D100F080F801E000F028
:102AE0006EF8DFF8D06A28003178C0B288420ED084
:102AF00000F0DAFEDFF8C01A08602800C0B2012832
:102B000004D10D21DFF8B40A02F044FD357028002D
:102B1000C0B2012811D100F0C7FEDFF89C6A31680D
:102B2000401ADFF89C1A884207D300F0BDFE3060DF
:102B30000D21DFF8880A02F02DFD2100C9B2DFF86F
:102B4000700AFFF7B4FA012070BD38B50400DFF851
:102B50006059D5F88800B0F5FA6F0AD101224FF418
:102B60000071DFF8B804FFF762FC2820C5F8880080
:102B70000AE000224FF40071DFF8A004FFF757FCD1
:102B80004FF4FA60C5F888002100C9B22800FFF7A9
:102B90008EFA012032BD10B50400DFF8280A02F0D9
:102BA0009BFD2100C9B2DFF8080AFFF780FA012077
:102BB00010BD10B50400FFF76CFC012010BD80B5FE
:102BC00001220421DFF8000AFFF731FC01224FF453
:102BD0008051DFF84804FFF72AFC01BD80B50022D0
:102BE0000421DFF8E409FFF722FC00224FF48051B2
:102BF000DFF82804FFF71BFC01BD10B5DFF8CC4956
:102C0000012210212000FFF712FC012208212000E0
:102C1000FFF70DFC01220121DFF8B409FFF707FCE3
:102C20000120DFF8E818087010BD10B5DFF89C49E6
:102C3000002210212000FFF7FAFB002208212000CB
:102C4000FFF7F5FB00220121DFF88409FFF7EFFB16
:102C50000020DFF8B818087010BD2DE9FC41040011
:102C60000D0016001F0008210022E846404600F033
:102C7000FFFC5FF00008DFF894088482C5820683B9
:102C800047836946828A92B2120A4346DBB2CA542B
:102C900018F10108828A4346DBB2CA5418F10108D0
:102CA000C28A92B2120A4346DBB2CA5418F1010832
:102CB000C28A4346DBB2CA5418F10108028B92B2B1
:102CC000120A4346DBB2CA5418F10108028B43468C
:102CD000DBB2CA5418F10108428B92B2120A434681
:102CE000DBB2CA5418F10108408B4246D2B2885474
:102CF00018F101084246D2B292B26946DFF8D40810
:102D000000F08EFDFEF7B1F9BDE8F38180B5DFF884
:102D1000C4080078C0B2AA2836D1DFF8BC18DFF8A2
:102D2000BC080078C0B2000288828A8ADFF8B00846
:102D30000078C0B202438A82DFF8A8080078C0B2E7
:102D40000002C882CA8ADFF8A0080078C0B2024335
:102D5000CA82DFF898080078C0B2000208830A8BA4
:102D6000DFF88C080078C0B202430A83DFF88408D9
:102D70000078C0B2000248834A8BDFF87C080078F4
:102D8000C0B202434A8309E0DFF84C080021818287
:102D90000021C1822D21018332214183FEF765F993
:102DA00001BD7CB504000D00082100226E463000F4
:102DB00000F05EFC0026DFF8540704814581694677
:102DC000028992B2120A3300DBB2CA54761C02891D
:102DD0003300DBB2CA54761C428992B2120A330025
:102DE000DBB2CA54761C40893200D2B28854761CB9
:102DF0003200D2B292B26946DFF8000800F010FD4E
:102E0000FEF733F973BD80B5DFF8F0070078C0B284
:102E1000AA281CD1DFF8C017DFF8E4070078C0B299
:102E2000000208810A89DFF8DC070078C0B202439B
:102E30000A81DFF8D4070078C0B2000248814A89CD
:102E4000DFF8C8070078C0B202434A8105E0DFF826
:102E500088071E21418150210181FEF706F901BD3D
:102E6000FEB504000D0016000A2100226F4638004E
:102E700000F0FEFB0027DFF894060482458286837B
:102E80006946028A92B2120A3B00DBB2CA547F1C26
:102E9000028A3B00DBB2CA547F1C428A92B2120AF9
:102EA0003B00DBB2CA547F1C428A3B00DBB2CA54EF
:102EB0007F1C828B92B2120A3B00DBB2CA547F1C89
:102EC000808B3A00D2B288547F1C3A00D2B292B2C0
:102ED0006946DFF83C0700F0A3FCFEF7C6F8F7BD33
:102EE00080B5DFF82C070078C0B2AA2829D1DFF816
:102EF000E816DFF820070078C0B2000208820A8ACC
:102F0000DFF814070078C0B202430A82DFF80C072A
:102F10000078C0B2000248824A8ADFF804070078CD
:102F2000C0B202434A82DFF8FC060078C0B2000259
:102F300088838A8BDFF8F0060078C0B202438A8368
:102F400007E0DFF894060121018201214182062178
:102F50008183FEF78AF801BD7CB504000D000821CD
:102F600000226E46300000F083FB0026DFF89C054F
:102F70008481C5816946828992B2120A3300DBB22C
:102F8000CA54761C82893300DBB2CA54761CC289CB
:102F900092B2120A3300DBB2CA54761CC0893200E6
:102FA000D2B28854761C3200D2B292B26946DFF8AF
:102FB0007C0600F035FCFEF758F873BD80B5DFF8ED
:102FC0006C060078C0B2AA281CD1DFF80C16DFF816
:102FD00060060078C0B2000288818A89DFF8540652
:102FE0000078C0B202438A81DFF84C060078C0B294
:102FF0000002C881CA89DFF844060078C0B20243E3
:10300000CA8105E0DFF8D005322181810A21C18122
:10301000FEF72BF801BD00009431002000080240AB
:10302000A6330020DC320020F0B40600049C080027
:10303000350080B2ADB2A8421BD200272500ADB248
:10304000100080B22D1AB4461FFA8CFC080080B222
:10305000BCEB000C0CFB05F59C461FFA8CFC080031
:1030600080B2BCEB000C95FBFCF01500ADB228184B
:1030700000E00020F0BC7047F0B40600049C08009B
:10308000350080B2ADB2A8421BD200272500ADB2F8
:10309000100080B22D1AB4461FFA8CFC080080B2D2
:1030A000BCEB000C0CFB05F59C461FFA8CFC0800E1
:1030B00080B2BCEB000C95FBFCF01500ADB22818FB
:1030C00000E00020F0BC70472DE9F14F82B002987B
:1030D0000068DFF86C150968884240F0DA81DFF893
:1030E00064456069401C6061E089218A88420AD396
:1030F000D4E90823E089218A401AC11710185941E0
:10310000C4E9080109E0D4E90823208AE189401ACA
:10311000C11710185941C4E90801A089218A8842C1
:103120000AD3D4E90A23A089218A401AC1171018AA
:103130005941C4E90A0109E0D4E90A23208AA18996
:10314000401AC11710185941C4E90A016089218A3F
:1031500088420AD3D4E90C236089218A401AC11716
:1031600010185941C4E90C0109E0D4E90C23208A64
:103170006189401AC11710185941C4E90C01D4E9FA
:103180000E236088002110185941C4E90E01D4E9CA
:103190001023A088002110185941C4E9100160696A
:1031A00041F28831884240F07481D4E9080141F24B
:1031B0008832002302F098FAC4E90801D4E90A0130
:1031C00041F28832002302F08FFAC4E90A01D4E9FF
:1031D0000C0141F28832002302F086FAC4E90C01A6
:1031E000D4E90E0141F28832002302F07DFAC4E9ED
:1031F0000E01D4E9100141F28832002302F074FA82
:10320000C4E91001DFF84004018889B240F6B83003
:1032100041432088B1FBF0F0A0614FF47A76D4E905
:103220000889A2690023A2FB080102FB091103FB24
:10323000081140F6FF72002302F056FA7043DFF8DF
:103240000C140860DFF8040400686621B0FBF1F09C
:10325000DFF8F8130860DFF8F853DFF8F0030068D0
:103260006421B0FBF1F02880DFF8E00300680A2158
:10327000B0FBF1F00A21B0FBF1F201FB12000528CE
:1032800002D32888401C2880D4E90A23D4F8188067
:103290005FF00009A8FB020108FB031109FB021102
:1032A00040F6FF72002302F01FFA7043DFF8A41308
:1032B0000860E84800686621B0FBF1F0E549086065
:1032C000E44800686421B0FBF1F06880E1480068E0
:1032D0000A21B0FBF1F00A21B0FBF1F201FB120070
:1032E000052802D36888401C6880DFF86CA3D4E905
:1032F0000C89A2690023A2FB080102FB091103FB50
:10330000081140F6FF72002302F0EEF906FB00F60A
:10331000CAF80060DAF800006621B0FBF1F0CAF8E4
:103320000000DAF800006421B0FBF1F0A880DAF8C0
:1033300000000A21B0FBF1F00A21B0FBF1F201FB21
:103340001200052802D3A888401CA8804FF47A7682
:103350000027D4E90E89A2690023A2FB080102FB21
:10336000091103FB081140F6FF72002302F0BCF9BB
:1033700002000B00A6FB020106FB031107FB021172
:103380007822002302F0B0F9A064D4E91089A26980
:103390000023A2FB080102FB091103FB081140F600
:1033A000FF72002302F0A0F902000B00A6FB02014D
:1033B00006FB031107FB02117822002302F094F9A7
:1033C000E064A64F44F62068504E5FF00A09B08BC7
:1033D00009FB00F080B20090434600224FF47A616E
:1033E000A06C80B2FFF720FE3880DFF874B2B08B9B
:1033F00009FB00F91FFA89F9CDF800904346002235
:103400004FF47A61E06C80B2FFF70EFEABF800007B
:103410003888BBF80010884204D33888A88100207F
:10342000A87304E0BBF80000A8810120A873002065
:103430000021C4E90801C4E90A01C4E90C01002023
:10344000824908600020834908600020CAF8000013
:103450000020A0640020E06400206061708B009078
:10346000338BF28AB18A2888FFF706FEE880708BDA
:103470000090338BF28AB18A6888FFF7FDFD2881BE
:10348000708B0090338BF28AB18AA888FFF7F4FD25
:103490006881BDE8F78F80B509226A49714802F05A
:1034A0001BFB01224FF400516F48FEF7C0FF01BD26
:1034B000800800201CB5082100226C46200000F086
:1034C000D7F80024684601212200D2B28154641C3E
:1034D00001212200D2B28154641C2200D2B292B2E5
:1034E0006946624800F09CF913BD80B55F480078DA
:1034F000C0B2AA2806D100202D4988605B4800F0A0
:1035000046F902E000202A49886001BD24320020EB
:1035100080B5FFF778FCFFF7E3FCFFF74FFDFFF7FF
:10352000BAFFFFF7E2FFFFF7F1FB01BD70B5002026
:10353000002400252800C0B20B2836DA1C4E2800D3
:10354000C0B200013044407801282CD10120040091
:103550002800C0B200013044406800280ED000F0BE
:10356000A3F92900C9B2090131444968401A290068
:10357000C9B2090131448968884214D30020290066
:10358000C9B209013144487000F08EF92900C9B26E
:103590000901314448602800C0B22900C9B20901BC
:1035A0003144C96888476D1CC4E72000C0B270BDB3
:1035B00080080020A73300203C33002024FD0008B1
:1035C000C0D40100EC320020000C02400004024094
:1035D0000014024000F803082432002002F8030817
:1035E00003F8030804F8030805F8030806F80308BD
:1035F00007F8030808F8030809F8030800F60308A9
:1036000002F6030803F6030804F6030805F60308A8
:1036100000F4030802F4030803F4030804F40308A5
:1036200005F4030806F4030807F4030800F7030889
:1036300002F7030803F7030804F7030805F7030874
:1036400094310020B8300020F800F81F40330020EB
:10365000DC32002044330020483300209033002027
:1036600092330020CC2F00200008024000F3030812
:1036700062F30F2262F31F42401810F0030308D0D8
:10368000C91A1FD3DB0748BF00F8012D28BF20F857
:10369000022D130030B414461546103928BF20E916
:1036A0003C00FAD8490728BF20E90C0048BF40F881
:1036B000042D890028BF20F8022D48BF00F8012DF5
:1036C00030BC7047C91818BF00F8012DCB0728BFC0
:1036D00000F8012D704730B4002513E050F8042B9A
:1036E000D30744BFA9F101039A18091F042942F81E
:1036F000045BFAD213468C0744BF15809B1CC90794
:1037000048BF1D7050F8041B0029E7D130BC70473A
:103710002DE9F34F81B093460026002400255FF089
:10372000000A0127DDF80880DDF804901BF0030F84
:1037300029D158468008002104000D0002F0E8FB62
:103740004FF47A7002F008FC00200600300080B2CE
:103750000021A94215D801D3A04212D2D8F8000006
:10376000824652464946022002F0A8FB0700380074
:10377000C0B2012805D019F1040918F10408761C1B
:10378000E4E702F0E2FB3800C0B2BDE8FE8F70B59E
:103790000400012502F0BCFB06004FF47A7002F031
:1037A000DBFB3000C0B2002802D1200002F05AFC3E
:1037B0004FF47A7002F0D0FB05000748016831F43D
:1037C00000710160016831F00801016002F0BDFB89
:1037D0002800C0B270BD0000043C024070B5040077
:1037E0000D000026AE4207D24FF4807000FB064069
:1037F000FFF7CDFF761CF5E770BDF0B400230500A0
:103800000E000024230017009BB2BFB2BB4205D2BA
:103810002B783370761C6D1C641CF3E7F0BC70478A
:103820002DE9F041C0B004000D00160000274FF450
:1038300080710022E8464046FFF71AFF2000FFF79C
:10384000A6FFAA208DF8000030008DF801005FF07F
:1038500000084046310080B289B288420AD2404610
:1038600080B2285C6946424692B21144887018F1D1
:103870000108EEE7B61C300080B20421B6B2361D56
:10388000361A90FBF1F001FB0066320092B26946F5
:103890002000FFF73DFF002801D0002000E00120BC
:1038A00040B0BDE8F0817C0001480068704700BF6F
:1038B00028330020002203009BB24FF4FA714B43DF
:1038C0009A4202D2521C521CF5E7704770B50400B0
:1038D0000D0016003000C0B2002805D10022218959
:1038E0006068FEF7A4FD08E03000C0B2012804D1F2
:1038F000012221896068FEF79AFD15F00102218BF3
:103900006069FEF794FD2A00D2B2520812F001025B
:10391000218CE069FEF78BFD2A00D2B2920812F0EA
:103920000102218D606AFEF782FD2A00D2B2D20820
:1039300012F00102218EE06AFEF779FD2A00D2B270
:10394000120912F00102218F606BFEF770FD2A0050
:10395000D2B2520912F00102B4F84010E06BFEF747
:1039600066FD2A00D2B2920912F00102B4F84810A2
:10397000606CFEF75CFD2A00D2B2D209B4F8501098
:10398000E06CFEF754FD0022218AE068FEF74FFD4F
:103990000120FFF78FFF0122218AE068FEF747FD33
:1039A0000120FFF787FF0022218AE068FEF73FFD34
:1039B0000120FFF77FFF70BD2DE9F04104000D00ED
:1039C00016002F00FFB23F09A8463000C0B2002801
:1039D00005D1002221896068FEF729FD08E030004A
:1039E000C0B2012804D1012221896068FEF71FFDC1
:1039F00017F00102218F606BFEF719FD3A00D2B279
:103A0000520812F00102B4F84010E06BFEF70FFD0F
:103A10003A00D2B2920812F00102B4F84810606C79
:103A2000FEF705FD3A00D2B2D20812F00102B4F856
:103A30005010E06CFEF7FBFC0022218AE068FEF7E4
:103A4000F6FC0120FFF736FF0122218AE068FEF72D
:103A5000EEFC0120FFF72EFF0022218AE068FEF72E
:103A6000E6FC0120FFF726FF18F00102218F606BB2
:103A7000FEF7DDFC4246D2B2520812F00102B4F861
:103A80004010E06BFEF7D3FC4246D2B2920812F02F
:103A90000102B4F84810606CFEF7C9FC4246D2B28D
:103AA000D20812F00102B4F85010E06CFEF7BFFC2F
:103AB0000022218AE068FEF7BAFC0120FFF7FAFE37
:103AC0000122218AE068FEF7B2FC0120FFF7F2FE36
:103AD0000022218AE068FEF7AAFC0120FFF7EAFE37
:103AE000BDE8F0812DE9FE4F8046109CDDF8449042
:103AF000129DDDF84CA0149EDDF854B0169F0020F6
:103B000088F800009DF8000088F801009DF8040086
:103B100088F802000298C8F80400BDF83000A8F840
:103B200008000D98C8F80C00BDF83800A8F810007F
:103B30000F98C8F83400A8F83840C8F83C90A8F8A6
:103B40004050C8F844A0A8F84860C8F84CB0A8F89D
:103B50005070282088F85500062088F852000C2064
:103B600088F85300142088F854003220FFF7A2FE92
:103B7000002233214046FFF71FFF0520FFF79AFE82
:103B8000002233214046FFF717FF0520FFF792FE82
:103B9000002232214046FFF70FFF0520FFF78AFE83
:103BA000002298F852104046FFF706FF002298F8CE
:103BB00053104046FFF700FF002298F8541040468B
:103BC000FFF7FAFE002298F855104046FFF7F4FE82
:103BD000002201214046FFF7EFFE0022022140466D
:103BE000FFF7EAFEBDE8F78FF8B504000D001600F8
:103BF000002069465A4A13680B6029006278C9B2EE
:103C0000914202D36178491E0D003100A278C9B2F9
:103C1000914202D3A178491E0E003100C9B2022997
:103C200005DA69463200D2B28F5CEF1905E06946C9
:103C30003200D2B2895C69180F1F2078102807D192
:103C4000002257F08001C9B22000FFF73FFE09E0D3
:103C50002078002806D1002257F08001C9B2200048
:103C6000FFF7AAFEF1BD38B504000D00207810283A
:103C700006D101222900C9B22000FFF727FE08E083
:103C80002078002805D101222900C9B22000FFF7C1
:103C900093FE31BD38B504000D002878002805D00A
:103CA00029782000FFF7DFFF6D1CF6E731BD10B566
:103CB00004002078102805D1002201212000FFF700
:103CC00005FE07E02078002804D100220121200011
:103CD000FFF772FE1420FFF7EDFD10BD0100080094
:103CE000C0B2002801D1012038E00800C0B201288C
:103CF00001D10A2032E00800C0B2022801D16420BC
:103D00002CE00800C0B2032802D14FF47A7025E0FD
:103D10000800C0B2042802D142F210701EE0080070
:103D2000C0B2052801D10F4818E00800C0B206282B
:103D300001D10D4812E00800C0B2072801D10B489C
:103D40000CE00800C0B2082801D1094806E00800CC
:103D5000C0B2092801D1074800E0012070470000E7
:103D600078010108A086010040420F00809698006B
:103D700000E1F50500CA9A3B2DE9F84F82468B46D3
:103D8000002500200A260027B046B946BBF1000FE7
:103D900008D5DBF100042D212A00D2B20AF8021066
:103DA0006D1C00E05C462000002142464B4601F0BD
:103DB0009BFC002901D1002808D0A6FB080106FBC6
:103DC000091107FB081180468946ECE74046494641
:103DD0000A22002301F088FC06000F00002F01D109
:103DE000002E28D02000002132003B0001F07CFC96
:103DF00030302900C9B20AF801006D1CA0465FF0FE
:103E000000092000002132003B0001F06DFCA6FB00
:103E1000002306FB013307FB0033B8EB020079EB0C
:103E200003010400300039000A22002301F05CFC89
:103E300006000F00D2E72800C0B2BDE8F28F2DE9DE
:103E4000F74F04001D000D9E5FF0000B2900C9B262
:103E50009DF80800091A491C5846C0B2814207DB88
:103E60005846C0B2305C002802D01BF1010BEDE7D0
:103E700028009DF80810C0B28842C0F08A809DF8E2
:103E800004209DF808102000FFF7AEFE5FF0000848
:103E90009DF80890B5EB090919F101094946C9B225
:103EA0005846C0B2091A022091FBF0F79DF8300085
:103EB000002803D0022843D01FD36AE09DF808A051
:103EC00028005146C0B2C9B2884215D35846C0B284
:103ED00000280AD04046C0B2315C2000FFF7C3FE84
:103EE000BBF1010B18F1010803E020212000FFF7CE
:103EF000BAFE1AF1010AE3E74BE09DF808A028009A
:103F00005146C0B2C9B2884219D358464946C0B2D8
:103F1000C9B288420AD34046C0B2315C2000FFF7E4
:103F2000A2FEBBF1010B18F1010803E020212000E3
:103F3000FFF799FEB9F101091AF1010ADFE728E05C
:103F40009DF808A028005146C0B2C9B288421FD3CC
:103F50003800C0B2002813D15846C0B200280AD099
:103F60004046C0B2315C2000FFF77DFEBBF1010B83
:103F700018F1010809E020212000FFF774FE04E099
:103F800020212000FFF76FFE7F1E1AF1010AD9E7FA
:103F9000FFE7BDE8F78F2DE9FF4F85B01422002120
:103FA000684602F075F800270024002000261399C7
:103FB000002902D5139D6D4200E0139D13996846B8
:103FC000FFF7DAFE8346002D4ED09DF85000FFF734
:103FD00085FE01008D4204D20A204543761C002D47
:103FE000F8D13000C0B2002821D058466A460300FC
:103FF000DBB21A4412F8012C2D2A03D00200D2B2EF
:10400000002A08D130226B460400E4B21A551BF195
:10401000010B761EE5E76A460300DBB21A4412F88C
:10402000012C6B460400E4B21A55401EDEE70A205C
:10403000B1FBF0F45E46002C16D00A20B4FBF0F47D
:10404000684669463200D2B2114411F8011C3200B0
:10405000D2B28154761E002CEDD12E213200D2B284
:1040600081541BF1010BE6E79DF820009DF81C1020
:104070008842C0F08F809DF818209DF81C1005988C
:10408000FFF7B2FD5FF000089DF820009DF81C903E
:10409000B0EB090919F101094946C9B25846C0B245
:1040A000091A022091FBF0F79DF84800002803D080
:1040B000022845D020D36DE09DF81CA09DF820007B
:1040C0005146C9B2884216D35846C0B200280BD018
:1040D00068464146C9B2415C0598FFF7C4FDBBF193
:1040E000010B18F1010803E020210598FFF7BBFD43
:1040F0001AF1010AE2E74DE09DF81CA09DF82000AE
:104100005146C9B288421AD358464946C0B2C9B2CC
:1041100088420BD368464146C9B2415C0598FFF717
:10412000A2FDBBF1010B18F1010803E02021059865
:10413000FFF799FDB9F101091AF1010ADEE729E05B
:104140009DF81CA09DF820005146C9B2884220D39A
:104150003800C0B2002814D15846C0B200280BD095
:1041600068464146C9B2415C0598FFF77CFDBBF14A
:10417000010B18F1010809E020210598FFF773FDF4
:1041800004E020210598FFF76EFD7F1E1AF1010A59
:10419000D8E7FFE709B0BDE8F08F410070B5040033
:1041A000FFF782FB0500260016F1010F02D004483C
:1041B00000688619FFF778FB401BB042FAD370BD48
:1041C000040000202DE9F84F8AB0060014001D00FD
:1041D000DDF850905FF0000A5FF0000800271E2114
:1041E00000220DF1080B5846FFF742FADFF8C02312
:1041F000D2E90001CDE9000102A80090002D09D10B
:10420000002C07D130203168B2888854B088401C17
:10421000B08068E0002D01D1002C1AD020002900C8
:104220000A22002301F060FA9046200029000A22A9
:10423000002301F059FA04000D0018F13000009934
:10424000BDF804208854BDF80400401CADF80400FB
:10425000E0E75FF0000BBDF80400022190FBF1F0F5
:10426000594689B281421FDA0098BDF8041008440B
:10427000594689B24942084410F8010C07000098D9
:10428000BDF804100844594689B2494208440099CF
:104290005A4692B2895C00F8011C0098594689B2CE
:1042A00047541BF1010BD6E74946C9B2684600F0F6
:1042B0001DF800210800BDF8042080B290420DD204
:1042C0003068B28810440A0092B2009B8C461FFAF4
:1042D0008CFC13F80C308354491CEBE7B288BDF812
:1042E00004008218B2800BB0BDE8F08F2DE9F847CA
:1042F00085B005000E005FF00009142100226C4615
:104300002000FFF7B5F9002400275FF00008002027
:10431000A988012903D129680978302903D03100FF
:10432000C9B2002900D1A7E03100C9B2AA8889B278
:10433000914235D3694630222300DBB2CA54641C53
:104340002E222300DBB2CA54641CAA88B21A1700BA
:1043500000231A00BC465FFA8CFC92B21FFA8CFC58
:10436000624508D23022A4465FFA8CFC01F80C208A
:10437000641C5B1CEDE700221300B5F804C09BB27F
:10438000634543D22B6894461FFA8CFC13F80C301B
:10439000A4465FFA8CFC01F80C30641C521CEBE75D
:1043A000A988891B884600210A004346DBB292B2E5
:1043B0009BB29A420CD22A680B009BB2D25C6B462D
:1043C000A4465FFA8CFC03F80C20641C491CEBE744
:1043D0006B462E22A4465FFA8CFC03F80C20641C6A
:1043E0004246D2B21100B5F804C089B261450DD27F
:1043F000296894461FFA8CFC11F80C10A4465FFA49
:104400008CFC03F80C10641C521CEBE7A1464946D7
:10441000C9B2B1F1010A504680B2002815D06846F1
:10442000514689B2415C302906D0514689B2405C80
:104430002E2800D1641E08E0514689B2405C302825
:1044400000D1641EBAF1010AE5E7280000F017F870
:10445000002001002200D2B289B292B291420BD266
:10446000A9884A1CAA806A4603009BB2D25C2B68CA
:1044700089B25A54401CECE706B0BDE8F08710B48E
:1044800000210A00838892B29A4206D20022036871
:104490000C00A4B21A55491CF3E70022828010BC1C
:1044A000704770B4030000220024002000252A0079
:1044B0000E00D2B2F6B2B24220D22A00D2B29A5C38
:1044C000302A0ADB2A00D2B29A5C3A2A05DA2A009C
:1044D000D2B29A5C303A140001E0002214002A00A3
:1044E000D2B2002A03D12200D2B2100004E00A2680
:1044F0002200D2B206FB00206D1CD8E770BC7047CA
:1045000010B4040013005A1E9BB2002B02D021707D
:10451000641CF7E710BC704770B504000D0016006E
:104520002000C0B2032804DA310089B2280000F06C
:1045300096F870BD38B504000D00280001F0B2FDFA
:10454000020092B229002000C0B2FFF7E5FF31BDA2
:1045500070B504000D001600320092B22900200050
:10456000C0B2FFF7D9FF134A1068002804D0310009
:1045700089B228001268904770BD70B504000D0024
:10458000280001F08FFD020092B229002000C0B285
:10459000FFF7C2FF074E3068002807D0280001F05F
:1045A00081FD010089B228003268904770BD00008B
:1045B000700101085C33002010B5364C00223649EA
:1045C000200001F031FF3549200001F03AFF0020C2
:1045D00010BD0020704703001800C0B2002810D0A2
:1045E00001280FD002280ED003280DD004280CD0AB
:1045F00020280BD021280AD0222809D0232808D02F
:1046000008E007E006E005E004E003E002E001E086
:1046100000E0FFE70020704770B504000D001D4E5C
:104620002100300001F00DFF300001F032FF1C4886
:10463000828800210068FFF763FF1A48296881809B
:1046400000218288914204D2625C03685A54491C5A
:10465000F7E701211448FDF71BFD002070BD2DE98F
:10466000F04104000D0000260A4FD7F89082D8F8D8
:104670001402002801D0012009E02A0092B2210092
:10468000380001F0D1FE380001F0E2FEC0B2BDE812
:10469000F081000034240020481900204815002033
:1046A000640B00205C0B00200C02002010B50400FD
:1046B000002C01D1012035E0A0690028FFD194F839
:1046C0004100002805D1002084F84000200000F0BF
:1046D0006DFC242084F841002068C06830F400504C
:1046E0002168C860200000F08DFB2068006930F46C
:1046F0009040216808612068406930F02A002168F4
:1047000048612068C06850F400502168C8600020EB
:104710006064202084F84100202084F842000020BA
:104720006063002010BD10B50400002C01D10120F1
:104730001BE0242084F841002068C06830F4005059
:104740002168C860200000F083FC00206064002025
:1047500084F84100002084F84200002020630020FB
:104760006063002084F84000002010BD2DE9FC4764
:1047700006000D0017009846002496F841002028F6
:1047800051D1002D03D0380080B2002801D1012082
:104790004AE000207064212086F84100FFF784F889
:1047A0008146B784F784B068B0F5805F05D1306981
:1047B000002802D10024AA4602E02C005FF0000A83
:1047C000F08C00281ED0CDF800804B4600228021BE
:1047D000300000F0AFF9002801D0032024E0002CC5
:1047E00008D1BAF80000C005C00D316848601AF160
:1047F000020A03E0207831684860641CF08C401E97
:10480000F084DDE7CDF800804B46002240213000E7
:1048100000F090F9002801D0032005E0202086F860
:104820004100002000E00220BDE8F68770B50500D9
:104830000C00160095F84200202810D1002C03D05F
:10484000300080B2002801D1012009E00020286357
:10485000320092B22100280000F0B4F900E00220FA
:1048600070BD2DE9FC470600306807683068D0F855
:104870000C803068D0F814900020002517F00F0449
:10488000002C08D1B80606D55FEA886003D5300051
:1048900000F03DFA4CE1002C00F080805FEAC97026
:1048A00002D418F4907F79D017F00100C0B200282C
:1048B00006D05FEAC85003D5706C50F001007064F8
:1048C000780708D519F00100C0B2002803D0706C39
:1048D00050F002007064B80708D519F00100C0B2AA
:1048E000002803D0706C50F00400706438070BD5BA
:1048F0005FEA886004D419F00100C0B2002803D038
:10490000706C50F008007064706C002845D0B806D8
:1049100005D55FEA886002D5300000F0F8F930680C
:104920004069800910F001000500706C000701D497
:10493000002D2DD0300000F067F930684069400646
:1049400022D53068143050E8000F30F040000100EC
:10495000306810F1140242E800100028F1D1F06B29
:1049600000280DD00FF20930F16B4863F06B01F0B5
:10497000AFFE002811D0F06BF16B496B88470CE05B
:10498000300000F0B5FB08E0300000F0B1FB04E0BF
:10499000300000F0ADFB00207064C9E0306B0128EE
:1049A00040F0B480F80640F1B1805FEAC86040F1A1
:1049B000AD8000200090306800680090306840684A
:1049C000009000983068406940065CD5F06B006844
:1049D000D0F804A0504680B2002853D05046B18D84
:1049E00080B288424ED2A6F82EA0F06B80692028B3
:1049F0003FD030680C3050E8000F30F48070010078
:104A0000306810F10C0242E800100028F1D1306843
:104A1000143050E8000F400840000100306810F1E9
:104A2000140242E800100028F1D13068143050E838
:104A3000000F30F040000100306810F1140242E82D
:104A400000100028F1D1202086F8420000203063B9
:104A500030680C3050E8000F30F010000100306872
:104A600010F10C0242E800100028F1D1F06B01F0C7
:104A700005FE02207063B18DF08D091A89B23000F5
:104A800000F035FB54E0B08DB6F82EA0B0EB0A0A6A
:104A9000F08D002839D0504680B2002835D03068DB
:104AA0000C3050E8000F30F490700100306810F1C5
:104AB0000C0242E800100028F1D13068143050E8B0
:104AC000000F400840000100306810F1140242E875
:104AD00000100028F1D1202086F842000020306329
:104AE00030680C3050E8000F30F0100001003068E2
:104AF00010F10C0242E800100028F1D1022070638E
:104B0000514689B2300000F0F2FA11E0380606D5BD
:104B10005FEA086003D5300000F0B6F808E07806D8
:104B200006D55FEA486003D5300000F0E0F8FFE703
:104B3000BDE8F3872DE9F04105000E001700984607
:104B4000069C286800683040B04201D1012000E096
:104B500000203900C9B2884231D114F1010FF0D0E0
:104B6000002C05D0FEF7A0FEB0EB08008442E8D28E
:104B700028680C3050E8000F30F4D070010028682D
:104B800010F10C0242E800100028F1D1286814301E
:104B900050E8000F400840000100286810F114029E
:104BA00042E800100028F1D1202085F841002020A3
:104BB00085F84200002085F84000032000E0002036
:104BC000BDE8F08110B4030099629A85DA8500206F
:104BD0005864222083F842001869002805D018681C
:104BE000C06850F480701C68E0601868406950F03C
:104BF00001001C6860611868C06850F020001C68E3
:104C0000E060002010BC704701680C3151E8001FC3
:104C100031F490710A00016811F10C0343E800219E
:104C20000029F1D10168143151E8001F49084900F9
:104C30000A00016811F1140343E800210029F1D1B1
:104C4000016B01290DD101680C3151E8001F31F0D1
:104C500010010A00016811F10C0343E8002100294A
:104C6000F1D1202180F8421000210163704700003B
:104C700038B50400656A0020E8850020E884280033
:104C800000F036FA31BD0000010091F84100212802
:104C90002BD18868B0F5805F0DD1086900280AD152
:104CA000086A02001088C005C00D0B685860086AC9
:104CB000801C086205E0086A431C0B6200780B68E0
:104CC0005860C88C401EC88480B200280BD1086888
:104CD000C06830F080000B68D8600868C06850F089
:104CE00040000B68D860002000E00220704710B53B
:104CF00004002068C06830F040002168C8602020AF
:104D000084F84100200001F0A4FD002010BD7CB516
:104D1000040094F84200222872D1A068B0F5805FA8
:104D20000DD1206900280AD10025A66A20684068B4
:104D3000C005C00D3080A06A801CA06217E0A56A83
:104D40000026A068B0F5805F05D0A068002806D1D5
:104D50002069002803D120684068287004E020689A
:104D6000406810F07F002870A06A401CA062E08DAF
:104D7000401EE08580B2002840D12068C06830F035
:104D800020002168C8602068C06830F48070216805
:104D9000C8602068406940084000216848612020C0
:104DA00084F8420000206063206B012821D100209C
:104DB000206320680C3050E8000F30F01000010034
:104DC000206810F10C0242E800100028F1D12068A0
:104DD0000068C00608D50020009020680068009098
:104DE0002068406800900098A18D200000F07FF9B5
:104DF00002E0200000F062F9002002E0002000E064
:104E0000022076BDF8B504002068016931F44051F4
:104E1000E068014320680161A56820690543606975
:104E20000543E06905432068C168514801402943B2
:104E30002068C1602068416931F44071A069014374
:104E40002068416120684B49884202D102F0C5F8D0
:104E500001E002F0B7F8E169B1F5004F44D16421F7
:104E6000192202FB00F366687600B3FBF6F36426B2
:104E7000B3FBF6F302FB00F667687F00B6FBF7F6BC
:104E800002FB00F7D4F804C05FEA4C0CB7FBFCF758
:104E90005FF0640CB7FBFCF701FB1766F6003236D7
:104EA0006427B6FBF7F6760016F4F87616EB0316D1
:104EB00002FB00F367687F00B3FBF7F302FB00F22D
:104EC00067687F00B2FBF7F26427B2FBF7F201FBE1
:104ED0001231C90032316422B1FBF2F111F0070145
:104EE0008E1921688E6042E06421192202FB00F3D2
:104EF0006668B600B3FBF6F36426B3FBF6F302FB79
:104F000000F66768BF00B6FBF7F602FB00F7D4F8BF
:104F100004C05FEA8C0CB7FBFCF75FF0640CB7FBD6
:104F2000FCF701FB1766360132366427B6FBF7F64D
:104F300016F0F00616EB031602FB00F36768BF00DD
:104F4000B3FBF7F302FB00F26768BF00B2FBF7F2B6
:104F50006427B2FBF7F201FB1231090132316422FE
:104F6000B1FBF2F111F00F018E1921688E60F1BDD5
:104F7000F369FFFF0038014080B5404840490160B7
:104F80004FF416514160002181600021C160002171
:104F900001610C214161002181610021C161FFF7A4
:104FA00085FB002801D002F0FDF801BD38B586B0C0
:104FB00004001422002101A801F06AF82068304999
:104FC000884243D12F48016851F480410160006854
:104FD00010F48040009000982B48016851F00201C5
:104FE0000160006810F0020000900098C02001905D
:104FF00002200290002003900320049007200590D7
:1050000001A92248FDF76EF8214D224828600020B2
:1050100068600020A8608020E860002028610020EF
:1050200068612020A8610020E861280001F050FAA2
:10503000002801D002F0B6F8E5636C62002200217E
:10504000252002F03DF9252002F04FF907B030BDD0
:1050500010B5040020680A4988420ED10948016849
:1050600031F480410160C0210848FDF71FF9E06B71
:1050700001F06DFA252002F03FF910BD0831002043
:1050800000380140203802401C3802400004024031
:1050900050310020586002407047704780B50122AF
:1050A00025492648FFF7C2FB01BD704780B5FFF7D1
:1050B000F5FFFFF7F1FFFFF7F0FF01BD70B504004A
:1050C0001E4821680268914210D11D4A1A490B7886
:1050D00015689688AB5593885B1C93809388632BE7
:1050E00001D3002393800122FFF7A0FB70BD70471E
:1050F00010B50400206811490968884202D10220D5
:105100001049087002211048FCF7C2FF10BD10B50D
:105110000C4C2078002801D1FFF7BFFF2078012830
:1051200003D1FFF7C2FFFFF7B7FF2078022801D1B4
:10513000FFF7B4FF10BD0000AD33002008310020A0
:10514000640B0020AE3300200C02002010B50400D8
:10515000002C01D1012023E094F83900002805D16A
:10516000002084F83800200002F021F9022084F8A1
:105170003900211D206800F06AF9012084F83E0002
:10518000012084F83A00012084F83B00012084F8D3
:105190003C00012084F83D00012084F83900002003
:1051A00010BD010091F83900012801D0012030E044
:1051B000022081F839000868C06850F001000B68CF
:1051C000D8600868B0F1804F0ED00868DFF844302E
:1051D000984209D00868DFF84030984204D0086847
:1051E000DFF8383098420DD10868806810F0070069
:1051F0000200062A0CD00868006850F001000B6815
:10520000186005E00868006850F001000B6818603D
:1052100000207047000400400008004000080140E2
:1052200010B504002068006980071AD52068C0689E
:10523000800716D57FF002002168086101202076E2
:105240002068806910F0030F03D0200002F0CCF832
:1052500005E0200002F0C9F8200002F0C7F80020A5
:1052600020762068006940071AD52068C06840078A
:1052700016D57FF00400216808610220207620689E
:10528000806910F4407F03D0200002F0ADF805E003
:10529000200002F0AAF8200002F0A8F800202076F2
:1052A0002068006900071AD52068C068000716D575
:1052B0007FF0080021680861042020762068C0691A
:1052C00010F0030F03D0200002F08EF805E020005C
:1052D00002F08BF8200002F089F800202076206888
:1052E0000069C0061AD52068C068C00616D57FF0D0
:1052F000100021680861082020762068C06910F439
:10530000407F03D0200002F06FF805E0200002F09B
:105310006CF8200002F06AF800202076206800690E
:10532000C0070AD52068C068C00706D57FF0010015
:10533000216808612000FDF7C7FE2068006940066B
:105340000AD52068C068400606D57FF04000216875
:105350000861200002F04BF810BDF8B504000D0004
:10536000002694F83800012801D102206EE00120C7
:1053700084F83800022084F839002068876837F004
:10538000770737F47F4720688760286800284ED069
:1053900010284CD020284AD0302848D040283CD073
:1053A000502826D060282ED0702807D0B0F5805F16
:1053B00003D0B0F5005F0FD03EE03FE0EB686A68D5
:1053C000A968206800F0B5F82068806850F0770080
:1053D00007002068876031E0EB686A68A968206888
:1053E00000F0A7F82068806850F480402168886049
:1053F00024E0EA686968206800F06EF850212068AF
:1054000000F08FF81AE0EA686968206800F076F822
:105410006021206800F085F810E0EA68696820687B
:1054200000F05AF84021206800F07BF806E0296877
:10543000206800F076F801E001200600012084F8E1
:105440003900002084F838003000C0B2F2BD036893
:10545000B0F1804F0BD01A4A904208D0194A9042BE
:1054600005D0194A904202D0184A904203D133F035
:1054700070034A681343B0F1804F11D0104A904234
:105480000ED0104A90420BD00F4A904208D00F4ADB
:10549000904205D00E4A904202D00E4A904203D16B
:1054A00033F44073CA68134333F080030A6913432B
:1054B00003608A68C2620A688262012242617047A0
:1054C0000004004000080040000C004000080140BB
:1054D000000C01400010014010B4046A036A5B082C
:1054E0005B000362836933F0F00353EA021334F084
:1054F0000A040C438361046210BC704710B4046A50
:10550000036A33F010030362836933F4704353EA90
:10551000023334F0A00454EA01148361046210BC25
:105520007047836833F0700351F0070213438360C0
:10553000704730B4846834F47F4452EA010555EA78
:1055400003252C43846030BC7047250001000120F6
:10555000704701000120704710B504004249888857
:1055600000280DD0414802888B889A4206D100213C
:10557000018003213E48FCF78BFD01E08988018012
:105580002100C9B23A48FCF792FD012010BD01008C
:1055900001207047F8B504000D00364E01224FF48B
:1055A00080713000FCF743FF0520FEF7F7FD4FF454
:1055B0007A732A0092B221002F48FFF7D7F82A4FBA
:1055C000BA8800213868FEF79BFF0020B8800020D1
:1055D0002649088000224FF480713000FCF727FF35
:1055E000F1BD70B50020002400252800C0B20428B9
:1055F00036DA1F4E2800C0B200013044407801283E
:105600002CD1012004002800C0B2000130444068C1
:1056100000280ED0FEF748F92900C9B2090131442B
:105620004968401A2900C9B2090131448968884291
:1056300014D300202900C9B2090131444870FEF793
:1056400033F92900C9B20901314448602800C0B2C9
:105650002900C9B209013144C96888476D1CC4E7F3
:105660002000C0B270BD0000640B00209433002005
:1056700030090020000402400831002038B5040041
:10568000002C01D1012026E04CF6CC4021680860B6
:1056900045F2555021680860606821684860A0683C
:1056A00021688860FEF700F905002068C06810F0E6
:1056B000030F0BD0FEF7F8F8401B2B28F5D320681A
:1056C000C06810F0030FF0D0032004E04AF6AA20CF
:1056D00021680860002032BD01004AF6AA200A684D
:1056E0001060002070470000BBBBE1B1B2F5803F05
:1056F00080F07E80022A1ED98C46B1FBF2F102FBBB
:1057000011C31B0443EA1043B3FBF2FC02FB1C333E
:1057100080B240EA0343B3FBF2F002FB103240EAEE
:105720000C4000237047022A05D98446B0FBF2F0F2
:1057300002FB10C270474AB105D100F001024908CE
:105740005FEA3000704700220023704701F050BE2E
:105750000B000200002100207047904271EB030C07
:10576000F6D3B3F5803F2FD2F0B5B3FA83F7B1FA91
:1057700081F4A7F10F0E3D1B5340CEF1200602FA33
:105780000EF2F3415340B5F10F0746D80F3C2C44BD
:105790004140C4F12006A040F1414140B1FBF3F685
:1057A00003FB1611A2FB0645001BA94102D2761E7F
:1057B0008018594180EA010221FA0EF362FA0EF2D2
:1057C00000215A403046F0BD30B4B1FBF3FC03FB7E
:1057D0001C11A2FB0C45001BA94103D2ACF1010C2A
:1057E0008018594130BC02460B4660460021704784
:1057F000B2F1807F65D3F0B5B2FA82F7B1FA81F4E5
:10580000C7F10F063D1B22FA06F307F1110EF24114
:1058100020355A40B5F10F07B8D94140C4F12006F0
:10582000A040F1414140B1FBF3FC03FB1C11A2FB82
:105830000C45001BA94103D2BCF1010C8018594151
:105840000F2F12D30F3FC90341EA5041B1FBF3F6CA
:1058500003FB1611A2FB0645D4EBC030A94102D2CE
:10586000761E8018594146EACC3C07B34140C7F147
:105870002006B840F1414140B1FBF3F603FB16119D
:10588000A2FB0645001BA94102D2761E8018594191
:1058900080EA010221FA0EF3C7F1200462FA0EF247
:1058A0000CFA07F05A402CFA04F13043F0BD80EABC
:1058B000010221FA0EF3002162FA0EF260465A400C
:1058C000F0BD8C46B1FBF2F102FB11C31B0243EAAF
:1058D0001063B3FBF2FC02FB1C331B024CEA0020FA
:1058E00043EA1063B3FBF2FC02FB1C331B024CEADD
:1058F000002043EA1063B3FBF2FC02FB1C331B02E3
:105900004CEA002043EA1063B3FBF2FC02FB1C32BA
:105910004CEA002000237047F8B50400002500265B
:105920000027002C01D10120D5E02069002802D0F9
:1059300094F82C000028606B1028E06C002812D12D
:1059400000202065002084F84800DFF8B0040168DA
:1059500051F001010160006810F001000090009812
:10596000200001F0E6FDE06CC00600F1B080E06CC4
:1059700030F4885050F00200E064DFF884140A68C4
:1059800032F44032606802430A605FF48000B0FA8B
:1059900080F15FF08040B0FA80F2E3686069034311
:1059A00094F83C0010FA01F11943206A014394F87D
:1059B000240010FA02F211430F43606B102803D049
:1059C000616BA06B01430F4320680068400635D42B
:1059D000A06907432069B0F5807F02D020690128C3
:1059E00002D14FF4807100E00021A268E069024317
:1059F00011430E4394F82C00012817D194F8240089
:105A000000280BD15FF4E020B0FA80F0216B491E32
:105A100011FA00F050F40060064307E0E06C50F02B
:105A20002000E064206D50F001002065206841688E
:105A3000DFF8D0030140314320684160206881686D
:105A4000DFF8C40301403943206881602069B0F564
:105A5000807F02D02069012802D14FF4807000E0DD
:105A60000020B0F5807F0FD12068006B4FF4786183
:105A7000B1FA81F130F0F870A26A521E12FA01F107
:105A800008432168086305E02068006B30F0F87077
:105A90002168086320688168DFF870030140B9421B
:105AA00008D100202065E06C30F0020050F00100C9
:105AB000E0640EE0E06C30F0020050F01000E064B2
:105AC000206D50F0010020650120050001E001205B
:105AD00005002800C0B2F2BD2DE9F04104000D0020
