:020000040800F2
:102C000088410020C99F0108A18A0108A38A010800
:102C1000A58A0108A78A0108A98A01080000000006
:102C2000000000000000000000000000AB8A010866
:102C3000AD8A010800000000AF8A0108B18A0108CE
:102C4000EDA60108F1A60108F5A60108F9A60108FC
:102C5000FDA6010801A7010805A7010809A70108A9
:102C60000DA7010811A7010815A7010819A7010858
:102C70001DA70108C18A010821A70108CB8A010804
:102C8000D58A010825A7010829A701082DA7010851
:102C900031A7010835A7010839A701083DA7010898
:102CA0000000000041A7010845A7010849A7010845
:102CB0004DA7010851A7010855A7010859A7010808
:102CC0005DA7010861A7010865A7010869A70108B8
:102CD0006DA70108DF8A0108E98A0108F38A010863
:102CE00071A70108FD8A010875A7010879A70108E5
:102CF0007DA701080000000081A7010885A7010841
:102D0000000000000000000089A701088DA701084D
:102D100091A7010895A7010899A7010800000000E4
:102D20009DA70108F8B504000D0000260027DFF874
:102D300048CB9CF80000022801D10120070029009F
:102D400089B23800C0B241181431A08881422EDB0C
:102D500001230422DFF8241B9CF8000001F00FFF80
:102D600014220021DFF8180B02F0B8FADFF8141B68
:102D7000002008812E00320092B2A3883800C0B231
:102D80001B1A9A420EDA088914280BD220683200E6
:102D900092B2805C4A680B89D0540889401C088133
:102DA000761CE8E702F070FB01F0A5FE07E00023C7
:102DB0000E22DFF8241C9CF8000001F0E0FEF1BDBB
:102DC00038B504000D00DFF8BC0A00230289416811
:102DD000DFF8A40A007801F0D2FE31BD38B5040056
:102DE0000D00DFF8A40A002382880168DFF8880A52
:102DF000007801F0C4FE31BD70B58CB004000E0047
:102E0000DFF8880AD0E90023CDE90A23DFF8800A39
:102E1000D0E90023CDE90823DFF8780AD0E90023C0
:102E2000CDE90623DFF8B40BD0E90023CDE9042374
:102E3000A088412809DB00230522DFF8A41BDFF866
:102E4000380A007801F09BFEB0E000252800A18838
:102E500080B2884207D22068290089B2405C2028CD
:102E600001D16D1CF2E72C20216881F83F00206819
:102E7000290089B208440A902800451C216880B2C4
:102E8000085C2C2809D0BDF82C00401CADF82C00A3
:102E9000A088290089B28842EED22068290089B230
:102EA00008440890280080B2402810DA2800451C09
:102EB000216880B2085C2C2809D0BDF82400401C91
:102EC000ADF82400A088290089B28842EED220689B
:102ED000290089B208440690280080B2402810DA00
:102EE0002800451C216880B2085C2C2809D0BDF858
:102EF0001C00401CADF81C00A088290089B2884243
:102F0000EED22068290089B208440490280080B2DB
:102F100040280BDA2800A18880B2884206D2BDF88A
:102F20001400401CADF814006D1CF3E7BDF82C0034
:102F3000002832D0BDF82C0028282EDABDF8240055
:102F400000282AD0BDF824000A2826DABDF81C0083
:102F5000292802DB2820ADF81C00BDF81400292820
:102F600002DB2820ADF81400DDE90401CDE90201FF
:102F7000DDE90601CDE90001DDE90823DDE90A010B
:102F800003F056F803F098FA00230222A5A1DFF817
:102F9000E808007801F0F3FD08E000230522DFF8DF
:102FA000401ADFF8D408007801F0E9FD0CB070BDDC
:102FB000F8B590B004000D000026402100226F46B5
:102FC000380003F03BFC684603F0A6F80700002336
:102FD0003A0092B26946DFF8A008007801F0CFFD10
:102FE00011B0F0BD70B58CB004000E00DFF8EC0B32
:102FF000D0E90023CDE90A23DFF8080CD0E900234B
:10300000CDE90823DFF8000CD0E90023CDE9062341
:10301000DFF8F80BD0E90023CDE90423A08841288C
:1030200009DB00230522DFF8B819DFF84C08007827
:1030300001F0A5FDB0E000252800A18880B28842FB
:1030400007D22068290089B2405C202801D16D1C7C
:10305000F2E72C20216881F83F002068290089B21E
:1030600008440A902800451C216880B2085C2C287E
:1030700009D0BDF82C00401CADF82C00A088290018
:1030800089B28842EED22068290089B208440890AB
:10309000280080B2402810DA2800451C216880B240
:1030A000085C2C2809D0BDF82400401CADF8240091
:1030B000A088290089B28842EED22068290089B20E
:1030C00008440690280080B2402810DA2800451CE9
:1030D000216880B2085C2C2809D0BDF81C00401C77
:1030E000ADF81C00A088290089B28842EED2206881
:1030F000290089B208440490280080B240280BDAE5
:103100002800A18880B2884206D2BDF81400401C75
:10311000ADF814006D1CF3E7BDF82C00002832D088
:10312000BDF82C0028282EDABDF8240000282AD06B
:10313000BDF824000A2826DABDF81C00292802DB85
:103140002820ADF81C00BDF81400292802DB282037
:10315000ADF81400DDE90401CDE90201DDE9060165
:10316000CDE90001DDE90823DDE90A0103F032F8C9
:1031700003F024FA002302222AA1DFF8FC060078DB
:1031800001F0FDFC08E000230522DFF85418DFF809
:10319000E806007801F0F3FC0CB070BDF8B590B013
:1031A00004000D000026402100226F46380003F085
:1031B00045FB684603F082F8070000233A0092B20C
:1031C0006946DFF8B406007801F0D9FC11B0F0BD13
:1031D00038B504000D00DFF8580A417B012902D000
:1031E000022903D005E0022141730CE00121417363
:1031F00009E000230522DFF8E817DFF87C060078F5
:1032000001F0BDFC0DE00023022206A1DFF86806F4
:10321000007801F0B4FC0020DFF8741DC87003F0E2
:10322000E3FE31BD4F4B00002DE9F84304000F00D1
:1032300000250026A088390089B2491D884209DA94
:1032400000230D22DFF8B41BDFF82C06007801F014
:1032500096FC4AE02068390089B2405CB0F1300247
:103260007F1C0A2120683B009BB2C05C01FB02026C
:10327000B2F130087F1C7F1C20683A0092B2805C5B
:10328000B0F130027F1C20683B009BB2C05C01FBA8
:103290000202B2F130097F1C4046C0B200281BD0A8
:1032A0004046C0B2332817DA484680B23D2813DAC8
:1032B000DFF84C0B80F80080A0F8029002F052F981
:1032C00004F051F901230422DFF8B015DFF8A80556
:1032D000007801F054FC08E000230722DFF8241BEB
:1032E000DFF89405007801F04AFCBDE8F183FEB5F3
:1032F00004000D0000260C2100226F46380003F068
:103300009DFA684666213200D2B28154761C722141
:103310003200D2B28154761C65213200D2B281547F
:10332000761C71213200D2B28154761C3D213200CC
:10333000D2B28154761CDFF8C81A0A780A2392FBAD
:10334000F3F230323300DBB2C254761C0A780A231F
:1033500092FBF3F703FB172230323300DBB2C25487
:10336000761C78223300DBB2C254761C4A880A23CA
:1033700092FBF3F20A2392FBF3F703FB172230329E
:103380003300DBB2C254761C49880A2291FBF2F367
:1033900002FB131130313200D2B28154761C00236B
:1033A0003200D2B292B26946DFF8CC04007801F064
:1033B000E6FBF7BD2DE9F04104000D002E000027CB
:1033C0005FF000083000A18880B288420DD22068EA
:1033D000310089B2405C302805DB2068310089B2B9
:1033E000405C3A2801DB761CECE73000A18880B213
:1033F00088421AD22068310089B2405C804640463B
:10340000C0B2302808DB4046C0B23A2804DA3000A7
:10341000A18880B2884200D307E00A214046C0B2AA
:1034200001FB0707303F761CDFE7DFF8D409476070
:1034300002F098F804F097F800230522DFF8D41B77
:10344000DFF83404007801F09AFBBDE8F08138B56C
:1034500088B004000D0003A8DFF8BC1B142204F0A0
:103460004BFADFF8480CD0E90023CDE9012303A88B
:10347000019000200090DFF888094268002301A82D
:1034800001F0D4FC0023BDF808200199DFF8E8031F
:10349000007801F074FB09B030BD704770B50400CE
:1034A0000D00002120682A0092B2805CB0F1300249
:1034B0006D1C0A2320682E00B6B2805D03FB020259
:1034C000B2F130066D1C3000C0B233280EDADFF8DE
:1034D0003009067002F046F801230422DFF89C133D
:1034E000DFF89403007801F04AFB08E0002306228D
:1034F000DFF8DC1BDFF88003007801F040FB70BDD3
:10350000704738B504000D00DFF86C03017801291D
:103510000CD101230422DFF86413007801F02FFBA3
:103520000621DFF8B00B04F02AFA03E00120DFF8EF
:10353000581D486331BD2DE9F84304000D00A9462C
:10354000002600275FF000084846A18880B2884224
:103550000ED22068494689B2405C302805DB2068DD
:10356000494689B2405C3A2802DB19F10109EBE7D0
:103570002068494689B2405C2C281BD02068494607
:1035800089B2405C80464046C0B2302808DB4046E5
:10359000C0B23A2804DA4846A18880B2884200D3F3
:1035A00008E00A214046C0B201FB0606303E19F190
:1035B0000109DDE74846A18880B288420ED2206822
:1035C000494689B2405C302805DB2068494689B20B
:1035D000405C3A2802DB19F10109EBE72068494613
:1035E00089B2405C2C281BD02068494689B2405CD7
:1035F00080464046C0B2302808DB4046C0B23A2878
:1036000004DA4846A18880B2884200D308E00A2143
:103610004046C0B201FB0707303F19F10109DDE761
:10362000B6F5803F0AD2B7F5803F07D200230222C9
:1036300090A19148007801F0A2FA07E000230E2241
:10364000DFF8481C8C48007801F099FABDE8F18356
:103650007047704770477047704770B40D00002383
:1036600000242A00868892B2B2420DD202682E004F
:10367000B6B2925D302A05DB02682E00B6B2925DCA
:103680003A2A01DB6D1CECE702682E00B6B2925DAF
:103690002C2A1AD002682E00B6B2925D14002200C5
:1036A000D2B2302A08DB2200D2B23A2A04DA2A0047
:1036B000868892B2B24200D307E00A262200D2B234
:1036C00006FB0323303B6D1CDEE770BC7047704780
:1036D00070B588B004000D000C2100226E46300049
:1036E00003F0ACF81421002203AE300003F0A6F87A
:1036F0002068290089B200EB0106B0783A2802D18F
:1037000070793A2807D000230522B5495A48007835
:1037100001F035FA3EE00A213278707801FB0202AE
:10372000B2F110008DF80000F278307901FB02024E
:10373000B2F110008DF80100B279F07901FB0201BD
:10374000B1F110008DF80200684604F0ACF90128D0
:1037500007D000230522A2494748007801F00FFA5C
:1037600018E09DF802008DF80E009DF801008DF81C
:103770000D009DF800008DF80C00002203A9DFF871
:10378000F00B04F07BFA002302223AA13A480078B9
:1037900001F0F5F908B070BD7FB504000D000C21F3
:1037A000002201AE300003F049F8042100226E46E9
:1037B000300003F043F82068290089B200EB0106CD
:1037C00070782D2805D130792D2802D1F0792D2857
:1037D00007D00023052282492748007801F0CFF95D
:1037E00046E0307831388DF807000A21B278F07859
:1037F00001FB0202B2F110008DF808007279B07975
:1038000001FB0202B2F110008DF80900327A707AE1
:1038100001FB0201B1F110008DF80A0001A804F0CB
:1038200042F9012807D0002305226D49124800788B
:1038300001F0A5F91CE09DF807008DF800009DF847
:1038400008008DF802009DF809008DF801009DF830
:103850000A008DF8030000226946DFF8140B04F01B
:10386000B4FA0023022203A10348007801F087F98B
:103870007FBD00004F4B0000763D0020F0A3010803
:10388000280E00203C0E00202012002038A4010841
:1038900040A4010848A401087FB504000D000C21D4
:1038A00000226E46300002F0C9FF206840782D28C3
:1038B00013D1206800792D280FD12068C0792D28D8
:1038C0000BD12068807A2C2807D12068407B3A28C9
:1038D00003D12068007C3A2808D000230522404903
:1038E000DFF84C0D007801F04AF973E020680078A9
:1038F00031388DF803000A21206882782068C0786A
:1039000001FB0202B2F110008DF804002068427938
:103910002068807901FB0202B2F110008DF80500E9
:103920002068027A2068407A01FB0202B2F110009E
:103930008DF806002068C27A2068007B01FB020235
:10394000B2F110008DF800002068827B2068C07BF7
:1039500001FB0202B2F110008DF801002068427CE8
:103960002068807C01FB0201B1F110008DF802009B
:10397000684604F098F8012808D000230522184969
:10398000DFF8AC0C007801F0FAF823E0DFF8B00BB8
:103990009DF80310C1709DF8041001719DF8051089
:1039A00041719DF8061081719DF8001001709DF81D
:1039B000011041709DF8021081700321DFF8140797
:1039C00003F0DDFF0023022298A1DFF8640C0078E9
:1039D00001F0D5F87FBD0000589D010850A40108F2
:1039E000F8A30108F8B58AB004000D0000262821CC
:1039F00000226F46380002F021FF68467421320031
:103A0000D2B28154761C69213200D2B28154761C24
:103A10006D213200D2B28154761C65213200D2B2BF
:103A20008154761C3D213200D2B28154761CDFF8DD
:103A3000081C0A780A2392FBF3F230323300DBB21F
:103A4000C254761C0A780A2392FBF3F703FB172271
:103A500030323300DBB2C254761C3A223300DBB280
:103A6000C254761C4A780A2392FBF3F230323300B8
:103A7000DBB2C254761C4A780A2392FBF3F703FBAD
:103A8000172230323300DBB2C254761C3A223300A4
:103A9000DBB2C254761C8A780A2392FBF3F23032EE
:103AA0003300DBB2C254761C8A780A2392FBF3F708
:103AB00003FB172230323300DBB2C254761C3B22A8
:103AC0003300DBB2C254761C0D223300DBB2C25489
:103AD000761C64223300DBB2C254761C61223300B0
:103AE000DBB2C254761C74223300DBB2C254761CA3
:103AF00065223300DBB2C254761C3D223300DBB2B8
:103B0000C254761CCA7831323300DBB2C254761C00
:103B10002D223300DBB2C254761C0A790A2392FBB1
:103B2000F3F230323300DBB2C254761C0A790A2336
:103B300092FBF3F703FB172230323300DBB2C2549F
:103B4000761C2D223300DBB2C254761C4A790A233C
:103B500092FBF3F230323300DBB2C254761C4A7966
:103B60000A2392FBF3F703FB172230323300DBB258
:103B7000C254761C2D223300DBB2C254761C8A79E3
:103B80000A2392FBF3F230323300DBB2C254761CCC
:103B900089790A2291FBF2F302FB131130313200D2
:103BA000D2B28154761C00233200D2B292B269465E
:103BB000DFF8540C007800F0E2FF0BB0F0BD704766
:103BC00038B504000D000023022218A1DFF8380CDC
:103BD000007800F0D4FF00F08EFF31BD58A401083A
:103BE00038B504000D000221DFF83C0B03F0D6FECF
:103BF00000230722DFF8341BDFF80C0C007800F0FC
:103C0000BEFF31BD60A4010868A4010870A40108CA
:103C100038B504000D00DFF8180B00238288016816
:103C2000DFF8E40B007800F0AAFF31BD4F4B000035
:103C3000940F00202DE9FE4F04008A460025DFF88E
:103C4000886B300001F0C1FA16F1080001F0BDFAEE
:103C500016F11007380001F0B8FA16F118084046BE
:103C600001F0B3FA16F12009484601F0AEFADFF888
:103C70009C2BD2E90001CDE900012100684604F047
:103C800048FB8346BBF1000F00F1B680BDF804008D
:103C900010EB0B0B206810F80B003A281AD02068A4
:103CA00010F80B003168B28888541BF1010BB08802
:103CB000401CB080A088834502DAB0881E28E9DB6A
:103CC00000230522DFF8481BDFF86409007800F0C4
:103CD00056FF91E01BF1010B206810F80B002F2814
:103CE0001AD0206810F80B00B168B28988541BF113
:103CF000010BB089401CB081A088834502DAB089ED
:103D00001E28E9DB00230522DFF8041BDFF8200969
:103D1000007800F034FF6FE01BF1010B206810F811
:103D20000B002F2819D0206810F80B003169B28AD7
:103D300088541BF1010BB08A401CB082A0888345D7
:103D400002DAB08A1E28E9DB3900404604F050FC54
:103D5000380001F03AFA012005002800C0B200281E
:103D600035D1206810F80B002F2812D0206810F8E9
:103D70000B00B169B28B88541BF1010BB08B401C56
:103D8000B083A088834502DAB08B1E28E9DB0120CE
:103D900005002800C0B2002816D14146380004F0C2
:103DA00027FC404601F011FAA088834502DAB08A68
:103DB0001E2809DB00230522DFF8541ADFF87008FB
:103DC000007800F0DCFE17E01BF1010BC5E72100D5
:103DD000484604F00DFC00230222BCA1DFF8500885
:103DE000007800F0CCFE0420DFF8041B887300206C
:103DF0006749C87003F0F8F8BDE8F78F689D0108BF
:103E0000880E002000A401082DE9FC4704000D00E5
:103E10000026DFF8B479380001F0D7F917F108006F
:103E200001F0D3F917F11008404601F0CEF917F16F
:103E30001809484601F0C9F9DFF8B82AD2E90001AB
:103E4000CDE900012100684604F063FA8246BAF128
:103E5000000F00F19B80BDF8040010EB0A0A2068F7
:103E600010F80A003A2817D0206810F80A003968BC
:103E7000BA8888541AF1010AB888401CB880A08812
:103E80008245ECDB00230522DFF88419DFF878098E
:103E9000007800F074FE79E01AF1010A206810F849
:103EA0000A002F2817D0206810F80A00B968BA89CC
:103EB00088541AF1010AB889401CB881A08882454B
:103EC000ECDB00230522DFF84819DFF83C09007815
:103ED00000F055FE5AE01AF1010A206810F80A00B5
:103EE0002F2816D0206810F80A003969BA8A885439
:103EF0001AF1010AB88A401CB882A0888245ECDB1E
:103F00004146484604F074FB404601F05EF901204A
:103F100006003000C0B200282FD1206810F80A0037
:103F20002F280FD0206810F80A00B969BA8B88547E
:103F30001AF1010AB88B401CB883A0888245ECDBDB
:103F4000012006003000C0B2002813D14946404687
:103F500004F04EFB484601F038F9A088824509DBA1
:103F600000230522DFF8A818DFF89C08007800F08D
:103F700006FE0BE01AF1010ACBE700230422DFF86A
:103F8000B41ADFF88408007800F0F9FDBDE8F38783
:103F90002437002078B58BB004000D001E210022CC
:103FA00003AE300002F04AFCDFF8900AD0E90023AB
:103FB000CDE9012303A80190DFF8846A0020009076
:103FC000B28E002301A800F031FF2F200199BDF827
:103FD00008208854BDF80800401CADF808000020F7
:103FE0000090F28D002301A800F020FF0023BDF80F
:103FF00008200199DFF81008007800F0C0FD0CB02F
:1040000070BD38B504000D00DFF8381A022001F049
:10401000D7F931BD08A401085097010870477047CF
:1040200038B504000D00290089B2200000F030F9F5
:10403000010089B2022004F0B9FE31BD38B5040098
:104040000D00290089B2200000F022F9010089B298
:10405000002004F0ABFE31BD38B504000D0029008E
:1040600089B2200000F014F9010089B2012004F0A7
:104070009DFE31BD38B504000D00290089B2200035
:1040800000F006F9010089B2032004F08FFE31BD73
:1040900038B504000D0000230C22DFF8B019DFF85A
:1040A0006807007800F06BFD31BD000078A40108BE
:1040B00038B504000D0000230C22DFF89019DFF85A
:1040C0004807007800F05BFD31BD00004F4B000059
:1040D00010A40108440300207047704770472DE981
:1040E000FC4705000E005FF0FF340022DFF8603966
:1040F000D3E90001CDE900015FF000094846A98835
:1041000080B2884224D22868494689B2405C3D2862
:1041100005D02868494689B2405C3F2800D117E0A5
:104120002868494689B2405C41280EDB2868494628
:1041300089B2405C5B2808DA2868494689B2405C4D
:10414000203029684A4692B2885419F10109D5E70E
:1041500000273800C0B2452880F29380DFF8F48849
:1041600029003800C0B200014044083004F0D1F802
:104170000400002C00F183803800C0B200014044EC
:10418000406800287BD0DFF8D0A81AF1300001F099
:104190001CF80021080080B2AA88121B904224DA81
:1041A000286820440A0092B2805C3F280BD028681F
:1041B00020440A0092B2805C3D2804D0BAF8340052
:1041C000B0F5807F00DB10E0286820440A0092B23E
:1041D000805CDAF83020BAF83430D054BAF83400C1
:1041E000401CAAF83400491CD4E73800C0B20001D2
:1041F000404480890419A1464846A98880B2884273
:1042000026D22868494689B2405C0D280CD1484620
:1042100080B2A988491E884206DA2868494689B2D0
:10422000084440780A2813D0BDF8040080280CD236
:104230002868494689B2405C0099BDF8042088543A
:10424000BDF80400401CADF8040019F10109D3E7E2
:10425000DFF8B40506703000C0B2401E012802D954
:10426000801E09D009E0002168463A00D2B212014E
:1042700042445268904700E0FFE7012002E07F1CC3
:1042800067E70020BDE8F68740350020789D0108EB
:1042900070B403004FF6FF70002400250A009E88CA
:1042A00092B2B2422ED20A00511C1E6892B2B25C87
:1042B000282AF3D100221000002215001A680E00EF
:1042C000B6B2925D1400491C2200D2B2302A19DB2A
:1042D0002200D2B23A2A15DA0A262200D2B206FB0E
:1042E000002030386D1C1A680E00B6B2925D1400C2
:1042F000491C2A00D2B2082A04DA9A880E00B6B203
:10430000B242E1D280B270BC7047704770477047CC
:1043100070477047704730B585B004000D0068469F
:10432000DFF83817142203F0E7FADFF8340769469C
:10433000827930324A72C27930328A72027A3032ED
:10434000CA72417A30318DF80C10817A30318DF893
:104350000D10C07A30308DF80E0000230F22694610
:10436000DFF8A404007800F00AFC05B030BD0000BE
:10437000B43A002038B504000D00DFF8E8062168E3
:104380002A0092B2895C303901746D1C21682A00C0
:1043900092B2895C303941746D1C21682A0092B256
:1043A000895C303981746D1C21682A0092B2895C65
:1043B0003039C1746D1C21682A0092B2895C303991
:1043C00001756D1C21682A0092B2895C30394175F3
:1043D0006D1C017C0A2919DA417C0A2916DA817CD4
:1043E0000A2913DAC17C0A2910DA017D0A290DDABB
:1043F000407D0A280ADA06F015FA002302228DA170
:10440000DFF80404007800F0BAFB08E0002305227E
:10441000DFF8FC13DFF8F003007800F0B0FB06F0E3
:104420008FFA31BD38B588B004000D0003A8DFF85D
:104430003816142203F060FADFF83006D0E90023C2
:10444000CDE9012303A8019000200090DFF82006A9
:10445000C288002301A800F0E9FC0023BDF8082071
:104460000199DFF8A403007800F089FB09B030BDA2
:10447000F8B504000D00002620680078302831DBF4
:10448000206800783A282DDA002700200100C9B200
:10449000A28889B291420FD221680200D2B2895C0F
:1044A000302905DB21680200D2B2895C3A2900DBA1
:1044B00002E07F1C401CE9E73900C9B2206800F027
:1044C00096FE0600DFF8A8050289310089B28088CF
:1044D00006F00FFE0023022256A1CB48007800F020
:1044E0004EFB06E000230522C949C748007800F0CA
:1044F00046FBF1BD38B588B004000D0003A8DFF815
:104500007415142203F0F8F9DFF86C05D0E90023E4
:10451000CDE9012303A8019000200090DFF85005A9
:104520008288002301A800F081FC0023BDF8082048
:104530000199B548007800F022FB09B030BD0000B9
:10454000AC3C0020F8B505000E0000242868007877
:1045500030283FDB286800783A283BDA0027002023
:104560000100C9B2AA8889B291420FD2296802001B
:10457000D2B2895C302905DB29680200D2B2895C9D
:104580003A2900DB02E07F1C401CE9E73900C9B290
:10459000286800F02CFE040040F2E930844211D279
:1045A000002C0FD0DFF8C8040289C188200080B237
:1045B00006F09FFD002302221EA19348007800F020
:1045C000DEFA0EE00023052291498F48007800F0C2
:1045D000D6FA06E0002305228D498B48007800F0CA
:1045E000CEFAF1BD38B588B004000D0003A8DFF89D
:1045F0008C14142203F080F9DFF88404D0E900233E
:10460000CDE9012303A8019000200090DFF86004A9
:104610000289002301A800F009FC0023BDF808204E
:1046200001997948007800F0AAFA09B030BD00007D
:10463000763D00204F4B0000C43C0020F8B505003B
:104640000E0000242868007830283FDB28680078B6
:104650003A283BDA002700200100C9B2AA8889B2B3
:1046600091420FD229680200D2B2895C302905DB61
:1046700029680200D2B2895C3A2900DB02E07F1C83
:10468000401CE9E73900C9B2286800F0B0FD040019
:1046900040F2E930844211D2002C0FD0DFF8D00371
:1046A000220092B2C188808806F023FD00230222F6
:1046B0008EA15548007800F062FA0EE00023052232
:1046C00053495148007800F05AFA06E000230522C9
:1046D0004F494D48007800F052FAF1BD38B588B026
:1046E00004000D0003A8DFF89C13142203F004F962
:1046F000DFF89403D0E90023CDE9012303A801905A
:1047000000200090DFF884030278002301A800F065
:104710008DFB0023BDF8082001993B48007800F08C
:104720002EFA09B030BD00003809002018A4010895
:10473000B4030020F8B504000D00002620680078BE
:10474000302838DB206800783A2834DA0027002047
:104750000100C9B2A28889B291420FD22168020039
:10476000D2B2895C302905DB21680200D2B2895CB3
:104770003A2900DB02E07F1C401CE9E73900C9B29E
:10478000206800F034FD0600B6F5807F0BD23000C3
:10479000C0B207F03FFB0023022254A11A48007860
:1047A00000F0EDF90EE000230522194916480078C3
:1047B00000F0E5F906E000230522154912480078CB
:1047C00000F0DDF9F1BD0000A412002038B586B07C
:1047D00004000D0001A8AE49142203F08DF80A2050
:1047E000ADF80000FE23A2480288694601A807F040
:1047F0002EFC0023BDF8002001A90348007800F03A
:10480000BEF907B030BD0000763D002080A401084D
:10481000F8A30108F8B504000D0000262068007810
:1048200030283EDB206800783A283ADA002700205A
:104830000100C9B2A28889B291420FD22168020058
:10484000D2B2895C302905DB21680200D2B2895CD2
:104850003A2900DB02E07F1C401CE9E73900C9B2BD
:10486000206800F0C4FC060081484188B14210D2A3
:1048700040F6B9318E420CD24188300080B206F049
:10488000DCFB0123022219A18248007800F077F9AD
:104890000EE00023042267497E48007800F06FF99B
:1048A00006E0002305227C497A48007800F067F989
:1048B000F1BD38B586B004000D0001A87749142277
:1048C00003F01AF80A20ADF80000FE236848428879
:1048D000694601A807F0BBFB0023BDF8002001A931
:1048E0006C48007800F04BF907B030BD4F4B00002A
:1048F000940F002088A40108F8B504000D000026DC
:104900002068007830283DDB206800783A2839DAC2
:10491000002700200100C9B2A28889B291420FD2BB
:1049200021680200D2B2895C302905DB21680200CF
:10493000D2B2895C3A2900DB02E07F1C401CE9E727
:104940003900C9B2206800F052FC060048480188CE
:104950008E420FD2B6F5967F0CD3310089B2008813
:1049600006F06BFB0123022233A14A48007800F0D5
:1049700006F90EE0002304222E494648007800F094
:10498000FEF806E00023052243494248007800F083
:10499000F6F8F1BD78B591B004000D0002A84049C9
:1049A0003C2202F0A9FF1120ADF804003D4EFE2389
:1049B000328801A902A807F04AFB072000900023D3
:1049C000394A01A902A807F009FCFE23B28801A90F
:1049D00002A807F03CFB092000900023334A01A9FC
:1049E00002A807F0FBFBFE23F28801A902A807F04A
:1049F0002EFB0720009000232D4A01A902A807F0F2
:104A0000EDFBFE23728801A902A807F020FB03201A
:104A1000009000230CA201A902A807F0DFFB0023ED
:104A2000BDF8042002A91B48007800F0A8F812B0D5
:104A300070BD000020A401084F4B000090A40108A5
:104A4000C80800204C91010870707400889D01080E
:104A500098A40108C47A01083C0E0020649701085C
:104A6000703C0020503B002078970108A0A401086A
:104A7000640400208C970108A8A40108A0970108ED
:104A8000B0A40108B4970108B8A401085513002088
:104A9000C8970108763D0020F8A30108DC970108BB
:104AA000248C0108D83C002028A40108C4A10108D6
:104AB00030A40108BFF34F8FDFF80C130A6812F41B
:104AC000E062DFF8080302430A60BFF34F8F00BFC4
:104AD000FDE780B506F0BEFC1321DFF8F40200F01C
:104AE0001CF800220421DFF8EC0207F036FD72B654
:104AF000FFF7E0FF02BD80B506F0ACFC1F21DFF838
:104B0000D80200F00AF800220421DFF8C80207F0FA
:104B100024FD72B6FFF7CEFF01BD70B504000D0095
:104B20002A0092B22100022000F035FCAB483B2164
:104B3000C26BB0F84030D154B0F84010491CA0F816
:104B4000401000210A002B0092B29BB29A4212D26E
:104B5000B0F84020B2F5806F0DDA0A0092B2A25C84
:104B6000C36BB0F840609A55B0F84020521CA0F8D2
:104B70004020491CE6E701209949486570BD2DE9B0
:104B8000F84380460C0015001E0000274046C0B2C6
:104B9000401E03D0401E012809D961E04FF47A730A
:104BA0002A0092B221008F4807F05AFD58E0DFF842
:104BB00038924FF480720021484600F08FFB8748FE
:104BC000002181852821828D09F80210818D491CE0
:104BD000818500210A00838E92B29A420BD2026B29
:104BE0000B009BB2D25C838D09F80320828D521C8E
:104BF0008285491CEEE72922838D09F80320828DE6
:104C0000521C82852822838D09F80320828D521C34
:104C10008285002739002A0089B292B291420AD2D5
:104C2000390089B2615C828D09F80210818D491CBE
:104C300081857F1CEEE72921828D09F80210818D84
:104C4000491C8185002181863000C0B2002803D133
:104C500001206349086402E001206149C862FFE75E
:104C6000BDE8F18380B500F022F8604807F0D5FC7C
:104C700008F011F95B4807F0D0FC08F00CF95C482B
:104C800007F0CBFC08F007F901BD80B500F050F843
:104C900008F0C1F908F0EAF808F0D7F908F0EDF8E3
:104CA00008F09EF908F0F0F801BD7047704710B5A4
:104CB00086B01421002201AC200001F0BFFD4D4858
:104CC000016851F001010160016811F001010091DA
:104CD0000099016851F002010160016811F00201C0
:104CE00000910099016851F004010160016811F020
:104CF000040100910099016851F008010160006809
:104D000010F008000090009803200290002003900B
:104D100040F213100190384C01A9200007F078FAF6
:104D20002020019001A9200007F072FA06B010BD02
:104D300038B586B01421002201AC200001F07EFDC0
:104D40002C48016851F001010160016811F0010176
:104D500000910099016851F002010160016811F0B1
:104D6000020100910099016851F00401016001689D
:104D700011F0040100910099016851F008010160EF
:104D8000006810F008000090009840F213151A4CCB
:104D900000222900200007F0E0FB202001900020E5
:104DA00002900020039001A9200007F031FA01953C
:104DB00001200290002003900020049001A920000F
:104DC00007F026FA07B030BD0CED00E00400FA054C
:104DD0001C990108000802408C9101083C0E00203B
:104DE00040350020DC38002040330020943800207B
:104DF0004C3800201C3802400000024038B5040046
:104E00000D00DFF834060168200000F006F8A84223
:104E100001D3012000E0002032BD814204D25FF0C6
:104E2000FF32101A081800E0081A70472DE9F84FF1
:104E30008AB0060014001D00DDF850905FF0000AF3
:104E40005FF0000800271E2100220DF1080B5846D4
:104E500001F0F4FCDFF8E425D2E90001CDE900011E
:104E600002A80090002D09D1002C07D13020316814
:104E7000B2888854B088401CB08068E0002D01D111
:104E8000002C1AD0200029000A22002308F040FA42
:104E90009046200029000A22002308F039FA040075
:104EA0000D0018F130000099BDF804208854BDF8B9
:104EB0000400401CADF80400E0E75FF0000BBDF813
:104EC0000400022190FBF1F0594689B281421FDAB9
:104ED0000098BDF804100844594689B24942084474
:104EE00010F8010C07000098BDF80410084459465A
:104EF00089B24942084400995A4692B2895C00F846
:104F0000011C0098594689B247541BF1010BD6E7A2
:104F10004946C9B2684600F01DF800210800BDF8F6
:104F2000042080B290420DD23068B28810440A004A
:104F300092B2009B8C461FFA8CFC13F80C30835401
:104F4000491CEBE7B288BDF804008218B2800BB0B0
:104F5000BDE8F08F2DE9F84785B005000E005FF041
:104F60000009142100226C46200001F067FC002497
:104F700000275FF000080020A988012903D12968D3
:104F80000978302903D03100C9B2002900D1A7E047
:104F90003100C9B2AA8889B2914235D3694630221C
:104FA0002300DBB2CA54641C2E222300DBB2CA5495
:104FB000641CAA88B21A170000231A00BC465FFAC4
:104FC0008CFC92B21FFA8CFC624508D23022A446B7
:104FD0005FFA8CFC01F80C20641C5B1CEDE70022DE
:104FE0001300B5F804C09BB2634543D22B689446C6
:104FF0001FFA8CFC13F80C30A4465FFA8CFC01F805
:105000000C30641C521CEBE7A988891B88460021E0
:105010000A004346DBB292B29BB29A420CD22A6893
:105020000B009BB2D25C6B46A4465FFA8CFC03F883
:105030000C20641C491CEBE76B462E22A4465FFA49
:105040008CFC03F80C20641C4246D2B21100B5F867
:1050500004C089B261450DD2296894461FFA8CFCC0
:1050600011F80C10A4465FFA8CFC03F80C10641CB9
:10507000521CEBE7A1464946C9B2B1F1010A5046BC
:1050800080B2002815D06846514689B2415C30296B
:1050900006D0514689B2405C2E2800D1641E08E03B
:1050A000514689B2405C302800D1641EBAF1010A31
:1050B000E5E7280000F089F8002001002200D2B2C4
:1050C00089B292B291420BD2A9884A1CAA806A4640
:1050D00003009BB2D25C2B6889B25A54401CECE7A7
:1050E00006B0BDE8F0872DE9F8418BB0060014004A
:1050F0001D0000271E2100220DF10C08404601F082
:105100009DFB5FF00008DFF83823D2E90001CDE90C
:10511000010103A80190002D04D5012080466442BE
:1051200075EB45059DF84800009022002B0001A872
:10513000FFF77CFE0198BDF80810405C302828D0AD
:105140004046C0B2012824D1002007003800C0B278
:10515000BDF8081080B2884213D20198BDF808103B
:1051600008443900C9B24942019ABDF808301A44CE
:105170003B00DBB25B421A4412F8012C42547F1C04
:10518000E4E72D2001990870BDF80800401CADF837
:10519000080000210800C0B2BDF8082080B290428B
:1051A0000BD23068B28810440A00D2B2019B0F00C3
:1051B000FFB2DB5D8354491CECE7B288BDF8080000
:1051C0008218B2800CB0BDE8F08110B400210A0052
:1051D000838892B29A4206D2002203680C00A4B2DD
:1051E0001A55491CF3E70022828010BC704770B446
:1051F000030000220024002000252A000E00D2B265
:10520000F6B2B24220D22A00D2B29A5C302A0ADB2D
:105210002A00D2B29A5C3A2A05DA2A00D2B29A5C03
:10522000303A140001E0002214002A00D2B2002A11
:1052300003D12200D2B2100004E00A262200D2B22A
:1052400006FB00206D1CD8E770BC7047F0B400224C
:1052500000230025002425008E88ADB2B54237D248
:105260000D682600B6B2AD5DEDB22D092A0015001D
:10527000EDB20A2D07DA12F1300506682700BFB239
:1052800006F8175006E012F1370506682700BFB28E
:1052900006F817500D682600B6B2AD5D15F00F0583
:1052A0002B001D00EDB20A2D08DA13F13005066857
:1052B0002700BFB206EB4706757007E013F137050C
:1052C00006682700BFB206EB47067570641CC2E78C
:1052D0008D88ADB26D008580F0BC704710B40400BD
:1052E00013005A1E9BB2002B02D02170641CF7E7FA
:1052F00010BC704770B504000D0016002000C0B24D
:10530000032807DA4FF47A73320092B229004D482D
:1053100007F0A6F970BD38B504000D00280008F0AC
:105320000FF9020092B229002000C0B2FFF7E2FF9D
:1053300031BDF0B585B004000D0016000221002239
:105340006F46380001F07AFA3F48D0E90023CDE9F2
:1053500001236846019000273800310080B289B2ED
:10536000884216D2380080B2284403900120ADF85C
:1053700010000020ADF8080003A901A8FFF766FFA0
:10538000BDF8082001992000C0B2FFF7B3FF7F1CD1
:10539000E2E705B0F0BD70B504000D001600320064
:1053A00092B229002000C0B2FFF7A4FF274A10687C
:1053B000002804D0310089B228001268904770BDDF
:1053C00070B504000D00280008F0BAF8020092B28F
:1053D00029002000C0B2FFF78DFF1C4E3068002866
:1053E00007D0280008F0ACF8010089B22800326824
:1053F000904770BD70B586B005000C000A210022F0
:1054000003AE300001F01AFA1148D0E90023CDE9CB
:10541000012303A80190002000902200E31701A8B7
:10542000FFF761FEBDF8082001992800C0B2FFF720
:1054300061FF06B070BD0000143D002098A6010871
:10544000A0A60108DC380020A8A60108183D00200D
:10545000B0A6010880B500F044F800F001F801BDE5
:1054600010B50021584804782000C0B2002808D0A8
:1054700056480E2310F108024168554808F0B1F96A
:1054800001E000F001F810BD38B58AB000252821F0
:1054900000226C46200001F0D1F9AA208DF800000E
:1054A0004A4801898DF8011000242100C9B20289FF
:1054B00089B291420AD241682200D2B2895C6A461E
:1054C0002300DBB21A449170641CEEE73E4D2800C5
:1054D00008F0F9F928226946280008F0B5F90BB060
:1054E00030BD70B586B00026182100226C46200021
:1054F00001F0A4F90024374805782800C0B200283C
:105500002CD018226946334808F013FA9DF80100A0
:1055100004002000C0B2182822DA2F4869468A7891
:1055200002709DF80320428042880B7953EA0223DF
:1055300043809DF80520426042689DF8063053EA9A
:105540000223436042689DF8073053EA0223436018
:105550004268097A51EA0221416001E000F002F854
:1055600006B070BD10B586B0182100226C46200030
:1055700001F064F9AA208DF8000068460721417007
:1055800015490A7882704A8892B2120A8DF803206F
:105590004A8802714A68120E8DF805204A68120C7A
:1055A0008DF806204A68120AC27149680172094CD6
:1055B0000121200008F0AEF910226946200008F011
:1055C00043F906B010BD000000FD03083C0E0020AA
:1055D00001FD030800FC0308880E00202DE9F841B6
:1055E00085B004000D005FF00008142100226E4613
:1055F000300001F023F9002726783000C0B20028DF
:1056000014D002226946A01C08F093F99DF800000E
:105610009DF8011051EA00210F003800290080B2E6
:1056200089B2884206D30020070003E00021200051
:1056300000F005F8380080B206B0BDE8F0817CB516
:1056400004000D00042100226E46300001F0F6F83F
:10565000280080B2000A8DF8000028008DF80100B3
:1056600002226946200008F077F973BDF8B50400FE
:1056700000250026DFF8987AB87800286FD100203E
:1056800000F049FB05002800C0B2532864DA01206D
:105690007875DFF8800A0068B8612800C0B2132866
:1056A00018D13878002815D13878401C3870072078
:1056B00000F021FB0020DFF8001C4870DFF8047BBD
:1056C0004FF47A71380008F06BFA380008F0D2F91C
:1056D00001204AE07878401C78702800C0B208F0B9
:1056E000F9FE0600306900280BD0306907F028FF6A
:1056F00002004FF47A7392B23169DFF8CC0A09F0F4
:1057000000FBF06800280CD17068002803D0DFF897
:10571000BC0A71688847022000F0EDFA0120F87099
:1057200022E02800C0B208F0BCFE012806D14EF6E7
:105730006021DFF89C0A08F033FA05E042F21071AC
:10574000DFF88C0A08F02CFADFF8840A08F092F9E6
:105750003878401C387007E00020787504E000219C
:10576000DFF8540B02F01AF90120F2BD2DE9F047E1
:1057700005005FF0000A002600270024DFF8500A29
:1057800008F0C1F9002000F0C6FA8046DFF88099E1
:1057900099F80300012839D14046C0B208F09AFEBA
:1057A0000600F068002805D0002089F800000020DD
:1057B00089F80100002089F804004046C0B208F0D2
:1057C000B7FE0400012000F0A6FA80464046C0B2B1
:1057D00008F080FE0700002C05D02100DFF8E40966
:1057E00008F0DEF930E03869002802D0F0680028BF
:1057F00005D10021DFF8C00A02F0C1F804E0002161
:10580000DFF8B40A02F0CAF8012026E04046C0B230
:105810000E280FD199F804000A280BDA99F8040031
:10582000401C89F8040041F28831DFF8980908F03B
:10583000B7F909E0022089F800000321DFF8780AAF
:1058400002F09DF8012008E00020DFF86C1A487093
:10585000DFF8700908F00EF90120BDE8F0872DE9A6
:10586000F84304005FF000095FF00008DFF860090A
:1058700008F049F9002000F04EFA05002900C9B2ED
:105880000220FFF7B7FD2800C0B208F023FE060093
:10589000306907F055FE020092B231690220FFF72D
:1058A0007AFDDFF86C783878022806DBB0680028CB
:1058B00018D00020B168884714E07878401EC0B244
:1058C00000F044FA012807D1002078700021DFF8A9
:1058D000E80902F054F805E0B068002802D0002082
:1058E000B16888470120BDE8F28370B50400002547
:1058F000DFF8141B087800280ED101200870DFF8AB
:10590000CC088088DFF8041B08802100C9B2DFF8CA
:10591000A80902F043F81AE0DFF8F00ADFF8AC2833
:1059200093880688B3420AD100200870002000F056
:10593000F2F905002800C0B200F03FF907E09188B5
:1059400001802100C9B2DFF8700902F027F80120B8
:1059500070BD70B50400002609F0C3F900252800C9
:10596000C0B2092809DA0020DFF84C192A00D2B2A7
:105970001201114448706D1CF1E700F0E2FA0128B1
:1059800075D1DFF88C174879142835DA887B002820
:1059900005D0487BC873887B487300208873487B98
:1059A000012802D0487B022811D100F001FF092113
:1059B000DFF8F40A00F0E9F80821DFF8F00A00F057
:1059C000E4F81121DFF8E00B00F0DFF84FE0487B4E
:1059D00004284CD100F0ECFE0921DFF8CC0A00F0DD
:1059E000D4F81121DFF8C80A00F0CFF80221DFF85F
:1059F000C40A00F0CAF83AE0487B012817D0487B77
:105A0000022814D0C87B487300F0D2FE0921DFF8C9
:105A1000980A00F0BAF80821DFF8900A00F0B5F80B
:105A20001121DFF8840B00F0B0F8012020E00869B4
:105A3000007800280AD008690078012817D1DFF81B
:105A40006C0B006800688047002810D100F0B0FEA1
:105A50000921DFF8540A00F098F80821DFF84C0A11
:105A600000F093F81121DFF8400B00F08EF80120D0
:105A700070BD10B504000521DFF83C0801F07FFF80
:105A8000012010BD01000120704710B50400DFF8AF
:105A9000201B0878002808D10878401C08700721CE
:105AA000DFF8140801F07AFF01E0002008700120FF
:105AB00010BD70B504000026DFF8F81A0220FFF7C9
:105AC0007FFC00F075FE00252800C0B2092809DA25
:105AD0000020DFF8E4172A00D2B212011144487006
:105AE0006D1CF1E7DFF8D00A0421C170002141707C
:105AF00000220421DFF8B40B06F02FFDDFF810665A
:105B0000707914281BDBDFF8A40A0068006880475E
:105B1000002814D130690078012810D100F048FE27
:105B20000921DFF8840900F030F80821DFF87C094A
:105B300000F02BF81121DFF8700A00F026F80120A0
:105B400070BD01B59DF80000532801DB00201BE06B
:105B500000226946DFF8580B09F024F9002801D12A
:105B6000002011E0DFF8A825507D002806D0DFF8DE
:105B7000A81B9069FFF742F9012804D10021DFF842
:105B8000380701F0FCFE012002BD70B504000D00D5
:105B90000020002630002900C0B2C9B288420AD2D3
:105BA0003000C0B2205CFFF7CCFF002801D10020FC
:105BB00002E0761CEEE7012070BD2DE9FE4F0400E7
:105BC000002500265FF00008DFF8502BD2E9000125
:105BD000CDE900012000C0B208F07CFC0700F868A5
:105BE0000090F86807F0ACFCADF804002000C0B2EB
:105BF000532818DAF868002815D0DFF8D085414618
:105C0000684602F086FB0500002D0CD440467968FA
:105C10008847DFF8FC14C870022000F06CF80120FF
:105C2000DFF8A01B48712000C0B208F098FC0128E2
:105C30002ED100200600300080B20C2828DA5FF058
:105C40001408DFF8689B300080B208FB00F048447D
:105C5000C0680090300080B208FB00F04844C06883
:105C600007F06EFCADF80400DFF860A55146684609
:105C700002F04FFB0500002D08D45046310089B2D8
:105C800008FB01F809EB080149688847761CD2E750
:105C9000DFF83885B8F80420D8F800100220FFF7A4
:105CA00029FB4FF496695FF0000ADFF81CBB5246EF
:105CB0004946584600F0C2FD0020A8F80400012023
:105CC000DFF8001B08710120BDE8FE8F10B504004D
:105CD000DFF8F81A0220FFF71EFB0321DFF8F00AB5
:105CE00001F04DFE10BD10B504000021DFF8E00A00
:105CF00001F045FE10BD10B504002000C0B2092817
:105D000001DB002006E02100C9B2DFF8AC0501F09C
:105D100036FE012010BD38B5040000208DF80000CB
:105D2000DFF8B45A280009F0CFF8002801D1532039
:105D30000BE02200D2B26946280009F048F800289A
:105D400001D1532001E09DF8000032BD10B50400E0
:105D50002100C9B289B2DFF8800A09F0B7F810BD96
:105D600010B5002000242000C0B2092809DA002064
:105D7000DFF844152200D2B2120111444870641CAD
:105D8000F1E700F015FDDFF8480407F0BCFEDFF88E
:105D9000340407F0B8FEDFF8440A07F0B4FE002030
:105DA000DFF86C13C8710020DFF8181AC87010BD36
:105DB00010B504000521DFF8180A01F0E0FD10BD60
:105DC00080B500200090DFF8183A00225FF0FF3124
:105DD000DFF8080A07F028FE01BD70B50024CC4D9D
:105DE0006879002804D10020DFF8F819087029E04C
:105DF000DFF8F06930786979884204D269793078BF
:105E0000091A0C0003E031786879091A0C002000A7
:105E1000C0B2052190FBF1F201FB1200002811D164
:105E2000687B022802D10120687304E0687B0128A6
:105E300001D102206873DFF8B0190220FFF7C0FA21
:105E40006879307070BD10B5B14CE079002877D119
:105E500007F021F807F0DFF807F008F8A079401CF8
:105E6000A0710020207300F0A3FC607B012804D007
:105E7000607B022801D00220A071A079022849DAB3
:105E8000DFF834470120E0706078002809D002284C
:105E900007D006D3042828D015D3062833D031D311
:105EA00037E00921DFF80006FFF76FFE0821DFF871
:105EB000FC05FFF76AFE1121DFF8EC06FFF765FE2F
:105EC000002060703CE00921DFF8DC05FFF75DFE93
:105ED0000821DFF8D805FFF758FE1121DFF8C806C2
:105EE000FFF753FE002060702AE00421DFF8FC0871
:105EF000FFF74BFE1121DFF8B006FFF746FE032047
:105F000060701DE01CE000F053FC0520FFF7F3FE7D
:105F100016E015E00020A0716079401C6071FFF769
:105F20005CFF20690078002805D10821DFF8A0086F
:105F300001F025FD04E00521DFF8940801F01FFDC4
:105F400010BD38B5724CE079002805D0022845D044
:105F500027D3032853D05DE0DFF894180220FFF721
:105F60002FFA06F098FF07F056F806F07FFF0022A0
:105F70000421DFF8380706F0F0FA61790A20DFF82B
:105F80005C5891FBF0F200FB12114FF47A70414320
:105F900001F6B831280007F003FE280007F06AFD7B
:105FA00041E0DFF8505800220221280006F0D5FA1F
:105FB00000220121280006F0D0FA01220421DFF896
:105FC000EC0606F0CAFADFF814584FF47A7128008C
:105FD00007F0E6FD280007F04DFD24E00122022134
:105FE000DFF8100806F0B9FADFF8F05740F2DC519C
:105FF000280007F0D5FD280007F03CFD13E0DFF88E
:10600000DC5742F21071280007F0CAFD280007F0A3
:1060100031FD08E00020E071DFF8DC170220FFF717
:106020007AF9012003E0E079401CE071002032BDE4
:106030001FB5002428220021DFF8C007FFF74EF922
:106040000A220021DFF8B807FFF748F928220021CB
:10605000DFF8B007FFF742F928220021DFF8A80790
:10606000FFF73CF9DFF8A407BDF804100187002111
:106070000A00038F92B29A4209D2009A0B009BB297
:10608000D25C436B0C00A4B21A55491CF0E7BDF872
:106090000C20A0F8402000221100B0F8403089B256
:1060A000994209D2029913009BB2C95CC36B1400D8
:1060B000A4B21955521CEFE7BDF81C10A0F8481007
:1060C00000210A00B0F8483092B29A4209D2069AEA
:1060D0000B009BB2D25C436C0C00A4B21A55491C55
:1060E000EFE7BDF82420A0F8502000221100B0F8FE
:1060F000503089B2994209D2089913009BB2C95C09
:10610000C36C1400A4B21955521CEFE71FBD000068
:10611000940F0020143D002030B401000022002024
:106120000023DFF8E8261C00158FA4B2AC4209D288
:10613000526B1C00A4B2125D0400E4B20A55401C6C
:106140005B1CEEE72C240500EDB24C55401C0024EE
:106150002300B2F840509BB2AB4209D2D36B25006A
:10616000ADB25B5D0500EDB24B55401C641CEFE722
:106170002C230500EDB24B55401C00231C00B2F847
:106180004850A4B2AC4206D22A240500EDB24C55C8
:10619000401C5B1CF2E72C240500EDB24C55401C62
:1061A00000242300B2F850509BB2AB4206D22A23FF
:1061B0000500EDB24B55401C641CF2E7C0B230BC88
:1061C00070470000E03B0020943800208C0F002036
:1061D000C83B00201FB5002428220021DFF830062C
:1061E000FFF77CF80A220021DFF82806FFF776F88F
:1061F00028220021DFF82006FFF770F8282200216E
:10620000DFF81806FFF76AF8DFF80006BDF804109B
:10621000A0F8581000210A00B0F8583092B29A4203
:1062200009D2009A0B009BB2D25C436D0C00A4B261
:106230001A55491CEFE7BDF80C20A0F86020002299
:106240001100B0F8603089B2994209D20299130066
:106250009BB2C95CC36D1400A4B21955521CEFE780
:10626000BDF81C10A0F8681000210A00B0F86830D2
:1062700092B29A4209D2069A0B009BB2D25C436E4C
:106280000C00A4B21A55491CEFE7BDF82420A0F871
:10629000702000221100B0F8703089B2994209D202
:1062A000089913009BB2C95CC36E1400A4B21955BF
:1062B000521CEFE71FBD0000FC0E002030B40100AF
:1062C000002200200023DFF844251C00B2F85850BB
:1062D000A4B2AC4209D2526D1C00A4B2125D0400FB
:1062E000E4B20A55401C5B1CEDE72C240500EDB21E
:1062F0004C55401C00242300B2F860509BB2AB42C6
:1063000009D2D36D2500ADB25B5D0500EDB24B55F2
:10631000401C641CEFE72C230500EDB24B55401CDC
:1063200000231C00B2F86850A4B2AC4206D22A2462
:106330000500EDB24C55401C5B1CF2E72C24050017
:10634000EDB24C55401C00242300B2F870509BB2B3
:10635000AB4206D22A230500EDB24B55401C641C0B
:10636000F2E7C0B230BC70472DE9F04100210024B3
:10637000DFF8AC0405782800C0B200283BD0012724
:10638000DFF89C64DFF88484282318F13802D8F8F9
:1063900034103800C0B2301807F023FAB8F83800CB
:1063A000401CC7190A2318F14002D8F83C103800E5
:1063B000C0B2301807F015FAB8F84000401CC719F1
:1063C000282318F14802D8F844103800C0B2301819
:1063D00007F007FAB8F84800401CC7193C0028230A
:1063E00018F15002D8F84C102000C0B23618300016
:1063F00007F0F7F901E000F05FF83C20DFF80C143B
:106400004867BDE8F08100007B3D0020503D002042
:106410002DE9F04100210024DFF808040578280068
:10642000C0B200283BD00127DFF8F863DFF8DC8337
:10643000282318F15802D8F854103800C0B2301888
:1064400007F0CFF9B8F85800401CC7190A2318F113
:106450006002D8F85C103800C0B2301807F0C1F9FB
:10646000B8F86000401CC719282318F16802D8F852
:1064700064103800C0B2301807F0B3F9B8F86800FB
:10648000401CC7193C00282318F17002D8F86C1082
:106490002000C0B23618300007F0A3F901E000F088
:1064A0008DF8BDE8F0810000D40D0020E00D002043
:1064B000080E00204813002070B590B04021002243
:1064C0006C46200000F0BAF9002400226846AA2198
:1064D0002300DBB2C154641CDFF830130B8F25009E
:1064E000EDB24355641C00231A000D8F92B2AA42EC
:1064F00009D24A6B1D00ADB2525D2500EDB2425586
:10650000641C5B1CF0E7B1F840202500EDB2425559
:10651000641C00221300B1F840509BB2AB4209D278
:10652000CB6B1500ADB25B5D2500EDB24355641C2D
:10653000521CEFE7B1F848302500EDB24355641C1A
:1065400000231A00B1F8485092B2AA4209D24A6C0C
:106550001D00ADB2525D2500EDB24255641C5B1CBE
:10656000EFE7B1F850202500EDB24255641C00253C
:106570002A00B1F8503092B29A4209D2CA6C2B006C
:106580009BB2D25C2300DBB2C254641C6D1CEFE7EB
:10659000A34E300007F097F940226946300007F01B
:1065A00053F910B070BD0000E80D00200C3D002034
:1065B0007C3D0020EC9301082437002070B590B09A
:1065C000402100226C46200000F038F9002400220F
:1065D0006846AA212300DBB2C154641C8B49B1F880
:1065E00058302500EDB24355641C00231A00B1F861
:1065F000585092B2AA4209D24A6D1D00ADB2525D06
:106600002500EDB24255641C5B1CEFE7B1F8602039
:106610002500EDB24255641C00221300B1F8605011
:106620009BB2AB4209D2CB6D1500ADB25B5D2500CC
:10663000EDB24355641C521CEFE7B1F868302500F9
:10664000EDB24355641C00231A00B1F8685092B2B1
:10665000AA4209D24A6E1D00ADB2525D2500EDB2CC
:106660004255641C5B1CEFE7B1F870202500EDB2C9
:106670004255641C00252A00B1F8703092B29A424B
:1066800009D2CA6E2B009BB2D25C2300DBB2C2548B
:10669000641C6D1CEFE7634E300007F014F94022D4
:1066A0006946300007F0D0F810B070BD0008024015
:1066B000103C0020704738B5FFF756FEFFF7A8FEE4
:1066C000594B01223221444808F04EFBFFF7F2FFFC
:1066D000404C00200090554B00225FF0FF3120001D
:1066E00007F0A2F93A4DA96B200007F059FA504C77
:1066F000002000904F4B00225FF0FF31200007F098
:1067000093F9A968200007F04BFAFFF759FB052120
:10671000280001F034F931BD8038010078A6010865
:1067200070B50024002000252800C0B209283ADAFC
:10673000274E2800C0B2000130444078012830D1F3
:10674000012004002800C0B2000130444068002845
:106750000ED008F0E5FB2900C9B2090131444968AF
:10676000401A2900C9B2090131448968884218D306
:1067700000202900C9B209013144487008F0D0FB5B
:106780002900C9B20901314448602800C0B229007B
:10679000C9B209013144C968884708F0C1FB2649DC
:1067A00088606D1CC0E72000C0B270BD2089010860
:1067B00080B5002020494875074808F0ECFA01BD73
:1067C0000000000024370020E0210020D0990108BB
:1067D000FC0E0020C83B0020103C0020F83B0020AD
:1067E000B15D00087D3D0020CC910108040E002021
:1067F000E4990108000002400494010848100020B8
:10680000701000207C100020A41000202012002016
:10681000CC100020F41000200011002028110020CE
:1068200000FA030800FB0308583A0020CD5C00087A
:10683000E03B0020E75C0008940F002062F30F2289
:1068400062F31F42401810F0030308D0C91A1FD387
:10685000DB0748BF00F8012D28BF20F8022D1300E8
:1068600030B414461546103928BF20E93C00FAD848
:10687000490728BF20E90C0048BF40F8042D8900D3
:1068800028BF20F8022D48BF00F8012D30BC70470A
:10689000C91818BF00F8012DCB0728BF00F8012D3B
:1068A000704730B4002513E050F8042BD30744BFE1
:1068B000A9F101039A18091F042942F8045BFAD2CE
:1068C00013468C0744BF15809B1CC90748BF1D7029
:1068D00050F8041B0029E7D130BC704710B5040004
:1068E000DFF80C18487E012809D10120DFF80418D0
:1068F000C8610121DFF8000801F050F815E0DFF869
:10690000FC271078401C10701078002809D1012055
:10691000DFF8E017C8610121DFF8DC0701F03EF87D
:1069200003E00020107000200876012010BD010057
:106930000120704701000120704770B50400012557
:10694000DFF8BC67F078042805D002F06AFB012864
:1069500001D100200500F078002805D0022810D0D1
:106960000ED3032862D067E00020DFF89817487044
:10697000FFF7F6F90521DFF8900701F000F85BE07A
:106980005AE000F0BCF8012816D1DFF86407407E19
:10699000012803D10020DFF860174874DFF858079A
:1069A0004FF4FA612200D2B2120102449160210038
:1069B000C9B200F0F3FF38E0DFF83C670A2021009D
:1069C000C9B2090131448860DFF82407417E0129FA
:1069D0000CD1707C002803D10121300000F0DEFFD3
:1069E0002100C9B2300000F0D9FF1EE0007E01286E
:1069F0000CD1707C002803D10121300000F0CEFFC3
:106A00002100C9B2300000F0C9FF0EE02800C0B27A
:106A1000012805D10821DFF8F00600F0B0FF04E0FE
:106A20002100C9B2300000F0B9FF05E00521DFF810
:106A3000D80600F0A4FFFFE7012070BD80B5DFF8A5
:106A4000CC06DFF8CC160860FFF735FEDFF8C40689
:106A5000DFF8C4160861DFF89C06012141600121BE
:106A6000016100F096FB01BD70B5002000240025F7
:106A70002800C0B204283FDADFF87C662800C0B2E4
:106A8000000130444078012834D12800C0B20228E7
:106A900005D02800C0B2032801D00120040028003E
:106AA000C0B200013044406800280ED008F038FA27
:106AB0002900C9B2090131444968401A2900C9B204
:106AC000090131448968884214D300202900C9B2E1
:106AD00009013144487008F023FA2900C9B20901BC
:106AE000314448602800C0B22900C9B209013144CC
:106AF000C96888476D1CBBE72000C0B270BD70B587
:106B0000002000240025280080B21A282FDADFF8A0
:106B1000E465280080B256F82000012825D1012024
:106B2000040096F8C10002281FD086F8C050280043
:106B300080B2DFF8E8152A0092B2120111444968C8
:106B4000884701280CD1280080B2102802DA00F012
:106B5000C9FA01E000F0C0FA022086F8C10004E0A2
:106B60000020290089B246F821006D1CCBE72000E7
:106B7000C0B270BD38B504002000C0B2002827D0D4
:106B8000012833D0022875D0042824D0052831D01C
:106B9000062832D0072833D0082836D0092839D023
:106BA0000B283AD00C283BD00D2846D00E2847D0D1
:106BB0000F2848D010284BD011284CD012284FD085
:106BC000132852D014285BD0152800F0858088E067
:106BD000FFF739F985E0DFF8480507C800F083F8CA
:106BE0000020DFF8101581F8C1007AE0DFF82805F1
:106BF000407B77E000F0CCFA73E000F0CAFA70E076
:106C0000DFF8200500F065F96BE0DFF8180500F00B
:106C100095F966E009F0D8F963E009F0F8F960E069
:106C200008F084F90021DFF8D00400F0A8FEDFF8B6
:106C3000F8140220FEF76FFB53E009F0F8F950E07A
:106C400000F07BF84DE0DFF8DC0400F081F948E06B
:106C500000F07FF945E0DFF8CC0400F07BF940E07C
:106C6000DFF8C00400F077F93BE0DFF8B80400F08B
:106C700073F936E00221DFF8B404FEF786FF30E056
:106C8000DFF8AC540121280006F044FE09F0C8FBEF
:106C90000A2009F06FFCAA222900022009F096FBC5
:106CA000DFF89004026CDFF89014022009F08EFBEC
:106CB0000A2009F05FFC09F0D0FB0120DFF8341452
:106CC0008863DFF85404C17B41730020DFF830147F
:106CD000C87000F089F904E00120DFF81814C863D7
:106CE000FFE7012032BD37B5DFF850049DF80610EC
:106CF00081719DF8051041719DF8041001719DF896
:106D0000001001709DF8011041709DF80210817013
:106D10009DF80310C170DFF828440321200000F023
:106D20002EFEDFF820542878002805D10421200009
:106D300000F025FE0120287037BD10B5DFF8B40340
:106D4000012180F8C11090F8C01002290ED003294B
:106D500023D0082938D009294DD00D2961D00E291A
:106D60006CD00F296AD0122965D072E0DFF8D843C1
:106D70000121200002F010F900280BD10020DFF8DB
:106D800084138873DFF8C403A38D8288016801200F
:106D900001F002FF00F01DF960E0DFF8AC430121D3
:106DA000200002F0F9F800280BD10020DFF854137E
:106DB0008873DFF89803A38D82880168012001F0B1
:106DC000EBFE00F006F949E0DFF8844301212000E2
:106DD00002F0E2F800280BD10020DFF828138873B6
:106DE000DFF86803A38D82880168032001F0D4FED8
:106DF00000F0EFF832E0DFF85C430121200002F000
:106E0000CBF800280AD10020BE498873DFF83C0384
:106E1000A38D82880168062001F0BEFE00F0D9F83B
:106E20001CE0002190F8C02040F822100621C44840
:106E300000F0A5FD12E0FDF75EFE0FE00121B64A6D
:106E40001175002190F8C02040F82210FDF741FE96
:106E500004E0002190F8C02040F82210AE48012143
:106E60000173002141710021817110BDF8B504004A
:106E70000020002500263000C0B208281DDAB64FD9
:106E800021003000C0B200013844083001F041FA5E
:106E90000500002D0FD43000C0B200013844406816
:106EA000002808D0290009B220003200D2B2120115
:106EB0003A4452689047761CDDE7F1BD10B50400F6
:106EC000A6490220FEF727FA02212000FDF707F964
:106ED00010BD30B58DB004002821002203AD28007C
:106EE000FFF7ACFC9E48D0E90023CDE9012303A8BD
:106EF000019031200199BDF808208854BDF80800A0
:106F0000401CADF808002C200199BDF808208854D9
:106F1000BDF80800401CADF8080000200090A288D1
:106F2000002301A8FDF782FF4FF47A73BDF8082013
:106F300001998C4807F0E5FE0DB030BD10B5040096
:106F40004FF47A73A2882168864807F0DAFE10BDF4
:106F50007047704770477047704783487047F8B56F
:106F600004000D001600794F3800FEF72EF93000AE
:106F700080B240F20111884202D34FF480700600C3
:106F800000200100320089B292B291420AD201007F
:106F900089B2695C3A68BB88D154B988491CB98008
:106FA000401CEEE7012053492200D2B241F82200F2
:106FB0000021514800F0E3FCF1BD10B504000020B1
:106FC0004C492200D2B241F822006048FEF7FDF899
:106FD00010BD80B50320FFF7F0FF0820FFF7EDFF9D
:106FE0000920FFF7EAFF01BD80B54548C1780429B3
:106FF00001D10021C17000213F4800F0C0FC01BD5B
:1070000080B54FF4BC71594807F043FE01BD38B557
:10701000040000252000C0B200280ED0012818D09E
:10702000032822D0062830D007282FD0082831D0B6
:10703000092834D00A284AD04DE04D490220FEF7F5
:10704000BFF90321304800F09AFC02203249087051
:1070500041E048490220FEF7B3F903212A4800F035
:107060008EFC02202C49087035E043490220FEF7CF
:10707000A7F92348C078042806D00321224800F04D
:107080007EFC02202449087025E024E03B48FFF7FD
:1070900015FF20E002213A48FEF777FD1BE0394951
:1070A0000220FEF738F90020FEF735FE0500280023
:1070B000C0B207F069FA012804D10221124800F099
:1070C0005EFC03E00321104800F059FC03E02B486C
:1070D000FFF7CCFEFFE731BD80B504212A48FEF75B
:1070E00054FD01BD80B504212848FEF74EFD01BDC9
:1070F0003C0E002040350020A00A0020743D0020F6
:1071000024370020543C0020FC0E0020E00A002020
:107110000C3D0020550E0020940F002070870108C0
:1071200098120020BC3500202C9101084813002043
:10713000001F0308A4120020041F0308AC3C002019
:1071400044030020753D0020580800200000002066
:107150009008002000090020108A0108DC92010834
:10716000C8A3010894380020B403002000A501083A
:107170002C930108449301085C9301088C0F0020B4
:107180004A130020EC960108FC0D0020000E0020A0
:107190007047704710B5040006F01FFD012010BDB8
:1071A00038B50400DFF83814087800280ED1012023
:1071B0000870DFF830048088DFF82C140880210084
:1071C000C9B2DFF8280400F0E9FB22E0DFF8180478
:1071D000DFF81054AA8803889A4212D10020087060
:1071E000AA8829680120FEF785F88FA10120FEF703
:1071F00092F801212800FCF772FF2800FDF7E5FF57
:1072000007E0A98801802100C9B2DFF8E00300F09F
:10721000C5FB0020DFF8D81381F84500012032BDFE
:1072200010B50400DFF8CC130220FEF774F805F067
:10723000ABFE012010BD10B50400DFF8BC0307C889
:1072400006F06CFD0421DFF8A40300F0A7FB012089
:1072500010BD70B50400012500F0BCFBDFF8900301
:1072600090F83800012806D1DFF89003007D01284E
:1072700001D1FDF72EFCDFF88813DFF88863327840
:1072800008780243D2B2002A06D1012008700120FA
:10729000DFF87413886504E03078002801D00020FE
:1072A000087009F05FFB012814D1DFF8600390F843
:1072B000810202280EDBDFF85803DFF85813096853
:1072C0000160DFF854130068FDF798FD002801D134
:1072D0000020050030780E2802D00120CF49087028
:1072E000012070BD38B504000621CD4800F047FBF1
:1072F000BF4D687E002813D1E87D401CE875E87D0D
:10730000C8490978884216D30020E8750221C6488A
:1073100000F035FBFFF768FE012085F844000AE025
:107320000020E8750221C04800F029FBFFF75CFE51
:10733000012085F84400012032BD01000120704782
:1073400080B509F05BFB06F065FB00F043FB09F03C
:107350005FFB01BD1CB500F069F8FFF76FFB01F0A2
:107360002EFBB24C002000900FF2D11300225FF0F0
:10737000FF31200006F058FB44F62061200006F0A3
:107380000FFC200006F076FB13BD10B5FFF7D8FF09
:10739000FFF7E0FFA6490220FDF7BDFFA549022047
:1073A000FDF7B9FFA4490220FDF7B5FFA34901206D
:1073B000FEF706F8A248828801680120FDF7EBFF7E
:1073C00019A10120FDF7FCFF40F6B83009F0D2F812
:1073D00009F006FB9B4C0020207000F03CF821785F
:1073E000084320709848C07802280DD14FF44871A6
:1073F00082488069FDF702FD01280AD101F08AFA6E
:1074000021780843207004E001F084FA21780843D1
:107410002070FFF729FB217808432070FFF780F9DF
:10742000217808432070D3E70D0A000080B505F0ED
:1074300033FDFEF70FF86E480821017501214176F2
:107440000FF2B10081490860814882490860824892
:107450008249086001BD70B5002000240025280085
:10746000C0B207283ADA614E2800C0B200013044A9
:107470004078012830D12800C0B2042801D0012072
:1074800004002800C0B200013044406800280ED03B
:1074900007F046FD2900C9B2090131444968401A84
:1074A0002900C9B2090131448968884214D30020F7
:1074B0002900C9B209013144487007F031FD2900A3
:1074C000C9B20901314448602800C0B22900C9B2DC
:1074D00009013144C96888476D1CC0E7434A92F8E6
:1074E0004100002803D10421100000F057FA2000C9
:1074F000C0B270BD80B500213C4800F040FA01BD2B
:1075000070B50400002500F065FA3E484178621A23
:10751000B1FBF4F104FB01213C22837802FB01F66C
:10752000B34208D251438078091A891C4FF47A700B
:107530004143080000E04A4870BD000010B5040057
:1075400048490220FDF7E7FE09F0F7F9032803D1C7
:107550001A214548FDF7E1FA0521244800F00FFA09
:1075600000F001F810BD38B542F210743F490878B8
:10757000002807D10878401C08702A4800781C4968
:10758000C87528E01A48407E012817D1254D686843
:10759000A86000F01FFA1B4A5078AB68AD682D1A3E
:1075A000B0FBF3F103FB01513C2041439078091AF1
:1075B000891C4FF47A7041430C0008E019490A789D
:1075C000488842438A604888FFF79AFF04002100F8
:1075D000164806F0E5FA154806F04CFA31BD0000F1
:1075E0005B3D0020381300201C3D00204403002098
:1075F0003C0E0020AC900108AC3C0020940F002011
:107600005C3D0020C43C00204035002000000020EC
:10761000E83C0020143D0020C02709005D3D00200B
:10762000BC030020880E0020A00A0020083B002098
:10763000CC9001083492010850920108309401085E
:10764000B40300205E3D002024370020083D0020C8
:10765000940E0020043D002075850108183D00208F
:10766000C0D401006C920108889201085F3D00209F
:107670002DE9FE4F0700884691469A460C9C0D9DC9
:10768000B8F80000ADF800005FF0000B2000C0B2B9
:10769000002800F08F80BDF8000007F80090BDF8CA
:1076A0000000401CADF80000BDF800003C54BDF8DF
:1076B0000000401CADF800004846C0B2401E0ED08D
:1076C000C01E022843D9001F41D0401F53D0173895
:1076D0003DD04A383BD0801E022838D966E0564655
:1076E000B079BDF800107854BDF80000401CADF82A
:1076F00000007079BDF800107854BDF80000401CFF
:10770000ADF800003079BDF800107854BDF80000E5
:10771000401CADF800003078BDF800107854BDF87A
:107720000000401CADF800007078BDF800107854DF
:10773000BDF80000401CADF80000B078BDF80010A6
:107740007854BDF80000401CADF800002EE0230086
:10775000DBB252466946380000F02EF82800C0B26D
:10776000AA2807D0BDF800003D54BDF80000401C19
:10777000ADF800001AE0CDF804A00020834658467A
:107780002100C9B280B289B288420ED2019859460E
:1077900089B2405CBDF800107854BDF80000401C70
:1077A000ADF800001BF1010BE9E7FFE7BDF80000B1
:1077B000A8F80000BDE8F78F2DE9F041B1F800808E
:1077C0001E00F6B2012E06D0022E0DD0042E1DD0C2
:1077D000082E38D07BE096469EF800604746BFB240
:1077E000C65518F1010872E09446BCF80060B6B2C4
:1077F000360A4746BFB2C65518F10108BCF800600A
:107800004746BFB2C65518F1010860E015002E6862
:10781000360E4746BFB2C65518F101082E68360C21
:107820004746BFB2C65518F101082E68360A4746CA
:10783000BFB2C65518F101082E684746BFB2C655FB
:1078400018F1010843E01400D4E900673E0E002758
:107850004746BFB2C65518F10108D4E900673E0C8F
:1078600000274746BFB2C65518F10108D4E90067A2
:107870003E0A00274746BFB2C65518F10108D4E9B1
:1078800000674646B6B2875518F10108D4E900678B
:10789000360E4746BFB2C65518F10108D4E9006755
:1078A000360C4746BFB2C65518F10108D4E9006747
:1078B000B6B2360A4746BFB2C65518F10108D4E938
:1078C00000674746BFB2C65518F10108FFE7A1F8A7
:1078D0000080BDE8F081250062B38B0708D0521EFE
:1078E00011F8013B00F8013B00F024808B07F6D132
:1078F000830740F0208000BF103A07D330B4B1E8CE
:107900003810103AA0E83810F9D230BC530724BF21
:10791000B1E80810A0E8081044BF51F8043B40F853
:10792000043BD20724BF31F8022B20F8022B44BFBE
:107930000B7803707047121F17D35B0009D151F801
:10794000043B20F8023B1B0C121F20F8023BF6D22E
:107950000BE051F8043B00F8013B1B0A20F8023B06
:107960001B0C121F00F8013BF3D238BF121D521E30
:1079700024BF11F8013B00F8013BF8D87047020022
:1079800001200B00DBB21B011344587000200B00D8
:10799000DBB21B01134458600120704738B5040066
:1079A0000D0001202900C9B209012144487007F0E7
:1079B000B7FA2900C9B2090121444860012032BD4B
:1079C000020000200B00DBB21B01134458700120A1
:1079D00070470D0010B586B0DFF8C041002201A944
:1079E000200000F0BEF900226946200000F050FAA5
:1079F000DFF8AC019DF8061081709DF8051041700C
:107A00009DF8041001709DF80010C1709DF80210DF
:107A100001719DF8011041719DF80310817106B04C
:107A200010BD17B587B01421002201AC2000FEF76D
:107A300005FF042100226C462000FEF7FFFE07A888
:107A400000F031F801282BD1099802909DF81E0012
:107A50008DF806009DF81D008DF805009DF81C00AE
:107A60008DF804009DF81F008DF800009DF820009F
:107A70008DF802009DF821008DF801009DF822008C
:107A80008DF80300DFF81441002201A9200000F066
:107A9000F5F800226946200000F097F9012000E087
:107AA00000200AB010BD010088783D2801DB0020CD
:107AB00023E048783D2801DB00201EE008781828E4
:107AC00001DB002019E0C878092801DB002014E060
:107AD0000879202801DB00200FE048790D2801DB20
:107AE00000200AE08879642801DB002005E088791D
:107AF000142801DA002000E00120704737B49DF817
:107B0000060040F2B5514843C01C80089DF806109D
:107B1000042291FBF2F402FB1411002901D1214A45
:107B200000E0214A9DF805403D214C433C3C0221A8
:107B300094FBF1F108189DF80510491EC9B24900DF
:107B40001400CC4014F00304001B9DF80410491EDF
:107B50000818164948439DF802409DF801503C2101
:107B600001FB05449DF800504FF4616101FB0544A1
:107B700020181900C9B2012904D00CD3032907D059
:107B800003D308E00A49081805E00A49081802E08A
:107B900009490818FFE73EBC70470000B43A0020CE
:107BA000C43C002050554400A0AA99008051010017
:107BB00080A16DE980436D38801F860770B5040091
:107BC0000125002C01D1012057E0607F002804D15D
:107BD00000202077200008F0B2FF022060772068A4
:107BE000C068C00640D4CA2021684862532021687A
:107BF0004862200000F035FB06003000C0B20028CB
:107C00001ED120688168DFF80C0601402068816081
:107C100020688168626820690243606902431143F9
:107C200020688160E0682168086120680069A168B7
:107C300050EA014021680861200000F03AFB06008C
:107C40003000C0B200280BD12068006C30F48020D6
:107C5000216808642068016CA06901432068016400
:107C6000FF202168486200E000263000C0B20028F2
:107C700001D1012060773000C0B270BD2DE9F8431A
:107C800005000E0014005FF00008287F012801D1D4
:107C9000022064E00120287702206877002C1CD1A4
:107CA00028688068400601D40020F070307800F029
:107CB00019FB8146707800F015FB0700B07800F0E2
:107CC00011FB5FFA89F9FFB23F0257EA0947C0B2D8
:107CD0000743F07857EA80570FE02868806840062D
:107CE00001D40020F070307877783F0257EA0047DF
:107CF000B0780743F07857EA8057CA20296848626D
:107D0000532029684862280000F0ABFA80464046BC
:107D1000C0B2002816D1DFF8000538402968086095
:107D20002868806830F48020296888602868816825
:107D3000F26830690243114328688160280000F02E
:107D4000B8FA80464046C0B2002801D101206877C9
:107D5000FF2029684862002028774046C0B2BDE86D
:107D6000F283F8B505000E00140000212868806A2F
:107D70007060286800694004400CB060286807689B
:107D8000DFF8940407403800000C10F03F0030701A
:107D90003800000A10F07F00707017F07F00B0709C
:107DA0003800800D10F00100F070002C0BD13078FD
:107DB00000F0A4FA3070707800F0A0FA7070B0781B
:107DC00000F09CFAB0700020F2BD2DE9F8430500E8
:107DD0000E0014005FF00008287F012801D1022066
:107DE00054E00120287702206877002C07D17078B2
:107DF000C00604D5707810F0EF000A307070002CC7
:107E000016D1F07800F06EFA8146707800F06AFAC8
:107E10000700B07800F066FA5FFA89F9FFB23F0216
:107E200057EA0947C0B20743307857EA403709E0BC
:107E3000F07877783F0257EA0047B0780743307808
:107E400057EA4037CA2029684862532029684862A7
:107E5000280000F006FA80464046C0B2002808D14B
:107E6000DFF8B803384029684860280000F021FA9C
:107E700080464046C0B2002801D101206877FF202B
:107E800029684862002028774046C0B2BDE8F283E6
:107E9000F8B505000E001400002128684768DFF8D7
:107EA0007C0307403800000CF0703800000A10F026
:107EB0001F00707017F03F00B0703800400B10F0DA
:107EC00007003070002C0BD1F07800F017FAF0703A
:107ED000707800F013FA7070B07800F00FFAB0709C
:107EE0000020F2BD2DE9FE4F05000E0014004FF4F6
:107EF0007A77DFF82C83D8F8000040094FF47A71C4
:107F0000B0FBF1F078430090002002900020019037
:107F1000287F012801D10220E5E0012028770220F6
:107F20006877002C31D128688068400601D4002091
:107F3000F070F0690028FFD0307800F0D3F9814666
:107F4000707800F0CFF98246B07800F0CBF9834624
:107F500096F8200000F0C6F95FFA89F95FFA8AFA0C
:107F60005FEA0A2A5AEA094A5FFA8BFB5BEA0A0AC5
:107F7000F1785AEA815AC0B25AEA006AF06950EAC6
:107F80000A0A706950EA0A0A1FE0286880684006F9
:107F900001D40020F070F0690028FFD0307896F806
:107FA00001A05FEA0A2A5AEA004AB07850EA0A0AAF
:107FB000F0785AEA805A96F820005AEA006AF06986
:107FC00050EA0A0A706950EA0A0A7168B069014306
:107FD000CA202A68506253202A685062706AB0F53D
:107FE000807F32D12868806830F480702A68906081
:107FF0002868C06810F0800070F4C0702A68D060F3
:108000000098401E00900098002808D1FF202A68A0
:1080100050620320687700202877032063E02868F7
:10802000C068C007ECD52868C0F81CA02868416467
:108030002868806850F480702A689060286880689A
:1080400050F480502A6890603BE02868806830F4E3
:1080500000702A6890602868C06810F0800070F492
:1080600020702A68D060D8F8000040094FF47A7276
:10807000B0FBF2F007FB00F700970098401E00905D
:108080000098002808D1FF202A68506203206877F2
:1080900000202877032026E02868C0688007ECD5F8
:1080A0002868C0F820A0286881642868806850F497
:1080B00000702A6890602868806850F400502A6830
:1080C00090605848026852F40032026056480268D4
:1080D00052F400320260FF202A6850620120687763
:1080E000002028770020BDE8FE8FF8B504000D00C1
:1080F0000026207F012801D102205AE001202077AC
:1081000002206077CA2021684862532021684862B3
:10811000B5F5807F22D12068806830F480702168B6
:1081200088602068806830F480502168886006F09C
:10813000F7FE07002068C068C00732D406F0F0FEE2
:10814000C01B40F2E9318842F4D3FF202168486225
:10815000032060770020207703202AE020688068D1
:1081600030F40070216888602068806830F4005026
:108170002168886006F0D4FE07002068C068800788
:108180000FD406F0CDFEC01B40F2E9318842F4D393
:10819000FF202168486203206077002020770320B9
:1081A00007E0FF20216848620120607700202077E7
:1081B0000020F2BD10B504005FF400301B490860D8
:1081C00020688068C0040ED52068C068C0050AD544
:1081D0002068C06810F0800070F4C0702168C8602A
:1081E000200008F076FD2068806880040ED52068A5
:1081F000C06880050AD52068C06810F0800070F45F
:1082000020702168C860200008F086FE0120607799
:1082100010BD0000BFFF8FFF7F7F7F003FFFFF008B
:10822000A0020020000401400804014014040140A1
:1082300070B5040000254FF657702168C86006F03D
:108240006FFE06002068C068800608D406F068FE4D
:10825000801B40F2E9318842F4D3032000E0002083
:1082600070BD70B50400002500262068C068400677
:108270001CD42068C06850F080002168C86006F0F7
:108280004FFE05002068C06840060FD43000C0B221
:1082900001280BD006F044FE401B40F2E931884231
:1082A000F0D30420607701200600EBE73000C0B275
:1082B00070BD38B5040000252068C06830F080002B
:1082C0002168C86020688068800608D42000FFF715
:1082D000AFFF002803D004206077012005002800AC
:1082E000C0B232BD00210200D2B20A2A02D3491C18
:1082F0000A38F8E750EA0110C0B2704700220300C4
:10830000DBB21B090A214B4310F00F00C018C0B2AA
:1083100070472DE9FE4F04000D00002000260027C5
:108320000021ADF804105FF001085FF000095FF074
:10833000000A21680978212901D101218A465FF0CC
:10834000000B584600B2A988884272DA206851466C
:10835000C9B2405C29685A4612B2895C884265D12C
:10836000012080465046C0B2401C060000208146D5
:108370000020ADF80400300000B2A18888424ADA3B
:108380002068310009B2405C7C281ED1BDF9040090
:10839000002804D10120814616EB0B00070001A83C
:1083A00000903B001BB22A002100701C00B200F0BC
:1083B00059F880464046C0B2012806D15146C9B29C
:1083C000584600B200F03DF839E04846C0B20028F7
:1083D0000FD12068310009B2405C29685A4612B2B8
:1083E0001144320012B2895C884202D000208046DB
:1083F00011E04846C0B2002801D1761CBBE730002E
:10840000BDF9041000B2884203DABDF90400060089
:10841000B1E7761CAFE74046C0B2012806D151460D
:10842000C9B2584600B200F00CF808E01BF1010B8D
:1084300087E75146C9B25FF0FF3000F002F8BDE8AF
:10844000FE8F02000800C0B2002802D1100000B266
:1084500007E0100000B2002802D45FF0FF3000E017
:1084600000207047F0B50500059E01200027AC46AE
:108470000FFA8CFC3C0024B214EB0C0C8C88A44545
:108480003DDA0C68AC460FFA8CFC6444BC460FFA2B
:108490008CFC14F80C407C2C03D17C19348000B285
:1084A0002EE0B2F804C09E460FFA8EFE3C0024B2C5
:1084B00014EB0E0EF44506DAB2F90440641C348065
:1084C0005FF0FF3420000C68AC460FFA8CFC64446B
:1084D000BC460FFA8CFC14F80C40D2F800C09E4643
:1084E0000FFA8EFEF444BE460FFA8EFE1CF80EC044
:1084F000644502D05FF0FF3420007F1CB7E700B274
:10850000F0BDF0B404001000C0B2FF2801D188888B
:108510000200A5881000C0B245191800C0B28542FB
:1085200001DB00201AE0002528001600C0B2F6B2D8
:10853000B0420DD22068A68830442E00F6B20F68F3
:10854000AC465FFA8CFC17F80C7087556D1CEBE796
:10855000A6881000C0B28619A6800120F0BC704722
:10856000F0B50400059D069EA0882818B04201DBE6
:10857000002018E00027380080B2A8420FDA08680F
:10858000BC461FFA8CFC6044C05CD4F800C0BE46F8
:108590001FFA8EFEF4440CF802007F1CEBE7A08863
:1085A0002818A0800120F0BD2DE9FC4104000D0039
:1085B00016002F687F1C206810F807807F1C14208D
:1085C0000190CDF800803B00002221003000FFF731
:1085D000C7FF002801D1002008E0B088C719A08893
:1085E000B84201DA002001E02F600120BDE8F681E9
:1085F00070B40200002318008C8880B2A0420BD215
:108600001068948820441C00A4B20D681E00B6B205
:10861000AD5D05555B1CEEE794888888041994804D
:10862000012070BC70473E0038B50400DFF8105AD6
:108630002878002803D0022810D008D319E04FF47E
:10864000FA70DFF8001B886000F0E9FC13E064209A
:10865000DFF8F01A886000F0E3FC0CE000202870DE
:1086600008F06FF90121DFF8DC0AFFF788F9012033
:108670000BE0002028702878401C28702100C9B227
:10868000DFF8C00AFFF78AF9012032BD10B50400F7
:1086900008F05CF9012814D108F04FF903280ED135
:1086A000DFF8A0190220FCF736FEDFF86C0B42F26F
:1086B000107181600021FFF771F9012008E00120AD
:1086C00006E02100C9B2DFF8500BFFF767F901207F
:1086D00010BD01000120704770B5040008F02DF9AD
