:020000040800F2
:10000000B037002035FC0008E5F20008E7F20008F0
:10001000E9F20008EBF20008EDF200080000000031
:10002000000000000000000000000000EFF20008E7
:10003000F1F2000800000000F3F20008F5F20008F9
:1000400055FF000859FF00085DFF000861FF000828
:1000500065FF000869FF00086DFF000871FF0008D8
:1000600075FF000879FF00087DFF000805F3000810
:1000700081FF000885FF000889FF00080FF30008D2
:100080008DFF000891FF000895FF000899FF000808
:1000900019F300089DFF0008A1FF0008A5FF000854
:1000A00000000000A9FF0008ADFF0008B1FF000834
:1000B00023F30008B5FF0008B9FF0008BDFF0008E2
:1000C000C1FF0008C5FF0008C9FF0008CDFF0008F8
:1000D000D1FF00082DF30008D5FF0008D9FF000864
:1000E000DDFF000837F30008E1FF0008E5FF000826
:1000F000E9FF000800000000EDFF0008F1FF000824
:100100000000000000000000F5FF0008F9FF0008F3
:10011000FDFF0008010001080500010800000000C3
:100120000900010830B585B00400002C01D1012080
:1001300083E094F8A902002805D1002084F8A802E1
:10014000200000F0FDFF032084F8A902206801F0E0
:10015000B9F900200100C9B26268914229D2282170
:100160000200D2B24A432244012382F8293002001D
:10017000D2B24A43224482F828000200D2B24A4353
:100180002244002382F82B300200D2B24A43224498
:10019000002393630200D2B24A4322440023D36374
:1001A0000200D2B201FB02F1214400220A64401C89
:1001B000D0E700252800C0B2616888422CD22820F0
:1001C0002900C9B241432144002281F86921290054
:1001D000C9B24143214481F868512900C9B2414361
:1001E0002144002281F86B212900C9B241432144F6
:1001F0000022C1F878212900C9B2414321440022DC
:10020000C1F87C212900C9B200FB01F02044002183
:10021000C0F880116D1CCDE7211D83B068462022F7
:1002200002F016F90EBC206801F056F9002084F89F
:100230002400012084F8A902002005B030BD10B5CB
:10024000040094F8A802012801D1022010E0012046
:1002500084F8A802206801F02BF90121200000F0A9
:100260005DFF206802F087F8002084F8A8020020D3
:1002700010BD38B50400206802F080F8050028049D
:1002800003D5200000F0F7F985E0680510D5206857
:10029000B0F844104FF6FF3001402068A0F8441039
:1002A000200000F09BFF0021200000F075F872E0B4
:1002B000680409D52068B0F844104BF6FF7001407F
:1002C0002068A0F8441066E0A80409D52068B0F8BA
:1002D00044104DF6FF7001402068A0F844105AE029
:1002E000E8041ED52068B0F840104FF6FB700140BE
:1002F0002068A0F840102068B0F840104FF6F77062
:1003000001402068A0F84010200000F089FF20681C
:10031000B0F844104EF6FF7001402068A0F8441079
:1003200039E028051CD52068B0F8400050F00800DE
:100330002168A1F840002068B0F844104FF2FF7027
:1003400001402068A0F844102068B0F8400050F048
:1003500004002168A1F84000200000F052FF1AE0DC
:10036000A8050CD52068B0F844104FF6FF500140A6
:100370002068A0F84410200000F029FF0BE0E805F9
:1003800009D52068B0F844104FF6FF60014020689E
:10039000A0F84410FFE731BD38B504000D0094F813
:1003A000A802012801D102200DE0012084F8A80252
:1003B00084F824502900C9B2206801F0D2FF00203F
:1003C00084F8A802002032BD2DE9F84304000D0096
:1003D00016001F005FF000082800C0B200060DD50F
:1003E0002900C9B211F007012820414304EB0100A4
:1003F00010F12809012089F801000CE02900C9B298
:1004000011F007012820414304EB010010F5B479F5
:10041000002089F8010015F0070089F8000030007D
:1004200080B2C9F8100089F803703800C0B2022801
:1004300002D1002089F8040094F8A802012801D113
:1004400002200BE0012084F8A8024946206801F050
:1004500054F8002084F8A8024046C0B2BDE8F283F8
:1004600070B504000D002800C0B200060CD52900AC
:10047000C9B211F007012820414304EB010010F13B
:100480002806012070700BE02900C9B211F00701A5
:100490002820414304EB010010F5B4760020707071
:1004A00015F00700307094F8A802012801D102204D
:1004B0000AE0012084F8A8023100206801F0DBF98D
:1004C000002084F8A802002070BD2DE9F04104004E
:1004D0000D0016001F002900C9B211F007012820E5
:1004E000414304EB010010F5B478C8F81460C8F873
:1004F00018700020C8F81C00002088F8010015F0D2
:10050000070088F800004146206801F091FA0020B9
:10051000BDE8F081C9B211F0070128225143084417
:10052000D0F8840170472DE9F04104000D00160059
:100530001F002900C9B211F007012820414304EB34
:10054000010010F12808C8F81460C8F818700120DC
:1005500088F82400C8F820700020C8F81C0001208A
:1005600088F8010015F0070088F80000414620686F
:1005700001F05EFA0020BDE8F08170B504000D00C6
:1005800060682900C9B211F00701884201D2012038
:1005900030E02800C0B200060CD52900C9B211F025
:1005A00007012820414304EB010010F12806012037
:1005B000707009E02900C9B22820414304EB010012
:1005C00010F5B476002070700120B07015F00700AF
:1005D000307094F8A802012801D102200AE001201D
:1005E00084F8A8023100206801F043FE002084F85E
:1005F000A802002070BD70B504000D0060682900DD
:10060000C9B211F00F01884201D2012032E0280066
:10061000C0B200060CD52900C9B211F0070128208C
:10062000414304EB010010F12806012070700BE03B
:100630002900C9B211F007012820414304EB010051
:1006400010F5B476002070700020B07015F007002F
:10065000307094F8A802012801D102200AE001209C
:1006600084F8A8023100206801F028FE002084F8F8
:10067000A802002070BD2DE9FE4F04002068B0F8EC
:100680004400000440F16E822068B0F84400ADF8E8
:100690000200BDF8020010F00F0080464046C0B2D4
:1006A000002840F0ED80BDF80200C00635D4206877
:1006B000018848F60F70014051F400412068018024
:1006C00014F1280005002068B0F85000297810EBDC
:1006D000C100216811EB400101F20441088880B299
:1006E0008005800DE8616869E96908446861002156
:1006F000200000F05BFD94F824000028BED0A8691B
:100700000028BBD194F8240050F080002168A1F8A3
:100710004C00002084F82400B0E714F5B470050004
:10072000206800880700380524D52068B0F85000FC
:10073000297810EBC100216811EB400101F20C4156
:10074000088880B28005800DE861EB699BB2EA8879
:1007500014F52C71206801F03CFE2068018840F6F9
:100760008F70014051F0800120680180200000F06E
:1007700002FD83E738047FF581AF2068018840F6E9
:100780008F70014051F08001206801802068B0F82E
:100790005000297810EBC100216811EB400101F2F3
:1007A0000C41088880B28005800DE861E869002866
:1007B00011D0686900280ED0EB699BB2EA8869699C
:1007C000206801F006FE6869E96908446861002153
:1007D000200000F0D9FC20680088070038053FF5AC
:1007E0004DAF380080B210F44050B0F5405F3FF498
:1007F00045AF21682068B0F85000411801F20C4064
:100800008146B9F800008005800DA9F8000028692C
:100810003F280FD3286940092A7C12F01F0F00D10E
:10082000401EB9F80020830253F400431A43A9F88C
:10083000002015E02869002806D1B9F8000050F41E
:100840000040A9F800000BE0286940082A7CD20784
:1008500000D5401CB9F8002052EA8022A9F80020F7
:10086000206802884BF68F70024092F4805292F416
:10087000005242F4004252F0800220680280FDE6FD
:1008800020684146C9B230F821000700380440F121
:10089000A68020684146C9B230F8211040F68F701A
:1008A000014051F0800120684246D2B220F8221067
:1008B0004146C9B22820414304EB010010F5B47051
:1008C0000500287B00281AD12068B0F8500029784C
:1008D00010EBC100216811EB400101F20C410888C6
:1008E0008005800D0600300080B200285CD0330007
:1008F0009BB2EA886969206801F06BFD54E0E878F2
:10090000022807D13A0092B22900200000F02DF908
:10091000060049E02068297830F8211048F68F70E9
:10092000014041F4004151F0C00120682A7820F8CC
:1009300022102068297830F8210040041AD5206858
:10094000B0F85000297810EBC100216811EB40018C
:1009500001F2044108888005800D0600300080B255
:10096000002821D033009BB22A896969206801F0F0
:1009700030FD19E02068B0F85000297810EBC10074
:10098000216811EB400101F20C4108888005800DBF
:100990000600300080B2002806D033009BB26A897E
:1009A0006969206801F015FDE969300080B24118DD
:1009B000E9616869310089B208446861A869002862
:1009C00004D0300080B22969884204D229782000FE
:1009D00000F0DAFB03E02900206801F029F838066E
:1009E0007FF54CAE4146C9B22820414304EB0100DB
:1009F0002830050020684146C9B230F8211048F679
:100A00000F70014051F4004120684246D2B220F8F4
:100A10002210E878012868D10020A861287B0028EE
:100A20005ED078062ED56878002818D12168206815
:100A3000B0F8500041182878C00011EB400000F2D7
:100A400004408246BAF800008005800DAAF8000034
:100A5000BAF8000050F40040AAF8000011E06878ED
:100A600001280ED121682068B0F85000411828787C
:100A7000C00011EB400000F2044002900020029AF6
:100A800010802DE021686878002818D1226820683D
:100A9000B0F8500082182878C00012EB400000F235
:100AA0000C408346BBF800008005800DABF80000C9
:100AB000BBF8000050F40040ABF8000010E068788C
:100AC00001280DD12068B0F8500041182878C000E6
:100AD00011EB400000F20C4001900020019A1080C0
:100AE0002978200000F062FBC8E5F80533D42068BF
:100AF000B0F85000297810EBC100216811EB4001DB
:100B000001F2044108888005800DADF80000BDF8B1
:100B10000000A969884205D2A969BDF80000091A38
:100B2000A96101E00020A861A869002804D1297802
:100B3000200000F03BFBA1E56869BDF80010084407
:100B40006861E969BDF800004118E9612900206881
:100B500000F06EFF92E53A0092B22900200000F00A
:100B6000A4F88BE50020BDE8FE8FF8B504000D0069
:100B7000160070044BD52068B0F85000297810EBAF
:100B8000C100216811EB400101F204410F88BF054B
:100B9000BF0DA869390089B2884205D3A969380018
:100BA00080B2091AA96101E00020A861A8690028A3
:100BB00010D12068297830F821104BF68F70014051
:100BC00091F4005141F4004151F0800120682A78ED
:100BD00020F8221070060ED52068297830F82110F0
:100BE00048F68F70014041F4004151F0C001206887
:100BF0002A7820F82210380080B2002852D03B001A
:100C00009BB22A896969206801F0E3FB4AE0206809
:100C1000B0F85000297810EBC100216811EB4001B9
:100C200001F20C410F88BF05BF0DA869390089B2D8
:100C3000884205D3A969380080B2091AA96101E088
:100C40000020A861A869002810D12068297830F810
:100C500021104BF68F70014091F4005141F4004196
:100C600051F0800120682A7820F8221070060ED4F6
:100C70002068297830F8211048F68F70014041F43F
:100C8000004151F0C00120682A7820F82210380075
:100C900080B2002806D03B009BB26A89696920684F
:100CA00001F097FB380080B2F2BD2DE9F04105005C
:100CB0000E001700780640F10C812868B0F850004B
:100CC000317810EBC100296811EB400101F20441B9
:100CD000B1F800805FEA88585FEA9858404680B2D1
:100CE000B169884205D2B169404680B2091AB16142
:100CF00001E00020B061B069002864D1707800285C
:100D000013D129682868B0F8500041183078C00025
:100D100011EB400000F2044002889205920D02801F
:100D2000028852F4004202800FE0707801280CD152
:100D300029682868B0F8500041183078C00011EBDD
:100D4000400000F2044000220280296870780028E8
:100D500013D12A682868B0F8500082183078C00093
:100D600012EB400000F20C4003889B059B0D0380B2
:100D7000038853F4004303800EE0707801280BD100
:100D80002868B0F8500041183078C00011EB4000DE
:100D900000F20C40002202803178280000F006FAB0
:100DA000780440F1A5812868317830F8211048F6A0
:100DB0008F70014041F4404151F080012868327841
:100DC00020F8221094E178040ED52868317830F8A4
:100DD000211048F68F70014041F4404151F08001EC
:100DE0002868327820F8221096F82400012840F074
:100DF0007F817069414689B208447061F16940465B
:100E000080B24118F161306A3169884205D3306996
:100E10000400306A001B306210E0306A002806D1FE
:100E2000404680B20400002086F8240006E000203E
:100E300086F82400306A04000020306270780028B0
:100E400030D129682868B0F8500041183078C000C7
:100E500011EB400000F2044002889205920D0280DE
:100E60003F2C0ED32200520914F01F0F00D1521E46
:100E700003885FEA822C5CF4004C5CEA0303038085
:100E80000FE0002C04D1028852F40042028008E0F6
:100E900022005208E30700D5521C038853EA82233C
:100EA00003800EE0707801280BD129682868B0F81B
:100EB000500041183078C00011EB400000F20440AF
:100EC000048023009BB232897169286801F05AFAC4
:100ED0000EE12868B0F85000317810EBC1002968A5
:100EE00011EB400101F20C41B1F800805FEA885833
:100EF0005FEA9858B069414689B2884205D3B16922
:100F0000404680B2091AB16101E00020B061B069C9
:100F1000002864D17078002813D129682868B0F8B7
:100F2000500041183078C00011EB400000F204403E
:100F300002889205920D0280028852F400420280DB
:100F40000FE0707801280CD129682868B0F85000AB
:100F500041183078C00011EB400000F2044000223C
:100F6000028029687078002813D12A682868B0F8B0
:100F7000500082183078C00012EB400000F20C40A4
:100F800003889B059B0D0380038853F40043038073
:100F90000EE0707801280BD12868B0F85000411895
:100FA0003078C00011EB400000F20C4000220280BB
:100FB0003178280000F0FAF8780400F19980286868
:100FC000317830F8211048F68F70014041F44041EB
:100FD00051F080012868327820F8221088E07804E7
:100FE0000ED42868317830F8211048F68F7001400F
:100FF00041F4404151F080012868327820F82210F5
:1010000096F82400012873D17069414689B20844DA
:101010007061F169404680B24118F161306A31690E
:10102000884205D330690400306A001B306210E04A
:10103000306A002806D1404680B20400002086F8BD
:10104000240006E0306A040000203062002086F8A8
:10105000240029687078002835D12A682868B0F8FB
:10106000500082183078C00012EB400000F20C40B3
:1010700003889B059B0D03803F2C10D323005B0945
:1010800014F01F0F00D15B1EB0F800C05FEA832E82
:101090005EF4004E5EEA0C0CA0F800C012E0002CDA
:1010A00004D1038853F4004303800BE023005B0862
:1010B0005FEAC47C00D55B1CB0F800C05CEA832CFE
:1010C000A0F800C00DE0707801280AD12868B0F8B7
:1010D000500041183078C00011EB400000F20C4085
:1010E000048023009BB272897169286801F04AF973
:1010F0002868317830F8211048F6BF70014091F02F
:10110000100191F0200141F4004151F08001286864
:10111000327820F822100020BDE8F0810A00D2B217
:10112000012A06D1DFF84023136853F0010313604E
:1011300005E0DFF8342313685B085B001360704739
:101140001CB504002068DFF82413884212D1DFF8B0
:101150002003016851F400010160006810F40000F0
:101160000090009800220021142001F05DFA142064
:1011700001F06FFA13BD10B5040014F52C71D4F80A
:10118000E80201F0E0FA10BD38B504000D002900B6
:10119000C9B22820414304EB0100D0F87C2129008A
:1011A000C9B2D4F8E80201F002FB31BD38B5040041
:1011B0000D002900C9B22820414304EB0100C26B95
:1011C0002900C9B2D4F8E80201F048FB31BD10B5DE
:1011D0000400D4F8E80201F00CFC10BD38B504009E
:1011E0000125A068022801D001F088FC2900C9B2BD
:1011F000D4F8E80201F0E8FBD4F8E80201F0B4FB0F
:1012000031BD10B50400D4F8E80201F0E1FBA0699B
:10121000002804D09748016851F00601016010BD14
:1012200010B50400D4F8E80201F0DCFB10BD10B5E5
:1012300004009148C0F8E842C4F898028B49016064
:101240000821416002218160022101610021816148
:1012500000210162FEF766FF002801D001F04EFC7C
:10126000182300220021D4F8980201F049FC5823E9
:1012700000228021D4F8980201F042FCC023002211
:101280008121D4F8980201F03BFC4FF488730022CE
:101290000121D4F8980201F033FC4FF4807300224E
:1012A0008221D4F8980201F02BFC002010BDF8B583
:1012B000040000250027D4F89802FEF7C0FF0600BE
:1012C0003000C0B200F0DDF8C0B2F2BD2DE9F04749
:1012D00004000D0016001F005FF000085FF0000A18
:1012E0003300DBB23A0092B22900C9B2D4F89802B6
:1012F000FFF76AF881464846C0B200F0C2F8C0B2B3
:10130000BDE8F0872DE9F04104000D0000265FF0F4
:1013100000082900C9B2D4F89802FFF7A1F8070025
:101320003800C0B200F0ADF8C0B2BDE8F0812DE9E0
:10133000F04104000D0000265FF000082900C9B24A
:10134000D4F89802FFF719F907003800C0B200F08E
:1013500098F8C0B2BDE8F0812DE9F04104000D001D
:1013600000265FF000082900C9B2D4F89802FFF700
:1013700042F907003800C0B200F083F8C0B2BDE8FF
:10138000F0810200D2F898320800C0B2000609D5F8
:10139000C9B211F07F012820414303EB010090F80E
:1013A0002A0008E0C9B211F07F012820414303EB75
:1013B000010090F86A0170472DE9F04104000D002A
:1013C00000265FF000082900C9B2D4F89802FEF7A1
:1013D000E3FF07003800C0B200F053F8C0B2BDE828
:1013E000F0812DE9F04704000D0016001F005FF0AA
:1013F00000085FF0000A3B009BB232002900C9B22E
:10140000D4F89802FFF78FF881464846C0B200F042
:1014100038F8C0B2BDE8F0872DE9F04704000D00B0
:1014200016001F005FF000085FF0000A3B009BB24F
:1014300032002900C9B2D4F89802FFF746F8814675
:101440004846C0B200F01DF8C0B2BDE8F08738B51C
:1014500004000D002900C9B2D4F89802FFF75AF829
:1014600032BD01000548704704000140005C0040A7
:101470002438024010ED00E060210020E826002022
:101480007047010000220800C0B2002805D00228E1
:1014900007D004D3032806D007E0002006E002208E
:1014A00004E0012002E0022000E00220C0B2704708
:1014B00001000020A1F844004FF43F42A1F8402071
:1014C0000020704701004FF43F42B1F840009043C4
:1014D000A1F84000002070470EB401000120A1F8DF
:1014E00040000020A1F840000020A1F844000020A6
:1014F000A1F85000002003B070472DE9F04103002F
:101500000A000020117833F8214048F68F110C4072
:10151000D178002905D0022906D009D3032904D0A7
:1015200009E054F4007408E007E054F4C06404E0F7
:1015300054F4806401E00121080048F2800555EA76
:101540000401167823F8261048F68F76117833F8C0
:101550002170374011780F432F43117823F8217001
:10156000117B002940F0C180517800293ED01F0036
:10157000B3F85010CF19117817EB011111F58061F4
:10158000B2F806C01FFA8CFC5FEA5C0C5FEA4C0CF8
:10159000A1F800C0117833F821105FEA416C0AD538
:1015A000177833F827703E4046F4004656F0C006E0
:1015B000177823F82760D17801290CD0117833F8F7
:1015C000216048F6BF710E4096F020063543117831
:1015D00023F821504CE1117833F8216048F6BF71AF
:1015E0000E403543117823F8215041E11F00B3F834
:1015F0005010CF191178C90017EB410111F5816125
:10160000B2F806C01FFA8CFC5FEA5C0C5FEA4C0C77
:10161000A1F800C09C46B3F8501011EB0C0C1178E7
:10162000C9001CEB410E0EF20C4EBEF800108905ED
:10163000890DAEF8001011693F2911D311694909CC
:10164000177C17F01F0F00D1491EBEF800705FEA2B
:10165000812858F4004858EA0707AEF8007015E0F2
:101660001169002906D1BEF8001051F40041AEF80E
:1016700000100BE011694908177CFF0700D5491CD1
:10168000BEF8007057EA8127AEF80070117833F881
:1016900021104F040AD5177833F827703E4046F4DE
:1016A000404656F08006177823F827601178002905
:1016B0000ED1117833F821604BF68F710E4096F4FD
:1016C000805696F400563543117823F82150CFE028
:1016D000117833F821604BF68F710E4096F4005666
:1016E0003543117823F82150C2E0D17802290BD17B
:1016F000117833F82110314041F4014151F080015B
:10170000177823F8271009E0117833F8217048F68C
:101710008F610F402F43117823F821701F00B3F819
:101720005010CF19117817EB011111F58061B2F843
:1017300008C01FFA8CFC5FEA5C0C5FEA4C0CA1F855
:1017400000C09C46B3F8501011EB0C0C1178C90086
:101750001CEB410111F58161B2F80AE01FFA8EFE1F
:101760005FEA5E0E5FEA4E0EA1F800E051780029B4
:1017700039D1117833F821104F040BD5177833F88D
:101780002770374047F4404757F0800792F800C071
:1017900023F82C70117833F821104F060AD51778EA
:1017A00033F827703E4046F4004656F0C0061778DE
:1017B00023F82760117833F821604BF68F710E40C3
:1017C00096F4805696F400562E43117823F8216043
:1017D000117833F8216048F6BF710E403543117817
:1017E00023F8215044E0117833F821104F040BD531
:1017F000177833F82770374047F4404757F0800791
:1018000092F800C023F82C70117833F821104F069D
:101810000AD5177833F827703E4046F4004656F054
:10182000C006177823F82760D17801290CD01178E9
:1018300033F8216048F6BF710E4096F020062E4323
:10184000117823F8216009E0117833F8216048F617
:10185000BF710E402E43117823F82160117833F8C0
:1018600021604BF68F710E403543117823F82150DB
:10187000C0B2BDE8F08110B40200087B002842D15C
:10188000487800281FD0087832F8203058060CD548
:10189000087832F8204048F68F70044044F4004441
:1018A00054F0C004087822F82040087832F820303C
:1018B00048F6BF70034043F4004353F080030878B8
:1018C00022F82030B1E0087832F8203058040CD5E6
:1018D000087832F8204048F68F70044044F44044C1
:1018E00054F08004087822F82040087832F820303C
:1018F0004BF68F70034043F4004353F080030878A5
:1019000022F8203091E04878002847D1087832F852
:10191000203058040CD5087832F8204048F68F70F3
:10192000044044F4404454F08004087822F82040F5
:10193000087832F8203058060CD5087832F8204064
:1019400048F68F70044044F4004454F0C004087812
:1019500022F82040087832F8203048F68F70034093
:1019600043F4004353F0C003087822F8203008788D
:1019700032F820404BF68F70044048F280031C433D
:10198000087822F82040087832F8204048F6BF70E6
:1019900004402343087822F8203046E0087832F8E3
:1019A000203058040CD5087832F8204048F68F7063
:1019B000044044F4404454F08004087822F8204065
:1019C000087832F8203058060CD5087832F82040D4
:1019D00048F68F70044044F4004454F0C004087882
:1019E00022F82040087832F8203048F68F70034003
:1019F00043F4404353F08003087822F820300878FD
:101A000032F8204048F6BF70044048F280031C437F
:101A1000087822F82040087832F820404BF68F7082
:101A200004402343087822F82030002010BC70477F
:101A30002DE9F84305000E007078012840F070820F
:101A40003069B169884202D23069040001E0B069AE
:101A50000400307B002812D123009BB2F288716908
:101A6000280000F08FFC2900B5F8500041183078AC
:101A7000C00011EB400000F2044004803EE2F07828
:101A8000022840F097813069316A884280F06C8189
:101A9000307835F8201048F68F70014041F401414C
:101AA00051F08001307825F82010306A001B306238
:101AB000307835F82000400640F1AB80290070787E
:101AC000002834D12A00B5F8500082183078C000C0
:101AD00012EB400000F20C4003889B059B0D038035
:101AE0003F2C10D323005B0914F01F0F00D15B1EA5
:101AF000B0F800C05FEA832E5EF4004E5EEA0C0C84
:101B0000A0F800C012E0002C04D1038853F4004375
:101B100003800BE023005B085FEAC47C00D55B1CFC
:101B2000B0F800C05CEA832CA0F800C00CE070782C
:101B3000012809D1B5F8500041183078C00011EBE8
:101B4000400000F20C400480B6F80A9023009BB2DB
:101B50004A4692B27169280000F014FC7069204472
:101B600070613069316A884203D2306A001B30628A
:101B700003E0306A040000203062707800282FD122
:101B80002900B5F8500041183078C00011EB400032
:101B900000F2044002889205920D02803F2C0ED381
:101BA0002200520914F01F0F00D1521E03885FEA71
:101BB000822C5CF4004C5CEA030303800FE0002CF1
:101BC00004D1028852F40042028008E02200520848
:101BD000E30700D5521C038853EA822303800DE0FB
:101BE000707801280AD12900B5F8500041183078E2
:101BF000C00011EB400000F204400480B6F80880F9
:101C000023009BB2424692B27169280000F0BAFBF1
:101C100074E1707800282FD12900B5F850004118E0
:101C20003078C00011EB400000F2044002889205B9
:101C3000920D02803F2C0ED32200520914F01F0F88
:101C400000D1521E03885FEA822C5CF4004C5CEAEF
:101C5000030303800FE0002C04D1028852F40042F9
:101C6000028008E022005208E30700D5521C0388D6
:101C700053EA822303800DE0707801280AD12900FD
:101C8000B5F8500041183078C00011EB400000F268
:101C900004400480B6F8089023009BB24A4692B2F2
:101CA0007169280000F06EFB706920447061306932
:101CB000316A884203D2306A001B306203E0306A26
:101CC00004000020306229007078002834D12A00F6
:101CD000B5F8500082183078C00012EB400000F2D6
:101CE0000C4003889B059B0D03803F2C10D32300E1
:101CF0005B0914F01F0F00D15B1EB0F800C05FEA53
:101D0000832E5EF4004E5EEA0C0CA0F800C012E0D8
:101D1000002C04D1038853F4004303800BE023001C
:101D20005B085FEAC47C00D55B1CB0F800C05CEACD
:101D3000832CA0F800C00CE07078012809D1B5F818
:101D4000500041183078C00011EB400000F20C4008
:101D50000480B6F80A8023009BB2424692B27169B1
:101D6000280000F00FFBC9E0306A0400307835F835
:101D7000201048F68F60014041F4004151F080018D
:101D8000307825F82010A946B5F8500010EB090965
:101D90003078C00019EB400000F204400480308924
:101DA000804623009BB2424692B27169280000F03F
:101DB000E9FAA3E0306A001B3062307835F8200081
:101DC000400650D529007078002834D12A00B5F893
:101DD000500082183078C00012EB400000F20C4036
:101DE00003889B059B0D03803F2C10D323005B09C8
:101DF00014F01F0F00D15B1EB0F800C05FEA832E05
:101E00005EF4004E5EEA0C0CA0F800C012E0002C5C
:101E100004D1038853F4004303800BE023005B08E4
:101E20005FEAC47C00D55B1CB0F800C05CEA832C80
:101E3000A0F800C00CE07078012809D1B5F8500076
:101E400041183078C00011EB400000F20C400480D3
:101E50007089804623009BB2424692B27169280085
:101E600000F090FA4AE0707800282FD12900B5F8E8
:101E7000500041183078C00011EB400000F20440DF
:101E800002889205920D02803F2C0ED32200520947
:101E900014F01F0F00D1521E03885FEA822C5CF4FD
:101EA000004C5CEA030303800FE0002C04D102889D
:101EB00052F40042028008E022005208E30700D5F5
:101EC000521C038853EA822303800DE070780128B6
:101ED0000AD12900B5F8500041183078C00011EB44
:101EE000400000F2044004803089804623009BB209
:101EF000424692B27169280000F044FA307835F811
:101F0000201048F6BF70014091F0100191F02001BF
:101F100041F4004151F08001307825F82010A5E10E
:101F2000307B00283DD13069B169884205D23069E3
:101F30000400B069001BB06103E0B0690400002038
:101F4000B0612900B5F8500041183078C00011EB9D
:101F5000400000F20C4002889205920D02803F2C56
:101F60000ED32200520914F01F0F00D1521E038815
:101F70005FEA822C5CF4004C5CEA030303800FE010
:101F8000002C04D1028852F40042028008E02200B2
:101F90005208E30700D5521C038853EA82230380CA
:101FA00053E1F078022840F0B4807078002833D1F3
:101FB0002900B5F8500041183078C00011EB4002FC
:101FC00002F2044210888005800D108030693F289D
:101FD0000FD330694009337C13F01F0F00D1401E2E
:101FE00013885FEA802C5CF4004C5CEA03031380E6
:101FF00011E03069002804D1108850F400401080AE
:1020000009E030694008337CDB0700D5401C1388A9
:1020100053EA802313800EE0707801280BD1290049
:10202000B5F8500041183078C00011EB400000F2C4
:102030000440326902802900707800283AD12A00D1
:10204000B5F8500082183078C00012EB400303F25C
:102050000C4318888005800D188030693F2812D302
:102060003069400996F810C01CF01F0F00D1401EC7
:10207000B3F800C05FEA802E5EF4004E5EEA0C0CFE
:10208000A3F800C015E03069002804D1188850F486
:10209000004018800DE03069400896F810C05FEAF3
:1020A000CC7C00D5401CB3F800C05CEA802CA3F8BF
:1020B00000C00DE0707801280AD1B5F85000411831
:1020C0003078C00011EB400000F20C403269028011
:1020D000F069002800F0B980307835F8200007005A
:1020E00044F2400010EA0701020089B2914202D096
:1020F000074240F0AA80307835F8201048F68F70FB
:10210000014041F4004151F0C001307825F8201021
:102110009BE0F078012840F096803069B1698842F0
:1021200005D230690400B069001BB06103E0B069FA
:1021300004000020B061707800282FD12900B5F884
:10214000500041183078C00011EB400000F204400C
:1021500002889205920D02803F2C0ED32200520974
:1021600014F01F0F00D1521E03885FEA822C5CF42A
:10217000004C5CEA030303800FE0002C04D10288CA
:1021800052F40042028008E022005208E30700D522
:10219000521C038853EA822303800DE070780128E3
:1021A0000AD12900B5F8500041183078C00011EB71
:1021B000400000F20440048029007078002834D1E7
:1021C0002A00B5F8500082183078C00012EB4000A9
:1021D00000F20C4003889B059B0D03803F2C10D31D
:1021E00023005B0914F01F0F00D15B1EB0F800C084
:1021F0005FEA832E5EF4004E5EEA0C0CA0F800C08D
:1022000012E0002C04D1038853F4004303800BE058
:1022100023005B085FEAC47C00D55B1CB0F800C0FB
:102220005CEA832CA0F800C00CE07078012809D18A
:10223000B5F8500041183078C00011EB400000F2B2
:102240000C40048001E0012011E0307835F82010C6
:102250004BF68F70014091F4805191F4005141F49C
:10226000004151F08001307825F820100020BDE8B1
:10227000F2830200487800280FD0087832F8203026
:1022800048F6BF70034093F0100343F4004353F04B
:102290008003087822F820300EE0087832F82030E9
:1022A0004BF68F70034093F4805343F4004353F094
:1022B0008003087822F820300020704710B4020014
:1022C000087B00284AD14878002824D0087832F8C2
:1022D000203058060CD5087832F8204048F68F7028
:1022E000044044F4004454F0C004087822F820402C
:1022F000C878012832D0087832F8203048F6BF700C
:10230000034093F0200343F4004353F08003087824
:1023100022F8203022E0087832F8203058040CD51A
:10232000087832F8204048F68F70044044F4404466
:1023300054F08004087822F82040087832F82030E1
:102340004BF68F70034093F4805393F4005343F49F
:10235000004353F08003087822F82030002010BC9E
:10236000704702000800C0B2002802D18020A2F805
:102370004C00002070470100002070470100B1F8B8
:10238000440070472DE9F04304001E00B6B2761CED
:10239000760827008846100080B217EB400E1EF525
:1023A000806E3000002812D098F800C098F8019094
:1023B0005CEA092C6546AEF800501EF1020C1CF1D7
:1023C000020E18F1010C1CF10108401EEAE7BDE8FD
:1023D000F0832DE9F04104001E00B6B27608270014
:1023E0008C46100080B217EB400E1EF5806E300058
:1023F000002813D0BEF8008045461EF1020E8CF86E
:1024000000501CF1010CA8465FEA18288CF80080E7
:102410001CF1010C1EF1020E401EE9E75FEAC378D1
:1024200004D5BEF8008045468CF80050BDE8F08128
:1024300062B38B0708D0521E11F8013B00F8013B34
:1024400000F024808B07F6D1830740F0208000BF86
:10245000103A07D330B4B1E83810103AA0E8381079
:10246000F9D230BC530724BFB1E80810A0E8081027
:1024700044BF51F8043B40F8043BD20724BF31F875
:10248000022B20F8022B44BF0B7803707047121FF9
:1024900017D35B0009D151F8043B20F8023B1B0C19
:1024A000121F20F8023BF6D20BE051F8043B00F873
:1024B000013B1B0A20F8023B1B0C121F00F8013BDA
:1024C000F3D238BF121D521E24BF11F8013B00F891
:1024D000013BF8D8704730B4002513E050F8042BC6
:1024E000D30744BFA9F101039A18091F042942F830
:1024F000045BFAD213468C0744BF15809B1CC907A6
:1025000048BF1D7050F8041B0029E7D130BC70474C
:1025100010B410F00703DFF8644122684FF6FF01A2
:102520000A40DFF85C1151EA03210A43226010BC23
:10253000704752480068C0F302207047010049B25A
:10254000002909D4012210F01F018A404D490300DF
:102550005BB25B0941F823207047010049B20029B2
:102560000DD4012210F01F018A40474903005BB2DD
:102570005B0941F82320BFF34F8FBFF36F8F704784
:1025800010B4020052B2002A05D40A013F4B0400E5
:1025900064B21A5508E00A013D4B040064B214F01D
:1025A0000F04234403F8042C10BC704770B40300DC
:1025B00013F00704D4F10700052801D3042001E03B
:1025C000D4F10700251D072D01D2002500E0E51EEE
:1025D000012616FA00F0401E0140A94016FA05F542
:1025E0006D1E2A401143080070BC704710B50400EE
:1025F000601EB0F1807F01D301200EE0601E2549EE
:1026000008600F215FF0FF30FFF7BAFF002022497A
:102610000860072021490860002010BD10B50400A3
:102620002000FFF775FF10BD2DE9F04104000D00FB
:1026300016000027FFF77DFF804632002900404644
:10264000FFF7B4FF0100200040B2FFF799FFBDE89B
:10265000F08110B50400200040B2FFF76FFF10BDFD
:1026600010B50400200040B2FFF777FF10BD10B591
:1026700004002000FFF7BAFF10BD00000CED00E0E1
:102680000000FA0500E100E080E100E000E400E085
:1026900018ED00E014E000E018E000E010E000E0D9
:1026A00070B505000C001600002D01D1022012E0CB
:1026B000D5F88C02002802D00020C5F88C02002C2E
:1026C00001D0C5F88842012085F874022E702800D8
:1026D000FEF7ADFD002070BD02000023002903D0ED
:1026E000C2F88C12002000E00220C0B2704710B582
:1026F00004002000FEF7DBFD002010BD01000020DB
:10270000704770B504000D000226D4F88C02002832
:102710000AD02900C9B22000D4F88C221268904750
:10272000002801D1002006003000C0B270BD38B5CD
:1027300004000D002900C9B22000D4F88C22526890
:102740009047002032BD38B504000D00290014F573
:10275000207000F088FD0120C4F86C02B4F88602F5
:10276000C4F8700294F8800210F01F00002803D013
:1027700002280DD006D311E014F52071200000F0DE
:10278000E9F912E014F52071200000F036FA0CE0AF
:1027900014F52071200000F067FA06E094F880122A
:1027A00011F080012000FEF7C2FD002032BDF8B517
:1027B00004000F0015003800C0B2002839D114F50C
:1027C000A0700600D4F86C02032826D13069F168A5
:1027D000884210D2F1683069091AF160F0683169F5
:1027E000884201D2F26800E0326992B229002000EA
:1027F00000F0C5FD30E0D4F88C020069002808D054
:1028000094F87402032804D12000D4F88C120969CA
:102810008847200000F0C0FD1EE0D4F86C020528B7
:102820001AD10020C4F86C0200212000FEF77FFDC1
:1028300012E0D4F88C02806900280BD094F874025E
:10284000032807D13900C9B22000D4F88C2292693C
:10285000904701E0022000E00020F2BDF8B504003E
:102860000D0016002800C0B2002868D114F1140031
:102870000700D4F86C0202284AD13869F968884206
:1028800010D2F9683869091AF960FA6892B2310011
:10289000200000F04FFD0023002200212000FEF761
:1028A000BBFD41E0B8683969B0FBF1F201FB1200F1
:1028B000002817D1B8683969884213D3B868D4F8AA
:1028C000701288420ED200220021200000F032FD5A
:1028D0000020C4F870020023002200212000FEF72F
:1028E0009BFD21E0D4F88C02C068002808D094F841
:1028F0007402032804D12000D4F88C12C9688847D8
:1029000080212000FEF713FD200000F052FD0BE0B7
:10291000D4F86C02042803D0D4F86C02002803D148
:1029200080212000FEF703FD94F87802012819D1D8
:102930002000FFF7E3FE002084F8780212E0D4F8CC
:102940008C02406900280BD094F87402032807D148
:102950002900C9B22000D4F88C225269904701E0C6
:10296000022000E00020F2BD10B504004023002248
:1029700000212000FEF7AAFC0120C4F844014020F9
:10298000C4F850014023002280212000FEF79EFC65
:102990000120A06140206062012084F874020020C0
:1029A000C4F86C02002060600020C4F87C02D4F8F7
:1029B0009002002806D06168C9B22000D4F88C22A9
:1029C00052689047002010BD02001174002070472B
:1029D000010091F8740281F87502042081F87402F4
:1029E00000207047010091F8750281F87402002000
:1029F000704710B5040094F87402032809D1D4F884
:102A00008C02C069002804D02000D4F88C12C96957
:102A10008847002010BD7C0080B500F0D7FC00F096
:102A200015F800F0F9FC00F09BFD00F0B7FD00F098
:102A3000D5FE00F02DFF00F0BBFF00F0E5FF01F038
:102A400073F801F0C9F801F069F9FEE710B594B028
:102A50003421002207AC200001F030FA14210022BA
:102A600002AC200001F02AFA082100226C46200066
:102A700001F024FA2048016831F4C05151F400619A
:102A800001600E2007900120099001200A9010207B
:102A90000B9001200C9002201090002011905FF408
:102AA000002012905FF40000139007A801F03AFA9A
:102AB000002801D000F022F80F200290032003909C
:102AC000002004900020059000200690012102A81B
:102AD00001F0BBFC002801D000F010F801200090AC
:102AE0005FF480300190684601F052FE002801D06A
:102AF00000F004F814B010BD0070004072B6FEE79C
:102B000030B40400080080B200060AD50D00ADB252
:102B100015F007052820454304EB050010F12805B2
:102B200007E00D00ADB22820454304EB050010F589
:102B3000B475100080B2002803D100202873EB8008
:102B400005E0012028732B811800000C688100200B
:102B500030BC704770B504000D000026287810F0D6
:102B6000600000280AD0202801D040283ED129004A
:102B70002000D4F88C22926890473BE068780028C7
:102B800020D0012828D0032821D005280BD00628E2
:102B900004D0082811D009280AD022E029002000FA
:102BA00000F0A0F921E02900200000F04DFA1CE01F
:102BB0002900200000F07CFA17E02900200000F036
:102BC000E1FA12E02900200000F003FB0DE02900EB
:102BD000200000F024FB08E02900200000F02CFB7E
:102BE00003E02900200000F052FB03E02900200050
:102BF00000F04DFB3000C0B270BD70B504000D0098
:102C00000026287810F06000002803D0202801D08A
:102C1000402823D194F87402401E022819D828793C
:102C2000022811D229002000D4F88C229268904703
:102C30000600E88800280BD13000C0B2002807D178
:102C4000200000F0A9FB03E02900200000F01FFB9A
:102C500003E02900200000F01AFB03E02900200017
:102C600000F015FB002070BD2DE9F04104000D00BF
:102C70000026AF88287810F0600000280BD02028AC
:102C800002D0402840F0268129002000D4F88C2270
:102C90009268904722E1287810F06000202807D140
:102CA00029002000D4F88C2292689047C0B217E126
:102CB0006878002870D001283CD0032840F00581B6
:102CC00094F87402022802D0032817D02DE03800AF
:102CD000C0B200280DD03800C0B2802809D0390019
:102CE000C9B22000FEF723FB80212000FEF71FFB66
:102CF00003E02900200000F0CAFA1AE068880028E2
:102D00000FD13800C0B200280BD03800C0B28028E4
:102D100007D0E888002804D13900C9B22000FEF7A6
:102D200006FB200000F038FB03E02900200000F043
:102D3000AEFACEE094F87402022802D0032817D02D
:102D400025E03800C0B200280DD03800C0B280287D
:102D500009D03900C9B22000FEF7E9FA802120002D
:102D6000FEF7E5FA03E02900200000F090FA12E0F7
:102D7000688800280AD117F07F0F04D03900C9B243
:102D80002000FEF7E9FA200000F006FB03E029002E
:102D9000200000F07CFA9CE094F87402022802D033
:102DA00003282FD08CE03800C0B2002808D03800AB
:102DB000C0B2802804D02900200000F068FA83E027
:102DC0003800C0B200060AD53900C9B211F07F013F
:102DD0001420414304EB010010F1140809E039000C
:102DE000C9B211F07F011420414304EB010010F53A
:102DF000A0780020C8F8000002224146200000F020
:102E000083FA61E03800C0B200060FD53900C9B2BC
:102E100011F00F011420414304EB010080690028E8
:102E200015D12900200000F032FA4DE03900C9B276
:102E300011F00F011420414304EB0100D0F84401CC
:102E4000002804D12900200000F021FA3CE03800DD
:102E5000C0B200060AD53900C9B211F07F011420B2
:102E6000414304EB010010F1140809E03900C9B234
:102E700011F07F011420414304EB010010F5A0780C
:102E80003800C0B2002803D03800C0B2802803D177
:102E90000020C8F800000DE03900C9B22000FEF79C
:102EA00070FA002803D00120C8F8000002E00020DA
:102EB000C8F8000002224146200000F025FA03E095
:102EC0002900200000F0E3F903E02900200000F0D1
:102ED000DEF903E02900200000F0D9F93000C0B28B
:102EE000BDE8F0817CB504000D00688880B2000A5E
:102EF000C0B2012808D002280ED0032821D006280D
:102F000061D007286ED07EE06946207CD4F8882204
:102F10001268904706007BE0207C002808D16846B4
:102F2000D4F88C12896A884706000220707007E086
:102F30006846D4F88C12C96A88470600022070706F
:102F400066E0A878002808D0022816D00DD30428FF
:102F500023D01AD3052828D02FE06946207CD4F846
:102F600088225268904706002CE06946207CD4F8FD
:102F7000882292689047060024E06946207CD4F8B5
:102F80008822D268904706001CE06946207CD4F86D
:102F9000882212699047060014E06946207CD4F824
:102FA00088225269904706000CE06946207CD4F8DC
:102FB000882292699047060004E02900200000F072
:102FC00066F940E024E0207C002806D16846D4F869
:102FD0008C12496B884706001AE02900200000F097
:102FE00056F930E0207C002808D16846D4F88C12CD
:102FF000096B884706000720707009E0290020004F
:1030000000F045F91FE02900200000F040F91AE027
:10301000BDF80000002810D0E88800280DD0BDF8C9
:103020000000E988884202D3E888ADF80000BDF8C6
:1030300000203100200000F067F9E888002802D164
:10304000200000F0A9F973BD70B504000D00A88838
:10305000002828D1E888002825D16888802822D235
:10306000A87810F07F00060094F87402032804D1B9
:103070002900200000F00BF919E084F87662310095
:10308000C9B22000FEF798F9200000F085F9300061
:10309000C0B2002803D0022084F8740207E00120A7
:1030A00084F8740203E02900200000F0F0F870BDFD
:1030B00070B504000D00324E6888307030780228F8
:1030C00004D32900200000F0E2F857E094F87402DD
:1030D000022802D003281BD048E03078002813D003
:1030E00030786060032084F8740231782000FFF7A4
:1030F00008FB022804D12900200000F0C8F83DE0B8
:10310000200000F049F902E0200000F045F935E028
:10311000307800280CD1022084F874023078606086
:1031200031782000FFF703FB200000F035F91CE0A8
:1031300030786168884215D06168C9B22000FFF715
:10314000F6FA3078606031782000FFF7DAFA02286A
:1031500004D12900200000F09AF80FE0200000F0D0
:103160001BF902E0200000F017F907E02900200019
:1031700000F08DF831782000FFF7D9FA70BD00001B
:103180009433002038B504000D00E888012804D0ED
:103190002900200000F07BF81AE094F87402401E29
:1031A000012802D9801E09D00EE00020A060012273
:1031B00014F10801200000F0A7F809E00122211D08
:1031C000200000F0A1F803E02900200000F05FF8E3
:1031D00031BD38B504000D0094F87402401E022879
:1031E00018D8E888022804D02900200000F04FF801
:1031F00014E00120E060D4F87C02002803D0E068ED
:1032000050F00200E060022214F10C01200000F0F6
:103210007BF803E02900200000F039F831BD38B513
:1032200004000D006888012805D10120C4F87C0243
:10323000200000F0B1F831BD38B504000D0094F85D
:103240007402401E022809D86888012805D1002090
:10325000C4F87C02200000F09FF803E02900200061
:1032600000F015F831BD0A7802704A7842708A7809
:10327000CB7812EB032242800A794B7912EB0322BE
:1032800082808A79CB7912EB0322C280704738B5ED
:1032900004000D0080212000FEF749F800212000E5
:1032A000FEF745F831BDF8B504000D001600002703
:1032B000002C1ED0200000F01DF84000801C308043
:1032C00030783900C9B268547F1C03203900C9B274
:1032D00068547F1C207800280BD020783900C9B2B0
:1032E0006854641C7F1C00203900C9B268547F1CDC
:1032F000F0E7F1BD020000201178002902D0401C47
:10330000521CF9E7C0B2704770B504000D001600FA
:103310000220C4F86C02300080B2E061300080B25C
:10332000206233009BB22A0000212000FEF759F8EA
:10333000002070BD70B504000D00160033009BB274
:103340002A0000212000FEF74CF8002070BD70B567
:1033500004000D0016000320C4F86C02300080B297
:10336000C4F84801300080B2C4F84C0133009BB26D
:103370002A0000212000FEF74FF8002070BD70B534
:1033800004000D00160033009BB22A00002120002B
:10339000FEF742F8002070BD10B504000420C4F808
:1033A0006C020023002200212000FEF71AF8002002
:1033B00010BD10B504000520C4F86C0200230022E3
:1033C00000212000FEF728F8002010BD10B50024D1
:1033D0000320FFF723F90F2001F08AFA002802D01A
:1033E0000120040001E001F0B3FA2000C0B210BDDA
:1033F00008480168490849000160704705480168AC
:1034000031F00201016070470248016831F00401A7
:1034100001607047042004E02DE9F04186B01422D9
:103420000021684601F0B8FA4848016851F00401EB
:103430000160016811F0040105910599016851F0DE
:1034400020010160016811F02001059105990168D2
:1034500051F001010160016811F001010591059928
:10346000016851F002010160016811F0020105914B
:103470000599016851F008010160006810F008002A
:1034800005900598324C00224FF44F51200001F076
:1034900032FC304D00220121280001F02CFC4FF2BB
:1034A0003C162D4F00223100380001F024FCDFF8DB
:1034B000AC8000220421404601F01DFC4FF44F5027
:1034C00000900120019000200290002003906946A6
:1034D000200001F06BFA01200090012001900020F3
:1034E0000290002003906946280001F05FFA40F640
:1034F00007400090002001900120029069462000C2
:1035000001F054FA08200090002001900020029061
:103510006946200001F04AFA00960120019000203F
:103520000290002003906946380001F03FFA042021
:103530000090012001900020029000200390694635
:10354000404601F033FA06B0BDE8F0811C38024075
:10355000000802400014024000040240000C024037
:1035600080B50D48016851F080710160006810F06D
:10357000807000900098002200210B20FFF754F883
:103580000B20FFF766F8002200210F20FFF74CF810
:103590000F20FFF75EF801BD1C3802401FB50C225A
:1035A0000021684601F0F8F9834C8448206000202F
:1035B00060600020A0600020E0604FF48070206117
:1035C000002060610020A0610020E06100202062F6
:1035D000012084F824000920A062002084F82C0037
:1035E000102060630020A063012084F83C002000CC
:1035F00001F0A4FB002801D0FFF780FA1120009011
:1036000001200190042002906946200001F0DFFCB7
:10361000002801D0FFF772FA0020009002200190EC
:103620006946200001F0D3FC002801D0FFF766FABC
:1036300001200090032001906946200001F0C7FCA2
:10364000002801D0FFF75AFA0220009004200190D0
:103650006946200001F0BBFC002801D0FFF74EFABC
:1036600003200090052001906946200001F0AFFC86
:10367000002801D0FFF742FA0E20009006200190AA
:103680006946200001F0A3FC002801D0FFF736FABC
:103690000F200090072001906946200001F097FC60
:1036A000002801D0FFF72AFA082000900820019096
:1036B0006946200001F08BFC002801D0FFF71EFABC
:1036C00009200090092001906946200001F07FFC4C
:1036D000002801D0FFF712FA1FBD38B586B00400EC
:1036E00014220021684601F057F9206833498842C6
:1036F0005FD13348016851F400710160006810F433
:103700000070059005982F48016851F00101016093
:10371000016811F0010105910599016851F004015A
:103720000160016811F0040105910599016851F0EB
:1037300002010160006810F00200059005980F205A
:103740000090032001900020029069461E4801F07D
:103750002DF930200090032001900020029069464E
:103760001A4801F023F90320009003200190002063
:1037700002906946164801F019F9164D164828605E
:10378000002068600020A8608020E8604FF480700E
:1037900028614FF4806068612020A8610020E86102
:1037A000280001F09DFD002801D0FFF7A7F965640E
:1037B0006C6207B030BD0000E42F002000240140FF
:1037C000203802401C38024000000240000802403D
:1037D000000402408C3000200860024080B526487A
:1037E0002649016026494160002181600021C160B5
:1037F0004FF480410161002141610021816100217C
:10380000C1610021016201F02DFF002801D0FFF706
:1038100075F901BD10B586B004001422002101A87D
:1038200001F0BAF820681549884222D1154801688C
:1038300051F002010160006810F002000090009851
:103840004FF440600190122002900020039003206A
:1038500004900420059001A90B4801F0A7F80B483B
:10386000016851F480010160006810F4800000904C
:10387000009806B010BD000038300020005800400D
:10388000A08601001C380240000402402438024097
:1038900080B54048404901604FF416514160002115
:1038A00081600021C160002101610C214161002182
:1038B00081610021C16102F0CFFC002801D0FFF737
:1038C0001DF901BD38B586B004001422002101A8FD
:1038D00001F062F820683049884243D12F480168DE
:1038E00051F480410160006810F48040009000981D
:1038F0002B48016851F002010160006810F00200DD
:1039000000900098C02001900220029000200390B7
:10391000032004900720059001A9224801F046F8F1
:10392000214D22482860002068600020A860802087
:10393000E86000202861002068612020A861002044
:10394000E861280001F0CCFC002801D0FFF7D6F890
:10395000E5636C62002200212520FEF765FE25202C
:10396000FEF777FE07B030BD10B5040020680A49A5
:1039700088420ED10948016831F480410160C021BC
:10398000084801F0F7F8E06B01F0E9FC2520FEF7AC
:1039900067FE10BD20310020003801402038024071
:1039A0001C38024000040240683100205860024088
:1039B00010B5114C002211492000FEF771FE0028BD
:1039C00001D0FFF79BF80E492000FEF785FE002886
:1039D00001D0FFF793F80B49200003F03FFA0028CD
:1039E00001D0FFF78BF82000FEF781FE002801D000
:1039F000FFF784F810BD00BF4C2400202C010020EC
:103A0000180000201C01002010B590B014220021E5
:103A100001A800F0C1FF04220021684600F0BCFFAD
:103A20002822002106A800F0B7FF3C4C3C4820604B
:103A3000002060607F20A060FF20E0600020206107
:103A4000002060610020A061200003F065FA0028DA
:103A500001D0FFF753F800208DF8040000208DF806
:103A6000050000208DF8060000200490002005903D
:103A7000002201A9200003F0AFFA002801D0FFF7CF
:103A80003DF801208DF8000001208DF80100012093
:103A90008DF8020000208DF8030000226946200006
:103AA00003F041FB002801D0FFF728F800208DF833
:103AB000180000208DF8190000208DF81A00002051
:103AC00007900020099000200A9000200B90002011
:103AD0000C9000200D9001208DF838004FF480707C
:103AE0000F90002206A9200003F0AAFB002801D0B5
:103AF000FFF704F810B010BD10B5040020680849A5
:103B000088420AD1012007490860002200212920AB
:103B1000FEF78AFD2920FEF79CFD10BD38320020FB
:103B200000280040D806474210B586B01022002178
:103B300002A800F031FF08220021684600F02CFFA7
:103B4000234C5FF080402060002060600020A06077
:103B50004FF44860E0600020206100206061200098
:103B600003F086FD002801D0FEF7C8FF4FF4805017
:103B7000029002A9200003F082FE002801D0FEF787
:103B8000BDFF00200090002001906946200003F056
:103B90006FFF002801D0FEF7B1FF06B010BD1CB5C5
:103BA00004002068B0F1804F11D10A48016851F03B
:103BB00001010160006810F00100009000980022EF
:103BC00000211C20FEF730FD1C20FEF742FD13BD36
:103BD000AC3100202438024080B507480749016015
:103BE0000621416040F67701816003F07FFF0028E5
:103BF00001D0FEF783FF01BDFC3200200030004001
:103C000010B5040003F0FBFF012010BD38B504001F
:103C1000DFF85C12087800280ED101200870DFF868
:103C200054028088DFF8501208802100C9B2DFF802
:103C30004C0204F0F2F822E0DFF83C02DFF83452E4
:103C4000AA8803889A4212D100200870AA8829689D
:103C5000012004F0A7FA85A1012004F0B1FA0121A6
:103C6000280004F01EFB280004F04FFA07E0A988A2
:103C700001802100C9B2DFF8040204F0CEF8002070
:103C8000DFF8FC1181F84500012032BD10B50400B9
:103C9000DFF8F011022004F093FA04F0E4FF0120B1
:103CA00010BD10B50400DFF8E00107C804F048F8C3
:103CB0000421DFF8C80104F0B0F8012010BD10B5F0
:103CC000040004F0EFFF012010BD0100DFF8B02177
:103CD000507E00280BD1D07D401CD075D07DDFF800
:103CE000AC311B78984204D30020D07501E000204D
:103CF000D0750120704701000120704780B503F0A6
:103D00002BFF04F0CFFF05F065F801BD80B500F092
:103D100039F805F059F905F0C9FB01BD10B5FFF7F9
:103D2000EDFFFFF7F3FFDFF86811022004F048FA17
:103D3000DFF86011022004F043FADFF85C11022082
:103D400004F03EFADFF85411012004F05CFADFF8C9
:103D5000500182880168012004F040FA43A101204B
:103D600004F051FA4FF47A7005F0A8FB05F092FBCD
:103D7000DFF830410020207000F01FF82178084360
:103D80002070F3E780B504F03DFF05F0ABFBDFF8F2
:103D9000F00008210175012141760FF2C100DFF822
:103DA00008110860DFF80401DFF804110860DFF88B
:103DB0000401DFF80411086001BD70B50020002483
:103DC00000252800C0B207283BDADFF8B0602800E1
:103DD000C0B2000130444078012830D12800C0B280
:103DE000042801D0012004002800C0B200013044A2
:103DF000406800280ED005F081FC2900C9B20901F5
:103E000031444968401A2900C9B20901314489681E
:103E1000884214D300202900C9B2090131444870F6
:103E200005F06CFC2900C9B2090131444860280042
:103E3000C0B22900C9B209013144C96888476D1C64
:103E4000BFE7DFF8382092F84100002803D10421B1
:103E5000100003F0E2FF2000C0B270BD80B5002169
:103E6000DFF8180003F0CAFF01BD00000D0A0000D2
:103E700099330020740B0020643300200C020020D2
:103E80000C0B002000F6000814330020580B002013
:103E900020F60008A8F60008C4F6000890F700080D
:103EA0007C0200209A33002054330020640B002051
:103EB0005033002089EF00086033002062F30F22A6
:103EC00062F31F42401810F0030308D0C91A1FD331
:103ED000DB0748BF00F8012D28BF20F8022D130092
:103EE00030B414461546103928BF20E93C00FAD8F2
:103EF000490728BF20E90C0048BF40F8042D89007D
:103F000028BF20F8022D48BF00F8012D30BC7047B3
:103F1000C91818BF00F8012DCB0728BF00F8012DE4
:103F2000704741002DE9FE4F0400002C01D1012013
:103F300089E2DFF81C98D9F8005015F00C05D9F883
:103F4000006016F480362078C00761D5082D04D0B3
:103F50000C2D0CD1B6F5803F09D1DFF8F0070068D1
:103F6000800355D56068002852D101206BE260685B
:103F7000012806D1DFF8D407016851F480310160CF
:103F800025E0606800280AD1DFF8C007016831F435
:103F900080310160016831F48021016017E06068C0
:103FA00005280AD1DFF8A407016851F480210160D7
:103FB000016851F48031016009E0DFF89007016881
:103FC00031F480310160016831F480210160606862
:103FD00000280ED005F092FB0700DFF8700700689C
:103FE000800315D405F08AFBC01B6528F5D3032098
:103FF00029E205F083FB0700DFF850070068800323
:1040000006D505F07BFBC01B6528F5D303201AE21B
:10401000207880074CD5042D03D00C2D15D1002E0F
:1040200013D1DFF828070068800704D5E06801286D
:1040300001D0012007E2DFF81007016831F4F851E0
:10404000226951EA0221016032E0E06800281CD0B8
:104050000120DFF80C17086005F050FB0700DFF8BF
:10406000EC060068800706D405F048FBC01B032857
:10407000F5D30320E7E1DFF8D006016831F4F85109
:10408000226951EA0221016012E00020DFF8D01617
:10409000086005F033FB0700DFF8B0060068800712
:1040A00006D505F02BFBC01B0328F5D30320CAE17E
:1040B0002078C00640F1A080002D64D1DFF88C0686
:1040C0000068800504D5A069002801D10120BAE16B
:1040D000DFF87486D8F8000010F46040216A884246
:1040E00018D2206A00F0ECFA002801D00120AAE1E1
:1040F000D8F8001031F46041206A0143C8F800107C
:10410000D8F8000020F07F40E16950EA0160C8F86B
:10411000000017E0D8F8001031F46041206A014334
:10412000C8F80010D8F8000020F07F40E16950EA9C
:104130000160C8F80000206A00F0C2FA002801D02F
:10414000012080E10121206A400B401C81404FF496
:1041500000404143DFF80C06D9F80020C2F30312F7
:10416000805CC140DFF8EC050160DFF8EC05006819
:1041700000F0BEFB8DF800009DF8000000283BD049
:104180009DF800005FE1A069002822D00120DFF83F
:10419000D815086005F0B2FA0700DFF8B00500682E
:1041A000800506D405F0AAFAC01B0328F5D3032026
:1041B00049E1DFF894150A6832F46042206A02434C
:1041C0000A60086820F07F40E26950EA02600860F7
:1041D00012E00020DFF89015086005F08FFA070064
:1041E000DFF868050068800506D505F087FAC01B72
:1041F0000328F5D3032026E12078000728D560693D
:10420000002812D00120DFF86415086005F076FA66
:104210000700DFF848050068800719D405F06EFA3A
:10422000C01B0328F5D303200DE10020DFF83C1567
:10423000086005F063FA0700DFF8200500688007D2
:1042400006D505F05BFAC01B0328F5D30320FAE07E
:104250002078400740F18F805FF00008DFF810A55C
:10426000DAF80000C0000DD4DAF8000050F08050F9
:10427000CAF80000DAF8000010F0805001900198B0
:1042800001208046DFF8ECB4DBF80000C00513D451
:10429000DBF8000050F48070CBF8000005F02EFA37
:1042A0000700DBF80000C00506D405F027FAC01BA4
:1042B0006528F6D30320C6E0A068012806D1DFF800
:1042C0009C04016851F48071016025E0A068002819
:1042D0000AD1DFF88804016831F480710160016857
:1042E00031F48061016017E0A06805280AD1DFF889
:1042F0006C04016851F480610160016851F48071BF
:10430000016009E0DFF85404016831F48071016054
:10431000016831F480610160A068002810D005F0C8
:10432000EDF90700DFF834040068800519D405F0C2
:10433000E5F9C01B41F289318842F3D3032082E0C2
:1043400005F0DCF90700DFF814040068800508D5E3
:1043500005F0D4F9C01B41F289318842F3D3032020
:1043600071E04046C0B2012805D1DAF8000030F013
:104370008050CAF80000606A002863D00C2D48D035
:10438000606A022832D1DFF8F0B30020CBF80000D9
:1043900005F0B4F98046DFF8B4A3DAF80000800134
:1043A00007D505F0ABF9B0EB08000328F3D30320E1
:1043B00049E0D9F8001031F47D01A06A0143E06AB8
:1043C0000143206B0143C9F800100120CBF8000025
:1043D00005F094F90700DAF80000800132D405F006
:1043E0008DF9C01B0328F6D303202CE00020DFF852
:1043F0008813086005F082F90700DFF850030068B1
:1044000080011FD505F07AF9C01B0328F5D30320DE
:1044100019E0606A012801D1012014E0D9F80000F8
:10442000060016F48030A16A884209D116F4701093
:10443000E16A884204D116F44000216B884201D021
:10444000012000E00020BDE8FE8F2DE9F0410400CE
:104450000D00002C01D10120D8E0DFF8207338686E
:1044600010F00100A84211D2012D03D1386850F09C
:1044700004003860386840084000284338603868D5
:1044800010F00100A84201D00120BFE02078800791
:1044900007D5DFF8BC120A6832F0F002A0680243C8
:1044A0000A602078C00775D56068022806D1DFF859
:1044B0009C02006880031CD40120A7E060680328E8
:1044C00006D1DFF888020068800112D401209DE047
:1044D0006068012806D1DFF874020068800708D4FC
:1044E000012093E0DFF864020068800501D4012018
:1044F0008CE0DFF85C82D8F80010890889006068D9
:104500000143C8F8001005F0F9F8060060680228B9
:104510000ED1D8F8000010F00C0008283AD005F0B1
:10452000EDF8801B41F289318842F2D303206DE01F
:10453000606803280ED1D8F8000010F00C000C2899
:1045400028D005F0DBF8801B41F289318842F2D394
:1045500003205BE0606801280ED1D8F8000010F05D
:104560000C00042816D005F0C9F8801B41F28931EF
:104570008842F2D3032049E0D8F8000010F00C0F75
:1045800008D005F0BBF8801B41F289318842F3D393
:1045900003203BE0386810F00100854211D2012D64
:1045A00003D1386850F00400386038684008400093
:1045B00028433860386810F00100A84201D001207B
:1045C00024E02078400706D561490A6832F4E062A9
:1045D000E06802430A602078000707D55C4801685C
:1045E00031F46051226951EAC201016000F010F813
:1045F0005C49574A1268C2F30312895CC8405549A6
:1046000008605548006800F073F9C0B2BDE8F08159
:104610002DE9F0414E48066816F00C01042904D03B
:10462000082904D00C2904D022E055482DE0554833
:104630002BE05549C6F38342895C0F00C6F38151D4
:10464000491C0C000068C00308D54E48A0FB0701B8
:104650002200002305F058F8050007E04848A0FBB9
:1046600007012200002305F04FF8050028000CE0A8
:1046700035480068C0F342308046012118F101003E
:1046800011FA00F04FF400414843BDE8F081314891
:104690000068704780B5FFF7FAFF3C492C4A126862
:1046A000C2F30222895CC84002BD80B5FFF7EFFF6C
:1046B0003649274A1268C2F3C222895CC84002BD4B
:1046C00018B4010000232248006810F0F00F23D135
:1046D00027480468E40005D52648006810F4C05057
:1046E000020011E0046854F080540460046814F07F
:1046F00080540094009C1F4C246814F4C054220081
:10470000046834F080540460B2F5C05F04D1B1F5A0
:10471000404F01D101200300012B04D11748046848
:1047200054F00404046015480468640864001C43E1
:104730000460006810F00100984201D0012000E000
:10474000002012BC704700000438024000380240CC
:1047500008380240080000200000002034380240E1
:104760000000474224FA00082000474280064742E2
:10477000243802400070004060004742003C024084
:104780000024F40000366E0144FC00086CFE0008B2
:104790002DE9FC4705002878C00740F19B80287868
:1047A000C0070027DFF83481D8F80000C0000DD41E
:1047B000D8F8000050F08050C8F80000D8F8000089
:1047C00010F080500090009801200700DFF8109151
:1047D000D9F80000C00513D4D9F8000050F4807057
:1047E000C9F8000004F08AFF0600D9F80000C005EF
:1047F00006D404F083FF801B6528F6D303206AE00B
:10480000DFF8E090D9F8001011F0C041686810F0AE
:10481000C04081420BD0686810F44030B0F5403F92
:1048200005D1D9F80000800301D5012053E0DFF85D
:10483000B8A0DAF8004014F44034002C25D06868A1
:1048400010F44030844220D02878C0071DD5DAF813
:10485000000030F4403004002448012101600021B0
:104860000160CAF80040E0050FD504F047FF0600DC
:10487000DAF80000800508D404F040FF801B41F204
:1048800089318842F4D3032025E02878C00717D562
:10489000686810F44030B0F5403F09D1D9F8000005
:1048A00030F0C040696811F0C0410843C9F8000009
:1048B000DAF80000696811F440310843CAF80000D2
:1048C0003800C0B2012805D1D8F8000030F080507F
:1048D000C8F800000020BDE8F68700002438024038
:1048E000007000400038024034380240DC06474285
:1048F00038B5040000251349086800281DD04FF47E
:104900007A700968B0FBF1F00F490968B1FBF0F06B
:10491000FDF7ADFE00280DD1102C08D20022210099
:104920005FF0FF30FDF780FE0848046007E00120DB
:10493000050004E00120050001E001200500280039
:10494000C0B232BD0400002008000020000000209A
:1049500081B00F48016851F000410160016811F019
:104960000041009100990B490A6852F001020A6067
:10497000096811F0010100910099016851F080511E
:104980000160006810F080500090009801B07047FE
:10499000243802402038024010B5044610460A462A
:1049A00001462046FFF78AFA204610BDF8B40200FF
:1049B0000B000024002000251968E140002900F0C8
:1049C000D78001261F6816FA04F10F40380000282E
:1049D00000F0CC80197911F00301012904D0197974
:1049E00011F0030102291DD197685FF0030C21002B
:1049F000C9B249001CFA01FC37EA0C07D3F80CC015
:104A00002100C9B249001CFA01FC5CEA0707976063
:104A10005168A640B1435E68C6F30016A640314314
:104A20000D005560197911F0030103290ED0D668E5
:104A300003272100C9B249008F40BE439F6821006F
:104A4000C9B249008F403E433500D560197911F055
:104A50000301022918D12100C90802EB81010E6A65
:104A60000F2714F00701C9B289008F40BE431F69A8
:104A700014F00701C9B289008F403E433500210080
:104A8000C90802EB81010D62166803272100C9B233
:104A900049008F40BE431F7917F003072100C9B2B8
:104AA00049008F403E4335001560596811F4403F7E
:104AB0005CD097490E6856F001060E60096811F047
:104AC000010100910099934F2100890857F8216056
:104AD0005FF00F0C14F00301C9B289001CFA01FC4D
:104AE00036EA0C068C498A4201D1002514E08B4934
:104AF0008A4201D101250FE089498A4201D102256C
:104B00000AE088498A4201D1032505E086498A42A4
:104B100001D1042500E0052514F00301C9B2890084
:104B20008D402E432100890847F821607F4D296878
:104B300081435F68FF0200D5014329607C4E3568E0
:104B400085435F68BF0200D505433560794E316803
:104B500081435F68BF0300D501433160764E3568FD
:104B600085435F68FF0300D505433560641C23E778
:104B7000F1BC70472DE9F04103000A000024002039
:104B800000251100E140002900F0A880012616FA56
:104B900004F111400800002800F09E80DFF874C185
:104BA000210089085CF821100F2714F0030E5FFA2A
:104BB0008EFE5FEA8E0E17FA0EFE1EEA01010D0050
:104BC00055498B4202D15FF0000E19E053498B42E8
:104BD00002D15FF0010E13E051498B4202D15FF028
:104BE000020E0DE04F498B4202D15FF0030E07E049
:104BF0004D498B4202D15FF0040E01E05FF0050EDB
:104C000014F00301C9B289001EFA01FE75452CD1CA
:104C10004949D1F800E03EEA000EC1F800E04549FC
:104C2000D1F800E03EEA000EC1F800E04049D1F8BA
:104C300000E03EEA000EC1F800E03C49D1F800E097
:104C40003EEA000EC1F800E014F00301C9B2890089
:104C500017FA01F10D00210089085CF82110A94321
:104C6000A6465FEA9E0E4CF82E105FF0030C196802
:104C7000A6465FFA8EFE5FEA4E0E1CFA0EFE31EA81
:104C80000E0119602100C90803EB810E2100C9083B
:104C900003EB8101D1F8208014F00701C9B289002B
:104CA0008F4038EA0707CEF82070D9682700FFB296
:104CB0007F001CFA07F7B943D9605968A64031EA6A
:104CC00006065E609E682100C9B249001CFA01FC1C
:104CD00036EA0C0CC3F808C0641C52E7BDE8F0814A
:104CE000020010690B009BB2184201D0012000E0C5
:104CF0000020C0B270471300DBB2002B03D00B00C2
:104D00009BB2836103E00B009BB21B04836170477D
:104D10002038024008000140000002400004024028
:104D200000080240000C024000100240080401404C
:104D30000C0401400404014000040140F8B50400E3
:104D4000002500260027002C01D10120D5E0206994
:104D5000002802D094F82C000028606B1028E06C2A
:104D6000002812D100202065002084F84800DFF8D8
:104D7000B004016851F001010160006810F0010009
:104D8000009000982000FEF7A8FCE06CC00600F13F
:104D9000B080E06C30F4885050F00200E064DFF83E
:104DA00084140A6832F44032606802430A605FF497
:104DB0008000B0FA80F15FF08040B0FA80F2E368E2
:104DC0006069034394F83C0010FA01F11943206A2A
:104DD000014394F8240010FA02F211430F43606B70
:104DE000102803D0616BA06B01430F43206800685B
:104DF000400635D4A06907432069B0F5807F02D012
:104E00002069012802D14FF4807100E00021A268DE
:104E1000E069024311430E4394F82C00012817D196
:104E200094F8240000280BD15FF4E020B0FA80F061
:104E3000216B491E11FA00F050F40060064307E0B0
:104E4000E06C50F02000E064206D50F0010020651F
:104E500020684168DFF8D003014031432068416099
:104E600020688168DFF8C40301403943206881600D
:104E70002069B0F5807F02D02069012802D14FF46B
:104E8000807000E00020B0F5807F0FD12068006BBB
:104E90004FF47861B1FA81F130F0F870A26A521ED5
:104EA00012FA01F108432168086305E02068006BED
:104EB00030F0F8702168086320688168DFF87003BB
:104EC0000140B94208D100202065E06C30F00200BA
:104ED00050F00100E0640EE0E06C30F0020050F0B1
:104EE0001000E064206D50F00100206501200500F5
:104EF00001E0012005002800C0B2F2BD2DE9F0411B
:104F000004000D0016005FF0000894F84800012826
:104F100001D1022059E0012084F84800200000F06F
:104F200040F907003800C0B200284CD1E16CDFF82E
:104F30000403014051F48071E16420684068400539
:104F400005D5E06C30F4005050F48050E064E06C23
:104F5000C00404D5206D30F00600206501E000207B
:104F60002065002084F848000FF2D520616C88622B
:104F70000FF23D30616CC8620FF24530616C08631E
:104F80007FF02200216808602068406850F080604F
:104F9000216848602068806850F4807021688860CB
:104FA00033002A00206810F15801606C00F022FAEA
:104FB0002068806810F0405F05D12068806850F05C
:104FC0008040216888603800C0B2BDE8F08178B4C4
:104FD000020000230020009092F84800012801D12F
:104FE0000220DCE0012082F848004868072812D23D
:104FF0001068046C1F254868461E05204643B540CE
:10500000AC430D684868461E05204643B5402C4316
:105010001068046459E048680D2812D21068C46B07
:105020001F254868C61F05204643B540AC430D68A0
:105030004868C61F05204643B5402C431068C4632A
:1050400043E04868132814D21068846B1F25486811
:10505000B0F10D0605204643B540AC430D684868E5
:10506000B0F10D0605204643B5402C43106884631B
:105070002BE04868192814D21068446B1F25486833
:10508000B0F1130605204643B540AC430D684868AF
:10509000B0F1130605204643B5402C431068446325
:1050A00013E01068046B1F254868B0F1190605204D
:1050B0004643B540AC430D684868B0F11906052079
:1050C0004643B5402C431068046308680A2810D290
:1050D0001068446907250E6803204643B540AC4379
:1050E0008D680E6803204643B5402C431068446128
:1050F00030E00868142814D210680469072508688D
:10510000B0F10A0603204643B540AC438D680868F9
:10511000B0F10A0603204643B5402C4310680461F1
:1051200018E008681B2814D21068C46807250868AE
:10513000B0F1140603204643B540AC438D680868BF
:10514000B0F1140603204643B5402C431068C460F8
:1051500000E000BF0868102802D00868112819D1A3
:1051600030480468240215D4046854F40004046030
:10517000086810280ED130480068304CB0FBF4F4B9
:105180000A20444300940098002803D00098401E51
:105190000090F8E7002082F848001800C0B272BC06
:1051A000704738B504000025002000902068006892
:1051B000400631D42068806850F001002168886082
:1051C0001D4800681D49B0FBF1F1032041430091E7
:1051D0000098002803D00098401E0090F8E704F0E3
:1051E0008DFA050020680068400615D404F086FAA0
:1051F000401B0328F6D3206800684006F2D4E06C18
:1052000050F01000E064206D50F001002065002097
:1052100084F84800012000E0002032BD00000000BA
:105220002038024004270140FF16FCFC89F1FFC032
:10523000FEFF80BFFEF9FFFF0800002040420F0084
:1052400038B50400656AE86C10F0500F2AD1E86C9C
:1052500050F40070E8642868806810F0405F1DD149
:1052600095F82400002819D12868006B10F0F87F09
:1052700003D028688068400510D42868406830F062
:10528000200029684860E86C30F48070E864E86CBD
:10529000C00403D4E86C50F00100E864280004F076
:1052A0004BFB03E02000696C096B884731BD0000AF
:1052B00038B50400656A280004F03FFB31BD0000EA
:1052C00038B50400656AE86C50F04000E864286D69
:1052D00050F004002865280004F030FB31BD2500A3
:1052E0000100002901D1012038E008683C4A9042C1
:1052F0000AD20A683B4882181420B2FBF0F0800002
:1053000008643948C86309E00A68384882181420DC
:10531000B2FBF0F0800008643548C863022081F8D1
:105320002100086802686FF30E124B688868034317
:10533000C868034308690343486903438869034312
:10534000C86903431A43086802600020886301208B
:1053500081F82100002081F8200000207047010022
:10536000002901D101203AE00868006840084000A7
:105370000A68106008681A4A90420AD20A681948F6
:1053800082181420B2FBF0F0800008641648C8634D
:1053900009E00A68154882181420B2FBF0F080007A
:1053A00008641348C86300200A681060012091F85F
:1053B000402012F01C029040CA6B506000208862AE
:1053C0000020C86200200863002048630020886332
:1053D000002081F82100002081F820000020704783
:1053E00008640240F89FFDBF00600240F89BFDBFCB
:1053F000006402402DE9F04104000D0016001F007A
:105400005FF0000894F82000012801D102203BE061
:10541000012084F8200094F8210001282DD10220D9
:1054200084F821000020A063206800684008400044
:10543000216808603B0032002900200000F0F8F8E5
:10544000E06A002806D02068006850F00E0021684D
:1054500008600BE02068006830F0040021680860F4
:105460002068006850F00A00216808602068006821
:1054700050F001002168086004E0002084F820005A
:10548000022080464046C0B2BDE8F0810100002203
:1054900091F82100022806D004208863002081F8BA
:1054A000200001201BE00868006830F00E000B6847
:1054B000186008680068400840000B681860012008
:1054C00091F8403013F01C039840CB6B58600120DA
:1054D00081F82100002081F820001000C0B2704740
:1054E00038B50400002594F82100022804D00420D7
:1054F000A063012005001FE02068006830F00E0066
:105500002168086020680068400840002168086041
:10551000012094F8401011F01C018840E16B4860B4
:10552000012084F82100002084F82000606B00280E
:1055300002D02000616B88472800C0B232BD70B530
:105540000400E06B056820680668042094F84010A9
:1055500011F01C0110FA01F10D4219D0710717D595
:1055600021680968890605D42168096831F00401B9
:105570002268116094F8401011F01C018840E16B22
:105580004860E06A002852D02000E16A88474EE077
:10559000022094F8401011F01C0110FA01F10D42A4
:1055A0001FD0B1071DD521680968890608D4216874
:1055B000096831F00A0122681160012184F8211084
:1055C00094F8401011F01C018840E16B4860002005
:1055D00084F82000A06A002829D02000A16A88470A
:1055E00025E0082094F8401011F01C018840054285
:1055F0001DD030071BD52068006830F00E002168F0
:105600000860012094F8401011F01C018840E16B03
:1056100048600120A063012084F82100002084F864
:105620002000206B002802D02000216B884770BD2D
:1056300030B4012490F8405015F01C05AC40C56B07
:105640006C60046863604468102C04D10468A26034
:105650000468E16003E00468A1600468E26030BCB3
:105660007047000070B50400002C01D10120E1E07A
:1056700094F83D00002805D1002084F83C0020006B
:10568000FEF7C8F8242084F83D0020680068400830
:105690004000216808602068006850F400402168DC
:1056A00008602068006830F4004021680860FEF758
:1056B000F1FF0100DFF880016268824208D2DFF862
:1056C0007C21914201D2012200E00022D2B207E007
:1056D000DFF86C21914201D2012200E00022D2B217
:1056E000012A01D10120A5E0DFF85821B1FBF2F237
:1056F00023685B689B099B01134325686B602368E3
:105700001B6A6568854201D2551C08E04FF4967506
:1057100005FB02F54FF47A76B5FBF6F56D1C9B0997
:105720009B012B4325682B622368DB6965688542F2
:1057300014D2481E65686D00B0FBF5F0401C0005F2
:10574000000D042801D204253EE0481E65686D0066
:10575000B0FBF5F56D1C2D052D0D35E0A06800287A
:1057600009D14D1E666803204643B5FBF6F0401C88
:105770000005000D0AE04D1E666819204643B5FB82
:10578000F6F0401C0005000D50F48040000501D1EA
:10579000012519E0A068002809D14D1E6668032084
:1057A0004643B5FBF6F56D1C2D052D0D0AE04D1E8B
:1057B000666819204643B5FBF6F56D1C2D052D0DC9
:1057C00055F4804555F40045DFF87C0003402B4339
:1057D0002068C3612068036833F0C003E0690343B5
:1057E000206A03432068036020688368DFF85C0058
:1057F000034020690343E068034320688360206816
:10580000C3681B0A1B02A569606905432B43206816
:10581000C3602068006850F0010023681860002011
:105820002064202084F83D0000202063002084F8BC
:105830003E00002070BD0000A186010080841E0093
:1058400000093D0040420F000030FFFF007CFFFFD9
:105850002DE9FE4F05000E0017009846DDF8309048
:105860000D9CDDF838A003F049FF834695F83D0014
:10587000202840F0A180CDF800B019230122DFF8E4
:105880004414280000F050FB002801D0022094E0CE
:1058900095F83C00012801D102208EE0012085F816
:1058A0003C0028680068C00705D42868006850F0EC
:1058B0000100296808602868006830F400602968E1
:1058C0000860212085F83D00402085F83E0000203A
:1058D0002864C5F824906C85688D2885DFF8E0037E
:1058E000E862CDF804B0CDF800A043469BB23A0080
:1058F00092B2310089B2280000F0E8F9002801D006
:1059000001205AE0288D002833D05A4651462800FD
:1059100000F0E6FB00280AD0286C042805D128688E
:10592000006850F4007029680860012045E0686A4A
:10593000007829680861686A401C6862288D401EEA
:105940002885688D401E6885286840694007D9D53C
:10595000288D0028D6D0686A007829680861686AAE
:10596000401C6862288D401E2885688D401E688511
:10597000C8E75A465146280000F0E2FB00280AD04A
:10598000286C042805D12868006850F40070296844
:105990000860012011E02868006850F40070296850
:1059A0000860202085F83D00002085F83E0000209A
:1059B00085F83C00002000E00220BDE8FE8F0000DA
:1059C0002DE9F24F82B0050016001F00DDF830808F
:1059D0000D9CDDF8389003F091FE824695F83D006D
:1059E000202840F06A81CDF800A019230122DFF8B9
:1059F000D412280000F098FA002801D002205DE1BE
:105A000095F83C00012801D1022057E1012085F8DA
:105A10003C0028680068C00705D42868006850F07A
:105A20000100296808602868006830F4006029686F
:105A30000860222085F83D00402085F83E000020C7
:105A40002864C5F824806C85688D2885DFF870028D
:105A5000E862CDF804A0CDF800903B009BB2320084
:105A600092B2BDF80810280000F0A6F9002801D075
:105A7000012023E1288D00280FD100200090286804
:105A80004069009028688069009000982868006844
:105A900050F40070296808603AE0288D012815D17B
:105AA0002868006830F48060296808600020009051
:105AB00028684069009028688069009000982868EC
:105AC000006850F400702968086021E0288D0228E1
:105AD00015D12868006830F480602968086028685B
