:020000040800F2
:10000000F83F00203D2F0108651C0108671C01080E
:10001000691C01086B1C01086D1C01080000000030
:100020000000000000000000000000006F1C01083C
:10003000711C010800000000731C0108751C0108F8
:10004000FD350108013601080536010809360108A9
:100050000D36010811360108153601081936010858
:100060001D36010821360108253601082936010808
:100070002D360108851C0108313601088F1C010846
:10008000991C010835360108393601083D3601084A
:100090004136010845360108493601084D36010848
:1000A000000000005136010855360108A31C010864
:1000B000593601085D3601086136010865360108C8
:1000C000693601086D360108713601087536010878
:1000D00079360108AD1C0108B71C0108C11C0108D4
:1000E0007D360108CB1C01088136010885360108E0
:1000F00089360108000000008D360108913601089C
:100100000000000000000000953601089936010843
:100110009D360108A1360108A5360108000000003F
:10012000A9360108F8B504000D0000260027DFF805
:1001300058CB9CF80000022801D1012007002900BB
:1001400089B23800C0B241181431A08881422EDB38
:1001500001230422DFF8341B9CF8000001F07BFB34
:1001600014220021DFF8280B01F024FFDFF8241B04
:10017000002008812E00320092B2A3883800C0B25D
:100180001B1A9A420EDA088914280BD22068320012
:1001900092B2805C4A680B89D0540889401C08815F
:1001A000761CE8E701F0DCFF01F013FB07E0002319
:1001B0000E22DFF8341C9CF8000001F04CFBF1BD6E
:1001C00038B504000D00DFF8CC0A0023028941682D
:1001D000DFF8B40A007801F03EFB31BD38B5040009
:1001E0000D00DFF8B40A002382880168DFF8980A5E
:1001F000007801F030FB31BD70B58CB004000E000A
:10020000DFF8980AD0E90023CDE90A23DFF8900A45
:10021000D0E90023CDE90823DFF8880AD0E90023DC
:10022000CDE90623DFF8C40BD0E90023CDE9042390
:10023000A088412809DB00230522DFF8B41BDFF882
:10024000480A007801F007FBB0E000252800A188EB
:1002500080B2884207D22068290089B2405C2028F9
:1002600001D16D1CF2E72C20216881F83F00206845
:10027000290089B208440A902800451C216880B2F0
:10028000085C2C2809D0BDF82C00401CADF82C00CF
:10029000A088290089B28842EED22068290089B25C
:1002A00008440890280080B2402810DA2800451C35
:1002B000216880B2085C2C2809D0BDF82400401CBD
:1002C000ADF82400A088290089B28842EED22068C7
:1002D000290089B208440690280080B2402810DA2C
:1002E0002800451C216880B2085C2C2809D0BDF884
:1002F0001C00401CADF81C00A088290089B288426F
:10030000EED22068290089B208440490280080B207
:1003100040280BDA2800A18880B2884206D2BDF8B6
:100320001400401CADF814006D1CF3E7BDF82C0060
:10033000002832D0BDF82C0028282EDABDF8240081
:1003400000282AD0BDF824000A2826DABDF81C00AF
:10035000292802DB2820ADF81C00BDF8140029284C
:1003600002DB2820ADF81400DDE90401CDE902012B
:10037000DDE90601CDE90001DDE90823DDE90A0137
:1003800002F0C8FC02F00AFF00230222A5A1DFF858
:10039000F808007801F05FFA08E000230522DFF892
:1003A000501ADFF8E408007801F055FA0CB070BD7F
:1003B000F8B590B004000D000026402100226F46E1
:1003C000380003F0ADF8684602F01AFD070000237C
:1003D0003A0092B26946DFF8B008007801F03BFAC3
:1003E00011B0F0BD70B58CB004000E00DFF8FC0B4E
:1003F000D0E90023CDE90A23DFF8180CD0E9002367
:10040000CDE90823DFF8100CD0E90023CDE906235D
:10041000DFF8080CD0E90023CDE90423A0884128A7
:1004200009DB00230522DFF8C819DFF85C08007833
:1004300001F011FAB0E000252800A18880B28842BE
:1004400007D22068290089B2405C202801D16D1CA8
:10045000F2E72C20216881F83F002068290089B24A
:1004600008440A902800451C216880B2085C2C28AA
:1004700009D0BDF82C00401CADF82C00A088290044
:1004800089B28842EED22068290089B208440890D7
:10049000280080B2402810DA2800451C216880B26C
:1004A000085C2C2809D0BDF82400401CADF82400BD
:1004B000A088290089B28842EED22068290089B23A
:1004C00008440690280080B2402810DA2800451C15
:1004D000216880B2085C2C2809D0BDF81C00401CA3
:1004E000ADF81C00A088290089B28842EED22068AD
:1004F000290089B208440490280080B240280BDA11
:100500002800A18880B2884206D2BDF81400401CA1
:10051000ADF814006D1CF3E7BDF82C00002832D0B4
:10052000BDF82C0028282EDABDF8240000282AD097
:10053000BDF824000A2826DABDF81C00292802DBB1
:100540002820ADF81C00BDF81400292802DB282063
:10055000ADF81400DDE90401CDE90201DDE9060191
:10056000CDE90001DDE90823DDE90A0102F0A4FC80
:1005700002F098FE002302222AA1DFF80C0700787F
:1005800001F069F908E000230522DFF86418DFF8BC
:10059000F806007801F05FF90CB070BDF8B590B0C6
:1005A00004000D000026402100226F46380002F0B2
:1005B000B7FF684602F0F4FC070000233A0092B24D
:1005C0006946DFF8C406007801F045F911B0F0BDC6
:1005D00038B504000D00DFF8680A417B012902D01C
:1005E000022903D005E0022141730CE0012141738F
:1005F00009E000230522DFF8F817DFF88C06007801
:1006000001F029F90DE00023022206A1DFF87806A7
:10061000007801F020F90020DFF87C1DC87003F09D
:1006200039FB31BD4F4B00002DE9F84304000F00AA
:1006300000250026A088390089B2491D884209DAC0
:1006400000230D22DFF8C41BDFF83C06007801F020
:1006500002F94AE02068390089B2405CB0F130020A
:100660007F1C0A2120683B009BB2C05C01FB020298
:10067000B2F130087F1C7F1C20683A0092B2805C87
:10068000B0F130027F1C20683B009BB2C05C01FBD4
:100690000202B2F130097F1C4046C0B200281BD0D4
:1006A0004046C0B2332817DA484680B23D2813DAF4
:1006B000DFF85C0B80F80080A0F8029001F0BEFD2E
:1006C00003F0B1FD01230422DFF8C015DFF8B805FF
:1006D000007801F0C0F808E000230722DFF8341B9F
:1006E000DFF8A405007801F0B6F8BDE8F183FEB5A7
:1006F00004000D0000260C2100226F46380002F095
:100700000FFF684666213200D2B28154761C7221F6
:100710003200D2B28154761C65213200D2B28154AB
:10072000761C71213200D2B28154761C3D213200F8
:10073000D2B28154761CDFF8D81A0A780A2392FBC9
:10074000F3F230323300DBB2C254761C0A780A234B
:1007500092FBF3F703FB172230323300DBB2C254B3
:10076000761C78223300DBB2C254761C4A880A23F6
:1007700092FBF3F20A2392FBF3F703FB17223032CA
:100780003300DBB2C254761C49880A2291FBF2F393
:1007900002FB131130313200D2B28154761C002397
:1007A0003200D2B292B26946DFF8DC04007801F080
:1007B00052F8F7BD2DE9F04104000D002E0000278E
:1007C0005FF000083000A18880B288420DD2206816
:1007D000310089B2405C302805DB2068310089B2E5
:1007E000405C3A2801DB761CECE73000A18880B23F
:1007F00088421AD22068310089B2405C8046404667
:10080000C0B2302808DB4046C0B23A2804DA3000D3
:10081000A18880B2884200D307E00A214046C0B2D6
:1008200001FB0707303F761CDFE7DFF8E40947608C
:1008300001F004FD03F0F7FC00230522DFF8D41BD0
:10084000DFF84404007801F006F8BDE8F08138B51F
:1008500088B004000D0003A8DFF8BC1B142203F0CD
:1008600075FDDFF8440CD0E90023CDE9012303A88E
:10087000019000200090DFF898094268002301A849
:1008800001F040F90023BDF808200199DFF8F803D2
:10089000007800F0E0FF09B030BD704770B504008B
:1008A0000D00002120682A0092B2805CB0F1300275
:1008B0006D1C0A2320682E00B6B2805D03FB020285
:1008C000B2F130066D1C3000C0B233280EDADFF80A
:1008D0004009067001F0B2FC01230422DFF8AC13DA
:1008E000DFF8A403007800F0B6FF08E0002306223A
:1008F000DFF8D41BDFF89003007800F0ACFF70BD88
:10090000704738B504000D00DFF87C030178012939
:100910000CD101230422DFF87413007800F09BFF50
:100920000621DFF8A80B03F054FD03E00120DFF8F7
:10093000A01B486331BD2DE9F84304000D00A94612
:10094000002600275FF000084846A18880B2884250
:100950000ED22068494689B2405C302805DB206809
:10096000494689B2405C3A2802DB19F10109EBE7FC
:100970002068494689B2405C2C281BD02068494633
:1009800089B2405C80464046C0B2302808DB404611
:10099000C0B23A2804DA4846A18880B2884200D31F
:1009A00008E00A214046C0B201FB0606303E19F1BC
:1009B0000109DDE74846A18880B288420ED220684E
:1009C000494689B2405C302805DB2068494689B237
:1009D000405C3A2802DB19F10109EBE7206849463F
:1009E00089B2405C2C281BD02068494689B2405C03
:1009F00080464046C0B2302808DB4046C0B23A28A4
:100A000004DA4846A18880B2884200D308E00A216F
:100A10004046C0B201FB0707303F19F10109DDE78D
:100A2000B6F5803F0BD2B7F5803F08D200230222F3
:100A300094A1DFF84C0C007800F00DFF08E00023D3
:100A40000E22DFF8401CDFF8380C007800F003FFBE
:100A5000BDE8F1837047704770477047704770B4C6
:100A60000D00002300242A00868892B2B2420DD2E3
:100A700002682E00B6B2925D302A05DB02682E00B5
:100A8000B6B2925D3A2A01DB6D1CECE702682E00DB
:100A9000B6B2925D2C2A1AD002682E00B6B2925DD0
:100AA00014002200D2B2302A08DB2200D2B23A2A45
:100AB00004DA2A00868892B2B24200D307E00A26FE
:100AC0002200D2B206FB0323303B6D1CDEE770BC74
:100AD0007047704770B588B004000D000C210022EB
:100AE0006E46300002F01CFD1421002203AE3000DF
:100AF00002F016FD2068290089B200EB0106B078EB
:100B00003A2802D170793A2808D000230522B84942
:100B1000DFF86C0B007800F09EFE40E00A2132788E
:100B2000707801FB0202B2F110008DF80000F2783B
:100B3000307901FB0202B2F110008DF80100B279A8
:100B4000F07901FB0201B1F110008DF80200684656
:100B500003F0D3FC012808D000230522A449DFF8C4
:100B6000200B007800F077FE19E09DF802008DF868
:100B70000E009DF801008DF80D009DF800008DF825
:100B80000C00002203A9DFF8000B03F0A1FD0023F5
:100B900002223CA1DFF8E80A007800F05CFE08B011
:100BA00070BD7FB504000D000C21002201AE3000A5
:100BB00002F0B6FC042100226E46300002F0B0FCC8
:100BC0002068290089B200EB010670782D2805D134
:100BD00030792D2802D1F0792D2808D00023052264
:100BE0008349DFF89C0A007800F035FE48E0307851
:100BF00031388DF807000A21B278F07801FB020243
:100C0000B2F110008DF808007279B07901FB020290
:100C1000B2F110008DF80900327A707A01FB0201FE
:100C2000B1F110008DF80A0001A803F066FC01285C
:100C300008D0002305226E49DFF8440A007800F04E
:100C40000AFE1DE09DF807008DF800009DF80800E1
:100C50008DF802009DF809008DF801009DF80A004A
:100C60008DF8030000226946DFF81C0A03F0D7FD67
:100C70000023022203A1DFF8080A007800F0EBFD50
:100C80007FBD00004F4B0000E93B002038330108D6
:100C9000100D0020240D00200811002070330108E1
:100CA00078330108803301087FB504000D000C2162
:100CB00000226E46300002F033FC206840782D2878
:100CC00013D1206800792D280FD12068C0792D28F4
:100CD0000BD12068807A2C2807D12068407B3A28E5
:100CE00003D12068007C3A2808D00023052240491F
:100CF000DFF88C09007800F0AEFD73E02068007822
:100D000031388DF803000A21206882782068C07885
:100D100001FB0202B2F110008DF804002068427954
:100D20002068807901FB0202B2F110008DF8050005
:100D30002068027A2068407A01FB0202B2F11000BA
:100D40008DF806002068C27A2068007B01FB020251
:100D5000B2F110008DF800002068827B2068C07B13
:100D600001FB0202B2F110008DF801002068427C04
:100D70002068807C01FB0201B1F110008DF80200B7
:100D8000684603F0BAFB012808D000230522184961
:100D9000DFF8EC08007800F05EFD23E0DFF8EC08F7
:100DA0009DF80310C1709DF8041001719DF80510A5
:100DB00041719DF8061081719DF8001001709DF839
:100DC000011041709DF8021081700321DFF8FC06CC
:100DD00003F0FFFA0023022298A1DFF8A4080078AC
:100DE00000F039FD7FBD0000DC2C010888330108CC
:100DF00040330108F8B58AB004000D000026282110
:100E000000226F46380002F08BFB684674213200E6
:100E1000D2B28154761C69213200D2B28154761C40
:100E20006D213200D2B28154761C65213200D2B2DB
:100E30008154761C3D213200D2B28154761CDFF8F9
:100E400050180A780A2392FBF3F230323300DBB2F7
:100E5000C254761C0A780A2392FBF3F703FB17228D
:100E600030323300DBB2C254761C3A223300DBB29C
:100E7000C254761C4A780A2392FBF3F230323300D4
:100E8000DBB2C254761C4A780A2392FBF3F703FBC9
:100E9000172230323300DBB2C254761C3A223300C0
:100EA000DBB2C254761C8A780A2392FBF3F230320A
:100EB0003300DBB2C254761C8A780A2392FBF3F724
:100EC00003FB172230323300DBB2C254761C3B22C4
:100ED0003300DBB2C254761C0D223300DBB2C254A5
:100EE000761C64223300DBB2C254761C61223300CC
:100EF000DBB2C254761C74223300DBB2C254761CBF
:100F000065223300DBB2C254761C3D223300DBB2D3
:100F1000C254761CCA7831323300DBB2C254761C1C
:100F20002D223300DBB2C254761C0A790A2392FBCD
:100F3000F3F230323300DBB2C254761C0A790A2352
:100F400092FBF3F703FB172230323300DBB2C254BB
:100F5000761C2D223300DBB2C254761C4A790A2358
:100F600092FBF3F230323300DBB2C254761C4A7982
:100F70000A2392FBF3F703FB172230323300DBB274
:100F8000C254761C2D223300DBB2C254761C8A79FF
:100F90000A2392FBF3F230323300DBB2C254761CE8
:100FA00089790A2291FBF2F302FB131130313200EE
:100FB000D2B28154761C00233200D2B292B269467A
:100FC000DFF8BC06007800F046FC0BB0F0BD7047BF
:100FD00038B504000D000023022218A1DFF8A00696
:100FE000007800F038FC00F0F4FB31BD90330108CC
:100FF00038B504000D000221DFF8980603F0F8F977
:1010000000230722DFF89016DFF87406007800F05E
:1010100022FC31BD98330108A0330108A833010830
:1010200038B504000D00DFF87406002382880168DB
:10103000DFF84C06007800F00EFC31BD4F4B00008D
:101040007C0E00202DE9FE4F04008A460025DFF8C3
:101050005066300000F025FF16F1080000F021FF77
:1010600016F11007380000F01CFF16F11808404672
:1010700000F017FF16F12009484600F012FFDFF8D4
:101080002426D2E90001CDE900012100684603F0E1
:101090006AFE8346BBF1000F00F1B680BDF8040084
:1010A00010EB0B0B206810F80B003A281AD02068C0
:1010B00010F80B003168B28888541BF1010BB0881E
:1010C000401CB080A088834502DAB0881E28E9DB86
:1010D00000230522DFF8D015DFF8A405007800F022
:1010E000BAFB91E01BF1010B206810F80B002F28D0
:1010F0001AD0206810F80B00B168B28988541BF12F
:10110000010BB089401CB081A088834502DAB08908
:101110001E28E9DB00230522DFF88C15DFF86005C7
:10112000007800F098FB6FE01BF1010B206810F8CD
:101130000B002F2819D0206810F80B003169B28AF3
:1011400088541BF1010BB08A401CB082A0888345F3
:1011500002DAB08A1E28E9DB3900404603F072FF4C
:10116000380000F09EFE012005002800C0B20028D3
:1011700035D1206810F80B002F2812D0206810F805
:101180000B00B169B28B88541BF1010BB08B401C72
:10119000B083A088834502DAB08B1E28E9DB0120EA
:1011A00005002800C0B2002816D14146380003F0DF
:1011B00049FF404600F075FEA088834502DAB08AF8
:1011C0001E2809DB00230522DFF8DC14DFF8B00459
:1011D000007800F040FB17E01BF1010BC5E7210090
:1011E000484603F02FFF00230222B6A1DFF8900447
:1011F000007800F030FB0420DFF8B0148873002082
:101200006549C87002F046FDBDE8F78FEC2C010877
:10121000700D0020483301082DE9FC4704000D0043
:101220000026DFF87C74380000F03BFE17F1080060
:1012300000F037FE17F11008404600F032FE17F1BB
:101240001809484600F02DFEDFF86424D2E90001B9
:10125000CDE900012100684603F085FD8246BAF120
:10126000000F00F19780BDF8040010EB0A0A206817
:1012700010F80A003A2817D0206810F80A003968D8
:10128000BA8888541AF1010AB888401CB880A0882E
:101290008245ECDB00230522DFF80C14DFF8E003C5
:1012A000007800F0D8FA75E01AF1010A206810F809
:1012B0000A002F2817D0206810F80A00B968BA89E8
:1012C00088541AF1010AB889401CB881A088824567
:1012D000ECDB00230522DFF8D013DFF8A40300784D
:1012E00000F0B9FA56E01AF1010A206810F80A0075
:1012F0002F2816D0206810F80A003969BA8A885455
:101300001AF1010AB88A401CB882A0888245ECDB39
:101310004146484603F096FE404600F0C2FD0120DB
:1013200006003000C0B200282DD1206810F80A0055
:101330002F280FD0206810F80A00B969BA8B88549A
:101340001AF1010AB88B401CB883A0888245ECDBF7
:10135000012006003000C0B2002811D149464046A5
:1013600003F070FE484600F09CFDA088824507DB34
:1013700000230522CC49C248007800F06CFA09E04D
:101380001AF1010ACDE700230422CA49BC480078BB
:1013900000F061FABDE8F3870836002078B58BB01D
:1013A00004000D001E21002203AE300002F0B8F848
:1013B000C148D0E90023CDE9012303A80190BF4E25
:1013C00000200090B28E002301A800F09BFB2F208C
:1013D0000199BDF808208854BDF80800401CADF8FC
:1013E000080000200090F28D002301A800F08AFB85
:1013F0000023BDF808200199A148007800F02BFADD
:101400000CB070BD38B504000D00AD49022000F0ED
:1014100043FE31BD50330108602801087047704712
:1014200038B504000D00290089B2200000F052F9FF
:10143000010089B2022004F0E3F931BD38B504009F
:101440000D00290089B2200000F044F9010089B2A2
:10145000002004F0D5F931BD38B504000D00290095
:1014600089B2200000F036F9010089B2012004F0B1
:10147000C7F931BD38B504000D00290089B220003C
:1014800000F028F9010089B2032004F0B9F931BD58
:1014900038B504000D0000230C228A4978480078F2
:1014A00000F0D9F931BD0000B033010838B50400AF
:1014B0000D0000230C2283497148007800F0CBF91D
:1014C00031BD00004F4B0000583301084403002099
:1014D000243400207047704770472DE9FC47050011
:1014E0000E005FF0FF340022774BD3E90001CDE915
:1014F00000015FF000094846A98880B2884224D2E2
:101500002868494689B2405C3D2805D0286849468C
:1015100089B2405C3F2800D117E02868494689B26B
:10152000405C41280EDB2868494689B2405C5B2854
:1015300008DA2868494689B2405C203029684A4662
:1015400092B2885419F10109D5E700273800C0B2DA
:10155000362880F29280DFF8748129003800C0B20A
:1015600000014044083003F0FEFB0400002C00F1B1
:1015700082803800C0B200014044406800287AD020
:10158000DFF84CA11AF1300000F08BFC00210800BC
:1015900080B2AA88121B904224DA286820440A00EC
:1015A00092B2805C3F280BD0286820440A0092B297
:1015B000805C3D2804D0BAF83400B0F5807F00DBB1
:1015C00010E0286820440A0092B2805CDAF83020EB
:1015D000BAF83430D054BAF83400401CAAF83400B9
:1015E000491CD4E73800C0B2000140448089041986
:1015F000A1464846A98880B2884226D22868494632
:1016000089B2405C0D280CD1484680B2A988491E99
:10161000884206DA2868494689B2084440780A2890
:1016200013D0BDF8040080280CD22868494689B23E
:10163000405C0099BDF804208854BDF80400401CAB
:10164000ADF8040019F10109D3E70D480670300028
:10165000C0B2401E012802D9801E09D009E0002135
:1016600068463A00D2B2120142445268904700E004
:10167000FFE7012002E07F1C68E70020BDE8F68755
:10168000E93B0020FC2C0108A8390020403B002049
:10169000583B00203008002060330108B4030020CC
:1016A0008C110020B8330108403301087C0E002063
:1016B000C033010868330108C8330108C00700209F
:1016C000442301080C2D0108D03301084012010801
:1016D000240D002070B403004FF6FF700024002595
:1016E0000A009E8892B2B2422ED20A00511C1E6895
:1016F00092B2B25C282AF3D1002210000022150019
:101700001A680E00B6B2925D1400491C2200D2B2D3
:10171000302A19DB2200D2B23A2A15DA0A26220030
:10172000D2B206FB002030386D1C1A680E00B6B22B
:10173000925D1400491C2A00D2B2082A04DA9A8861
:101740000E00B6B2B242E1D280B270BC70477047B0
:101750007047704770477047704730B4002513E0FA
:1017600050F8042BD30744BFA9F101039A18091FAD
:10177000042942F8045BFAD213468C0744BF158053
:101780009B1CC90748BF1D7050F8041B0029E7D1F6
:1017900030BC7047BFF34F8FDFF804130A6812F4B0
:1017A000E062DFF8000302430A60BFF34F8F00BF1F
:1017B000FDE780B51321DFF8F00200F01AF80022EF
:1017C0000421DFF8E80204F028FC72B6FFF7E2FF1C
:1017D00002BD80B51F21DFF8D80200F00AF8002210
:1017E0000421DFF8C80204F018FC72B6FFF7D2FF3C
:1017F00001BD70B504000D002A0092B22100022044
:1018000000F035FCAB483B21C26BB0F84030D154FE
:10181000B0F84010491CA0F8401000210A002B002D
:1018200092B29BB29A4212D2B0F84020B2F5806FC9
:101830000DDA0A0092B2A25CC36BB0F840609A5510
:10184000B0F84020521CA0F84020491CE6E70120D7
:101850009949486570BD2DE9F84380460C00150094
:101860001E0000274046C0B2401E03D0401E012883
:1018700009D961E04FF47A732A0092B221008F48AF
:1018800004F04EFC58E0DFF838924FF480720021EB
:10189000484600F08FFB8748002181852821828DF2
:1018A00009F80210818D491C818500210A00838E70
:1018B00092B29A420BD2026B0B009BB2D25C838D28
:1018C00009F80320828D521C8285491CEEE72922EB
:1018D000838D09F80320828D521C82852822838DF6
:1018E00009F80320828D521C8285002739002A00C6
:1018F00089B292B291420AD2390089B2615C828D7A
:1019000009F80210818D491C81857F1CEEE7292191
:10191000828D09F80210818D491C81850021818604
:101920003000C0B2002803D101206349086402E0FE
:1019300001206149C862FFE7BDE8F18380B500F08E
:1019400022F8604804F0C9FB05F005F85B4804F094
:10195000C4FB05F000F85C4804F0BFFB04F0FBFF9B
:1019600001BD80B500F050F805F0B4F804F0DEFFDA
:1019700005F0CAF804F0E1FF05F092F804F0E4FF86
:1019800001BD7047704710B586B01421002201AC2C
:10199000200001F0C5FD4D48016851F001010160D2
:1019A000016811F0010100910099016851F00201F4
:1019B0000160016811F0020100910099016851F085
:1019C00004010160016811F00401009100990168AF
:1019D00051F008010160006810F0080000900098C4
:1019E000032002900020039040F213100190384C25
:1019F00001A9200004F06CF92020019001A9200029
:101A000004F066F906B010BD38B586B01421002286
:101A100001AC200001F084FD2C48016851F0010167
:101A20000160016811F0010100910099016851F015
:101A300002010160016811F0020100910099016842
:101A400051F004010160016811F004010091009956
:101A5000016851F008010160006810F00800009072
:101A6000009840F213151A4C00222900200004F0BF
:101A7000D4FA20200190002002900020039001A9B8
:101A8000200004F025F90195012002900020039028
:101A90000020049001A9200004F01AF907B030BD1D
:101AA0000CED00E00400FA05A0290108000802403E
:101AB00064230108240D0020243400205C3700201A
:101AC0002432002014370020CC3600201C3802407D
:101AD0000000024038B504000D00DFF8340601684C
:101AE000200000F006F8A84201D3012000E0002009
:101AF00032BD814204D25FF0FF32101A081800E0B4
:101B0000081A70472DE9F84F8AB0060014001D002E
:101B1000DDF850905FF0000A5FF0000800271E21FA
:101B200000220DF1080B584601F0FAFCDFF8E4251D
:101B3000D2E90001CDE9000102A80090002D09D1F1
:101B4000002C07D130203168B2888854B088401CFE
:101B5000B08068E0002D01D1002C1AD020002900AF
:101B60000A22002305F032F99046200029000A22BB
:101B7000002305F02BF904000D0018F13000009946
:101B8000BDF804208854BDF80400401CADF80400E2
:101B9000E0E75FF0000BBDF80400022190FBF1F0DC
:101BA000594689B281421FDA0098BDF804100844F2
:101BB000594689B24942084410F8010C07000098C0
:101BC000BDF804100844594689B2494208440099B6
:101BD0005A4692B2895C00F8011C0098594689B2B5
:101BE00047541BF1010BD6E74946C9B2684600F0DD
:101BF0001DF800210800BDF8042080B290420DD2EB
:101C00003068B28810440A0092B2009B8C461FFADA
:101C10008CFC13F80C308354491CEBE7B288BDF8F8
:101C200004008218B2800BB0BDE8F08F2DE9F847B0
:101C300085B005000E005FF00009142100226C46FB
:101C4000200001F06DFC002400275FF00008002058
:101C5000A988012903D129680978302903D03100E6
:101C6000C9B2002900D1A7E03100C9B2AA8889B25F
:101C7000914235D3694630222300DBB2CA54641C3A
:101C80002E222300DBB2CA54641CAA88B21A1700A1
:101C900000231A00BC465FFA8CFC92B21FFA8CFC3F
:101CA000624508D23022A4465FFA8CFC01F80C2071
:101CB000641C5B1CEDE700221300B5F804C09BB266
:101CC000634543D22B6894461FFA8CFC13F80C3002
:101CD000A4465FFA8CFC01F80C30641C521CEBE744
:101CE000A988891B884600210A004346DBB292B2CC
:101CF0009BB29A420CD22A680B009BB2D25C6B4614
:101D0000A4465FFA8CFC03F80C20641C491CEBE72A
:101D10006B462E22A4465FFA8CFC03F80C20641C50
:101D20004246D2B21100B5F804C089B261450DD265
:101D3000296894461FFA8CFC11F80C10A4465FFA2F
:101D40008CFC03F80C10641C521CEBE7A1464946BE
:101D5000C9B2B1F1010A504680B2002815D06846D8
:101D6000514689B2415C302906D0514689B2405C67
:101D70002E2800D1641E08E0514689B2405C30280C
:101D800000D1641EBAF1010AE5E7280000F089F8E5
:101D9000002001002200D2B289B292B291420BD24D
:101DA000A9884A1CAA806A4603009BB2D25C2B68B1
:101DB00089B25A54401CECE706B0BDE8F0872DE923
:101DC000F8418BB0060014001D0000271E210022E0
:101DD0000DF10C08404601F0A3FB5FF00008DFF8AE
:101DE0003823D2E90001CDE9010103A80190002DBB
:101DF00004D501208046644275EB45059DF84800F6
:101E0000009022002B0001A8FFF77CFE0198BDF88E
:101E10000810405C302828D04046C0B2012824D1A8
:101E2000002007003800C0B2BDF8081080B2884218
:101E300013D20198BDF8081008443900C9B24942CC
:101E4000019ABDF808301A443B00DBB25B421A44E9
:101E500012F8012C42547F1CE4E72D2001990870F0
:101E6000BDF80800401CADF8080000210800C0B211
:101E7000BDF8082080B290420BD23068B28810447E
:101E80000A00D2B2019B0F00FFB2DB5D8354491CF4
:101E9000ECE7B288BDF808008218B2800CB0BDE84B
:101EA000F08110B400210A00838892B29A4206D2CF
:101EB000002203680C00A4B21A55491CF3E7002263
:101EC000828010BC704770B4030000220024002000
:101ED00000252A000E00D2B2F6B2B24220D22A0069
:101EE000D2B29A5C302A0ADB2A00D2B29A5C3A2A31
:101EF00005DA2A00D2B29A5C303A140001E00022DE
:101F000014002A00D2B2002A03D12200D2B210005B
:101F100004E00A262200D2B206FB00206D1CD8E79E
:101F200070BC7047F0B40022002300250024250077
:101F30008E88ADB2B54237D20D682600B6B2AD5D1F
:101F4000EDB22D092A001500EDB20A2D07DA12F1C3
:101F5000300506682700BFB206F8175006E012F1F8
:101F6000370506682700BFB206F817500D6826002F
:101F7000B6B2AD5D15F00F052B001D00EDB20A2DB8
:101F800008DA13F1300506682700BFB206EB4706F2
:101F9000757007E013F1370506682700BFB206EB3E
:101FA00047067570641CC2E78D88ADB26D008580F0
:101FB000F0BC704710B4040013005A1E9BB2002BF3
:101FC00002D02170641CF7E710BC704770B50400A4
:101FD0000D0016002000C0B2032807DA4FF47A7310
:101FE000320092B229004D4804F09AF870BD38B51D
:101FF00004000D00280005F001F8020092B229004B
:102000002000C0B2FFF7E2FF31BDF0B585B004009B
:102010000D001600022100226F46380001F080FA00
:102020003F48D0E90023CDE901236846019000270D
:102030003800310080B289B2884216D2380080B2AE
:10204000284403900120ADF810000020ADF80800EE
:1020500003A901A8FFF766FFBDF808200199200039
:10206000C0B2FFF7B3FF7F1CE2E705B0F0BD70B56B
:1020700004000D001600320092B229002000C0B208
:10208000FFF7A4FF274A1068002804D0310089B266
:1020900028001268904770BD70B504000D0028003C
:1020A00004F0ACFF020092B229002000C0B2FFF79A
:1020B0008DFF1C4E3068002807D0280004F09EFFDA
:1020C000010089B228003268904770BD70B586B0B3
:1020D00005000C000A21002203AE300001F020FAB6
:1020E0001148D0E90023CDE9012303A80190002085
:1020F00000902200E31701A8FFF761FEBDF8082059
:1021000001992800C0B2FFF761FF06B070BD000062
:10211000983B0020A8350108B03501085C37002045
:10212000B83501089C3B0020C035010880B500F09F
:1021300044F800F001F801BD10B5002158480478BA
:102140002000C0B2002808D056480E2310F1080223
:102150004168554805F0A3F801E000F001F810BD12
:1021600038B58AB00025282100226C46200001F0F5
:10217000D7F9AA208DF800004A4801898DF801108E
:1021800000242100C9B2028989B291420AD2416871
:102190002200D2B2895C6A462300DBB21A449170F5
:1021A000641CEEE73E4D280005F0EEF82822694653
:1021B000280005F0A7F80BB030BD70B586B000263A
:1021C000182100226C46200001F0AAF900243748AB
:1021D00005782800C0B200282CD018226946334860
:1021E00005F009F99DF8010004002000C0B218288C
:1021F00022DA2F4869468A7802709DF803204280CF
:1022000042880B7953EA022343809DF805204260FF
:1022100042689DF8063053EA0223436042689DF805
:10222000073053EA022343604268097A51EA0221E7
:10223000416001E000F002F806B070BD10B586B054
:10224000182100226C46200001F06AF9AA208DF8BE
:10225000000068460721417015490A7882704A8853
:1022600092B2120A8DF803204A8802714A68120E4F
:102270008DF805204A68120C8DF806204A68120A6B
:10228000C27149680172094C0121200005F0A4F8CF
:1022900010226946200005F035F806B010BD000098
:1022A00000FD0308240D002001FD030800FC0308C5
:1022B000700D00202DE9F84185B004000D005FF09D
:1022C0000008142100226E46300001F029F9002791
:1022D00026783000C0B2002814D002226946A01C23
:1022E00005F089F89DF800009DF8011051EA0021E1
:1022F0000F003800290080B289B2884206D300203E
:10230000070003E00021200000F005F8380080B24B
:1023100006B0BDE8F0817CB504000D000421002268
:102320006E46300001F0FCF8280080B2000A8DF8FB
:10233000000028008DF8010002226946200005F007
:102340006DF873BDF8B5040000250026DFF8A47A07
:10235000B87800286FD1002000F049FB0500280064
:10236000C0B2512864DA01207875DFF88C0A006861
:10237000B8612800C0B2112818D13878002815D1CA
:102380003878401C3870072000F021FB0020DFF86F
:102390000C1C4870DFF8647A4FF47A71380005F04D
:1023A00061F9380005F0C8F801204AE07878401C4F
:1023B00078702800C0B205F0A7FD0600306900283B
:1023C0000BD0306904F01AFE02004FF47A7392B217
:1023D0003169DFF8D80A06F0A6F9F06800280CD1B8
:1023E0007068002803D0DFF8C80A716888470220A7
:1023F00000F0EDFA0120F87022E02800C0B205F0EC
:102400006AFD012806D14EF66021DFF8A80A05F022
:1024100029F905E042F21071DFF8980A05F022F977
:10242000DFF8900A05F088F83878401C387007E02B
:102430000020787504E00021DFF8600B01F0D8FF80
:102440000120F2BD2DE9F04705005FF0000A0026EB
:1024500000270024DFF85C0A05F0B7F8002000F040
:10246000C6FA8046DFF88C9999F80300012839D123
:102470004046C0B205F048FD0600F068002805D0CF
:10248000002089F80000002089F80100002089F868
:1024900004004046C0B205F05DFD0400012000F0DC
:1024A000A6FA80464046C0B205F02EFD0700002C7B
:1024B00005D02100DFF8440905F0D4F830E0386990
:1024C000002802D0F068002805D10021DFF8CC0AEE
:1024D00001F07FFF04E00021DFF8C00A01F088FF6F
:1024E000012026E04046C0B20E280FD199F8040022
:1024F0000A280BDA99F80400401C89F8040041F21C
:102500008831DFF8F80805F0ADF809E0022089F815
:1025100000000321DFF8840A01F05BFF012008E0DE
:102520000020DFF8781A4870DFF8D00805F004F8CA
:102530000120BDE8F0872DE9F84304005FF00009B1
:102540005FF00008DFF86C0905F03FF8002000F0AC
:102550004EFA05002900C9B20220FFF7B7FD280096
:10256000C0B205F0D1FC0600306904F047FD02005E
:1025700092B231690220FFF77AFDDFF87878387877
:10258000022806DBB068002818D00020B168884710
:1025900014E07878401EC0B200F044FA012807D158
:1025A000002078700021DFF8F40901F012FF05E047
:1025B000B068002802D00020B16888470120BDE83B
:1025C000F28370B504000025DFF8201B087800288E
:1025D0000ED101200870DFF8D8088088DFF8101BC2
:1025E00008802100C9B2DFF8B40901F001FF1AE048
:1025F000DFF8FC0ADFF8B82893880688B3420AD1CE
:1026000000200870002000F0F2F905002800C0B298
:1026100000F03FF907E0918801802100C9B2DFF89E
:102620007C0901F0E5FE012070BD70B504000026B4
:1026300006F069F800252800C0B2092809DA002050
:10264000DFF858192A00D2B21201114448706D1CEB
:10265000F1E700F0E2FA012875D1DFF89817487920
:10266000142835DA887B002805D0487BC873887B1E
:10267000487300208873487B012802D0487B0228D9
:1026800011D100F007FF0921DFF8000B00F0E9F895
:102690000621DFF8FC0A00F0E4F81121DFF8EC0B6A
:1026A00000F0DFF84FE0487B04284CD100F0F2FE48
:1026B0000921DFF8D80A00F0D4F81121DFF8D40A94
:1026C00000F0CFF80221DFF8D00A00F0CAF83AE0B3
:1026D000487B012817D0487B022814D0C87B487358
:1026E00000F0D8FE0921DFF8A40A00F0BAF80621AC
:1026F000DFF89C0A00F0B5F81121DFF8900B00F02C
:10270000B0F8012020E00869007800280AD00869A4
:102710000078012817D1DFF8780B0068006880473F
:10272000002810D100F0B6FE0921DFF8600A00F0A1
:1027300098F80621DFF8580A00F093F81121DFF825
:102740004C0B00F08EF8012070BD10B5040005217F
:10275000DFF8480801F03DFE012010BD0100012016
:10276000704710B50400DFF82C1B0878002808D14A
:102770000878401C08700721DFF8200801F038FEB7
:1027800001E000200870012010BD70B50400002693
:10279000DFF8041B0220FFF77FFC00F07BFE002522
:1027A0002800C0B2092809DA0020DFF8F0172A0053
:1027B000D2B21201114448706D1CF1E7DFF8DC0A57
:1027C0000421C1700021417000220421DFF8D00AE9
:1027D00003F023FCDFF81C66707914281BDBDFF89C
:1027E000B00A006800688047002814D1306900787A
:1027F000012810D100F04EFE0921DFF8900900F009
:1028000030F80621DFF8880900F02BF81121DFF8F5
:102810007C0A00F026F8012070BD01B59DF800008B
:10282000512801DB00201BE000226946DFF8640B21
:1028300005F0CAFF002801D1002011E0DFF8B4251F
:10284000507D002806D0DFF8B41B9069FFF742F9ED
:10285000012804D10021DFF8440701F0BAFD01206E
:1028600002BD70B504000D000020002630002900D4
:10287000C0B2C9B288420AD23000C0B2205CFFF7B1
:10288000CCFF002801D1002002E0761CEEE70120F9
:1028900070BD2DE9FE4F0400002500265FF0000802
:1028A000DFF85C2BD2E90001CDE900012000C0B2C5
:1028B00005F02AFB0700F8680090F86804F09EFB1A
:1028C000ADF804002000C0B2512818DAF8680028DA
:1028D00015D0DFF8DC854146684602F044FA050071
:1028E000002D0CD4404679688847DFF80815C87079
:1028F000022000F06CF80120DFF8AC1B48712000CA
:10290000C0B205F03EFB01282ED1002006003000A9
:1029100080B20C2828DA5FF01408DFF8749B3000CE
:1029200080B208FB00F04844C0680090300080B2DC
:1029300008FB00F04844C06804F060FBADF80400F8
:10294000DFF86CA55146684602F00DFA0500002D2F
:1029500008D45046310089B208FB01F809EB0801A0
:1029600049688847761CD2E7DFF84485B8F8042028
:10297000D8F800100220FFF729FB4FF496695FF0AA
:10298000000ADFF828BB52464946584600F0C8FD09
:102990000020A8F804000120DFF80C1B08710120BA
:1029A000BDE8FE8F10B50400DFF8041B0220FFF71E
:1029B0001EFB0321DFF8FC0A01F00BFD10BD10B572
:1029C00004000021DFF8EC0A01F003FD10BD10B592
:1029D00004002000C0B2092801DB002006E021002D
:1029E000C9B2DFF8B80501F0F4FC012010BD38B51C
:1029F000040000208DF80000DFF8C05A280005F020
:102A000075FF002801D151200BE02200D2B26946A7
:102A1000280005F0EEFE002801D1512001E09DF8CC
:102A2000000032BD10B504002100C9B289B2DFF840
:102A30008C0A05F05DFF10BD10B5002000242000B9
:102A4000C0B2092809DA0020DFF850152200D2B2FE
:102A5000120111444870641CF1E700F01BFDDFF81F
:102A6000540404F0B2FDDFF8940304F0AEFDDFF887
:102A7000500A04F0AAFD0020DFF87813C871002086
:102A8000DFF8241AC87010BD10B504000521DFF866
:102A9000240A01F09EFC10BD80B500200090DFF8F4
:102AA000243A00225FF0FF31DFF8140A04F01EFD23
:102AB00001BD70B50024CF4D6879002804D10020F5
:102AC000DFF8041A087029E0DFF8FC6930786979CA
:102AD000884204D269793078091A0C0003E0317811
:102AE0006879091A0C002000C0B2052190FBF1F2B0
:102AF00001FB1200002811D1687B022802D10120BD
:102B0000687304E0687B012801D102206873DFF854
:102B1000BC190220FFF7C0FA6879307070BD10B59B
:102B2000B44CE079002877D103F015FF03F0D2FF11
:102B300003F0FCFEA079401CA0710020207300F07F
:102B4000A9FC607B012804D0607B022801D0022010
:102B5000A071A079022849DADFF840470120E0702F
:102B60006078002809D0022807D006D3042828D08E
:102B700015D3062833D031D337E00921DFF80C060E
:102B8000FFF76FFE0621DFF80806FFF76AFE112146
:102B9000DFF8F806FFF765FE002060703CE00921D1
:102BA000DFF8E805FFF75DFE0621DFF8E405FFF733
:102BB00058FE1121DFF8D406FFF753FE00206070A5
:102BC0002AE00421DFF80809FFF74BFE1121DFF8A6
:102BD000BC06FFF746FE032060701DE01CE000F01D
:102BE00059FC0520FFF7F3FE16E015E00020A07168
:102BF0006079401C6071FFF75CFF20690078002855
:102C000005D10821DFF8AC0801F0E3FB04E0052161
:102C1000DFF8A00801F0DDFB10BD38B5754CE07998
:102C2000002805D0022845D027D3032853D063E0DD
:102C3000DFF8A0180220FFF72FFA03F08CFE03F054
:102C400049FF03F073FE00220421DFF8540603F06D
:102C5000E4F961790A20DFF8685891FBF0F200FB93
:102C600012114FF47A70414301F6B831280004F094
:102C7000F9FC280004F060FC47E0DFF85C58002213
:102C80000221280003F0C9F900220121280003F0E5
:102C9000C4F901220421DFF8080603F0BEF9DFF8C9
:102CA00020584FF47A71280004F0DCFC280004F06E
:102CB00043FC2AE001220221DFF81C0803F0ADF9F1
:102CC000DFF8FC5740F2DC51280004F0CBFC280070
:102CD00004F032FC19E000220221DFF8FC0703F0C7
:102CE0009CF9DFF8DC5742F21071280004F0BAFCBE
:102CF000280004F021FC08E00020E071DFF8DC1778
:102D00000220FFF774F9012003E0E079401CE07134
:102D1000002032BD1FB5002428220021DFF8C007A3
:102D2000FFF748F90A220021DFF8B807FFF742F958
:102D300028220021DFF8B007FFF73CF92822002104
:102D4000DFF8A807FFF736F9DFF8A407BDF804108D
:102D5000018700210A00038F92B29A4209D2009A99
:102D60000B009BB2D25C436B0C00A4B21A55491CF9
:102D7000F0E7BDF80C20A0F8402000221100B0F8C8
:102D8000403089B2994209D2029913009BB2C95CC2
:102D9000C36B1400A4B21955521CEFE7BDF81C1008
:102DA000A0F8481000210A00B0F8483092B29A42C8
:102DB00009D2069A0B009BB2D25C436C0C00A4B201
:102DC0001A55491CEFE7BDF82420A0F85020002236
:102DD0001100B0F8503089B2994209D20899130015
:102DE0009BB2C95CC36C1400A4B21955521CEFE726
:102DF0001FBD00007C0E0020983B00208C3A002074
:102E000030B40100002200200023DFF8E4261C007B
:102E1000158FA4B2AC4209D2526B1C00A4B2125D51
:102E20000400E4B20A55401C5B1CEEE72C240500AC
:102E3000EDB24C55401C00242300B2F840509BB228
:102E4000AB4209D2D36B2500ADB25B5D0500EDB29C
:102E50004B55401C641CEFE72C230500EDB24B558D
:102E6000401C00231C00B2F84850A4B2AC4206D269
:102E70002A240500EDB24C55401C5B1CF2E72C24C3
:102E80000500EDB24C55401C00242300B2F8505010
:102E90009BB2AB4206D22A230500EDB24B55401C33
:102EA000641CF2E7C0B230BC704700001437002049
:102EB000740E0020743A00201FB50024282200213F
:102EC000DFF83006FFF776F80A220021DFF828063F
:102ED000FFF770F828220021DFF82006FFF76AF8D4
:102EE00028220021DFF81806FFF764F8DFF8000653
:102EF000BDF80410A0F8581000210A00B0F85830AE
:102F000092B29A4209D2009A0B009BB2D25C436DF6
:102F10000C00A4B21A55491CEFE7BDF80C20A0F82C
:102F2000602000221100B0F8603089B2994209D2C5
:102F3000029913009BB2C95CC36D1400A4B2195569
:102F4000521CEFE7BDF81C10A0F8681000210A0021
:102F5000B0F8683092B29A4209D2069A0B009BB23E
:102F6000D25C436E0C00A4B21A55491CEFE7BDF8C1
:102F70002420A0F8702000221100B0F8703089B22F
:102F8000994209D2089913009BB2C95CC36E140020
:102F9000A4B21955521CEFE71FBD0000E40D00203C
:102FA00030B40100002200200023DFF844251C007B
:102FB000B2F85850A4B2AC4209D2526D1C00A4B26F
:102FC000125D0400E4B20A55401C5B1CEDE72C24A2
:102FD0000500EDB24C55401C00242300B2F86050AF
:102FE0009BB2AB4209D2D36D2500ADB25B5D05004B
:102FF000EDB24B55401C641CEFE72C230500EDB2ED
:103000004B55401C00231C00B2F86850A4B2AC42DF
:1030100006D22A240500EDB24C55401C5B1CF2E799
:103020002C240500EDB24C55401C00242300B2F8BE
:1030300070509BB2AB4206D22A230500EDB24B552D
:10304000401C641CF2E7C0B230BC70472DE9F0416F
:1030500000210024DFF8AC0405782800C0B2002865
:103060003BD00127DFF89C64DFF88484282318F123
:103070003802D8F834103800C0B2301804F00FF914
:10308000B8F83800401CC7190A2318F14002D8F8D4
:103090003C103800C0B2301804F001F9B8F8400014
:1030A000401CC719282318F14802D8F844103800EA
:1030B000C0B2301804F0F3F8B8F84800401CC71943
:1030C0003C00282318F15002D8F84C102000C0B260
:1030D0003618300004F0E3F801E000F05FF83C201F
:1030E000DFF80C144867BDE8F0810000EE3B0020DB
:1030F000CA3B00202DE9F04100210024DFF808043C
:1031000005782800C0B200283BD00127DFF8F8631B
:10311000DFF8DC83282318F15802D8F8541038005F
:10312000C0B2301804F0BBF8B8F85800401CC719FA
:103130000A2318F16002D8F85C103800C0B23018C9
:1031400004F0ADF8B8F86000401CC719282318F146
:103150006802D8F864103800C0B2301804F09FF844
:10316000B8F86800401CC7193C00282318F1700209
:10317000D8F86C102000C0B23618300004F08FF878
:1031800001E000F08FF8BDE8F0810000BC0C0020E9
:10319000C80C0020F00C00203012002070B590B058
:1031A000402100226C46200000F0BAF900240022E1
:1031B0006846AA212300DBB2C154641CDFF8301337
:1031C0000B8F2500EDB24355641C00231A000D8FB0
:1031D00092B2AA4209D24A6B1D00ADB2525D2500DF
:1031E000EDB24255641C5B1CF0E7B1F840202500AD
:1031F000EDB24255641C00221300B1F840509BB25E
:10320000AB4209D2CB6B1500ADB25B5D2500EDB2D0
:103210004355641C521CEFE7B1F848302500EDB26D
:103220004355641C00231A00B1F8485092B2AA42D8
:1032300009D24A6C1D00ADB2525D2500EDB2425577
:10324000641C5B1CEFE7B1F850202500EDB242553D
:10325000641C00252A00B1F8503092B29A4209D27B
:10326000CA6C2B009BB2D25C2300DBB2C254641C3C
:103270006D1CEFE7A34E300004F086F8402269464B
:10328000300004F03FF810B070BD0000D00C0020FA
:10329000903B0020EF3B0020C425010808360020A9
:1032A0000008024070B590B0402100226C4620001A
:1032B00000F036F9002400226846AA212300DBB280
:1032C000C154641C8A49B1F858302500EDB2435509
:1032D000641C00231A00B1F8585092B2AA4209D2D5
:1032E0004A6D1D00ADB2525D2500EDB24255641C21
:1032F0005B1CEFE7B1F860202500EDB24255641C7D
:1033000000221300B1F860509BB2AB4209D2CB6DE2
:103310001500ADB25B5D2500EDB24355641C521C37
:10332000EFE7B1F868302500EDB24355641C002387
:103330001A00B1F8685092B2AA4209D24A6E1D0032
:10334000ADB2525D2500EDB24255641C5B1CEFE747
:10335000B1F870202500EDB24255641C00252A000A
:10336000B1F8703092B29A4209D2CA6E2B009BB269
:10337000D25C2300DBB2C254641C6D1CEFE7624ECA
:10338000300004F001F840226946300003F0BAFF33
:1033900010B070BDBC3A0020704738B5FFF756FE3C
:1033A000FFF7A8FE594B01223221444805F0EEF9FF
:1033B000FFF7F2FF404C00200090554B00225FF0D9
:1033C000FF31200004F092F83A4DA96B200004F080
:1033D00049F9504C002000904F4B00225FF0FF3124
:1033E000200004F083F8A968200004F03BF9FFF7FF
:1033F00053FB0521280000F0ECFF31BD80380100AF
:103400008835010870B50024002000252800C0B2CE
:1034100009283ADA274E2800C0B20001304440782B
:10342000012830D1012004002800C0B2000130443E
:10343000406800280ED005F085FA2900C9B20901BC
:1034400031444968401A2900C9B2090131448968E8
:10345000884218D300202900C9B2090131444870BC
:1034600005F070FA2900C9B209013144486028000A
:10347000C0B22900C9B209013144C968884705F0C2
:1034800061FA264988606D1CC0E72000C0B270BD9B
:10349000741B010880B5002020494875074805F0D5
:1034A0008CF901BD0000000008360020C420002077
:1034B000542A0108E40D0020743A0020BC3A002090
:1034C000A43A0020892A0008F03B0020A423010828
:1034D000EC0C0020682A010800000240DC250108ED
:1034E000300F0020580F0020640F00208C0F0020A8
:1034F00008110020B40F0020DC0F0020E80F00208E
:103500001010002000FA030800FB030818390020FF
:10351000A52900088C3A0020BF2900087C0E002055
:1035200062F30F2262F31F42401810F0030308D029
:10353000C91A1FD3DB0748BF00F8012D28BF20F8A8
:10354000022D130030B414461546103928BF20E967
:103550003C00FAD8490728BF20E90C0048BF40F8D2
:10356000042D890028BF20F8022D48BF00F8012D46
:1035700030BC7047C91818BF00F8012DCB0728BF11
:1035800000F8012D7047250010B50400DFF80C1875
:10359000487E012809D10120DFF80418C861012103
:1035A000DFF8000800F024FF15E0DFF8FC271078B2
:1035B000401C10701078002809D10120DFF8E017B6
:1035C000C8610121DFF8DC0700F012FF03E00020F2
:1035D000107000200876012010BD01000120704706
:1035E00001000120704770B504000125DFF8BC67B9
:1035F000F078042805D002F03EFA012801D100201D
:103600000500F078002805D0022810D00ED303283A
:1036100062D067E00020DFF898174870FFF70CFAD7
:103620000521DFF8900700F0D4FE5BE05AE000F0DF
:10363000BCF8012816D1DFF86407407E012803D1C9
:103640000020DFF860174874DFF858074FF4FA617C
:103650002200D2B21201024491602100C9B200F0EE
:10366000C7FE38E0DFF83C670A202100C9B2090133
:1036700031448860DFF82407417E01290CD1707C39
:10368000002803D10121300000F0B2FE2100C9B2B0
:10369000300000F0ADFE1EE0007E01280CD1707CF1
:1036A000002803D10121300000F0A2FE2100C9B2A0
:1036B000300000F09DFE0EE02800C0B2012805D1C8
:1036C0000821DFF8F00600F084FE04E02100C9B212
:1036D000300000F08DFE05E00521DFF8D80600F08F
:1036E00078FEFFE7012070BD80B5DFF8CC06DFF87B
:1036F000CC160860FFF751FEDFF8C406DFF8C416E9
:103700000861DFF89C06012141600121016100F0A0
:1037100096FB01BD70B50020002400252800C0B232
:1037200004283FDADFF87C662800C0B2000130448C
:103730004078012834D12800C0B2022805D02800E2
:10374000C0B2032801D0012004002800C0B200014B
:103750003044406800280ED005F0F4F82900C9B2C2
:10376000090131444968401A2900C9B209013144AC
:103770008968884214D300202900C9B20901314464
:10378000487005F0DFF82900C9B2090131444860EA
:103790002800C0B22900C9B209013144C96888476C
:1037A0006D1CBBE72000C0B270BD70B500200024C6
:1037B0000025280080B21A282FDADFF8E4652800F7
:1037C00080B256F82000012825D10120040096F887
:1037D000C10002281FD086F8C050280080B2DFF850
:1037E000E8152A0092B2120111444968884701285D
:1037F0000CD1280080B2102802DA00F0C9FA01E0EA
:1038000000F0C0FA022086F8C10004E00020290080
:1038100089B246F821006D1CCBE72000C0B270BD14
:1038200038B504002000C0B2002827D0012833D0CA
:10383000022875D0042824D0052831D0062832D09B
:10384000072833D0082836D0092839D00B283AD099
:103850000C283BD00D2846D00E2847D00F2848D042
:1038600010284BD011284CD012284FD0132852D0FA
:1038700014285BD0152800F0858088E0FFF74FF909
:1038800085E0DFF8480507C800F083F80020DFF87E
:10389000101581F8C1007AE0DFF82805407B77E059
:1038A00000F0CCFA73E000F0CAFA70E0DFF820050F
:1038B00000F065F96BE0DFF8180500F095F966E0B7
:1038C00006F08EF863E006F0AEF860E005F040F830
:1038D0000021DFF8D00400F07CFDDFF8F8140220AE
:1038E000FEF785FB53E006F0AEF850E000F07BF801
:1038F0004DE0DFF8DC0400F081F948E000F07FF9EA
:1039000045E0DFF8CC0400F07BF940E0DFF8C004CC
:1039100000F077F93BE0DFF8B80400F073F936E027
:103920000221DFF8B404FEF79CFF30E0DFF8AC546E
:103930000121280003F050FD06F0CCF90A2006F022
:1039400073FAAA222900022006F09AF9DFF89004FF
:10395000026CDFF89014022006F092F90A2006F0BB
:1039600063FA06F0D4F90120DFF834148863DFF835
:103970005404C17B41730020DFF83014C87000F09C
:1039800089F904E00120DFF81814C863FFE701207B
:1039900032BD37B5DFF850049DF8061081719DF8EF
:1039A000051041719DF8041001719DF8001001701F
:1039B0009DF8011041709DF8021081709DF8031070
:1039C000C170DFF828440321200000F002FDDFF879
:1039D00020542878002805D10421200000F0F9FCAB
:1039E0000120287037BD10B5DFF8B403012180F83D
:1039F000C11090F8C01002290ED0032923D0082945
:103A000038D009294DD00D2961D00E296CD00F294D
:103A10006AD0122965D072E0DFF8D8430121200076
:103A200001F0E4FF00280BD10020DFF88413887335
:103A3000DFF8C403A38D82880168012001F0D6FD60
:103A400000F01DF960E0DFF8AC430121200001F037
:103A5000CDFF00280BD10020DFF854138873DFF866
:103A60009803A38D82880168012001F0BFFD00F05A
:103A700006F949E0DFF884430121200001F0B6FF98
:103A800000280BD10020DFF828138873DFF86803C3
:103A9000A38D82880168032001F0A8FD00F0EFF8F3
:103AA00032E0DFF85C430121200001F09FFF002895
:103AB0000AD10020BE498873DFF83C03A38D8288B9
:103AC0000168062001F092FD00F0D9F81CE0002109
:103AD00090F8C02040F822100621C44800F079FC7C
:103AE00012E0FDF776FE0FE00121B64A11750021C4
:103AF00090F8C02040F82210FDF75BFE04E00021A2
:103B000090F8C02040F82210AE4801210173002136
:103B100041710021817110BDF8B50400002000251D
:103B200000263000C0B208281DDAB64F2100300050
:103B3000C0B200013844083001F015F90500002D2D
:103B40000FD43000C0B2000138444068002808D0CB
:103B5000290009B220003200D2B212013A44526860
:103B60009047761CDDE7F1BD10B50400A6490220A0
:103B7000FEF73DFA02212000FDF7AFFC10BD30B585
:103B80008DB004002821002203AD2800FFF7C8FCF7
:103B90009E48D0E90023CDE9012303A801903220FB
:103BA0000199BDF808208854BDF80800401CADF804
:103BB00008002C200199BDF808208854BDF80800A1
:103BC000401CADF8080000200090A288002301A846
:103BD000FDF798FF4FF47A73BDF8082001998C48DF
:103BE00004F0A1FD0DB030BD10B504004FF47A73A0
:103BF000A2882168864804F096FD10BD7047704782
:103C000070477047704783487047F8B504000D004F
:103C10001600794F3800FEF744F9300080B240F2C8
:103C20000111884202D34FF4807006000020010089
:103C3000320089B292B291420AD2010089B2695C23
:103C40003A68BB88D154B988491CB980401CEEE75A
:103C5000012053492200D2B241F8220000215148EC
:103C600000F0B7FBF1BD10B5040000204C49220064
:103C7000D2B241F822006048FEF713F910BD80B5BA
:103C80000320FFF7F0FF0820FFF7EDFF0920FFF703
:103C9000EAFF01BD80B54548C178042901D1002162
:103CA000C17000213F4800F094FB01BD80B54FF486
:103CB000BC71594804F0FFFC01BD38B50400002573
:103CC0002000C0B200280ED0012818D0032822D02E
:103CD000062830D007282FD0082831D0092834D022
:103CE0000A284AD04DE04D490220FEF7D5F90321BC
:103CF000304800F06EFB02203249087041E048492C
:103D00000220FEF7C9F903212A4800F062FB0220D5
:103D10002C49087035E043490220FEF7BDF92348DD
:103D2000C078042806D00321224800F052FB02206C
:103D30002449087025E024E03B48FFF715FF20E008
:103D400002213A48FEF78DFD1BE039490220FEF7BB
:103D50004EF90020FEF74BFE05002800C0B204F02B
:103D600025F9012804D10221124800F032FB03E0BA
:103D70000321104800F02DFB03E02B48FFF7CCFE99
:103D8000FFE731BD80B504212A48FEF76AFD01BD79
:103D900080B504212848FEF764FD01BD240D0020F4
:103DA0002434002088090020E73B0020083600204A
:103DB000003B0020E40D0020C8090020903B0020BB
:103DC0003D0D00207C0E0020C41901088011002048
:103DD000A03400202423010830120020001803081A
:103DE0008C11002004180308403B002044030020ED
:103DF000E83B00205007002000000020880700203A
:103E0000F8070020101D0108B42401081033010830
:103E100014370020B403002000980108042501088D
:103E20001C25010834250108740E002032120020E0
:103E3000FC270108E40C0020E80C002070477047C4
:103E400010B5040003F02BFC012010BD38B50400B0
:103E5000DFF84C14087800280ED101200870DFF834
:103E600044048088DFF8401408802100C9B2DFF8DC
:103E70003C0400F0BDFA22E0DFF82C04DFF8245403
:103E8000AA8803889A4212D100200870AA8829685B
:103E90000120FEF79BF894A10120FEF7A8F801216C
:103EA0002800FDF71AFB2800FDF7FBFF07E0A988B3
:103EB00001802100C9B2DFF8F40300F099FA002074
:103EC000DFF8EC1381F84500012032BD10B5040085
:103ED000DFF8E0130220FEF78AF802F0B5FD0120BA
:103EE00010BD10B50400DFF8D00307C803F078FC5C
:103EF0000421DFF8B80300F07BFA012010BD70B593
:103F00000400012500F090FADFF8A40390F83800CF
:103F1000012806D1DFF8A403007D012801D1FDF7B7
:103F200048FCDFF89C13DFF89C6332780878024382
:103F3000D2B2002A06D1012008700120DFF88813D0
:103F4000886504E03078002801D00020087006F071
:103F500063F9012814D1DFF8740390F88102022874
:103F60000EDBDFF86C03DFF86C1309680160DFF823
:103F700068130068FDF7AEFD002801D100200500A0
:103F800030780E2803D00120DFF850130870307805
:103F90000E2809D12800C0B2012805D1CF480078E9
:103FA000012801D1FDF705FC012070BD38B50400E2
:103FB000BF4D687E002813D1E87D401CE875E87D80
:103FC000C7490978884216D30020E8750221C54800
:103FD00000F0FFF9FFF75EFE012085F844000AE0DB
:103FE0000020E8750221BF4800F0F3F9FFF752FE08
:103FF000012085F84400012032BD010001207047F6
:1040000080B506F055F903F067FA00F00DFA06F0F6
:1040100057F901BD1CB500F069F8FFF765FB01F029
:10402000F8F9B14C002000900FF2D11300225FF09C
:10403000FF31200003F05AFA44F62061200003F01B
:1040400011FB200003F078FA13BD10B5FFF7D8FF7D
:10405000FFF7E0FFA5490220FDF7C9FFA4490220B0
:10406000FDF7C5FFA3490220FDF7C1FFA2490120CA
:10407000FEF712F8A148828801680120FDF7F7FFDA
:1040800019A10120FEF708F840F6B83005F0CCFE83
:1040900006F000F99A4C0020207000F03CF82178DE
:1040A000084320709748C07802280DD14FF448711A
:1040B00082488069FDF70EFD01280AD101F054F90C
:1040C00021780843207004E001F04EF9217808437C
:1040D0002070FFF71FFB217808432070FFF792F94B
:1040E000217808432070D3E70D0A000080B502F064
:1040F00033FCFEF71BF86E4806210175012141765D
:104100000FF2B10080490860804881490860814809
:104110008149086001BD70B50020002400252800F9
:10412000C0B207283ADA614E2800C0B2000130441C
:104130004078012830D12800C0B2042801D00120E5
:1041400004002800C0B200013044406800280ED0AE
:1041500004F0F8FB2900C9B2090131444968401A4A
:104160002900C9B2090131448968884214D300206A
:104170002900C9B209013144487004F0E3FB290069
:10418000C9B20901314448602800C0B22900C9B24F
:1041900009013144C96888476D1CC0E7434A92F859
:1041A0004100002803D10421100000F021F9200073
:1041B000C0B270BD80B500213C4800F00AF901BDD5
:1041C00070B50400002500F02FF93E484178621ACE
:1041D000B1FBF4F104FB01213C22837802FB01F6E0
:1041E000B34208D251438078091A891C4FF47A707F
:1041F0004143080000E0494870BD000010B50400CC
:1042000047490220FDF7F3FE05F0F1FF032803D133
:104210001A214448FDF7EDFA0521244800F0D9F8A9
:1042200000F001F810BD38B542F210743E4908782C
:10423000002807D10878401C0870294800781C49DC
:10424000C87528E01A48407E012817D1244D6868B7
:10425000A86000F0E9F81B4A5078AB68AD682D1AE9
:10426000B0FBF3F103FB01513C2041439078091A64
:10427000891C4FF47A7041430C0008E018490A7811
:10428000488842438A604888FFF79AFF040021006B
:10429000154803F0E7F9144803F04EF931BD00006A
:1042A000D53B002020120020A03B0020440300202A
:1042B000240D0020C4220108403B00207C0E002079
:1042C000D63B0020583B0020243400200000002072
:1042D0007C3B0020983B0020C0270900D73B0020F2
:1042E000700D002088090020FC390020E42201081C
:1042F0000C2401082824010808260108B403002022
:10430000D83B0020083600208C3B00207C0D00208C
:10431000883B0020C91701089C3B0020C0D4010045
:104320004424010860240108D93B002062B38B07B4
:1043300008D0521E11F8013B00F8013B00F0248028
:104340008B07F6D1830740F0208000BF103A07D3D7
:1043500030B4B1E83810103AA0E83810F9D230BCC7
:10436000530724BFB1E80810A0E8081044BF51F873
:10437000043B40F8043BD20724BF31F8022B20F85D
:10438000022B44BF0B7803707047121F17D35B00DA
:1043900009D151F8043B20F8023B1B0C121F20F8F6
:1043A000023BF6D20BE051F8043B00F8013B1B0A3C
:1043B00020F8023B1B0C121F00F8013BF3D238BF60
:1043C000121D521E24BF11F8013B00F8013BF8D822
:1043D0007047020001200B00DBB21B011344587030
:1043E00000200B00DBB21B01134458600120704712
:1043F00038B504000D0001202900C9B2090121448B
:10440000487004F09FFA2900C9B2090121444860AC
:10441000012032BD020000200B00DBB21B0113445F
:104420005870012070470D0010B586B0DFF8C0410C
:10443000002201A9200000F0BEF9002269462000F8
:1044400000F050FADFF8AC019DF8061081709DF87D
:10445000051041709DF8041001709DF80010C170A6
:104460009DF8021001719DF8011041719DF8031033
:10447000817106B010BD17B587B01421002201ACC0
:104480002000FFF74DF8042100226C462000FFF7C2
:1044900047F807A800F031F801282BD109980290BD
:1044A0009DF81E008DF806009DF81D008DF8050092
:1044B0009DF81C008DF804009DF81F008DF8000089
:1044C0009DF820008DF802009DF821008DF8010074
:1044D0009DF822008DF80300DFF81441002201A9A5
:1044E000200000F0F5F800226946200000F097F95E
:1044F000012000E000200AB010BD010088783D28AE
:1045000001DB002023E048783D2801DB00201EE08D
:104510000878182801DB002019E0C878092801DB99
:10452000002014E00879202801DB00200FE0487902
:104530000D2801DB00200AE08879642801DB0020D7
:1045400005E08879142801DA002000E00120704796
:1045500037B49DF8060040F2B5514843C01C8008AE
:104560009DF80610042291FBF2F402FB14110029BD
:1045700001D1214A00E0214A9DF805403D214C43EC
:104580003C3C022194FBF1F108189DF80510491EEE
:10459000C9B249001400CC4014F00304001B9DF87C
:1045A0000410491E0818164948439DF802409DF81A
:1045B00001503C2101FB05449DF800504FF461611E
:1045C00001FB054420181900C9B2012904D00CD3FD
:1045D000032907D003D308E00A49081805E00A496F
:1045E000081802E009490818FFE73EBC70470000C0
:1045F000A8390020583B002050554400A0AA99003B
:104600008051010080A16DE980436D38801F8607CD
:1046100070B504000125002C01D1012057E0607F16
:10462000002804D100202077200005F0D3FE0220CE
:1046300060772068C068C00640D4CA2021684862FC
:10464000532021684862200000F035FB060030004E
:10465000C0B200281ED120688168DFF80C06014036
:10466000206881602068816862682069024360690F
:104670000243114320688160E06821680861206876
:104680000069A16850EA014021680861200000F03B
:104690003AFB06003000C0B200280BD12068006C45
:1046A00030F48020216808642068016CA06901430F
:1046B00020680164FF202168486200E00026300085
:1046C000C0B2002801D1012060773000C0B270BDB7
:1046D0002DE9F84305000E0014005FF00008287F64
:1046E000012801D1022064E00120287702206877A8
:1046F000002C1CD128688068400601D40020F0708E
:10470000307800F019FB8146707800F015FB070047
:10471000B07800F011FB5FFA89F9FFB23F0257EA67
:104720000947C0B20743F07857EA80570FE028687E
:104730008068400601D40020F070307877783F021E
:1047400057EA0047B0780743F07857EA8057CA2005
:1047500029684862532029684862280000F0ABFAB3
:1047600080464046C0B2002816D1DFF80005384028
:10477000296808602868806830F48020296888608B
:1047800028688168F26830690243114328688160B3
:10479000280000F0B8FA80464046C0B2002801D197
:1047A00001206877FF20296848620020287740466A
:1047B000C0B2BDE8F283F8B505000E001400002178
:1047C0002868806A7060286800694004400CB06006
:1047D00028680768DFF8940407403800000C10F0E0
:1047E0003F0030703800000A10F07F00707017F042
:1047F0007F00B0703800800D10F00100F070002CC8
:104800000BD1307800F0A4FA3070707800F0A0FA84
:104810007070B07800F09CFAB0700020F2BD2DE905
:10482000F84305000E0014005FF00008287F0128FF
:1048300001D1022054E00120287702206877002C63
:1048400007D17078C00604D5707810F0EF000A30F8
:104850007070002C16D1F07800F06EFA81467078F6
:1048600000F06AFA0700B07800F066FA5FFA89F99A
:10487000FFB23F0257EA0947C0B20743307857EA10
:10488000403709E0F07877783F0257EA0047B07880
:104890000743307857EA4037CA20296848625320D6
:1048A00029684862280000F006FA80464046C0B2F7
:1048B000002808D1DFF8B80338402968486028008C
:1048C00000F021FA80464046C0B2002801D1012004
:1048D0006877FF2029684862002028774046C0B2E8
:1048E000BDE8F283F8B505000E0014000021286829
:1048F0004768DFF87C0307403800000CF070380090
:10490000000A10F01F00707017F03F00B070380000
:10491000400B10F007003070002C0BD1F07800F045
:1049200017FAF070707800F013FA7070B07800F039
:104930000FFAB0700020F2BD2DE9FE4F05000E0009
:1049400014004FF47A77DFF82C83D8F80000400980
:104950004FF47A71B0FBF1F07843009000200290A0
:1049600000200190287F012801D10220E5E00120EC
:10497000287702206877002C31D1286880684006AB
:1049800001D40020F070F0690028FFD0307800F0EA
:10499000D3F98146707800F0CFF98246B07800F004
:1049A000CBF9834696F8200000F0C6F95FFA89F942
:1049B0005FFA8AFA5FEA0A2A5AEA094A5FFA8BFB27
:1049C0005BEA0A0AF1785AEA815AC0B25AEA006AE6
:1049D000F06950EA0A0A706950EA0A0A1FE028687A
:1049E0008068400601D40020F070F0690028FFD0F4
:1049F000307896F801A05FEA0A2A5AEA004AB078AD
:104A000050EA0A0AF0785AEA805A96F820005AEAE0
:104A1000006AF06950EA0A0A706950EA0A0A716885
:104A2000B0690143CA202A68506253202A68506244
:104A3000706AB0F5807F32D12868806830F4807069
:104A40002A6890602868C06810F0800070F4C07018
:104A50002A68D0600098401E00900098002808D175
:104A6000FF202A68506203206877002028770320FF
:104A700063E02868C068C007ECD52868C0F81CA0AF
:104A8000286841642868806850F480702A689060C3
:104A90002868806850F480502A6890603BE028685D
:104AA000806830F400702A6890602868C06810F050
:104AB000800070F420702A68D060D8F800004009A7
:104AC0004FF47A72B0FBF2F007FB00F70097009802
:104AD000401E00900098002808D1FF202A685062EC
:104AE0000320687700202877032026E02868C06824
:104AF0008007ECD52868C0F820A028688164286861
:104B0000806850F400702A6890602868806850F4CB
:104B100000502A6890605848026852F400320260DF
:104B20005648026852F400320260FF202A68506240
:104B300001206877002028770020BDE8FE8FF8B5B7
:104B400004000D000026207F012801D102205AE038
:104B50000120207702206077CA2021684862532014
:104B600021684862B5F5807F22D12068806830F4E2
:104B70008070216888602068806830F480502168E7
:104B8000886003F0DFFE07002068C068C00732D4E9
:104B900003F0D8FEC01B40F2E9318842F4D3FF2075
:104BA00021684862032060770020207703202AE0F4
:104BB0002068806830F40070216888602068806810
:104BC00030F400502168886003F0BCFE07002068C4
:104BD000C06880070FD403F0B5FEC01B40F2E93176
:104BE0008842F4D3FF2021684862032060770020C8
:104BF0002077032007E0FF202168486201206077CA
:104C0000002020770020F2BD10B504005FF40030D2
:104C10001B49086020688068C0040ED52068C06801
:104C2000C0050AD52068C06810F0800070F4C0701C
:104C30002168C860200005F096FC20688068800428
:104C40000ED52068C06880050AD52068C06810F0BD
:104C5000800070F420702168C860200005F0A6FD77
:104C60000120607710BD0000BFFF8FFF7F7F7F00B6
:104C70003FFFFF00A00200200004014008040140A3
:104C80001404014070B5040000254FF657702168E8
:104C9000C86003F057FE06002068C068800608D48C
:104CA00003F050FE801B40F2E9318842F4D3032028
:104CB00000E0002070BD70B50400002500262068CB
:104CC000C06840061CD42068C06850F0800021688D
:104CD000C86003F037FE05002068C06840060FD4A6
:104CE0003000C0B201280BD003F02CFE401B40F274
:104CF000E9318842F0D30420607701200600EBE719
:104D00003000C0B270BD38B5040000252068C0680E
:104D100030F080002168C86020688068800608D470
:104D20002000FFF7AFFF002803D0042060770120A8
:104D300005002800C0B232BD00210200D2B20A2A0A
:104D400002D3491C0A38F8E750EA0110C0B2704794
:104D500000220300DBB21B090A214B4310F00F00B5
:104D6000C018C0B270472DE9FE4F04000D000020AE
:104D7000002600270021ADF804105FF001085FF065
:104D800000095FF0000A21680978212901D1012179
:104D90008A465FF0000B584600B2A988884272DA52
:104DA00020685146C9B2405C29685A4612B2895CF3
:104DB000884265D1012080465046C0B2401C0600A2
:104DC000002081460020ADF80400300000B2A18828
:104DD00088424ADA2068310009B2405C7C281ED142
:104DE000BDF90400002804D10120814616EB0B0018
:104DF000070001A800903B001BB22A002100701C94
:104E000000B200F059F880464046C0B2012806D1F1
:104E10005146C9B2584600B200F03DF839E0484664
:104E2000C0B200280FD12068310009B2405C296867
:104E30005A4612B21144320012B2895C884202D042
:104E40000020804611E04846C0B2002801D1761CFF
:104E5000BBE73000BDF9041000B2884203DABDF9A7
:104E600004000600B1E7761CAFE74046C0B2012857
:104E700006D15146C9B2584600B200F00CF808E01D
:104E80001BF1010B87E75146C9B25FF0FF3000F01C
:104E900002F8BDE8FE8F02000800C0B2002802D16F
:104EA000100000B207E0100000B2002802D45FF04A
:104EB000FF3000E000207047F0B50500059E01209E
:104EC0000027AC460FFA8CFC3C0024B214EB0C0C0F
:104ED0008C88A4453DDA0C68AC460FFA8CFC64441F
:104EE000BC460FFA8CFC14F80C407C2C03D17C19C6
:104EF000348000B22EE0B2F804C09E460FFA8EFE57
:104F00003C0024B214EB0E0EF44506DAB2F904406C
:104F1000641C34805FF0FF3420000C68AC460FFA4C
:104F20008CFC6444BC460FFA8CFC14F80C40D2F89C
:104F300000C09E460FFA8EFEF444BE460FFA8EFE67
:104F40001CF80EC0644502D05FF0FF3420007F1CC7
:104F5000B7E700B2F0BDF0B404001000C0B2FF2803
:104F600001D188880200A5881000C0B24519180038
:104F7000C0B2854201DB00201AE00025280016009F
:104F8000C0B2F6B2B0420DD22068A68830442E00DE
:104F9000F6B20F68AC465FFA8CFC17F80C708755B8
:104FA0006D1CEBE7A6881000C0B28619A680012010
:104FB000F0BC7047F0B50400059D069EA088281837
:104FC000B04201DB002018E00027380080B2A84280
:104FD0000FDA0868BC461FFA8CFC6044C05CD4F849
:104FE00000C0BE461FFA8EFEF4440CF802007F1C7F
:104FF000EBE7A0882818A0800120F0BD2DE9FC4136
:1050000004000D0016002F687F1C206810F8078030
:105010007F1C14200190CDF800803B00002221006D
:105020003000FFF7C7FF002801D1002008E0B0885A
:10503000C719A088B84201DA002001E02F600120E2
:10504000BDE8F68170B40200002318008C8880B29D
:10505000A0420BD21068948820441C00A4B20D68B2
:105060001E00B6B2AD5D05555B1CEEE794888888DE
:1050700004199480012070BC70473E0038B50400CC
:10508000DFF8105A2878002803D0022810D008D35F
:1050900019E04FF4FA70DFF8001B886000F0E9FCBB
:1050A00013E06420DFF8F01A886000F0E3FC0CE005
:1050B0000020287005F09FF80121DFF8DC0AFFF7D7
:1050C00088F901200BE0002028702878401C287007
:1050D0002100C9B2DFF8C00AFFF78AF9012032BD0A
:1050E00010B5040005F08CF8012814D105F07FF804
:1050F00003280ED1DFF8A0190220FCF778FFDFF8B3
:105100006C0B42F2107181600021FFF771F90120F0
:1051100008E0012006E02100C9B2DFF8500BFFF7DC
:1051200067F9012010BD01000120704770B504002F
:1051300005F05DF801283DD1DFF8605A42F21070A9
:10514000DFF8281B896CB0FBF1F0288005F05AF8D5
:10515000012812D1DFF8480A417801290DD1817B5D
:10516000491C8173817B2A8889B2914205D3002131
:10517000817300214170FEF782FDDFF8286A708E8E
:10518000B18E884216D0DFF8185A6878002811D1FD
:10519000DFF8141A0220FCF72AFF0020A873012070
:1051A00068700320FEF75FFDB38D0022002101200F
:1051B00000F07FFA2100C9B2DFF8B00AFFF718F952
:1051C000012070BD70B5040005F011F801281CD154
:1051D000DFF8D859688EA98E884216D0DFF8C069EA
:1051E0007078002811D1DFF8881A0220FCF7FFFE42
:1051F0000020B073012070700820FEF734FDAB8DE5
:1052000000220021032000F054FA2100C9B2DFF887
:105210005C0AFFF7EDF8012070BD70B5040004F0E2
:10522000E6FF01281CD1DFF84C5A688EA98E88420F
:1052300016D0DFF86C697078002811D1DFF8381AC1
:105240000220FCF7D4FE0020B0730120707009200A
:10525000FEF709FDAB8D00220021062000F029FA9F
:105260002100C9B2DFF8040AFFF7C2F8012070BDBF
:10527000F8B504000025002604F0B9FF012853D139
:10528000DFF81C79787B01284ED1F888398988426B
:1052900046D0387B002806D002280FD0042818D02A
:1052A000052821D02BE0DFF8FC08818D0D00C168B6
:1052B000FA88808D00FB02110E0020E0DFF8EC0878
:1052C000818D0D00C168FA88808D00FB02110E00EF
:1052D00015E0DFF8AC09818D0D00C168FA88808D7A
:1052E00000FB02110E000AE0DFF88809818D0D0035
:1052F000C168FA88808D00FB02110E00FFE72B00C9
:105300009BB232000121072000F0D3F9F888401C3D
:10531000F880F8887989884206D30020F88003E075
:1053200000207873012006E02100C9B2DFF83C09B3
:10533000FFF75EF80120F2BD10B5040005F004FB94
:1053400000280FD1DFF83C190220FCF750FEDFF8EF
:105350003819D1F83001002802D0D1F83001804747
:10536000FCF727FA012010BD70B5002000240025AD
:105370002800C0B2082843DADFF8F0682800C0B27D
:10538000000130444078012838D12800C0B20428F8
:1053900009D02800C0B2052805D02800C0B20628D0
:1053A00001D0012004002800C0B200013044406850
:1053B00000280ED003F0C6FA2900C9B20901314411
:1053C0004968401A2900C9B20901314489688842F4
:1053D00014D300202900C9B209013144487003F0F8
:1053E000B1FA2900C9B20901314448602800C0B2AD
:1053F0002900C9B209013144C96888476D1CB7E763
:1054000001F00BFF0600264304F0AFFE3043C0B2AC
:1054100070BD80B500F0CCFB04F098FEDFF86808A2
:10542000012180F820110FF22901C0F824110FF298
:105430004D11C0F828110FF2F521C0F838110FF204
:105440009521C0F830110FF2E951C0F83C1101BDAF
:1054500038B504002000C0B2002809D0022830D09E
:105460001FD3042856D045D3062876D05CD384E0D9
:10547000DFF818180220FCF7BAFDDFF828572800DB
:1054800000F066FA002806D1AB8D1122DFF8001873
:10549000012000F0ABF80421DFF8D007FEF7A8FFE9
:1054A0006BE0DFF8F0170220FCF7A1FD0121DFF827
:1054B000F40600F07BFA0421DFF8B007FEF798FF4E
:1054C0005BE0DFF8D4170220FCF791FDDFF8DC5633
:1054D000280000F03DFA002806D1AB8D1122DFF83C
:1054E000B017032000F082F80521DFF88007FEF7EF
:1054F0007FFF42E0DFF8A4170220FCF778FD0121CE
:10550000DFF8A80600F052FA0521DFF86007FEF781
:105510006FFF32E0DFF888170220FCF768FDDFF844
:10552000600700F015FA28E0DFF878170220FCF792
:105530005EFDDFF84057280000F00AFA002806D187
:10554000AB8D1122DFF84817062000F04FF8062136
:10555000DFF81807FEF74CFF0FE0DFF84C170220CA
:10556000FCF745FD0121DFF80C0700F01FFA0621CA
:10557000DFF8F806FEF73CFFFFE731BDFEB504009B
:105580000D0016000020DFF800174A680092098914
:10559000ADF8041000994978009A977817EB012725
:1055A0003100C9B2002903D0022917D008D31CE06A
:1055B0003A0092B200992000C0B200F06FFA14E0F5
:1055C000380080B2B0F5807F01DBFC200700390095
:1055D00089B20098C01C00F006F906E0BDF804206E
:1055E0000099280000F075F8FFE7F7BD2DE9F047B6
:1055F000C2B004000D0016001F005FF0000800207C
:105600005FF0000A002140918DF80441AA216A460A
:1056100043469BB2D15418F10108310089B2090AFE
:105620006A4643469BB2D15418F101086946424686
:1056300092B28E5418F1010800210800320080B2A5
:1056400092B290420AD2080080B2285C6A46434671
:105650009BB2D05418F10108491CEEE7380080B223
:10566000401E424692B2904201DA781E804618F1FE
:1056700001085FF00009484680B2414689B2491EE0
:10568000884208DA6846494689B2405C90EA0A0ACC
:1056900019F10109EFE76846414689B2084400F86C
:1056A00001ACADF80681684604F0CCFD42B0BDE81F
:1056B000F087FEB504000D0016001F008DF80640AF
:1056C00000968DF80750ADF80470684604F0AEFD02
:1056D000F7BD704710B5DFF8CC440021E069FCF756
:1056E0001AFE0021206AFCF716FEDFF8C0440021F4
:1056F000E069FCF710FE0021206AFCF70CFEDFF8E1
:1057000080450021E069FCF706FE0021206AFCF7D5
:1057100002FEDFF860450021E069FCF7FCFD002196
:10572000206AFCF7F8FDFCF744F810BD10B4030044
:1057300000201A00D2B2002A0BD0022A1ED00DD3AC
:10574000042A30D01FD3062A37D031D3072A44D0B9
:1057500047E0DFF850241268100042E00A00D2B29D
:10576000002A06D1DFF83C2454689268A41A20006D
:1057700003E0DFF830245268100032E0DFF82C2418
:10578000126810002DE00A00D2B2002A06D1DFF81C
:105790001C2454689268A41A200003E0DFF80C244B
:1057A000526810001DE0DFF8D8241268100018E0DD
:1057B000DFF8C0241268100013E00A00D2B2002AF9
:1057C00006D1DFF8B02454689268A41A200003E0E0
:1057D000DFF8A0245268100003E05FF0FF321000F1
:1057E000FFE710BC704738B504000D0000232A0005
:1057F00092B22100DFF8A8030079FCF72CF831BD44
:105800002DE9F04104000D00002600275FF000089C
:10581000280080B200285AD004F0E9FC012856D1B3
:105820002000C0B2002805D0022815D00BD30328D1
:105830001BD023E0DFF86C03818E884600210F0027
:10584000C08D06001AE0DFF86403818E88460221CD
:105850000F00C08D060011E0DFF82404818E884619
:1058600004210F00C08D060008E0DFF80804818ED7
:10587000884605210F00C08D0600FFE72800310093
:1058800080B289B2884222D2C54801214173DFF833
:105890001C14097801710773A0F8088046810189FA
:1058A0002A0092B2914203D30189491BC18003E0CF
:1058B00001898919491BC1800721B748FEF789FD75
:1058C000DFF8EC130220FCF792FB012005E0DFF883
:1058D000E4130220FCF78BFB0020BDE8F08138B513
:1058E00004002000C0B2012804D0032811D00628EB
:1058F0001ED02CE0AB4D0121280000F077F80028E5
:1059000006D1AB8D0E22DFF8B0130120FFF76EFE3B
:105910001DE0A64D0121280000F068F8002806D1FE
:10592000AB8D0E22DFF890130120FFF75FFE0EE033
:10593000D04D0121280000F059F8002806D1AB8D88
:105940000E22DFF874130120FFF750FEFFE731BD90
:1059500038B504000125A08E401CE18D90FBF1F2CA
:1059600001FB1200A086E168A28EA08D00FB02114F
:105970002160A18E206AFCF7CEFCA08E618E884249
:1059800011D1608E401CE18D90FBF1F201FB120001
:1059900060866169628EA08D00FB02116160618E7C
:1059A000E069FCF7B8FC2800C0B232BD38B504008D
:1059B0000D0000207A494870608EA18E884213D075
:1059C000618E2800C0B24118E08D91FBF0F200FB1F
:1059D000121161866169628EA08D00FB0211616007
:1059E000618EE069FCF797FC012032BD70B50400C0
:1059F0000D000126608EA18E884216D000206849D5
:105A00004870618E2800C0B24118E08D91FBF0F221
:105A100000FB121161866169628EA08D00FB02118C
:105A20006160618EE069FCF776FC3000C0B270BD49
:105A3000F8B504000D00160003202100C9B20029AA
:105A400004D0022904D0052904D005E0032704E08E
:105A5000082702E0092700E00AE098490320FCF744
:105A6000C6FA321F92B2E91C3800C0B2FEF7CDF878
:105A7000F1BD704770474B48418E808E814204D102
:105A80008F48418E808E814201D0012000E00020AD
:105A900070470000E63B0020042301082DE9FC4785
:105AA00004000D00160003275FF000085FF00009F6
:105AB0005FF0010A2000C0B2012804D003280DD0F5
:105AC000062816D020E00320070030003549898DD4
:105AD00080B2884201D30020824615E008200700EA
