:020000040800F2
:10000000800C0020214C0008C9490008CD49000897
:1000100000000000000000000000000000000000E0
:10002000000000000000000000000000D1490008AE
:100030000000000000000000D3490008D549000876
:10004000571100082B1B0008071C0008DB1F0008C5
:100050002F20000833200008232700083B43000816
:1000600000000000AF4500086F4B00087B4B000804
:100070009D4C00089F4C000800000000034A000847
:100080000000000000000000000000000000000070
:10009000A14C000800000000A34C0008A54C00087B
:1000A00000000000A74C0008000000000000000055
:1000B0000D4A0008A94C00080000000000000000E4
:1000C00010B50400002C01D1012035E0A069002802
:1000D000FFD1E06F002805D1002078216054200076
:1000E00000F010FF2420E0672068006801218843A9
:1000F00021680860200000F073FA012801D1012076
:100100001AE0606A002802D0200000F0D5FB2068C9
:1001100040680A49014020684160206880682A21BF
:1001200088432168886020680068012101432068B5
:100130000160200000F036FC10BD0000FFB7FFFF9B
:10014000FEB582B004000F00E06F202865D1002FBB
:1001500003D068468089002801D101205EE0802517
:100160006D01A068A84207D12069002804D1380099
:10017000C00701D5012051E000268420265021200F
:10018000E06700F0FBFE01906846808950216052D4
:100190006846808952216052A068A84205D1206932
:1001A000002802D135003E0000E03D005220205AD8
:1001B000002820D004980090019B0022802120007C
:1001C00000F05CFC002803D02020E067032025E03D
:1001D000002D06D13088C005C00D21688862B61C8C
:1001E00003E02878216888626D1C5220205A401E46
:1001F00052216052DAE704980090019B00224021CE
:10020000200000F03BFC002803D02020E067032002
:1002100004E02020E067002000E0022005B0F0BDEF
:1002200070B504000D00160080202058202833D11E
:10023000002D03D0300080B2002801D101202CE035
:10024000A06880214901884207D12069002804D193
:100250002800C00701D501201FE00020206620688B
:100260000E49884211D02068406800020DD5EFF396
:100270001080012181F31088216809688022D2044E
:100280000A4321680A6080F31088320092B2290084
:10029000200000F03DFC00E0022070BD004800405E
:1002A000FEB504002068C76920680568206880687A
:1002B0000090C64838400290029800280AD1B8063B
:1002C00008D5A80606D5A06E002802D02000A16E91
:1002D00088477AE10298002800D1A6E00120009921
:1002E0000140002904D1BA492940002900D19CE0ED
:1002F00001003940C9B2002908D0E90506D52168B6
:1003000008628421615801438422A150B9070DD5A8
:1003100000990140C9B2002908D002212268116267
:100320008421615804220A438421625079070DD543
:1003300000990140C9B2002908D004212268116245
:100340008421615802220A438421625039070ED564
:10035000A90604D400990840C0B2002807D008209C
:10036000216808628421615808438421605038055F
:100370000BD5680109D5802000012168086284201E
:100380002058202101438420215084202058002817
:100390004AD0B80607D5A80605D5A06E002802D019
:1003A0002000A16E884784202058019040262068B4
:1003B00080683040002804D101982821014000299C
:1003C0002CD0200000F02AFC206880680640002E17
:1003D00020D0EFF31080012181F310882168896813
:1003E000402291432268916080F31088606F00285A
:1003F0000CD07848616F8863606F00F0EFFD0028D3
:1004000012D0606F616F896B88470DE0200000F0AB
:100410007FFE09E0200000F07BFE05E0200000F0F8
:1004200077FE002084216050CFE0206E012800D0AC
:10043000ABE0F80600D4A8E0E80600D4A5E0102060
:10044000216808622068806840065CD5606F00689B
:100450004668300080B2002854D030005821615ADC
:1004600080B288424ED25A2026522020616F0968FD
:100470000968014000293AD1EFF31081012282F38B
:10048000108822681368544A1A4023681A6081F35E
:100490001088EFF31081012282F31088226892689D
:1004A00001239A4323689A6081F31088EFF3108147
:1004B000012282F310882268926840239A432368BD
:1004C0009A6081F310888021605000202066EFF34D
:1004D0001080012181F3108821680968102291435E
:1004E0002268116080F31088606F00F04DFD0220DB
:1004F00060665820205A5A21615A411A89B2200058
:1005000000F005FE61E05820205A5A21615A461A2F
:100510005A20205A002837D0300080B2002833D02B
:10052000EFF31080012181F31088216809682B4ABC
:100530000A4021680A6080F31088EFF310800121DF
:1005400081F31088216889680122914322689160B3
:1005500080F3108820208021605000202066A06653
:10056000EFF31080012181F31088216809681022BF
:1005700091432268116080F3108802206066310088
:1005800089B2200000F0C3FD1FE0F8020AD50098F0
:10059000400207D58020400321680862200000F057
:1005A000D9FD12E0380608D5280606D5E06E0028E9
:1005B00002D02000E16E884707E0780605D568067E
:1005C00003D5200000F070FBFFE7F7BD0F08000027
:1005D00020010004910C0008FFFEFFFFDFFEFFFF7B
:1005E000FEB506000027380069460870AC4831683F
:1005F0008142FFD0B16832690A4373691343F169DC
:10060000194332681268A74B13400B4332681360DA
:1006100032685268A44B1340F2681A4333685A6038
:10062000B26902923268824203D00299326A0A4366
:100630000292316889689D4A0A40029911433268E2
:10064000916031689A4A914216D19A4909680C2200
:100650000A40002A06D0042A08D0082A04D00C2A0E
:1006600006D007E03D0029E0022527E0042525E02B
:10067000082523E0102521E0316881421DD18D49F4
:100680000968C02212010A40002A0CD08021C9004A
:100690008A420CD0802109018A4206D0C02109017A
:1006A0008A4206D007E03D0008E0022506E0042566
:1006B00004E0082502E0102500E0102531688142A1
:1006C00058D12800C0B2002806D0022808D004283B
:1006D0000ED0082810D012E001F036F9040012E024
:1006E000AD480068C00601D5AC4C00E0AC4C0AE057
:1006F00001F0CAF8040006E08024240203E03C0074
:10070000012069460870002C00D1C3E07068032105
:100710004843844205D37068802149014843A04280
:1007200003D2012069460870B4E020000021802235
:100730005200002301F03AF902000B0070684008F3
:100740000021801859417268002301F048F9019096
:100750000198C0218900884208D30198802149036B
:10076000884203D201983168C86093E0012069464D
:1007700008708FE080242402F069A0424BD1280049
:10078000C0B2002808D001280AD002280CD00428C2
:1007900012D0082814D014E001F0D6F8040014E0B8
:1007A00001F0DEF8040010E07B480068C00601D5C7
:1007B0007A4C00E07A4C08E001F066F8040004E0AE
:1007C00003E03C00012069460870002C62D0022042
:1007D0006043716849084018716801F04EF9019052
:1007E0000198102813D301988021490288420ED223
:1007F00001999E480840019949084907490F01435A
:1008000068464180684640883168C86042E00120FF
:10081000694608703EE02800C0B2002808D00128D0
:100820000AD002280CD0042812D0082814D014E0D2
:1008300001F08AF8040014E001F092F8040010E0DE
:1008400055480068C00601D5544C00E0544C08E0FF
:1008500001F01AF8040004E003E03C0001206946BE
:100860000870002C16D0706840082018716801F0DC
:1008700004F901900198102809D3019880214902B8
:10088000884204D2019880B23168C86002E0012039
:1008900069460870B766F76668460078FEBD0000D6
:1008A00000480040F369FFEFFFCFFFFFFFF4FFFFB9
:1008B000004400404C10024000B52421415CC907AF
:1008C00007D5016849686A4A0A40816A114302688B
:1008D00051602421415C890707D501684968654A50
:1008E0000A40C16A1143026851602421415C4907F2
:1008F00007D501684968604A0A40016B11430268E4
:1009000051602421415C090707D501684968BC4A48
:100910000A40416B1143026851602421415CC906C1
:1009200007D501688968B74A0A40816B114302689C
:1009300091602421415C890607D501688968B24A23
:100940000A40C16B1143026891602421415C490651
:1009500014D501684968AD4A0A40016C1143026828
:100960005160016C80225203914207D101684968AD
:10097000A74A0A40416C1143026851602421415C3E
:10098000090607D501684968A24A0A40816C1143EB
:100990000268516000BD00000010024000093D00E7
:1009A0000024F4007CB50500002484202C5000F0C5
:1009B000E5FA06002868006800071DD596480090F3
:1009C0003300002280218903280000F057F8002816
:1009D00012D0EFF31080012181F310882968096893
:1009E000802291432A68116080F310882020E867F4
:1009F00078202C54032038E02868006840072BD565
:100A000085480090330000228021C903280000F0AF
:100A100035F8002820D0EFF31080012181F31088F1
:100A200029680968964A0A4029680A6080F3108894
:100A3000EFF31080012181F3108829688968012271
:100A400091432A68916080F31088202080216850AB
:100A500078202C54032008E02020E867802168508B
:100A60002C666C6678202C54002076BDF0FF0000C8
:100A7000FFFFFDFFFFFFFEFFFFFFFBFFFEB50400D2
:100A80000F00089D2068C0693840B84201D101209C
:100A900000E0002069460979884237D10020C04330
:100AA0008542EFD000F06AFA0299401A854201D3DC
:100AB000002D01D103202AE0206800684007E1D51D
:100AC00008262068C069304000280BD020680662E4
:100AD000200000F0A3F884202650002078216054E4
:100AE000012014E0802000012168C969014000292B
:100AF000C8D021680862200000F090F820208421EE
:100B00006050002078216054032000E00020FEBDEA
:100B100070B50300596558201A525A201A52002401
:100B20009C66802040019D6885420AD11D69002D88
:100B300003D1544D5C269D5324E0FF255C269D5334
:100B400020E09D68002D0AD11D69002D03D1FF25ED
:100B50005C269D5316E07F255C269D5312E09D6820
:100B600080267605B5420AD11D69002D03D17F2567
:100B70005C269D5306E03F255C269D5302E0250040
:100B80005C269D5384255C51222480255C51EFF323
:100B90001084012585F310881D68AD6801262E4359
:100BA0001D68AE6084F310889C68844205D1186982
:100BB000002802D13448986601E0344898661869E4
:100BC00000280ED0EFF31080012484F310881C68F5
:100BD000246890256D0025431C68256080F31088EB
:100BE0000CE0EFF31080012484F310881C68246863
:100BF000202525431C68256080F31088002070BDE7
:100C0000FF7FFFFFFFEFFFFFFFDFFFFFFFFFEFFFB4
:100C1000FFFF9FFFFFFFF7FFFFFFFF0100B5EFF3AF
:100C20001081012282F3108802681268144B13406D
:100C30000268136081F31088EFF31081012282F3C0
:100C400010880268926801239A4303689A6081F3CE
:100C50001088016E01290CD1EFF31081012282F37B
:100C600010880268126810239A4303681A6081F39F
:100C7000108820218022815000210166816600BDFC
:100C8000DFFEFFFFFF010000CD0D0008D70C0008BC
:100C900038B50400A56A00205A21685252216852D2
:100CA000280000F035FA31BD10B50400EFF31080D4
:100CB000012181F31088216809684022914322684C
:100CC000116080F310882020E0670020E06620009B
:100CD00000F02AFF10BD70B504005C20255A80206A
:100CE000205822286BD12068406A06003000290075
:100CF0000140606D0170606D401C60655A20205A93
:100D0000401E5A2160525A20205A00285DD1EFF32C
:100D10001080012181F3108821680968694A0A401E
:100D200021680A6080F31088EFF31080012181F3BD
:100D3000108821688968012291432268916080F3BC
:100D400010882020802160500020A0666066216805
:100D50005D4A914210D02168496809020CD5EFF331
:100D60001081012282F3108822681268574B1340C9
:100D70002268136081F31088216E01291BD120663F
:100D8000EFF31080012181F3108821680968102297
:100D900091432268116080F3108810202168C9698E
:100DA0000140002901D0216808625820215A200002
:100DB00000F0ADF909E0200000F089F905E02068B5
:100DC0008069082101432068816170BDF8B5040085
:100DD0005C20255A8020205822286BD12068406A48
:100DE0000600606D0700280030403880606D801C70
:100DF00060655A20205A401E5A2160525A20205ABB
:100E000000285DD1EFF31080012181F31088216863
:100E100009682C4A0A4021680A6080F31088EFF3C1
:100E20001080012181F31088216889680122914393
:100E30002268916080F3108820208021605000207B
:100E4000A06660662168204A914210D021684968F6
:100E500009020CD5EFF31081012282F31088226879
:100E600013681A4A1A4023681A6081F31088216EA9
:100E700001291BD12066EFF31080012181F3108836
:100E800021680968102291432268116080F310885C
:100E900010202168C9690140002901D02168086239
:100EA0005820215A200000F032F909E0200000F01B
:100EB0000EF905E0206880690821014320688161FE
:100EC000F1BD0000DFFEFFFF00480040FFFFFFFB19
:100ED00080B526482649016096218901416000219C
:100EE000816080229201C26001610C2242618161B5
:100EF000C16101624162FFF7E3F8002801D000F010
:100F000075FE01BD10B586B004001422002101A8B1
:100F100000F06FFE20681649884225D11548016807
:100F2000802292020A430260012013490A680243A8
:100F30000A6009680840009000980C200190022087
:100F4000029000200390032004900420059001A942
:100F5000A020C00500F058FE002200211C2000F057
:100F6000E6FF1C2000F0EDFF06B010BD7806002063
:100F700000440040381002402C1002400148006834
:100F8000704700BF5008002030B50100002002006B
:100F90002523CB5C022B05D00423CB632423C85428
:100FA00001201AE00B681B680E24A3430C68236021
:100FB0000B681B680124A3430C68236001234424AD
:100FC0000C5D1C2525401C00AC400D6C6C6025247C
:100FD0000B552423C8541000C0B230BD38B50400EE
:100FE000002005002521615C022904D00420E06373
:100FF000012005001EE0216809680E229143226845
:101000001160216809680122914322681160012161
:101010004422A25C1C2313400A009A40236C5A60AD
:101020002522A15424216054A06B002802D0200066
:10103000A16B88472800C0B232BDF1B401684218E4
:1010400041684808131800988068C9071ED54946AA
:1010500040181BE01778521C0770401C761EF9D10F
:10106000002C13D01678521C89080D40032D01D195
:101070001578521C290271184D424119A41C05D043
:101080000D78491C0570401C641EF9D19A420FD09E
:101090001178521C032503260E4002D11678F61C47
:1010A000521C0C090F2CD9D114780F34521CD5E7DF
:1010B00000980C30F2BC704780B5012220492148CD
:1010C000FFF7AEF801BD80B5FFF7F6FF01BD70B5C3
:1010D00004001C4821680268914217D11A4A184935
:1010E0000B7815689688AB55131D95886D1C1D806F
:1010F00092889625ED00AA4201D300221A8001228F
:10110000FFF78EF80121114800F034FF70BD7047E1
:1011100010B5040020680B490968884202D10020FC
:101120000B4908700221094800F024FF10BD80B56A
:1011300007480078002801D1FFF7BEFF01BD00007D
:101140007808002078060020B801002098000020D0
:10115000790800207047FEE7F0B585B00400002C48
:1011600001D101208EE2AF4800680C2101400391BB
:10117000AC4800688021490208400290012720689D
:10118000384000285ED00398082807D003980C2820
:101190000DD1029880214902884208D1A2480068F6
:1011A00080034FD5606800284CD101206AE2606856
:1011B00080214902884206D19B4801688022520260
:1011C0000A4302601FE06068A021C90288420BD177
:1011D000954801688022D2020A4302600168802299
:1011E00052020A4302600EE08F4801688F4A0A40AB
:1011F0000260016880225202114004910499016842
:10120000C04A0A400260606800280DD0FFF7B6FEB1
:10121000050085480068800314D4FFF7AFFE401B2B
:101220006528F6D303202DE2FFF7A8FE05007E48CF
:101230000068800306D5FFF7A1FE401B6528F6D3A2
:1012400003201FE22078800779D5E06801902021F3
:1012500001980840002807D07348026811430160D4
:1012600001982021884301900398042805D0039811
:101270000C2832D1029800282FD16B480168490709
:1012800004D50199002901D10120FBE1BB490B687C
:10129000BB4A1A4023691B0213430B6001680922F1
:1012A0009143019A0A43026000F0EEFAB5495D4AA3
:1012B000126812091207120F895CC840B24908600F
:1012C000B248006800F08AFE6946087068460078F7
:1012D000002834D068460078D4E1019800281CD05A
:1012E000514E306809218843019901433160FFF76D
:1012F00045FE05003068400706D4FFF73FFE401B5F
:101300000328F7D30320BDE19C4801689C4A0A40AA
:10131000216909021143016011E0434E3068012147
:1013200088433060FFF72AFE05003068400706D585
:10133000FFF724FE401B0328F7D30320A2E1207807
:10134000C00675D50398002835D137480068800558
:1013500004D5A069002801D1012093E187480168E4
:10136000B74A0A40216A1143016001680902090A6B
:10137000E26912060A430260206A410B491C3800E8
:1013800088408021090248437E49264A1268120992
:101390001207120F895CC8407B4908607B480068CF
:1013A00000F01CFE694608706846007800283FD0AF
:1013B0006846007866E1A069002821D01A4E30689E
:1013C0008021490001433160FFF7D8FD05003068F6
:1013D000800506D4FFF7D2FD401B0328F7D3032076
:1013E00050E166480168964A0A40216A114301604B
:1013F00001680902090AE26912060A43026017E05D
:10140000094E3068A04901403160FFF7B7FD050083
:10141000306880050CD5FFF7B1FD401B0328F7D3DA
:1014200003202FE10C10024000100240FFFFFEFFDE
:101430002078000725D56069002810D0934E3068C9
:1014400038433060FFF79AFD05003068800718D4F4
:10145000FFF794FD401B0328F7D3032012E18B4EC6
:101460003068012188433060FFF788FD050030684F
:10147000800706D5FFF782FD401B0328F7D3032022
:1014800000E12078400700D48BE0002069464870D6
:10149000802040057E4909680140002905D17C492A
:1014A0000A6810430860684647707A4F80267600C5
:1014B00038683040002810D1386830433860FFF772
:1014C0005DFD050038683040002806D1FFF756FD65
:1014D000401B6528F6D30320D4E0A068B04204D1B5
:1014E0006A4801680E43066026E0A06800280BD118
:1014F00066480168644A0A4002600168664A0A4018
:10150000026019E0FFFFFBFFA068A021C90088422C
:1015100009D15E4801688022D2000A430260016856
:101520000E43066008E059480168574A0A400260C5
:101530000168594A0A400260A06800280ED0FFF7EF
:101540001DFD050051480068800521D4FFF716FDF8
:10155000401B52498842F5D3032093E0FFF70EFD6C
:1015600005004A480068800512D5FFF707FD401BBB
:101570004A498842F5D3032084E000BF04100240AA
:10158000FFE0FFFFF04B00080400002000000020F7
:1015900068464078012804D13D480168404A0A4025
:1015A0000260606A00286CD003980C284AD0606AF8
:1015B000022833D1AE4F3868AE4901403960FFF799
:1015C000DDFC04908026B60438683040002807D03F
:1015D000FFF7D4FC0499401A0328F3D3032051E009
:1015E000A5480168A54A0A40A16A1143E26A0A4374
:1015F000216B11430160386880214904014339603F
:10160000FFF7BCFC050038683040002839D1FFF7EF
:10161000B5FC401B0328F6D3032033E0944E30681A
:10162000944901403160FFF7A9FC05003068800152
:1016300027D5FFF7A3FC401B0328F7D3032021E0A5
:10164000FF1FFFFF606A012801D101201AE08A48CC
:10165000006802900298802149020840A16A8842ED
:101660000DD10298F02189030140E06A814206D140
:101670000298C02109040140206B814201D0012061
:1016800000E0002005B0F0BDFFFEFFFF501002405B
:101690003810024000700040FFFBFFFF891300007C
:1016A000FFFFFFEFF2B50400002C01D10120DEE0C6
:1016B000734D28680100C907C90F0098814217D2ED
:1016C000286801218843009901432960FFF756FCEF
:1016D000070028680100C907C90F0098814207D098
:1016E000FFF74CFCC01B67498842F2D30320BEE0E1
:1016F0002078800706D560480168F0229143A268EF
:101700000A4302602078C00767D56068022805D1C7
:1017100057480068800319D40120A8E060680328B6
:1017200005D153480068800110D401209FE0606813
:10173000012805D14E480068400707D4012096E0F3
:101740004B480068800501D4012090E04A4E306883
:1017500003218843616801433160FFF70FFC0700F4
:10176000606802280CD130680C210140082934D06F
:10177000FFF704FCC01B43498842F4D3032076E002
:10178000606803280CD130680C2101400C2924D05A
:10179000FFF7F4FBC01B3B498842F4D3032066E00B
:1017A000606801280CD130680C210140042914D054
:1017B000FFF7E4FBC01B33498842F4D3032056E013
:1017C00030680C210140002907D0FFF7D7FBC01B70
:1017D0002C498842F4D3032049E001260098296867
:1017E0003140884215D2286801218843009901437D
:1017F0002960FFF7C3FB0700286830400099884242
:1018000007D0FFF7BBFBC01B1E498842F4D303205F
:101810002DE02078400706D517480168564A0A404F
:10182000E168114301602078000707D5124801687C
:10183000524A0A402169C9001143016000F024F8AE
:101840004F490D4A126812091207120F895CC840ED
:101850004C4908604C48006800F0C0FB01000800DB
:10186000C0B2002802D00800C0B200E00020F2BDE3
:1018700000100240FFFFFFFE0C100240FFFF02FFBE
:101880000020024089130000F8B52E4806680C219C
:101890003140042904D008290AD00C290AD040E09C
:1018A0003A480068C00601D5394800E0394845E0AB
:1018B000394843E03949B20C1207120F895C0C0019
:1018C000B10D8907890F491C0D000068C0030BD5B5
:1018D00020000021304A002300F068F82A0000238D
:1018E00000F07DF807001AE028480068C0060BD514
:1018F00020000021264A002300F058F82A00002387
:1019000000F06DF807000AE020000021214A0023C2
:1019100000F04CF82A00002300F061F807003800BE
:101920000CE01F480068400B4007400F009001206A
:101930000099491C8840802109024843F2BD1148A2
:10194000006870470C10024080B5FFF7F8FF15499A
:10195000154A1268120A5207520F895CC84002BD2C
:1019600080B5FFF7ECFF0F490F4A1268D20A520701
:10197000520F895CC84002BDFFF8FFFFFFC7FFFFA1
:10198000F04B00080400002000000020001002407E
:1019900000093D000024F40000127A00304C0008D9
:1019A000041002406C4C00080C10024030B4434359
:1019B00051435D18010C0C00130C5C432D1980B2CF
:1019C000434392B251430024C918644124040B04D8
:1019D000090C09195043C018694130BC70471242C4
:1019E00024D0994228D970B500251B4202D00C00A2
:1019F000002109E00024012649186441944200D3E3
:101A0000A41A7641F8D33100012601E0764109D2CB
:101A1000001864416D41A41A9D41F7D2A4185D419C
:101A2000B619F5D3300022002B0070BD1B42D8D16F
:101A300008B500F0FBFA08BD01D19042D3D20200F4
:101A40000B00002100207047F446002804D44942CE
:101A500000F013F8404260474042002905D45FD0AF
:101A600000F00BF8404249426047494200F005F857
:101A70004942604703460B43E6D40022030A8B42E7
:101A80000BD203098B4219D243088B422ED2411A42
:101A900000D20146524110467047FF2209023FD052
:101AA00012068B4205D3121209028B4201D3121285
:101AB000090203098B4219D300E0090AC3098B42CA
:101AC00001D3CB01C01A524183098B4201D38B0150
:101AD000C01A524143098B4201D34B01C01A5241F3
:101AE00003098B4201D30B01C01A5241C3088B4238
:101AF00001D3CB00C01A524183088B4201D38B0023
:101B0000C01A524143088B4201D34B00C01A5241C4
:101B1000884200D3401A5241CFD201461046704746
:101B200008B500F085FA08BD7047FEE780B500F003
:101B300081FA00F00DF800F093FA00F0F3FAFFF7E5
:101B4000C7F900F03FFB00F091FB00F004FCFEE75A
:101B500038B598B0342200210BA800F04AF81422BE
:101B60000021684600F045F81822002105A800F081
:101B700040F81C4801681C4A0A40802109011143B1
:101B800001600A200B9001200E9010210F911090FF
:101B9000022414940025159516958020C0031790F3
:101BA0000BA8FFF7D9FA002801D000F01FF80F208A
:101BB0000090032001900295039504950121684649
:101BC000FFF770FD002801D000F010F8059407958C
:101BD00005A800F09FFC002801D000F007F819B01C
:101BE00030BD000000700040FFE7FFFF00B572B697
:101BF000FEE710B50400080011000200200000F00C
:101C000069FD200010BDFEE7F1B582B00022002082
:101C1000019000230868D040002800D1EFE00124A3
:101C2000086825009540054001950198002800D1DD
:101C3000E3E0032548682840012803D0486828408D
:101C400002281ED102988668170002204743280008
:101C5000B8408643CF68BC461000022778436746E9
:101C6000874037430298876002984668200090407A
:101C700086434868000920409040304303000298A2
:101C8000436048682840032812D00298C6681700AD
:101C9000022047432800B84086438F68BC461000A6
:101CA000022778436746874037433B000298C3606A
:101CB00048682840022821D10298D60804277E438C
:101CC0008019076A072000970F26B44617000740BF
:101CD000042677436646BE40009FB743BC460E6964
:101CE0001700384004277843864067463E43330058
:101CF0000298D60804277E4380190362029806687A
:101D00001700022047432800B84086434F682F4001
:101D1000BC461000022778436746874037433B00A4
:101D2000029803604868C026B6020640002E64D0C0
:101D300040480668264306603F4E900804277843D3
:101D4000305800900F27BC46170028003840042761
:101D50007843674687400098B84300900298A027D0
:101D6000FF05B84201D1002410E00298334B98429D
:101D70000CD00298324B984201D1022406E002981E
:101D8000304B984201D1052400E00624009813004E
:101D90001D4004235D43AC40044390080423584392
:101DA0003450294B1868019DA8434D68ED0202D5B7
:101DB0000400019820431860244C2368019DAB4324
:101DC0004D68AD0202D51800019B03432360204CEF
:101DD0002068019DA8434D68AD0302D5030001981A
:101DE000184320601B4C2368019DAB434D68ED03F5
:101DF00002D51800019B03432360521C0AE7F7BD7C
:101E000000B5020010690B009BB21840002801D0F9
:101E1000012000E00020C0B200BD00B51300DBB21D
:101E2000002B03D00B009BB2836102E00B009BB23E
:101E3000836200BD341002400800014000040050DD
:101E400000080050001C0050080401400C04014030
:101E5000040401400004014000B5010049B200291A
:101E600005D40121C206D20E91403C4A116000BD4A
:101E7000F0B5020052B2002A1CD40322384B0400F1
:101E800064B2A40804256C431C59FF2516000640C3
:101E900008277E43B540AC438D01EDB202400826D1
:101EA000724395402543020052B2920804246243D3
:101EB0009D5022E00F242B4A032305006DB22540DC
:101EC000083DAD0804267543060076B23440083C50
:101ED000A408042674431659FF27BC461C0004407E
:101EE00008277C436746A740BE438C01E4B2034009
:101EF00008277B439C4034435451F0BD10B5040087
:101F0000601E80214904884201D301200EE0601E3A
:101F10001549086003210020C043FFF7A9FF0020F6
:101F200012490860072012490860002010BD70B5F2
:101F300005000C0016002100280040B2FFF798FFB2
:101F400070BD10B50400200040B2FFF785FF10BD42
:101F500010B504002000FFF7D1FF10BD00E100E044
:101F600000E400E01CED00E014E000E018E000E018
:101F700010E000E010B4020001200B00DBB21024DE
:101F80006343D318587000200B00DBB21024634366
:101F9000D3185860012010BC704738B505000C00FC
:101FA00001202100C9B21022514369184870FEF780
:101FB000E5FF2100C9B21022514369184860012091
:101FC00032BD10B4020000200B00DBB210246343CA
:101FD000D3185870012010BC7047FEE710B50400FC
:101FE000FA2080000E490978FFF747FD01000D48EF
:101FF0000068FFF742FDFFF7ABFF002801D001208A
:102000000CE0042C09D2002221000020C043FFF77D
:102010008EFF05480460002000E0012010BD00BFD5
:10202000C001002004000020000000207047FEE7EF
:102030007047FEE710B500240848016840220A43B3
:1020400002600320FFF7CAFF002802D0012004002D
:1020500001E000F067FB2000C0B210BD002002408C
:10206000F8B586B0142200216846FFF7C2FD0421AE
:10207000284802680A4302600268114005910599E8
:1020800001240168214301600168214005910599FF
:1020900002260168314301600068304005900598D0
:1020A0001D4F00223900A020C005FFF7B6FE002218
:1020B00002211A48FFF7B1FE8020C00100900025E0
:1020C0000195029469461648FFF79EFD80200002A4
:1020D00000900195029669461148FFF795FD00941E
:1020E000019502956946A020C005FFF78DFD009778
:1020F0000194029503956946A020C005FFF784FD71
:10210000009601940295039569460448FFF77CFD0B
:1021100007B0F0BD2C100240520600000004005031
:102120000008005080B523482349016082214900FE
:10213000416000218160C1600161416180229200A3
:1021400082610822C2610162416281620721C1622B
:1021500000F0F8FA002801D0FFF748FD01BD10B5E6
:1021600086B004001422002101A8FFF742FD206878
:10217000114988421CD111480168802252010A434A
:10218000026001200E490A6802430A60096808409B
:1021900000900098A020019002200290002003905F
:1021A00003210491059001A9A020C005FFF72CFD93
:1021B00006B010BD800700200030014034100240FE
:1021C0002C10024038B586B01022002102A8FFF77B
:1021D00010FD082200216846FFF70BFD1F4C8020F0
:1021E000C00520601E4860600025A5601D48E060B5
:1021F00025616561200000F09DFC002801D0FFF7FB
:10220000F5FC80204001029002A9200000F0A0FD12
:10221000002801D0FFF7EAFC0095019569462000EF
:1022200000F086FE002801D0FFF7E0FC07B030BDCB
:1022300010B5040020688021C90588420CD10A48E5
:10224000016801220A430260002200210F20FFF7EB
:102250006EFE0F20FFF775FE10BD0000D8070020AE
:102260005F090000E70300003810024080B508480D
:1022700008490160062141609C214900C1608160DC
:1022800000F08EFE002801D0FFF7B0FC01BD00BFBA
:10229000300800200030004001000120704738B5B0
:1022A00005008B48017800290BD101210170894874
:1022B0008088894908802900C9B28848FFF76DFEE7
:1022C0001FE08549834CA2880B889A4212D10021D5
:1022D0000170A2882168012000F0E4FE80A10120A5
:1022E00000F0E1FE0121200000F01EFF200000F0C0
:1022F00099FE06E0A08808802900C9B27748FFF758
:102300004CFE012032BD10B504007649022000F0D9
:10231000CAFEFEF70CFF012010BD10B50400042119
:102320006E48FFF73AFE012010BD01000120704702
:1023300001000120704701000120704780B501F0C5
:1023400029FA01F0D2FC01BD80B500F067F86648BB
:1023500000F016FC01BDF8B5FFF7F0FFFFF7F4FF42
:102360006249022000F09FFE6149022000F09BFEBE
:102370006049022000F097FE5F49012000F0B6FEA0
:102380005E4882880168012000F09BFE54A1012074
:1023900000F0ACFE00252E005948077A01220021EA
:1023A0006846FFF726FC68460770A024E405002273
:1023B00040212000FFF731FD0A23012269465148E0
:1023C00000F024FA012240212000FFF726FD002220
:1023D000802189002000FFF720FD00228021C90014
:1023E0002000FFF71AFD002202214748FFF715FDE4
:1023F000FA20800001F0D6FC012044490870444CCA
:102400002800207000F00EF821780843207001F0B9
:10241000C7F901F06BFC01F033FEF0E780B5FEF781
:1024200052FE01BDF8B5002528002F002C00200029
:10243000C0B2072841DA294E2000C0B2102148431B
:1024400030184078012836D12000C0B2042801D0CD
:10245000012007002000C0B2102148433018406816
:10246000002810D0FEF78AFD2100C9B21022514386
:1024700071184968401A2100C9B2102251437118DD
:102480008968884217D328002100C9B2102251431D
:1024900071184870FEF772FD2100C9B21022514335
:1024A000711848602000C0B22100C9B21022514307
:1024B0007118C9688847641CB9E708484121415C24
:1024C000002902D10421FFF768FD3800C0B2F2BD37
:1024D00071080020B80100206C080020980000203E
:1024E0000D0A0000044B0008D8070020244B000808
:1024F000904B0008AC4B0008DC4B000808010020A2
:1025000050010020800700200004005073080020C4
:1025100072080020FEB5040000206946087020788B
:10252000800600D491E020788006802040055C4938
:1025300009680140002906D159490A68104308601A
:1025400001206946087080277F00564D2868384072
:10255000002811D1286838432860FEF70FFD02904B
:1025600028683840002807D1FEF708FD0299401A74
:102570006528F5D3032091E04B480068C02189030A
:1025800001406068C0229203024091420BD0C020FB
:10259000800262680240824205D14348006880039D
:1025A00001D501207AE0414DC026B60228683040AE
:1025B00001900198002829D0019861683140884233
:1025C00024D02078800621D528683949014001911E
:1025D00028688021090301432960286835490140A2
:1025E00029600198286001980740002F0ED0FEF75F
:1025F000C5FC02902868800508D4FEF7BFFC02994C
:10260000401A2D498842F5D3032047E02078800600
:1026100012D560683040B04209D123480168274A8A
:102620000A406168C0239B030B4013430360286882
:1026300061680E4006432E6068460078012804D188
:10264000174801681E4A0A4002602078800706D5B4
:102650001C4801680C229143A2680A43026020785A
:10266000400706D517480168174A0A40E168114338
:1026700001602078000706D512480168134A0A4015
:102680002169114301602078000606D50D480168D4
:102690000F4A0A406169114301600020FEBD00003D
:1026A00038100240007000400010024050100240FC
:1026B000FFFFFCFFFFFFF7FF89130000FFFFCFFFC5
:1026C000FFFFFFEF4C100240FFF3FFFFFFCFFFFFC4
:1026D000FFFFF3FF1206130A1A43130C1A4300BF3D
:1026E000094205D0830705D00270401C491EF9D16C
:1026F000704700001300103906D330B414001500E1
:1027000010393CC0FCD230BC490700D30CC000D506
:1027100004C0890002D30280801C002900D5027009
:102720007047FEE70548016801220A430260044839
:102730000168802252050A4302607047341002404B
:102740003810024070B50400002C01D101205CE07B
:10275000606A002807D1606882214900884205D05C
:102760000020E06102E00020206160610025A56298
:102770005120205C002805D1280050216054200001
:10278000FFF7EDFC022001005122A15421680968E5
:1027900040229143226811600121626882235B001C
:1027A0001340A6688422120232401A43E36880264E
:1027B00036013340134322691040184362690A40CE
:1027C0000243A3698020800003401343227F382006
:1027D000104018432022A25C80231A400243A06AC2
:1027E00080239B011840104322681060A069000CF0
:1027F000042210402422A25C10231A4002432068C5
:102800004260656551202154002070BDFFB583B042
:1028100004000026300069460870E0680028502057
:10282000205C012801D10220DFE001252800502191
:102830006054FEF7A3FB02906846808A6946488090
:102840005120205C012803D0022069460870C8E0AE
:102850000498002803D06846808A002802D1684680
:102860000570BEE003275120275466650498206355
:102870006846808AA0866846808AE086A663300023
:10288000A0873000E08766642664A0688021090282
:1028900088420CD120680068402188432168086084
:1028A000206800688021C901014320680160402040
:1028B000216809680140002904D12168096808439A
:1028C00021680860E06880210901884236D160688B
:1028D000002803D068464088012809D1206B008871
:1028E0002168C860206B801C2063E08E401EE0865B
:1028F000E08E002859D02068806880070AD5206BB8
:1029000000882168C860206B801C2063E08E401E18
:10291000E086EDE7FEF732FB0299401A06998842FD
:1029200004D306980021C943884202D106980028A2
:10293000DED1684607705120255452E060680028B7
:1029400003D068464088012809D1206B00782168AF
:102950000873206B401C2063E08E401EE086E08EF2
:10296000002822D02068806880070AD5206B007874
:1029700021680873206B401C2063E08E401EE086B7
:10298000EDE7FEF7FBFA0299401A0699884204D354
:1029900006980021C943884202D106980028DED15A
:1029A00068460770512025541BE0029A06992000C2
:1029B00000F089F8002801D020206065A068002878
:1029C00007D101962068C068019020688068019056
:1029D0000198606D002802D06846057001E0512022
:1029E0002554502026546846007807B0F0BDFFB546
:1029F00081B004000A9F049DFEF7C0FA281AC51989
:102A0000FEF7BCFA06004848006820214843000D44
:102A100068430090206880680299014002988142D2
:102A200001D1012000E000206946097B884247D09F
:102A300004980021C9438842ECD0FEF79FFA801B1E
:102A4000A84201D2002D32D120684068E02188439D
:102A50002168486060688221490088420FD1A068DF
:102A600080210902884204D0A0688021C9008842E0
:102A700005D12068006840218843216808608020D3
:102A80008001A16A81420AD121680968274A0A4067
:102A900021680A60216809680843216808600120EC
:102AA00051216054002050216054032009E0009817
:102AB000002801D1002005000098401E0090A9E7E1
:102AC000002005B0F0BD7CB504000E0015001648CE
:102AD00000681821FEF7D1FF1549FEF7CEFFFA2155
:102AE00089004843019060688221490088420ED1E4
:102AF00000953300002280212000FFF778FF002896
:102B00000FD0606D20210143616503200AE0019828
:102B1000002806D00198401E0190206880680006B9
:102B2000F5D4002076BD000004000020FFDFFFFF89
:102B300040420F0010B50400002C01D101201EE01E
:102B40003920205C002805D1002038216054200065
:102B5000FFF76EFB022039216054211D206800F030
:102B600079F901203E2160543A2160543B216054A0
:102B70003C2160543D21605439216054002010BD37
:102B800010B501003920085C012801D0012028E09F
:102B900002203923C85401200B68DB6803430C680A
:102BA000E3600B688024E405A34207D00B680D4C5A
:102BB000A34203D00B680C4CA3420CD10B689B685A
:102BC0005B075B0F1A00062A0AD00B681B681843C4
:102BD0000B68186004E00B681B6818430B681860EA
:102BE000002010BD000801400014014070B5040031
:102BF000022620680069304000281CD02068C06888
:102C00003040002817D00220C0432168086101200D
:102C10002076206880698007800F002803D020007C
:102C200001F088FA05E0200001F085FA200001F0AB
:102C300083FA0020207604252068006928400028B7
:102C40001CD02068C0682840002817D00420C0434A
:102C500021680861267620688069C02189000140CA
:102C6000002903D0200001F065FA05E0200001F002
:102C700062FA200001F060FA002020760826206821
:102C80000069304000281BD02068C0683040002810
:102C900016D00820C0432168086125762068C069E5
:102CA0008007800F002803D0200001F043FA05E0E0
:102CB000200001F040FA200001F03EFA00202076CA
:102CC000102021680969014000291CD02168C968C9
:102CD0000840002817D01020C043216808612676DC
:102CE0002068C069C02189000140002903D020006C
:102CF00001F020FA05E0200001F01DFA200001F0AB
:102D00001BFA002020760120216809690140002972
:102D10000BD02168C9680840002806D00120C043B4
:102D200021680861200000F0BAFB40202168096991
:102D3000014000290BD02168C9680840002806D04E
:102D40004020C04321680861200001F0F6F970BD01
:102D5000FEB504000D000027684607703820205C8F
:102D6000012801D1022072E00126382026540220D9
:102D700039216054206880687721884334490140B4
:102D800001910198216888602868002852D0102895
:102D900050D020284ED030284CD0402840D0502849
:102DA0002AD0602832D0702809D080214901884279
:102DB00004D080218901884210D040E041E0EB68D6
:102DC0006A68A968206800F09FF820688068772109
:102DD0000143019101982168886032E0EB686A68DC
:102DE000A968206800F090F8206880688021C901F7
:102DF00001432068816024E0EA686968206800F087
:102E000052F85021206800F077F81AE0EA68696803
:102E1000206800F05AF86021206800F06DF810E09A
:102E2000EA686968206800F03EF84021206800F0F8
:102E300063F806E02968206800F05EF801E0684663
:102E40000670392026543820275468460078FEBD85
:102E5000FF00FFFF10B502688023DB05984205D014
:102E6000234CA04202D0234CA04204D17024A243A0
:102E700014004A682243984205D01D4B984202D064
:102E80001C4B984203D1274B1340CA681A43802336
:102E90009A430B69134303608A68C2620A688262BC
:102EA0000122426110BD30B4036A046A0125AC43BB
:102EB00004628469F025AC43150125430A24A34329
:102EC0000B438561036230BC704730B4036A102441
:102ED000A34303628469036A134D254014032C4302
:102EE000A025AB430D011D438461056230BC7047D2
:102EF0000008014000140140826870239A430723B0
:102F00000B4313438360704770B48468074D2540BA
:102F100016000E431C0234432C43846070BC70477F
:102F200000000000FFFCFFFFFF0FFFFFFF00FFFF9F
:102F300070B502003820105C012801D1022029E080
:102F400001203823D05402233924135513685D68B7
:102F500013689B687024A5430C682C4315686C604B
:102F600015688026F605B54207D015680A4EB542A9
:102F700003D01568094EB54206D18025AB431D002C
:102F80004B682B431568AB60392550550020382518
:102F90005055002070BD00000008014000140140A1
:102FA00070B50400002C01D101202DE01A482168E1
:102FB00008601A4821680860606821684860A06855
:102FC00021688860FDF7DAFF050007262068C068E1
:102FD000304000280BD0FDF7D1FF401B2B28F4D345
:102FE0002068C0680640002EEFD003200CE0206867
:102FF0000069E168884203D0E0682168086102E066
:10300000074821680860002070BD010004480A6874
:103010001060002070470000CCCC00005555000027
:10302000AAAA000030B5002211000B0084889BB2D0
:10303000A34206D2130004680D00ADB26355491CCB
:10304000F3E7828030BDF0B5020000252E002B0092
:1030500028002C0026000F00F6B2FFB2BE4220D29C
:103060002600F6B2965D302E0ADB2600F6B2965D9B
:103070003A2E05DA2600F6B2965D303E330001E0C6
:103080002E0033002600F6B2002E03D11E00F6B249
:10309000300004E00A2670431E00F6B28019641C5A
:1030A000D8E7F0BD704738B505000C00200001F0EE
:1030B00045F8020092B221002800C0B2FFF7F2FFEB
:1030C00031BD70B506000D001400220092B2290037
:1030D0003000C0B2FFF7E6FF114A1068002804D0A4
:1030E000210089B228001268904770BD70B50600B3
:1030F0000C00200001F022F8020092B22100300002
:10310000C0B2FFF7CFFF064D2868002807D0200087
:1031100001F014F8010089B220002A68904770BDC0
:103120006808002070477047F3B583B0060000259B
:10313000ED4300273A007E4803C86B4603C3083BB3
:103140003C002000B18880B2884223D23068210040
:1031500089B2405C3D2805D03068210089B2405CCE
:103160003F2800D116E03068210089B2405C412838
:103170000EDB3068210089B2405C5B2808DA3068D9
:10318000210089B2405C20303168220092B288541C
:10319000641CD6E73800C0B2072861DA31008A48DB
:1031A0003A00D2B210235A438018083000F0CDFF05
:1031B0000500002D52D4844A3800C0B21021484383
:1031C00010184068002849D03800C0B21021484388
:1031D0001018808928180290029D2800B18880B2BA
:1031E000884222D23068290089B2405C0D280CD177
:1031F000280080B2B188491E884206DA306829006A
:1032000089B2401840780A280FD068468188802902
:1032100009D231682B009BB2C95C009B8488195588
:103220008188491C81806D1CD7E76846007C8C49E9
:1032300008706846007C401E012802D9801E0AD012
:103240000AE0002168463B00DBB210246343D21839
:103250005268904700E0FFE7012002E07F1C99E7F9
:10326000002005B0F0BD30B591B005000C0002A8FB
:103270007C493C2201F062F80A20694688800023DC
:103280007948426801A902A801F002F902200090E1
:10329000002376A201A902A801F072F9FA239B008B
:1032A0006846828802A97248FCF74AFF11B030BD17
:1032B000F8B505000E0000200700296809783029BC
:1032C00034DB296809783A2930DA04000100C9B2F0
:1032D000AA8889B291420FD229680200D2B2895CD1
:1032E000302905DB29680200D2B2895C3A2900DB6B
:1032F00002E0641C401CE9E72100C9B22868FFF71E
:10330000A2FE0700380000F097F9012807D1FA2340
:103310009B00042257495648FCF712FF06E0FA23A7
:103320009B00072254495248FCF70AFFF1BD0000F8
:10333000944C0008F8B506000F000020009031689A
:10334000097830293EDB316809783A293ADA0400F5
:103350000100C9B2B28889B291420FD2316802002D
:10336000D2B2895C302905DB31680200D2B2895CB7
:103370003A2900DB02E0641C401CE9E72100C9B2E5
:103380003068FFF760FE00900098FA2189008842BB
:1033900018D2354D697889B2009880B200F0E9F80A
:1033A00036480178012905D10221287880B200F041
:1033B000F9FB07E00078022804D10221687880B286
:1033C00000F0F0FBF1BD000058490008F8B5060018
:1033D0000F00002000903168097830293EDB316809
:1033E00009783A293ADA04000100C9B2B28889B2F0
:1033F00091420FD231680200D2B2895C302905DBDC
:1034000031680200D2B2895C3A2900DB02E0641C18
:10341000401CE9E72100C9B23068FFF714FE0090B4
:103420000098FA218900884218D20F4D009989B27C
:10343000287880B200F09DF810480178012905D164
:103440000221287880B200F0ADFB07E00078022866
:1034500004D10221687880B200F0A4FBF1BD000025
:1034600077080020444A0008B00100200D0A00003F
:1034700078060020844C00088C4C0008400800208E
:1034800001000120704710B504008E48FFF7BDFD14
:103490002100C9B2BC48FEF780FD012010BD10B567
:1034A00004002068A9490968884207D1B748007814
:1034B000012803D100F0F2FA00F001F810BD70B558
:1034C000A34C2079002813D0022801D036D34FE036
:1034D000002060802080A024E4050022022120003A
:1034E000FEF79BFC002210212000FEF796FC3FE037
:1034F000A61C6088401C30806088CE49497889B21B
:1035000088421AD3A24D2878002808D10120607182
:1035100001221021A020C005FEF77FFC07E000205B
:10352000607101220221A020C005FEF776FC6079BF
:103530002870002030800120207119E02088401C74
:1035400020802088BB49097889B288420FD30025A2
:1035500028002071A026F605002202213000FEF787
:103560005CFC002210213000FEF757FC2580FFE7AD
:1035700070BD7CB505000C00042200216846FEF7F2
:1035800038FB0026280080B2002839D0FA208000BD
:10359000290089B2814233DA210089B200292FD073
:1035A000210089B281422BDAA24829000170210052
:1035B0004170A14902784A80407888806846290095
:1035C00089B2090A3200D2B28154761C2900320035
:1035D000D2B28154761C210089B2090A3200D2B2DB
:1035E0008154761C21003200D2B28154761C320004
:1035F000D2B292B26946914801F044F8012000E04D
:10360000002076BD00B58D480078C0B2AA2812D13E
:103610008B4800780020874908700A78894B1B780E
:1036200013430B70884A12784A1C107048788749F7
:1036300009780143117000BDF8B5060000252F0080
:10364000042200216846FEF7D4FA2C002800C0B2FC
:1036500008280CDA7E482900C9B204225143405898
:10366000864202D10120070001E06D1CEEE7380020
:10367000C0B2012823D16F4D6E606846310E220022
:10368000D2B28154641C3100090C2200D2B28154A0
:10369000641C310A2200D2B28154641C3100220021
:1036A000D2B28154641C2200D2B292B269466948F7
:1036B00000F0E8FF686800F04DF8FDF7FDFC380009
:1036C000C0B2F2BD3008002038B5002004006149C6
:1036D0000978C9B2AA291AD156490A1D5E4B1B782E
:1036E000DBB21B0613604B685C4D2D78EDB22D04E8
:1036F0001D4315604B685A4D2D78EDB22D021D43C8
:1037000015604968574B1B78DBB20B43136001000F
:10371000C9B208290EDA4E490200D2B204235A4334
:103720008958444A5268914202D101210C0001E0BB
:10373000401CECE72000C0B2012805D13D4840689C
:1037400000F008F8FDF7B8FC31BD0000D8070020F4
:103750004808002010B50400434844490160446013
:103760000021816080229201C26001610C224261CD
:103770008161C16101624162FCF7A2FC002801D0B5
:10378000FEF734FA10BD000070010020730800201D
:103790007608002080B5FFF735FFFFF795FF01BDE4
:1037A000F8B500242000270025002800C0B2022818
:1037B0003DDA2F4E2800C0B210214843301840781F
:1037C000012832D1012007002800C0B2102148434F
:1037D00030184068002810D0FDF7D0FB2900C9B28E
:1037E0001022514371184968401A2900C9B21022A9
:1037F000514371188968884217D320002900C9B243
:103800001022514371184870FDF7B8FB2900C9B266
:1038100010225143711848602800C0B22900C9B273
:10382000102251437118C96888476D1CBDE73800E4
:10383000C0B2F2BDB001002040080020007C0008AA
:10384000027C0008037C0008047C0008057C00085A
:103850009001002000780008027800080378000832
:10386000047800080578000878060020004400402D
:103870007001002001000120704710B504002100F4
:10388000C9B29448FEF789FB012010BD70B5040051
:103890000025914891490978465C01213000C0B269
:1038A00000F022F92100C9B28A48FEF776FB012018
:1038B00070BD00B501008A480278002A09D00022B4
:1038C00013000370874B1A71B54A137843805278FE
:1038D0008280012000BD80B5002000F029F801BDE4
:1038E00080B5022000F024F801BD80B5042000F06E
:1038F0001FF801BD80B5012000F01AF801BD80B5A8
:10390000032000F015F801BD80B5052000F010F887
:1039100001BD80B5062000F00BF801BD80B5072081
:1039200000F006F801BD80B5082000F001F801BDE7
:1039300010B5040003216748FEF72FFB68480078A4
:10394000002803D002280BD005D30EE02000C0B21F
:1039500000F00CF809E02000C0B200F024F804E008
:103960002000C0B200F057F8FFE710BD10B504000A
:103970002000C0B2002803D0401E072811D911E052
:10398000574801210170864A117841805178818021
:103990000220544908710221107880B200F002F927
:1039A00000E0FFE710BD10B504002000C0B2002801
:1039B0000BD0401E13D0401E012811D9801E0128B3
:1039C0001BD9801E022824D924E002204449087013
:1039D00002217348407880B200F0E4F81AE019E060
:1039E0003F484188774A914202DA4188491C418028
:1039F0000221408800F0D6F80CE0394841880229BD
:103A000002DB4188491E41800221408800F0CAF84B
:103A100000E0FFE710BD38B504002000C0B2002868
:103A20000BD0401E1ED0401E01281CD9801E01282C
:103A300026D9801E02282FD92FE00025284805709E
:103A4000574942880B789BB29A4204D182884978C0
:103A500089B28A4203D081884088FFF78AFD2148D5
:103A600005711AE019E01E488188564A914202DA2F
:103A70008188491C81800221808800F093F80CE045
:103A800017488188022902DB8188491E8180022132
:103A9000808800F087F800E0FFE731BD00B5B84846
:103AA0000178491C017001780A2912D100210170A6
:103AB000B448017901290AD00BD3032901D003D3DB
:103AC00007E00221017104E00121017101E00321FD
:103AD000017100BD10010020500100207408002079
:103AE00040080020480800207CB506000D00012297
:103AF00000216846FEF77DF868460670A024E405BC
:103B0000002240212000FEF788F90A23012269469D
:103B10009D48FEF77BFE012240212000FEF77DF943
:103B20002800C0B2012804D039D3032825D012D3ED
:103B300035E00122802189002000FEF76EF9012284
:103B40008021C9002000FEF768F9002202218F4879
:103B5000FEF763F923E0012202218C48FEF75DF9AC
:103B600001228021C9002000FEF757F900228021A0
:103B700089002000FEF751F911E00122022183485B
:103B8000FEF74BF90122802189002000FEF745F95C
:103B900000228021C9002000FEF73FF9FFE773BD36
:103BA000B001002000B5020092B2FA239B009A42B5
:103BB00002DA744A108002E0024A724B1A80714A9B
:103BC000917000BDE703000070B5002570480078D3
:103BD000002809D16F48007805006A48017928005B
:103BE000C0B2FFF781FF7FE0664CE078012804D087
:103BF0007AD3032852D020D376E0A078012807D1C9
:103C0000654E20880A21FDF735FF705C050006E04F
:103C1000624E20880A21FDF72DFF705C050001210E
:103C20002800C0B2FFF760FF20880A2802DAA078D7
:103C3000022801D10220E07056E0A07802280BD1C2
:103C40000A2620883100FDF715FF3100FDF712FF2D
:103C50005148405C05000AE00A2620883100FDF743
:103C600009FF3100FDF706FF4C48405C0500208845
:103C70000A2802DAA078022804D102212800C0B262
:103C8000FFF732FF2088642802DAA078032802D1E7
:103C90000320E07001E00120E07025E0A078032817
:103CA0000AD120886421FDF7E5FE0A21FDF7E2FE36
:103CB0003948405C050009E020886421FDF7DAFE00
:103CC0000A21FDF7D7FE3548405C050020886428AE
:103CD00002DAA078032804D103212800C0B2FFF73C
:103CE00003FF0120E070FFE770BD7047F8B50024C6
:103CF0002000270025002800C0B204283DDA284E05
:103D00002800C0B21021484330184078012832D131
:103D1000012007002800C0B2102148433018406835
:103D2000002810D0FDF72AF92900C9B2102251430A
:103D300071184968401A2900C9B2102251437118FC
:103D40008968884217D320002900C9B21022514344
:103D500071184870FDF712F92900C9B210225143B9
:103D6000711848602800C0B22900C9B2102251431E
:103D70007118C96888476D1CBDE73800C0B2F2BD34
:103D80007508002068010020800700200004005012
:103D900040080020C40100205C01002050010020E8
:103DA0001001002070B50400FDF7E8F805002600BA
:103DB0000020C043864202D0044800783618FDF740
:103DC000DDF8401BB042FAD370BD00BFC001002037
:103DD00001000120704770B50600A24C0121A0200F
:103DE000C005FEF70DF820709F4D28782178884295
:103DF00003D1FDF7C3F89D490860FDF7BFF89B4963
:103E00000968401A462801D22878207020780028B6
:103E10000AD1C0482121415C002919D1944981620D
:103E20000221FEF7BAF813E02878002808D1B94833
:103E3000816A642902D0FFF74EFD01E08C4981625E
:103E4000B4482121415C012902D10221FEF7B9F8D1
:103E5000207828703100C9B2AE48FEF79EF80120E4
:103E600070BD38B504000121A020C005FDF7C8FFD2
:103E7000002815D1A74DA86A7D49884202D1FFF7D5
:103E800048FD01E0FFF736FD01212800FEF799F813
:103E90006420A8622100C9B22800FEF77EF803E082
:103EA00001219C48FEF779F8012032BD70B506006B
:103EB000994C8021C9019948FDF7A2FF2070984DC7
:103EC00028782178884203D1FDF758F89549086091
:103ED000FDF754F893490968401A462801D228781A
:103EE0002070207800280BD18A484121415C0029AC
:103EF0001BD1FA21890081640421FEF74EF814E0F9
:103F00002878002809D18348816C642902D0FFF702
:103F1000E7FC02E0FA21890081647E484121415C8E
:103F2000012902D10421FEF74CF8207828703100D5
:103F3000C9B27848FEF731F8012070BD38B50400E9
:103F40008021C9017548FDF75BFF002816D1714D2E
:103F5000A86CFA218900884202D1FFF7DFFC01E05A
:103F6000FFF7CDFC03212800FEF72BF86420A8649E
:103F70002100C9B22800FEF710F803E003216548CC
:103F8000FEF70BF8012032BD70B50600664C8021AB
:103F900009026248FDF734FF2070644D28782178CB
:103FA000884203D1FCF7EAFF61490860FCF7E6FFAD
:103FB0005F490968401A462801D228782070207885
:103FC00000280BD153486121415C00291BD1FA2103
:103FD000890081660621FDF7E0FF14E028780028BB
:103FE00009D14C48816E642902D0FFF77EFC02E0C3
:103FF000FA218900816647486121415C012902D18B
:104000000621FDF7DEFF207828703100C9B2414853
:10401000FDF7C3FF012070BD38B5040080210902FF
:104020003E48FDF7EDFE002816D13A4DA86EFA2164
:104030008900884202D1FFF776FC01E0FFF764FCBB
:1040400005212800FDF7BDFF6420A8662100C9B244
:104050002800FDF7A2FF03E005212E48FDF79DFF94
:10406000012032BD6E080020C10100205808002048
:10407000B80B0000010001207047010001207047CB
:10408000F8B500242000270025002800C0B2092828
:104090003DDA204E2800C0B2102148433018407845
:1040A000012832D1012007002800C0B21021484366
:1040B00030184068002810D0FCF760FF2900C9B212
:1040C0001022514371184968401A2900C9B21022C0
:1040D000514371188968884217D320002900C9B25A
:1040E0001022514371184870FCF748FF2900C9B2EB
:1040F00010225143711848602800C0B22900C9B28B
:10410000102251437118C96888476D1CBDE73800FB
:10411000C0B2F2BD080000206F0800200008005067
:10412000C20100205C08002070080020C3010020AC
:10413000600800207047704770477047431C017843
:10414000401C0942FBD1C01A7047F3B583B0070089
:104150000020002400216A46518100216A46118115
:1041600001216A46517100216A46917100216A4617
:10417000117139680978212902D101216A4611712A
:104180000025280000B204998988884278DA3868C6
:1041900069460979405C049909682A0012B2895C71
:1041A00088426BD101206946487168460079401CFD
:1041B00004000026300069468871684606812000A8
:1041C00000B2B98888424EDA3868210009B2405CF2
:1041D0007C2821D1029800B2002805D1012069462F
:1041E000887128196946488102A80090029B1B1417
:1041F000049A39002000401C00B200F05BF86946C8
:10420000487168464079012806D16846017928003E
:1042100000B200F03DF839E068468079002810D1FE
:104220003868210009B2405C049909682A0012B27A
:104230008918220012B2895C884202D06846467111
:1042400011E068468079002801D1641CB7E720009E
:10425000029909B200B2884203DA029800B204005F
:10426000ADE7641CABE768464079012806D1684693
:104270000179280000B200F00BF807E06D1C80E720
:10428000684601790020C04300F002F805B0F0BD97
:1042900000B502000800C0B2002802D1100000B230
:1042A00007E0100000B2002802D40020C04300E064
:1042B000002000BDF8B50300069C012000251E006B
:1042C00036B22F003FB2F6198F88BE4233DA0E683D
:1042D0001F003FB2F6192F003FB2F65D7C2E03D1CE
:1042E0005E19268000B227E09788BC46009F3FB247
:1042F0002E0036B2BE196746B74205DA9688761C9C
:1043000026800026F64330000E681F003FB2F619E3
:104310002F003FB2F75DBC461768009E36B2BF194A
:104320002E0036B2BE5D6746B74202D00026F64385
:1043300030006D1CC3E700B2F2BDFEE770B4103A66
:1043400003D378C9103A78C0FBD2530701D318C9F8
:1043500018C001D508C908C0D20704D30B88038050
:10436000891C801C002A01D50B78037070BC704733
:1043700000B501000800C0B2002801D101201FE0F3
:104380000800C0B2FF2801D10A2019E00800C0B21D
:10439000FE2801D1642013E00800C0B2FD2802D13C
:1043A000FA2080000CE00800C0B2FC2801D10548CA
:1043B00006E00800C0B2FB2801D1034800E001205C
:1043C00000BD000010270000A0860100F7B582B0F4
:1043D000002001000A260027039A1588049A002A63
:1043E00008D504994C422D21029A2B009BB2D1543E
:1043F0006D1C00E0049C2000002132003B00FDF712
:10440000EEFA002901D1002808D0300039000A2234
:104410000023FDF7CBFA06000F00ECE7300039006F
:104420000A220023FDF7DBFA06000F00002F01D15E
:10443000002E27D02000002132003B00FDF7CFFAEC
:10444000303002992A0092B288546D1C200000215D
:10445000009001912000002132003B00FDF7BFFADF
:1044600032003B00FDF7A2FA009A019B121A8B4121
:104470001400300039000A220023FDF7B0FA0600CC
:104480000F00D3E7039805802800C0B205B0F0BD47
:10449000FEB582B00700002420006946C8802000D5
:1044A00026002100029A12886B469A80039A002AFD
:1044B00003D503984242009201E003980090039ACA
:1044C00002993800FFF782FF0298058800980028BB
:1044D00050D06846007CFFF74BFF0099814207D21D
:1044E00000990A2251430091641C00990029F4D1DB
:1044F0002100C9B200291FD029000A00D2B2BA187F
:10450000521E12782D2A06D00A00D2B26B469B8822
:1045100092B29A4206D130220B00DBB2FA546D1CE3
:10452000641EE5E70A00D2B2BA18521E12780B00D8
:10453000DBB2FA54491EE0E70A21FDF79EFA0600B5
:1045400028000400002E15D030000A21FDF795FA4E
:1045500006002000C0B23818401E00782100C9B201
:104560007854641E002EEDD12E202100C9B278545B
:104570006D1CE7E7029805802800C0B205B0F0BDC9
:10458000F1B5069800242500ADB285420ED20D8803
:104590002E00761C0E801E00B6B22700BFB2F619A0
:1045A000975D009EADB27755641CECE7F1BDFEE768
:1045B000F7B584B0002635000020002102AA03C20E
:1045C000083A0196012069460870059C049F0698E8
:1045D0008007800F002829D106988008002102AAB0
:1045E00003C2083A00F0AFF8FA20800000F0EAF8C1
:1045F00035002A0092B2002302A803C88B4213D8C8
:1046000001D3824210D220680190019A3900022021
:1046100000F074F86946087068460078012803D0F5
:104620003F1D241D6D1CE4E700F0BDF868460078CE
:1046300007B0F0BDF8B50400012700F084F80500CC
:10464000FA26B600300000F0BDF82800C0B20028FD
:1046500002D1200000F068F9300000F0B3F8060045
:1046600006480168064A0A40026001680822914330
:10467000016000F098F83000C0B2F2BD04200240A2
:10468000FFFDFFFFF0B5C1B007000E0015000024CC
:1046900020006946088080225200002101A8FDF711
:1046A000A8FA3800FFF7C6FF01A8AA210170290067
:1046B000417021002A0089B292B2914208D22100B1
:1046C00089B2715C220092B282189170641CF0E78A
:1046D000AD1C280005002D1D80B20421FDF7CAF98C
:1046E0006D1A2A0092B201A93800FFF761FF002875
:1046F00001D0002000E0012041B0F0BDF7B582B04C
:104700000120694608702D4C217C012901D102202D
:1047100017E02B4F3870474D280000F053F8060083
:104720003000C0B2002808D10020606104980399CD
:104730000860280000F046F80600002038703000BD
:10474000C0B205B0F0BD10B501223B48036813406C
:10475000002B10D0EFF31083190072B66A4B6B4C2C
:104760001C606B4C1C6081F3108803681A40002A9F
:1047700001D0012016E0022203681340002B10D064
:10478000EFF31083190072B6624B634C1C60634CEC
:104790001C6081F3108800680240002A01D00120CB
:1047A00000E0002010BD5E48016802220A4302605A
:1047B000016801220A4302600020704718080020A7
:1047C0002808002038B50400FCF7D8FB05004D4848
:1047D0000168C9070CD50020C0438442F7D0002CE3
:1047E00004D0FCF7CBFB401B8442F0D203201FE037
:1047F000022102680A40002A00D001600168C90550
:1048000011D4016889050ED4016849050BD40168EB
:10481000090508D40168890405D40168890302D414
:104820000068C00303D500F009F8012000E0002073
:1048300032BD000050C300000420024030B500210A
:10484000802252002F4803681340002B07D0354BBD
:104850005C69022525435D610B001100194380232B
:104860009B0002681A40002A07D02E4A546901258D
:10487000254355610A00190011438023DB000268BB
:104880001A40002A07D0274A546908252543556154
:104890000A001900114380231B0102681A40002AF4
:1048A00007D0204A54690425254355610A001900A0
:1048B000114380239B0102681A40002A07D0194A3D
:1048C00054691025254355610A00190011430268F7
:1048D000920307D52023134A54691C4354610A00EC
:1048E0001900114380235B0202681A40002A07D096
:1048F0000C4A54694025254355610A0019001143AB
:10490000016030BD182002400C200240EFCDAB8981
:104910000504030210200240BFAE9D8C161514132F
:10492000042002401808002010B40021094A5161F7
:10493000074A13688024A4001C43146013680824E9
:104940001C431460C209D201116010BC7047000002
:104950000420024018080020000000002531000853
:104960003C4C00080800000001000000273100084E
:10497000484C0008080000000200000067320008F0
:10498000004C00080C00000003000000B1320008D9
:10499000104C00080C000000040000003533000833
:1049A000744C00080700000005000000CD3300082B
:1049B000544C000808000000060000000000000041
:1049C0007C4C00080600000000B5FEE700B5FEE7DD
:1049D0007047704780B510480168491C01600F4856
:1049E0000168491C01600168052907D300210160A5
:1049F0000B480078012801D1FFF7E6F800F016F81F
:104A000001BD80B50748FEF7F1F801BD80B5064845
:104A1000FBF746FC01BD000064080020540800209C
:104A200073080020D807002078060020034801689A
:104A3000034A127889180160704700BF50080020AF
:104A4000C001002042617564726174653A20000003
:104A50000000000000000000000000000000000056
:104A60000000000000000000000000000000000046
:104A70000000000000000000000000000000000036
:104A800070B40123002413E00168001D194202D014
:104A90004D466D1E49190C60091D121F042AFAD2D9
:104AA0000D00960701D50C80AD1C1A4000D02C706B
:104AB0000268001D002AE7D170BC704710B5074995
:104AC00079441831064C7C44163404E0081D0A6809
:104AD000891888470100A142F8D110BD08000000E4
:104AE000240000009DFFFFFFB4060000C801002065
:104AF0000000000047C5FFFFB6010000E60100000E
:104B000000000020755F6170705F636F6D3A206513
:104B100076656E742075617274206572726F722191
:104B20000D0A00000D0A3D3D3D3D3D3D3D3D3D3DF5
:104B30003D3D3D3D3D3D3D3D3D3D3D3D3D3D3D0DD5
:104B40000A00000000F00DF8002801D0FFF7B6FFC2
:104B500000BF00BF002000BF00BFFCF7E7FF00F070
:104B600002F80120704780B500F002F801BDFEE7B1
:104B70000746384600F002F8FBE7FEE780B500BFC5
:104B800000BF024A11001820ABBEFBE7260002005E
:104B90003D3D3D3D204D41494E2050524F475241F1
:104BA0004D494E47203D3D3D3D0D0A003D3D3D3DBB
:104BB0003D3D3D3D3D3D3D3D3D3D3D3D3D3D3D3D25
:104BC0003D3D3D3D3D0D0A00535654485F53564D03
:104BD0005F4F58595F56315F315F31004441592072
:104BE0004C412056455253494F4E3A200000000098
:104BF000000000000000000001020304060708098D
:104C000061742B62617564726174653F000000001D
:104C100061742B62617564726174653D000000000F
:104C20000148804701480047AD4C0008614C00082E
:104C3000030406080C1018203000000061742B7368
:104C40006572693D0000000061742B736572693FF5
:104C50000000000061742B667265653D0000000075
:104C600000BF00BF00BF00BFFFF76CFF00000000E7
:104C70000102030461742B72756E3D0061742B6533
:104C80006E6400004F4B0D0A000000004552524F69
:104C9000520D0A000007002000000000FEE7FEE7BA
:104CA000FEE7FEE7FEE7FEE7FEE7000070472304AD
:104CB000000140062000000100000500049003D11F
:104CC0003D0008011012D710830200109003633ECC
:104CD0000008032012AD1092042090033D3F00080D
:104CE0000520128910920620900319400008072021
:104CF000127510920820127B1092000113992290D5
:104D00005111121408439F229021012110130723EF
:104D1000909131121B1052043112E819122B10928B
:104D20000520433123906101123710B405C84B00B0
:104D3000081300000843753878210C2108877B3858
:104D4000082158438D3878211012883D12B3103055
:104D500014C0F9A4B0999282F880900000407924A0
:104D6000301912027800106DD30103608781346816
:104D700012F40812871016B049100860090000C02C
:104D8000120000802519124B0412960412E104400F
:104D900003C2010042051827C801B5114F110102D5
:014DA000BF53
:0400000508004C6142
:00000001FF
