:020000040800F2
:10000000F03700201D050108B1FB0008B3FB000814
:10001000B5FB0008B7FB0008B9FB000800000000B2
:10002000000000000000000000000000BBFB000812
:10003000BDFB000800000000BFFB0008C1FB00087A
:100040006D080108710801087508010879080108A0
:100050007D08010881080108850801088908010850
:100060008D0801089108010895080108D1FB0008D6
:10007000990801089D080108A1080108DBFB000898
:10008000A5080108A9080108AD080108B108010880
:10009000E5FB0008B5080108B9080108BD0801081A
:1000A00000000000C1080108C5080108C9080108CE
:1000B000EFFB0008CD080108D1080108D5080108A8
:1000C000D9080108DD080108E1080108E508010870
:1000D000E9080108F9FB0008ED080108F10801082A
:1000E000F508010803FC0008F9080108FD080108EB
:1000F00001090108000000000509010809090108BB
:1001000000000000000000000D09010811090108AD
:1001100015090108190901081D090108000000005E
:100120002109010810B5040001F0B7FC0121DFF836
:10013000940802F08BF8012010BD10B50400DFF820
:100140008808007800280AD001280BD002280CD09B
:1001500004280DD005280ED006280FD011E001F09C
:1001600071FE0EE001F02AFE0BE001F0D3FD08E085
:1001700001F09AFD05E001F051FD02E001F0FEFC06
:10018000FFE72100C9B2DFF83C0802F06EF8012059
:1001900010BD10B50400DFF830180878002807D02B
:1001A0000020087001F079FC00F0BAFF00F0E3FED7
:1001B000012010BD10B5040000220421DFF8080B57
:1001C00002F013FA012010BD80B5322000F0C4FE09
:1001D000002000F04DF801BD80B5322000F0BCFEDB
:1001E000022000F045F801BD80B5322000F0B4FED9
:1001F000042000F03DF801BD80B5322000F0ACFED7
:10020000062000F035F801BD80B5012000F030F87F
:1002100001BD80B5032000F02BF801BD80B505209D
:1002200000F026F801BD80B5072000F021F801BDDF
:1002300080B5322000F090FE082000F019F801BDD2
:1002400080B5322000F088FE092000F011F801BDD1
:1002500080B5322000F080FE0A2000F009F801BDD0
:1002600080B5322000F078FE0B2000F001F801BDCF
:1002700010B504000221DFF84C0701F0F6FFDFF8AB
:1002800048070078002809D0022811D00BD3042891
:1002900018D012D306281FD019D322E02000C0B2F4
:1002A00000F020F81DE02000C0B200F041F818E096
:1002B0002000C0B200F06FF813E02000C0B200F0E0
:1002C000A8F90EE02000C0B200F012FA09E0200008
:1002D000C0B200F07BFB04E02000C0B200F0F8FCEC
:1002E000FFE710BD10B504002000C0B200280CD0FC
:1002F000401E11D0401E05280FD9801F0ED0401E71
:1003000013D0401E012811D911E00120DFF8B816E2
:10031000087001F095FB0AE009E008E00220DFF830
:10032000A816087001F068FB01E000E0FFE710BDCF
:1003300010B504002000C0B2002811D0022817D048
:1003400015D304281CD01AD306281AD018D308288D
:1003500018D016D30A281CD01BD30B2819D019E0AB
:100360000020DFF86416087001F097FB12E011E03E
:100370000020DFF85416087001F08FFB0AE009E056
:1003800008E007E00220DFF84016087001F034FBB7
:1003900000E0FFE710BD38B504002000C0B200281F
:1003A0001AD0022865D063D3042800F0A380C0F0DF
:1003B000A080062800F0E380C0F09C80082800F0B0
:1003C0002381C0F0DC800A2800F02181C0F01C816C
:1003D0000B2800F01C811BE1DFF8EC556878002841
:1003E00008D0022815D00CD3042822D019D3052810
:1003F0002AD03AE0012068700120DFF8D018487652
:1004000033E0022068700120DFF8C01881F8250071
:100410002BE0032068700120DFF8B01881F831006C
:1004200023E0042068700120DFF8A01881F83D0067
:100430001BE005206870DFF89408012180F849105E
:10044000012180F8611010E000F095FD012804D131
:100450000320287001F0B8FA06E001F0CDFA01207F
:10046000DFF8681881F86D00FFE701F091F8CFE040
:10047000CEE0DFF854054178002908D0022914D0D5
:100480000CD3042920D017D3052925D02EE0002134
:10049000017000F070FD01F000FB27E000214170C9
:1004A0000120DFF82818487320E001214170012065
:1004B000DFF81818487619E0022141700120DFF8B2
:1004C0000C1881F8250011E0032141700120DFF8AC
:1004D000FC1781F8310009E004214170DFF8EC07D6
:1004E000012180F83D10012180F8551001F050F8ED
:1004F0008EE08DE0DFF8D0044078002808D0022894
:1005000018D00ED3042827D01DD305282DD035E0D0
:10051000DFF8E40A018A092902DA018A491C01820A
:100520002CE0DFF8D40A418A092902DA418A491C01
:10053000418223E0DFF8C00A818A092902DA818A30
:10054000491C81821AE0DFF8B00AC18A092902DA5F
:10055000C18A491CC18211E0DFF89C0A018B09297C
:1005600002DA018B491C018308E0DFF88C0A418B19
:10057000092902DA418B491C4183FFE748E0DFF893
:1005800048044078002808D0022818D00ED3042848
:1005900027D01DD305282DD035E0DFF85C1A088A56
:1005A000002802D0088A401E08822CE0DFF8481A92
:1005B000488A002802D0488A401E488223E0DFF89B
:1005C000381A888A002802D0888A401E88821AE059
:1005D000DFF8241AC88A002802D0C88A401EC882C0
:1005E00011E0DFF8141A088B002802D0088B401E97
:1005F000088308E0DFF8001A488B002802D0488BF7
:10060000401E4883FFE703E002F021F800E0FFE727
:1006100031BD10B504002000C0B2002811D002285E
:1006200029D027D304282ED02CD3062844D02AD36F
:1006300008285BD040D30A2858D057D30B2855D070
:1006400055E0DFF884038178002903D002290BD01C
:1006500005D30EE00421017001F086F909E00521BF
:10066000017001F04CF904E00621017001F025F958
:10067000FFE73CE03BE00020DFF84C13087001F09E
:100680000CFA34E033E0DFF840038178012902D02E
:10069000022908D00FE000218170DFF8C80A807BB2
:1006A00001F08EFC07E001218170DFF8B80A807E3E
:1006B00001F086FCFFE71AE0DFF80C0381780029DF
:1006C00002D0012908D010E001218170DFF8940ADE
:1006D000807E01F075FC08E002218170DFF8840A59
:1006E00090F8260001F06CFCFFE700E0FFE710BD8A
:1006F00010B504002000C0B200281CD0022800F071
:100700008980C0F08680042800F0B280C0F0AF80FD
:10071000062800F00081C0F0AB80082800F050816E
:10072000C0F0F9800A2800F04B81C0F049810B2805
:1007300000F0468145E1A448C17800290BD0022988
:100740001AD010D3042929D01FD3062942D033D37D
:1007500007294DD05AE00421C170DFF8980A807B48
:1007600001F060FC52E00521C170DFF8880A90F8C2
:10077000260001F057FC49E00621C170DFF8740A39
:1007800090F83E0001F04EFC40E00721C170DFF818
:10079000640A90F8560001F045FC37E00021C17072
:1007A000DFF8540A4189DFF85008008802F004FCA1
:1007B000042001F037FC29E00121C170DFF838087E
:1007C0004188DFF8340A008902F0F6FB042001F0CA
:1007D00029FC1BE00221C170DFF81C0AC189DFF887
:1007E0001808808802F0C3FC042001F01BFC0DE017
:1007F0000321C170DFF80008C188DFF8FC09808997
:1008000002F0B5FC042001F00DFCFFE700F0FAFD5A
:10081000D7E0D6E06C48C1780029032903D9091F25
:10082000032905D922E00321017001F0CDF81DE074
:10083000C178042906D011D3062909D005D3072988
:1008400009D00BE00021C17008E00121C17005E072
:100850000221C17002E00321C170FFE700F060FCDB
:1008600000F0D0FD042001F0DDFBFFE7A9E0A8E0E7
:100870005548C17801290AD04CD3032918D00ED38A
:10088000052927D01DD3072937D02CD342E00021DA
:10089000C170DFF86009807B01F092FB3AE0012132
:1008A000C170DFF8500990F8260001F089FB31E0B3
:1008B0000221C170DFF83C0990F83E0001F080FB96
:1008C00028E0DFF834070188C82902DA0188491CCA
:1008D00001801FE0DFF820074188642902DA41889F
:1008E000491C418016E0DFF810078188B1F5FA7FD6
:1008F00002DA8188491C81800CE0DFF8FC06C1889F
:10090000DFF8F4289289521E914202DAC188491C0C
:10091000C180FFE755E02C48C17800290CD001299F
:1009200013D002291AD0042921D0052928D006295C
:100930002FD007293AD042E00121C170DFF8B40876
:1009400090F8260001F03CFB39E00221C170DFF88D
:10095000A40890F83E0001F033FB30E00321C170A1
:10096000DFF8900890F8560001F02AFB27E0DFF846
:1009700088160888002802D00888401E08801EE0DB
:10098000DFF874164888002802D04888401E488046
:1009900015E0DFF86406DFF86018C989491C828811
:1009A000914202DA8188491E818008E0DFF848160A
:1009B000C888002802D0C888401EC880FFE700E031
:1009C000FFE710BD580800205C33002010B504007C
:1009D0002000C0B200281CD0022800F08A80C0F09D
:1009E0008780042800F0B480C0F0B180062800F0B1
:1009F0000A81C0F0AD80082800F06381C0F0038157
:100A00000A2800F05E81C0F05C810B2800F059815B
:100A100058E1DFF8E807017900290BD002291AD044
:100A200010D3042929D01FD3062944D034D3072951
:100A300050D05AE004210171DFF8C407807B01F037
:100A4000F1FA52E005210171DFF8B40790F83200A5
:100A500001F0E8FA49E006210171DFF8A40790F8F7
:100A6000560001F0DFFA40E007210171DFF890073E
:100A700090F86E0001F0D6FA37E000210171DFF83E
:100A80007807828B418ADFF87005008902F0F3FA5B
:100A9000042001F0C7FA28E001210171DFF85807AE
:100AA000828BDFF854154989008A02F0E4FA0420A9
:100AB00001F0B8FA19E002210171DFF83C07DFF814
:100AC00038158A89418A008A02F0D5FA042001F09B
:100AD000A9FA0AE003210171DFF81C05C08902F0C0
:100AE000D7FF042001F09EFAFFE700F01EFCE9E0CA
:100AF000E8E0DFF8080701790029032903D9091F75
:100B0000032905D922E00321017000F05DFF1DE0FB
:100B10000179042906D011D3062909D005D3072964
:100B200009D00BE00021017108E00121017105E00D
:100B30000221017102E003210171FFE700F0F0FAE8
:100B400000F0F3FB042001F06DFAFFE7BAE0B9E032
:100B5000DFF8A806017901290AD053D3032918D058
:100B60000ED305292DD01DD3072942D038D349E013
:100B700000210171DFF88806807B01F021FA41E055
:100B800001210171DFF8780690F8320001F018FABF
:100B900038E002210171DFF8680690F8560001F094
:100BA0000FFA2FE0DFF850040189002902D0012953
:100BB00003D005E00121018102E000210181FFE76E
:100BC00020E0DFF834044189002902D0012903D054
:100BD00005E00121418102E000214181FFE711E0B0
:100BE000DFF814048189142902DA8189491C818182
:100BF00008E0DFF80404C189082902DAC189491C28
:100C0000C181FFE75EE0DFF8F405017900290CD02F
:100C1000012913D002291AD0042921D005292ED068
:100C200006293BD0072942D04AE001210171DFF8B3
:100C3000D00590F8320001F0C3F941E002210171C2
:100C4000DFF8BC0590F8560001F0BAF938E003214E
:100C50000171DFF8AC0590F86E0001F0B1F92FE0FA
:100C6000DFF894030189002902D0012903D005E0AF
:100C70000121018102E000210181FFE720E0DFF88E
:100C800078034189002902D0012903D005E0012120
:100C9000418102E000214181FFE711E0DFF85803C4
:100CA0008189032902DB8189491E818108E0DFF8FF
:100CB0004803C189022902DBC189491EC181FFE7BE
:100CC00000E0FFE710BD00000004024048040020DF
:100CD00038B504002000C0B200281AD0022866D01F
:100CE00064D3042800F0AC80C0F0A980062800F08E
:100CF000E680C0F0A580082800F02081C0F0DF80E9
:100D00000A2800F01B81C0F019810B2800F0168121
:100D100015E1DFF8E8546879002809D0022816D0D8
:100D20000DD3042823D01AD3062838D02AD33AE08A
:100D3000012068710120DFF8CC14487633E00220EE
:100D400068710120DFF8BC1481F825002BE0032036
:100D500068710120DFF8AC1481F8310023E0042031
:100D600068710120DFF89C1481F83D001BE005202C
:100D70006871DFF89004012180F84910012180F8A2
:100D8000611010E000F03AF906206871DFF8740491
:100D9000012180F85510012180F8791003E000202E
:100DA000287000F07AFE00F053FAC8E0C7E0DFF8E0
:100DB0004C546879002809D0022815D00DD3042896
:100DC00021D018D3062831D025D335E000F0A8F97A
:100DD0000320287000F0F8FD2EE00020687101204B
:100DE000DFF82014487327E0012068710120DFF844
:100DF0001414487620E0022068710120DFF8041402
:100E000081F8250018E0032068710120DFF8F41351
:100E100081F8310010E004206871DFF8E803012157
:100E200080F83D10012180F86D1005E00020287049
:100E300000F076F900F031FE00F00AFA7FE07EE083
:100E4000DFF8B8034079002808D0022816D00DD367
:100E5000042823D01AD3052828D02FE06648818B98
:100E6000092902DA818B491C818327E06248C18B02
:100E7000092902DAC18B491CC1831FE05E48018C3D
:100E8000092902DA018C491C018417E05A48418C77
:100E9000092902DA418C491C41840FE05648818CB3
:100EA000092902DA818C491C818407E05248C18CEF
:100EB000092902DAC18C491CC184FFE73FE0DFF851
:100EC0003C034079002808D0022816D00DD304280E
:100ED00023D01AD3052828D02FE04749888B002833
:100EE00002D0888B401E888327E04349C88B0028A6
:100EF00002D0C88B401EC8831FE03F49088C0028E1
:100F000002D0088C401E088417E03B49488C00281A
:100F100002D0488C401E48840FE03749888C002856
:100F200002D0888C401E888407E03349C88C002892
:100F300002D0C88C401EC884FFE700E0FFE731BD47
:100F4000AE48002141700021817000210171002113
:100F5000C17000214171704710B5040001220421C5
:100F6000A94801F042FBA948210089B2816303210D
:100F700001F07BF910BD10B40020A5491E4A138A68
:100F80000C88A34215D1538A4C88A34211D1938A6D
:100F90008C88A3420DD1D38ACC88A34209D1138B6C
:100FA0000C89A34205D1538B49898B4201D1012180
:100FB0000800118A022910D1518A06290DD1918A7F
:100FC00000290AD1D18A052907D1118B002904D122
:100FD000518B002901D1012108000021118200213B
:100FE0005182002191820021D182002111830021B0
:100FF0005183C0B210BC7047143200201CB50821C8
:1010000000226C46200002F0DDFD00248149888B1F
:101010000A2841DAC88B0A283EDA088C0A283BDA0B
:10102000488C0A2838DA888C0A2835DAC88C0A28CD
:1010300032DA77488A8B0280CA8B42800A8C82809F
:101040004A8CC2808A8C0281C98C4181694602889F
:101050002300DBB2CA54641C42882300DBB2CA54AA
:10106000641C82882300DBB2CA54641CC28823003B
:10107000DBB2CA54641C02892300DBB2CA54641C6C
:1010800040892200D2B28854641C2200D2B292B2AB
:101090006946614802F06EFE13BD80B55E48007877
:1010A000C0B2AA2818D15A485C490978C9B201804F
:1010B0005B490978C9B241805A490978C9B281802F
:1010C00059490978C9B2C18058490978C9B2018122
:1010D00057490978C9B241814D4801880A290EDA79
:1010E00041880A290BDA81880A2908DAC1880A2985
:1010F00005DA01890A2902DA41890A290DDB002172
:10110000018000214180002181800021C1800021D7
:10111000018100214181FFF771FF00F001F801BD5D
:101120003C483B490A8882834A88C2838A88028471
:10113000CA8842840A8982844989C1842E490A89DD
:1011400002804A8942800A8A02814A8A42818A89C7
:101150008280CA89C280898B818136490988C18190
:10116000704700000805002080B5FFF796FF01BD1D
:1011700070B50020002400252800C0B2042836DA0B
:10118000224E2800C0B200013044407801282CD102
:10119000012004002800C0B200013044406800284B
:1011A0000ED002F02BFE2900C9B209013144496872
:1011B000401A2900C9B2090131448968884214D310
:1011C00000202900C9B209013144487002F016FE1E
:1011D0002900C9B20901314448602800C0B2290081
:1011E000C9B209013144C96888476D1CC4E72000B1
:1011F000C0B270BD38050020643200205C3300208E
:10120000D405002064060020000402405808002095
:10121000383300201432002000F5030802F50308DB
:1012200003F5030804F5030805F5030806F50308AC
:1012300007F50308A809002010B504000021DFF815
:10124000EC0B01F003F8012010BD010001207047F4
:101250007FB500242000C0B20B282EDA0C25DFF861
:10126000586B2000C0B2684330444078012822D136
:101270002000C0B268433044806801900120009093
:101280002000C0B26843304403792000C0B26843F4
:101290003044C2782000C0B2684330448178DFF81F
:1012A0001C0D03F076F82000C0B205FB00F506EB3C
:1012B000050000214170641CCCE700242000C0B26E
:1012C000062831DADFF8685B0C262000C0B27043D4
:1012D00028444078012825D1002002902000C0B287
:1012E000704328448068008801900120009020000D
:1012F000C0B27043284403792000C0B27043284430
:10130000C2782000C0B2704328448178DFF8AC0C6A
:1013100003F0EBF82000C0B206FB00F605EB060078
:1013200000214170641CC9E77FBD7FB50024200007
:10133000C0B20A282EDA0C25DFF8F86A2000C0B205
:10134000684330444078012822D12000C0B268436D
:10135000304480680190012000902000C0B26843B2
:10136000304403792000C0B268433044C278200082
:10137000C0B2684330448178DFF8400C03F009F8CC
:101380002000C0B205FB00F506EB0500002141700E
:10139000641CCCE700242000C0B2022831DADFF858
:1013A000985A0C262000C0B2704328444078012887
:1013B00025D1002002902000C0B2704328448068EC
:1013C00000880190012000902000C0B270432844A2
:1013D00003792000C0B270432844C2782000C0B214
:1013E000704328448178DFF8D40B03F07EF82000A6
:1013F000C0B206FB00F605EB060000214170641C3C
:10140000C9E77FBD7FB500242000C0B209282EDACD
:101410000C25DFF8286A2000C0B2684330444078C9
:10142000012822D12000C0B2684330448068019076
:10143000012000902000C0B26843304403792000AE
:10144000C0B268433044C2782000C0B26843304420
:101450008178DFF8680B02F09CFF2000C0B205FB2A
:1014600000F506EB050000214170641CCCE7002468
:101470002000C0B2042854DADFF8C4590C2620003A
:10148000C0B2704328444078012848D12000C0B23F
:1014900001281ED1002002902000C0B270432844D1
:1014A000806800880190012000902000C0B2704345
:1014B000284403792000C0B270432844C278200039
:1014C000C0B2704328448178DFF8F00A03F00DF8C9
:1014D0001DE0012002902000C0B2704328448068C3
:1014E00000880190012000902000C0B27043284481
:1014F00003792000C0B270432844C2782000C0B2F3
:10150000704328448178DFF8B40A02F0EEFF20002F
:10151000C0B206FB00F605EB060000214170641C1A
:10152000A6E77FBD7CB500242000C0B204282EDAD7
:101530000C25DFF8EC6A2000C0B2684330444078E4
:10154000012822D12000C0B2684330448068019055
:10155000012000902000C0B268433044037920008D
:10156000C0B268433044C2782000C0B268433044FF
:101570008178DFF81C0C02F00CFF2000C0B205FBE4
:1015800000F506EB050000214170641CCCE773BD3B
:101590007FB500242000C0B20A282EDA0C25DFF81F
:1015A000E46A2000C0B2684330444078012822D168
:1015B0002000C0B268433044806801900120009050
:1015C0002000C0B26843304403792000C0B26843B1
:1015D0003044C2782000C0B2684330448178DFF8DC
:1015E000B00B02F0D6FE2000C0B205FB00F506EB02
:1015F000050000214170641CCCE700242000C0B22B
:10160000062831DADFF8F45A0C262000C0B2704305
:1016100028444078012825D1002002902000C0B243
:1016200070432844806800880190012000902000C9
:10163000C0B27043284403792000C0B270432844EC
:10164000C2782000C0B2704328448178DFF8400B94
:1016500002F04BFF2000C0B206FB00F605EB0600CF
:1016600000214170641CC9E77FBD7FB500242000C4
:10167000C0B209282EDA0C25DFF8846A2000C0B237
:10168000684330444078012822D12000C0B268432A
:10169000304480680190012000902000C0B268436F
:1016A000304403792000C0B268433044C27820003F
:1016B000C0B2684330448178DFF8D40A02F069FE92
:1016C0002000C0B205FB00F506EB050000214170CB
:1016D000641CCCE700242000C0B2042854DADFF8F0
:1016E000B45A0C262000C0B2704328444078012828
:1016F00048D12000C0B201281ED100200290200055
:10170000C0B2704328448068008801900120009096
:101710002000C0B27043284403792000C0B2704357
:101720002844C2782000C0B2704328448178DFF892
:10173000600A02F0DAFE1DE0012002902000C0B233
:1017400070432844806800880190012000902000A8
:10175000C0B27043284403792000C0B270432844CB
:10176000C2782000C0B2704328448178DFF8200A94
:1017700002F0BBFE2000C0B206FB00F605EB06003F
:1017800000214170641CA6E77FBD7FB500242000C6
:10179000C0B211282EDA0C25DFF8FC692000C0B297
:1017A000684330444078012822D12000C0B2684309
:1017B000304480680190012000902000C0B268434E
:1017C000304403792000C0B268433044C27820001E
:1017D000C0B2684330448178DFF8B40902F0D9FD23
:1017E0002000C0B205FB00F506EB050000214170AA
:1017F000641CCCE700242000C0B205285CDADFF8C6
:101800009C590C262000C0B270432844407801281F
:1018100050D12000C0B2002826D100200290200024
:10182000C0B2704328448068008801900020009076
:101830002000C0B27043284403792000C0B2704336
:101840002844C2782000C0B2704328448178DFF871
:10185000400902F04AFE2000C0B206FB00F605EB8C
:1018600006000021417025E0012002902000C0B256
:101870007043284480680088019000200090200078
:10188000C0B27043284403792000C0B2704328449A
:10189000C2782000C0B2704328448178DFF8F00895
:1018A00002F023FE2000C0B206FB00F605EB0600A6
:1018B00000214170641C9EE77FBD80B5DFF8F8040D
:1018C00001214173012180F86D10DFF864050121C9
:1018D00041700121417301214176012180F82510D9
:1018E000012180F83110012180F83D10DFF8A008B7
:1018F00002F087FCFFF7ACFCFFF722FB01BD80B5CF
:10190000DFF8300501214173012180F82510012104
:1019100080F83110012180F85510012180F8611004
:10192000012180F86D10DFF878184989002905D069
:10193000012907D1012180F83D1003E0012180F841
:101940004910FFE7DFF8F0040121417001214173E4
:10195000DFF8680602F055FCFFF7E7FC002000F016
:101960002FFBFFF7EDFA01BD80B5DFF8D0040121B0
:10197000417301214176012180F82510012180F871
:101980003110012180F83D10012180F8491001211A
:1019900080F85510012180F86110DFF8A4040121BE
:1019A00041700121417301214176012180F8251008
:1019B000DFF8080602F025FCFFF724FD002000F008
:1019C000FFFAFFF7BDFA01BD80B5DFF8540601212B
:1019D000417001214173012180F8251001214176D8
:1019E000DFF8D80502F00DFCFFF79CFD012000F0A8
:1019F000E7FAFFF7A5FA01BD80B5DFF888060121F7
:101A0000417001214173012180F85510DFF8EC0687
:101A1000012141700121417301214176012180F8AA
:101A20002510012180F83110012180F83D10DFF8E8
:101A3000600702F0E6FBFFF7ABFDFFF781FA01BD9F
:101A400080B5DFF8BC0601214173012141760121F7
:101A500080F82510012180F83110012180F83D1017
:101A6000012180F84910012180F85510012180F8EA
:101A70006110DFF82007012141700121417301212C
:101A80004176012180F82510DFF8040702F0B9FB48
:101A9000FFF7EBFDFFF754FA01BD80B5DFF8F8164C
:101AA00001204870DFF8FC068078002805D0022865
:101AB00006D009D20120487606E00120487303E0F1
:101AC000012081F82500FFE7012081F88500DFF87B
:101AD000D8269078002803D1012081F8910002E0F7
:101AE000012081F89D00012081F8A900D07800280C
:101AF00003D1012081F8B50002E0012081F8C10086
:101B00005078002803D0022809D004D30BE001202C
:101B100081F8310007E0012081F83D0003E0012059
:101B200081F84900FFE7DFF88426907B002803D185
:101B3000012081F8610002E0012081F86D00DFF8EA
:101B40005C060C328263012281F87920012281F83F
:101B5000552001214170012141730121417601216C
:101B600080F82510012180F83110DFF8240602F0FA
:101B700048FBFFF70AFEFFF7E3F901BD80B5DFF888
:101B80003016AB48826812880B889A4204D082686B
:101B900012880A8001214170DFF818164269128804
:101BA0000B889A4204D0426912880A80012141734D
:101BB000DFF80416026A12880B889A4204D0026A7F
:101BC00012880A8001214176DFF8F015C26A128876
:101BD0000B889A4205D0C26A12880A80012180F8D7
:101BE0002510DFF8DC15826B12880B889A4205D02D
:101BF000826B12880A80012180F83110DFF8C41549
:101C0000426C12880B889A4205D0426C12880A8076
:101C1000012180F83D10FFF71BFB01BD10B5DFF877
:101C20008015DFF8A40502880B899A420CD00A8936
:101C300002800889002804D101207E4A82F825000C
:101C400002E001207B4A50767B4ADFF8800503885A
:101C500094682488A34204D093681B8803800120E1
:101C60005070DFF86C0503884C89A3420DD04B8976
:101C700003804889002804D101206E4981F8490079
:101C800003E001206B4981F83D00DFF84805018839
:101C900053691B88994204D0516909880180012049
:101CA0005073FFF742FB10BD80B5DFF82C15644878
:101CB000826812880B889A4204D0826812880A804F
:101CC00001214170DFF81415426912880B889A428D
:101CD00004D0426912880A8001214173DFF800159F
:101CE000026A12880B889A4204D0026A12880A801B
:101CF00001214176DFF8EC14C26A12880B889A42FF
:101D000005D0C26A12880A80012180F82510FFF7E9
:101D100079FB01BD80B5DFF8D014DFF8E0038268FD
:101D200012880B889A4204D0826812880A800121A6
:101D30004170DFF8B814426912880B889A4204D0C7
:101D4000426912880A8001214173DFF8A414026AF3
:101D500012880B889A4204D0026A12880A800121F4
:101D60004176DFF89014C26A12880B889A4205D037
:101D7000C26A12880A80012180F82510DFF87814E1
:101D8000826B12880B889A4205D0826B12880A8077
:101D9000012180F83110DFF86414426C12880B883E
:101DA0009A4205D0426C12880A80012180F83D10C9
:101DB000FFF7EEFB01BD00006406002080B5DFF8F0
:101DC0004014DFF8D003826812880B889A4204D04E
:101DD000826812880A8001214170DFF82814426964
:101DE00012880B889A4204D0426912880A80012125
:101DF0004173DFF81414026A12880B889A4204D0E7
:101E0000026A12880A8001214176DFF80014C26A52
:101E100012880B889A4205D0C26A12880A80012172
:101E200080F82510FFF721FC01BD000058080020B4
:101E3000E8060020D40500204C06002038050020CC
:101E4000A405002010B5DFF8C803DFF850138A6836
:101E5000128803889A4204D08A681288028001207E
:101E60004870DFF84423DFF8AC0303789478A3428A
:101E70000DD0937803709078002804D10120C64BD0
:101E800083F8910003E00120C34B83F89D00DFF845
:101E900088030378D478A3420DD0D3780370D07828
:101EA000002804D10120BC4B83F8B50003E00120D9
:101EB000B94B83F8C100DFF8640303785478A34278
:101EC00017D0537803705078002803D002280BD025
:101ED00005D30EE00120B04A82F8310009E001206C
:101EE000AD4A82F83D0004E00120AB4A82F8490087
:101EF000FFE7AC48CA4A13788478A34214D08378A9
:101F000013708078002806D0022808D00CD2012057
:101F1000A14A507608E001209F4A507304E0012056
:101F20009D4A82F82500FFE7BE484A691288037877
:101F30009BB29A4204D04A69128802700120487309
:101F4000B9480A6A128803789BB29A4204D00A6A96
:101F50001288027001204876B448CA6A1288037851
:101F60009BB29A4205D0CA6A12880270012081F899
:101F70002500AF488A6B128803789BB29A4205D03D
:101F80008A6B12880270012081F831008749A94AC2
:101F900010788B7B98420DD0887B002804D10120DB
:101FA0007D4B83F8610003E001207B4B83F86D00DB
:101FB000887B1070FFF7E9FB10BD0000B42F0020F4
:101FC00070B504002000C0B2052827DA00252800DB
:101FD000C0B2042822DA28002100C0B2C9B2884267
:101FE0000FD12800C0B2042816D0694E2A00D2B200
:101FF0000021300002F0A2F83E21300002F0DDF8AE
:102000000AE0634E2A00D2B20021300002F096F8B6
:102010002021300002F0D1F86D1CD8E770BD00001F
:102020000805002070B504002000C0B2052827DA9A
:1020300000252800C0B2042822DA28002100C0B2FE
:10204000C9B288420FD12800C0B2042816D0504E21
:102050002A00D2B20F21300002F070F83C2130008B
:1020600002F0ABF80AE04A4E2A00D2B20F2130004B
:1020700002F064F82021300002F09FF86D1CD8E7D0
:1020800070BD00004804002018B58BB0404C6A4B6E
:102090006A484FF480710A91099080210891079055
:1020A0004021069105904FF40040049003934FF4B3
:1020B0008040029001934FF4805000900422102140
:1020C000200001F0B9FF322002F012FB200002F0E4
:1020D00098F801220121200002F030F85849200030
:1020E00002F082F803220121200002F027F855496E
:1020F000200002F079F80CB010BD0000C0040020F0
:10210000AC03002080B5FFF7BFFF01BD70B5002014
:10211000002400252800C0B2022836DA4A4E2800E2
:10212000C0B200013044407801282CD101200400C5
:102130002800C0B200013044406800280ED001F0F1
:102140005DFE2900C9B2090131444968401A2900DD
:10215000C9B2090131448968884214D3002029009A
:10216000C9B209013144487001F048FE2900C9B2E2
:102170000901314448602800C0B22900C9B20901F0
:102180003144C96888476D1CC4E72000C0B270BDE7
:10219000B42F002018040020A402002070030020A7
:1021A00014320020A8090020643200201C330020D3
:1021B0009E330020A0330020A2330020A43300204F
:1021C000A6330020A8330020AA330020AE3300201D
:1021D000AC330020B0330020B2330020B4330020F1
:1021E000B6330020B8330020BA330020BC330020BF
:1021F000BE330020C0330020C2330020C43300208F
:10220000C6330020C8330020CA330020CC3300205E
:10221000CE330020E1330020E2330020E3330020FE
:10222000AC0B0020DD330020DE330020DF33002044
:10223000E0330020E43300200004024000080240A4
:102240008C0301089C030108840200200200012085
:102250000B00DBB21B011344587000200B00DBB2F3
:102260001B01134458600120704738B504000D006D
:1022700001202900C9B209012144487001F0BEFDC6
:102280002900C9B2090121444860012032BD020081
:1022900000200B00DBB21B01134458700120704773
:1022A000F8B402000B000024002000251968E1406A
:1022B000002900F0D78001261F6816FA04F10F40AC
:1022C0003800002800F0CC80197911F003010129B1
:1022D00004D0197911F0030102291DD197685FF02C
:1022E000030C2100C9B249001CFA01FC37EA0C07B3
:1022F000D3F80CC02100C9B249001CFA01FC5CEA09
:10230000070797605168A640B1435E68C6F30016A0
:10231000A64031430D005560197911F003010329DE
:102320000ED0D66803272100C9B249008F40BE43B2
:102330009F682100C9B249008F403E433500D560F7
:10234000197911F00301022918D12100C90802EB03
:1023500081010E6A0F2714F00701C9B289008F406E
:10236000BE431F6914F00701C9B289008F403E4384
:1023700035002100C90802EB81010D6216680327B0
:102380002100C9B249008F40BE431F7917F00307EF
:102390002100C9B249008F403E433500156059689D
:1023A00011F4403F5CD097490E6856F001060E606C
:1023B000096811F0010100910099934F21008908EB
:1023C00057F821605FF00F0C14F00301C9B28900C7
:1023D0001CFA01FC36EA0C068C498A4201D1002520
:1023E00014E08B498A4201D101250FE089498A42D4
:1023F00001D102250AE088498A4201D1032505E07E
:1024000086498A4201D1042500E0052514F0030124
:10241000C9B289008D402E432100890847F8216008
:102420007F4D296881435F68FF0200D50143296021
:102430007C4E356885435F68BF0200D50543356033
:10244000794E316881435F68BF0300D50143316035
:10245000764E356885435F68FF0300D505433560D8
:10246000641C23E7F1BC70472DE9F04103000A002A
:102470000024002000251100E140002900F0A88080
:10248000012616FA04F111400800002800F09E8091
:10249000DFF874C1210089085CF821100F2714F0BF
:1024A000030E5FFA8EFE5FEA8E0E17FA0EFE1EEA2C
:1024B00001010D0055498B4202D15FF0000E19E079
:1024C00053498B4202D15FF0010E13E051498B4218
:1024D00002D15FF0020E0DE04F498B4202D15FF056
:1024E000030E07E04D498B4202D15FF0040E01E07C
:1024F0005FF0050E14F00301C9B289001EFA01FE57
:1025000075452CD14949D1F800E03EEA000EC1F8EA
:1025100000E04549D1F800E03EEA000EC1F800E0D5
:102520004049D1F800E03EEA000EC1F800E03C4925
:10253000D1F800E03EEA000EC1F800E014F003011B
:10254000C9B2890017FA01F10D00210089085CF871
:102550002110A943A6465FEA9E0E4CF82E105FF0AC
:10256000030C1968A6465FFA8EFE5FEA4E0E1CFA4F
:102570000EFE31EA0E0119602100C90803EB810E3D
:102580002100C90803EB8101D1F8208014F0070174
:10259000C9B289008F4038EA0707CEF82070D968A1
:1025A0002700FFB27F001CFA07F7B943D9605968CA
:1025B000A64031EA06065E609E682100C9B2490065
:1025C0001CFA01FC36EA0C0CC3F808C0641C52E784
:1025D000BDE8F081020010690B009BB2184201D0E7
:1025E000012000E00020C0B270471300DBB2002BD6
:1025F00003D00B009BB2836103E00B009BB21B0472
:10260000836170472038024008000140000002400A
:102610000004024000080240000C0240001002408A
:10262000080401400C04014004040140000401407E
:10263000BFF34F8FDFF8B0120A6812F4E062DFF8E0
:10264000AC0202430A60BFF34F8F00BFFDE780B5C5
:1026500001F040F84FF4FA7002F04AF81321A44850
:1026600000F004F872B6FFF7E3FF02BD70B5040096
:102670000D002A0092B22100022002F013FA9D48B8
:102680003B21C26BB0F84030D154B0F84010491C27
:10269000A0F8401000210A002B0092B29BB29A428F
:1026A00012D2B0F84020B2F5806F0DDA0A0092B273
:1026B000A25CC36BB0F840609A55B0F84020521C41
:1026C000A0F84020491CE6E770BD2DE9F84304005E
:1026D0000D0016001F005FF000082000C0B2401E71
:1026E00003D0401E012806D985E0310089B22800B8
:1026F00002F05FFA7FE0DFF800924FF48072002171
:10270000484602F0A7F97B4900208885888E00287A
:1027100042D028208A8D09F80200888D401C8885C7
:10272000002002008B8E92B29A420BD20A6B0300F9
:102730009BB2D25C8B8D09F803208A8D521C8A854E
:10274000401CEEE729228B8D09F803208A8D521C4C
:102750008A8528228B8D09F803208A8D521C8A8550
:102760005FF000084046320080B292B290420BD235
:10277000404680B2285C8A8D09F80200888D401C92
:10278000888518F10108EDE729208A8D09F80200F3
:10279000888D401C88852BE0002200200300B44671
:1027A0009BB21FFA8CFC63450BD203009BB2EB5C1F
:1027B000B1F82CC009F80C308B8D5B1C8B85401C4C
:1027C000ECE78B8D5B1C8B855FF00008404680B288
:1027D0008B8D5B1E984207DA404680B219F80000E4
:1027E000424018F10108F1E7888D484400F8012CB7
:1027F00000208886FFE7BDE8F18380B500F00EF881
:102800003E4802F03AFA01BD80B500F043F802F00C
:102810005DFE02F0EDFE01BD7047704710B586B059
:102820001421002201AC200001F0CCF934480168E9
:1028300051F001010160016811F00101009100995E
:10284000016851F002010160016811F0020100917C
:102850000099016851F004010160016811F0040160
:1028600000910099016851F008010160006810F0C2
:102870000800009000980320029000200390214C53
:1028800001A92000FFF70CFD01A92000FFF708FDBA
:1028900006B010BD81B01A48016851F00101016015
:1028A000016811F0010100910099016851F00201E5
:1028B0000160016811F0020100910099016851F076
:1028C00004010160016811F00401009100990168A0
:1028D00051F008010160006810F0080000900098B5
:1028E00001B07047000000000CED00E00400FA05A4
:1028F00008030108300B0020302C00204831002054
:102900001C3802400000024010B50400DFF81C092A
:1029100002F0F1FE0521DFF81809FFF7A6FC0120FF
:1029200010BD2DE9F0410400DFF808594FF40061B3
:102930002800FFF74FFE002804D10220DFF8901D89
:1029400048700FE04FF480612800FFF743FE002835
:1029500004D10120DFF8781D487003E00020DFF883
:10296000701D4870DFF8D068DFF8645D30786978F2
:1029700088425DD0687800282CD0022801D03ED350
:1029800052E0DFF8B878B878002810D100F058FA93
:10299000DFF89C8804214046FFF779FC022140467D
:1029A000FFF775FC03214046FFF771FC0DE0DFF8EF
:1029B000808804214046FFF749FC02214046FFF78A
:1029C00066FC03214046FFF762FCB878DFF8701818
:1029D000087029E000F034FADFF854780421380058
:1029E000FFF755FC02213800FFF751FC03213800A6
:1029F000FFF74DFC002068710020287114E000F002
:102A00001FFADFF82C7804213800FFF740FC03217F
:102A10003800FFF73CFC002068710020287102217B
:102A20003800FFF722FCFFE70020A87068783070BC
:102A30006878022837D1DFF80868DFF80078307846
:102A4000B97888422FD0B878002817D0022800D053
:102A500025D23078002802D0287800280DD1DFF860
:102A6000D08704214046FFF7F1FB02214046FFF7E3
:102A70000EFC03214046FFF70AFC10E000F0E0F9ED
:102A8000DFF8AC8704214046FFF701FC02214046F5
:102A9000FFF7FDFB03214046FFF7F9FBFFE70020AE
:102AA000A870B87830702100C9B2DFF88407FFF74A
:102AB000DCFB0120BDE8F0812DE9F84304005FF064
:102AC00000095FF000080025DFF8046C7078022828
:102AD00005D13078002804D100F09AF901E000F027
:102AE000AFF9DFF8CC0BC7883900028989B291426F
:102AF00001D201890F003900428989B2914201D285
:102B000041890F00B0F8069001894A4692B291427D
:102B100001D20189894641894A4692B2914201D245
:102B2000408981463089390089B2884205D270795E
:102B3000082802DA7079401C7071390089B2484661
:102B400080B2091A64204143380080B291FBF0F84A
:102B50007089404506D27079082805DA7079401CE2
:102B6000707101E0002070710321DFF8C00BFFF7E6
:102B70006DFB0120BDE8F28338B50400DFF8505B3F
:102B80006879082818DB687802280BD10120A87022
:102B900000F056F9002068710421DFF89406FFF771
:102BA00064FB24E00120A87000F04AF90221DFF85C
:102BB0008006FFF75AFB1AE06879002812D168787E
:102BC000022805D12878002804D100F021F901E07D
:102BD00000F036F90020A8700221DFF85406FFF754
:102BE00044FB04E00221DFF84806FFF73EFBDFF874
:102BF000C00AC18806290CDA0189062909DA408948
:102C0000062806DA2879052805DA2879401C287173
:102C100001E0002028712879052803DB0120A87035
:102C200000206871288A002801D10020A8700120A6
:102C300032BD10B5040000F0EBF8DFF8940A002173
:102C40004171002101710221DFF8E00AFFF70DFB5D
:102C5000012010BD70B504000020DFF8541A8D89E2
:102C6000CA88062A05DB0889062802DB4889062867
:102C700006DADFF85C6A0020B07101F0BFF830625C
:102C800001F0BCF8DFF8482A116A401A4EF66121BB
:102C9000884202D2108A002813D12800D18980B23C
:102CA000884204D39089290089B2884206D290795B
:102CB000052808DA9079401C907104E0002090719A
:102CC00001E0002090710621DFF8600AFFF7BEFAEC
:102CD000012070BD10B50400DFF8F41988790528CB
:102CE00002DB0120C87004E08879002801D10020AF
:102CF000C870488A002801D10020C8700521DFF87B
:102D00002C0AFFF7B2FA012010BD38B504000020EC
:102D1000DFF8BC198A78012A01D101250FE0CA78B1
:102D2000012A01D101250AE0DFF810259278022A54
:102D300004D14978022901D1012500E000252800AD
:102D4000C0B2002802D100F054F801E000F042F8CF
:102D50002100C9B2DFF8D409FFF787FA012032BD9C
:102D600038B50400DFF8C854D5F88800B0F5FA6F1C
:102D70000AD101224FF40071DFF8B804FFF735FCE7
:102D80002820C5F888000AE000224FF40071DFF81F
:102D9000A404FFF72AFC4FF4FA60C5F8880021006C
:102DA000C9B22800FFF761FA012032BD10B5040056
:102DB000DFF81C0A02F0A1FE2100C9B2DFF86C099D
:102DC000FFF753FA012010BD10B50400FFF73FFCD8
:102DD000012010BD80B501220421DFF8F809FFF7BA
:102DE00004FC01224FF48051DFF84804FFF7FDFB9B
:102DF00001BD80B500220421DFF8D809FFF7F5FBFB
:102E000000224FF48051DFF82C04FFF7EEFB01BDE8
:102E100010B5DFF8C449012210212000FFF7E5FBBF
:102E2000012208212000FFF7E0FB01220121DFF849
:102E3000AC09FFF7DAFB0120DFF89418087010BD29
:102E400010B5DFF89449002210212000FFF7CDFBD8
:102E5000002208212000FFF7C8FB00220121DFF833
:102E60007C09FFF7C2FB0020DFF86418087010BD72
:102E70002DE9FC4104000D0016001F00082100226E
:102E8000E846404600F09EFE5FF00008DFF840088C
:102E90008482C582068347836946828A92B2120A77
:102EA0004346DBB2CA5418F10108828A4346DBB2BA
:102EB000CA5418F10108C28A92B2120A4346DBB220
:102EC000CA5418F10108C28A4346DBB2CA5418F149
:102ED0000108028B92B2120A4346DBB2CA5418F1BF
:102EE0000108028B4346DBB2CA5418F10108428B39
:102EF00092B2120A4346DBB2CA5418F10108408B61
:102F00004246D2B2885418F101084246D2B292B277
:102F10006946DFF8CC0800F02DFFFEF701F9BDE8A7
:102F2000F38180B5DFF8B8080078C0B2AA2836D19E
:102F3000DFF8B018DFF8B0080078C0B2000288826D
:102F40008A8ADFF8A8080078C0B202438A82DFF8D4
:102F5000A0080078C0B20002C882CA8ADFF89408CC
:102F60000078C0B20243CA82DFF88C080078C0B291
:102F7000000208830A8BDFF884080078C0B202439D
:102F80000A83DFF87C080078C0B2000248834A8BCD
:102F9000DFF870080078C0B202434A8309E0DFF826
:102FA0004408002181820021C1822D210183322128
:102FB0004183FEF7B5F801BD7CB504000D00082182
:102FC00000226E46300000F0FDFD0026DFF800070D
:102FD000048145816946028992B2120A3300DBB24C
:102FE000CA54761C02893300DBB2CA54761C42896B
:102FF00092B2120A3300DBB2CA54761C4089320006
:10300000D2B28854761C3200D2B292B26946DFF84E
:10301000F80700F0AFFEFEF783F873BD80B5DFF868
:10302000E8070078C0B2AA281CD1DFF8B817DFF88B
:10303000DC070078C0B2000208810A89DFF8D007F7
:103040000078C0B202430A81DFF8C8070078C0B236
:10305000000248814A89DFF8C0070078C0B2024305
:103060004A8105E0DFF87C071E2141815021018162
:10307000FEF756F801BDFEB504000D0016000A214A
:1030800000226F46380000F09DFD0027DFF8400663
:103090000482458286836946028A92B2120A3B0004
:1030A000DBB2CA547F1C028A3B00DBB2CA547F1CCD
:1030B000428A92B2120A3B00DBB2CA547F1C428A97
:1030C0003B00DBB2CA547F1C828B92B2120A3B00D7
:1030D000DBB2CA547F1C808B3A00D2B288547F1C6A
:1030E0003A00D2B292B26946DFF8300700F042FEF1
:1030F000FEF716F8F7BD80B5DFF820070078C0B2FC
:10310000AA2829D1DFF8DC16DFF814070078C0B24E
:10311000000208820A8ADFF80C070078C0B2024376
:103120000A82DFF804070078C0B2000248824A8AA7
:10313000DFF8F8060078C0B202434A82DFF8F006F2
:103140000078C0B2000288838A8BDFF8E806007836
:10315000C0B202438A8307E0DFF8880601210182BA
:103160000121418206218183FDF7DAFF01BD7CB593
:1031700004000D00082100226E46300000F022FD00
:103180000026DFF84C058481C5816946828992B2A8
:10319000120A3300DBB2CA54761C82893300DBB2D8
:1031A000CA54761CC28992B2120A3300DBB2CA54E6
:1031B000761CC0893200D2B28854761C3200D2B25A
:1031C00092B26946DFF8700600F0D4FDFDF7A8FF63
:1031D00073BD80B5DFF860060078C0B2AA281CD1A4
:1031E000DFF80016DFF854060078C0B200028881CC
:1031F0008A89DFF84C060078C0B202438A81DFF882
:1032000044060078C0B20002C881CA89DFF83806D7
:103210000078C0B20243CA8105E0DFF8C805322158
:1032200081810A21C181FDF77BFF01BDD4310020DE
:103230009808002000080240E6330020A80900207A
:10324000AD0B0020F0B40600049C0800350080B2ED
:10325000ADB2A8421BD200272500ADB2100080B24B
:103260002D1AB4461FFA8CFC080080B2BCEB000C8F
:103270000CFB05F59C461FFA8CFC080080B2BCEBE9
:10328000000C95FBFCF01500ADB2281800E0002002
:10329000F0BC7047F0B40600049C0800350080B212
:1032A000ADB2A8421BD200272500ADB2100080B2FB
:1032B0002D1AB4461FFA8CFC080080B2BCEB000C3F
:1032C0000CFB05F59C461FFA8CFC080080B2BCEB99
:1032D000000C95FBFCF01500ADB2281800E00020B2
:1032E000F0BC70472DE9F14F82B002980068DFF81A
:1032F0005C150968884240F0D881DFF85445606960
:10330000401C6061E089218A88420AD3D4E90823FD
:10331000E089218A401AC11710185941C4E90801EF
:1033200009E0D4E90823208AE189401AC11710185E
:103330005941C4E90801A089218A88420AD3D4E905
:103340000A23A089218A401AC11710185941C4E9DB
:103350000A0109E0D4E90A23208AA189401AC11789
:1033600010185941C4E90A016089218A88420AD3A8
:10337000D4E90C236089218A401AC11710185941D9
:10338000C4E90C0109E0D4E90C23208A6189401AC0
:10339000C11710185941C4E90C01D4E90E23608803
:1033A000002110185941C4E90E01D4E91023A08866
:1033B000002110185941C4E91001606941F28831B7
:1033C000884240F07281D4E9080141F2883200233A
:1033D00002F09AFBC4E90801D4E90A0141F28832FB
:1033E000002302F091FBC4E90A01D4E90C0141F287
:1033F0008832002302F088FBC4E90C01D4E90E01F5
:1034000041F28832002302F07FFBC4E90E01D4E9C7
:10341000100141F28832002302F076FBC4E910016A
:10342000DFF83004018889B240F6B8304143208883
:10343000B1FBF0F0A0614FF47A76D4E90889A26973
:103440000023A2FB080102FB091103FB081140F64F
:10345000FF72002302F058FB7043DFF8FC13086092
:10346000DFF8F40300686621B0FBF1F0DFF8E81341
:1034700008608F4DDFF8E00300686421B0FBF1F0D5
:103480002880DFF8D40300680A21B0FBF1F00A219C
:10349000B0FBF1F201FB1200052802D32888401C82
:1034A0002880D4E90A23D4F818805FF00009A8FB2B
:1034B000020108FB031109FB021140F6FF72002311
:1034C00002F022FB7043E5490860E4480068662189
:1034D000B0FBF1F0E1490860E04800686421B0FB0E
:1034E000F1F06880DD4800680A21B0FBF1F00A21A4
:1034F000B0FBF1F201FB1200052802D36888401CE2
:103500006880DFF85CA3D4E90C89A2690023A2FBE0
:10351000080102FB091103FB081140F6FF720023AA
:1035200002F0F2FA06FB00F6CAF80060DAF80000D2
:103530006621B0FBF1F0CAF80000DAF8000064215F
:10354000B0FBF1F0A880DAF800000A21B0FBF1F03E
:103550000A21B0FBF1F201FB1200052802D3A88872
:10356000401CA8804FF47A760027D4E90E89A2691E
:103570000023A2FB080102FB091103FB081140F61E
:10358000FF72002302F0C0FA02000B00A6FB02014A
:1035900006FB031107FB02117822002302F0B4FAA4
:1035A000A064D4E91089A2690023A2FB080102FBF0
:1035B000091103FB081140F6FF72002302F0A4FA80
:1035C00002000B00A6FB020106FB031107FB021120
:1035D0007822002302F098FAE064A24F44F62068B3
:1035E0003B4E5FF00A09B08B09FB00F080B20090FF
:1035F000434600224FF47A61A06C80B2FFF722FEAE
:103600003880DFF864B2B08B09FB00F91FFA89F942
:10361000CDF80090434600224FF47A61E06C80B20E
:10362000FFF710FEABF800003888BBF800108842A6
:1036300004D33888A8810020A87304E0BBF80000F8
:10364000A8810120A87300200021C4E90801C4E971
:103650000A01C4E90C0100207F49086000207F496D
:1036600008600020CAF800000020A0640020E06488
:1036700000206061708B0090338BF28AB18A2888B9
:10368000FFF708FEE880708B0090338BF28AB18AD6
:103690006888FFF7FFFD2881708B0090338BF28ADA
:1036A000B18AA888FFF7F6FD6881BDE8F78F0000B2
:1036B0001C33002080B5092265496C4802F01CFCCF
:1036C00001224FF400516A48FEF78FFF01BD000050
:1036D000643200201CB5082100226C46200000F056
:1036E00071FA0024684601212200D2B28154641C80
:1036F00001212200D2B28154641C2200D2B292B2C3
:1037000069465C4800F036FB13BD80B55948007827
:10371000C0B2AA2806D1002004498860554800F0AC
:10372000E0FA02E000200149886001BD980800200D
:1037300080B5FFF773FCFFF7DEFCFFF74AFDFFF7EC
:10374000B9FFFFF7E2FFFFF7ECFB01BD70B500200A
:10375000002400252800C0B20B2836DA464E280087
:10376000C0B200013044407801282CD1012004006F
:103770002800C0B200013044406800280ED000F09C
:103780003DFB2900C9B2090131444968401A2900AA
:10379000C9B2090131448968884214D30020290044
:1037A000C9B209013144487000F028FB2900C9B2B0
:1037B0000901314448602800C0B22900C9B209019A
:1037C0003144C96888476D1CC4E72000C0B270BD91
:1037D0002C330020000C0240000402400014024080
:1037E00000F803086432002002F8030803F8030815
:1037F00004F8030805F8030806F8030807F80308A7
:1038000008F8030809F8030800F6030802F603089D
:1038100003F6030804F6030805F6030800F403089A
:1038200002F4030803F4030804F4030805F403088E
:1038300006F4030807F4030800F7030802F7030877
:1038400003F7030804F7030805F70308D431002041
:10385000F8300020F800F81F7C330020803300206F
:1038600084330020D0330020D23300200C300020DD
:103870000008024000F3030898080020010001201E
:10388000704701000120704710B50400C2498888C4
:1038900000280ED0C14802888B889A4207D10021A7
:1038A00001800321BE48FEF7D1FC012007E0898892
:1038B00001802100C9B2BA48FEF7D7FC012010BD33
:1038C0002DE9F84F8AB004001421002205AD28002C
:1038D00000F078F9B348D0E90023CDE9032305A827
:1038E00003900221002202AD280000F06BF90025B0
:1038F000002600210027AC4A50780143DFF8AC8253
:1039000098F8020050EA8100917851EA400192F85B
:10391000039059EA4109484680B2000A8DF8080030
:1039200048468DF80900DFF870A2BAF804000328B1
:1039300059DBDAF80000BAF80410084410F8010C5A
:10394000DAF80010BAF80420114411F8021C51EA08
:1039500000210E00BAF80410891EDAF8000002F007
:10396000BCFC0500BAF8040008283CD1300029004E
:1039700080B289B2884236D1DFF824B20521584698
:10398000FEF773FCDAF800000078B8F8001080B297
:10399000884228D1DAF800004078062823D1DAF8E6
:1039A000000001790902DAF80000407901430F00B4
:1039B000380080B2022816DA88F8027004215846CE
:1039C000FEF753FC02A8019001200090002306227C
:1039D000B8F80010C9B203A802F09DFCBDF81010A1
:1039E000039800F02EF8BAF804200021DAF800005D
:1039F00001F030F80020AAF8040000206749088090
:103A000002216748FEF722FC01200BB0BDE8F08FD1
:103A100010B504000220654988702100C9B26048D1
:103A2000FEF723FC012010BD10B5040001F04EFD8F
:103A300001F0DEFD2100C9B25948FEF716FC012055
:103A400010BDF8B504000D00594E01224FF48071ED
:103A50003000FEF7CAFD052000F04AFE4FF47A73ED
:103A60002A0092B22100534801F02AF94A4FBA883D
:103A70000021386800F0EEFF0020B88000204749A0
:103A8000088000224FF480713000FEF7AEFDF1BDDA
:103A900038B50400022100226D46280000F092F89B
:103AA0000025424804806946028892B2120A2B001F
:103AB000DBB2CA546D1C00882A00D2B288546D1C37
:103AC0002A00D2B292B269463B4800F053F9FDF7A2
:103AD00027FB31BD80B538480078C0B2AA280BD189
:103AE000324936480078C0B2000208800A8834485B
:103AF0000078C0B202430A802C480188092901DB02
:103B000001210180FDF70CFB01BD80B5FFF7E2FF4D
:103B100001BD70B50020002400252800C0B2062891
:103B200036DA1F4E2800C0B2000130444078012828
:103B30002CD1012004002800C0B2000130444068AC
:103B400000280ED000F05AF92900C9B20901314409
:103B50004968401A2900C9B209013144896888427C
:103B600014D300202900C9B209013144487000F083
:103B700045F92900C9B20901314448602800C0B2A2
:103B80002900C9B209013144C96888476D1CC4E7DE
:103B90002000C0B270BD0000A00B0020D433002074
:103BA00048090020E807010864320020A809002025
:103BB000000402404831002000F9030802F903081C
:103BC00003F9030862F30F2262F31F42401810F05A
:103BD000030308D0C91A1FD3DB0748BF00F8012D23
:103BE00028BF20F8022D130030B4144615461039B2
:103BF00028BF20E93C00FAD8490728BF20E90C007B
:103C000048BF40F8042D890028BF20F8022D48BF86
:103C100000F8012D30BC7047C91818BF00F8012DFD
:103C2000CB0728BF00F8012D704730B4002513E002
:103C300050F8042BD30744BFA9F101039A18091FB8
:103C4000042942F8045BFAD213468C0744BF15805E
:103C50009B1CC90748BF1D7050F8041B0029E7D101
:103C600030BC70472DE9F34F81B093460026002405
:103C700000255FF0000A0127DDF80880DDF80490D8
:103C80001BF0030F29D158468008002104000D00C5
:103C900002F0ECFB4FF47A7002F00CFC00200600FE
:103CA000300080B20021A94215D801D3A04212D21F
:103CB000D8F80000824652464946022002F0ACFB8A
:103CC00007003800C0B2012805D019F1040918F125
:103CD0000408761CE4E702F0E6FB3800C0B2BDE859
:103CE000FE8F70B50400012502F0C0FB06004FF402
:103CF0007A7002F0DFFB3000C0B2002802D1200051
:103D000002F05EFC4FF47A7002F0D4FB0500074825
:103D1000016831F400710160016831F0080101604F
:103D200002F0C1FB2800C0B270BD0000043C02409C
:103D300070B504000D000026AE4207D24FF480702B
:103D400000FB0640FFF7CDFF761CF5E770BDF0B431
:103D5000002305000E000024230017009BB2BFB211
:103D6000BB4205D22B783370761C6D1C641CF3E7C4
:103D7000F0BC70472DE9F041C0B004000D00160002
:103D800000274FF480710022E8464046FFF71AFFF3
:103D90002000FFF7A6FFAA208DF8000030008DF864
:103DA00001005FF000084046310080B289B28842CD
:103DB0000AD2404680B2285C6946424692B211441B
:103DC000887018F10108EEE7B61C300080B20421BB
:103DD000B6B2361D361A90FBF1F001FB00663200D8
:103DE00092B269462000FFF73DFF002801D0002075
:103DF00000E0012040B0BDE8F081410001480068CA
:103E0000704700BF68330020002203009BB24FF4CC
:103E10007A714B439A4202D2521C521CF5E770470A
:103E200070B504000D0016003000C0B2002805D1A6
:103E3000002221896068FEF7D8FB08E03000C0B29C
:103E4000012804D1012221896068FEF7CEFB15F01C
:103E50000102218B6069FEF7C8FB2A00D2B252082A
:103E600012F00102218CE069FEF7BFFB2A00D2B2FA
:103E7000920812F00102218D606AFEF7B6FB2A005B
:103E8000D2B2D20812F00102218EE06AFEF7ADFB39
:103E90002A00D2B2120912F00102218F606BFEF7E4
:103EA000A4FB2A00D2B2520912F00102B4F8401069
:103EB000E06BFEF79AFB2A00D2B2920912F00102DF
:103EC000B4F84810606CFEF790FB2A00D2B2D20919
:103ED000B4F85010E06CFEF788FB0022218AE068FD
:103EE000FEF783FB0120FFF78FFF0122218AE068A4
:103EF000FEF77BFB0120FFF787FF0022218AE068A5
:103F0000FEF773FB0120FFF77FFF70BD2DE9F04145
:103F100004000D0016002F00FFB23F09A846300034
:103F2000C0B2002805D1002221896068FEF75DFB40
:103F300008E03000C0B2012804D101222189606864
:103F4000FEF753FB17F00102218F606BFEF74DFB6C
:103F50003A00D2B2520812F00102B4F84010E06BFD
:103F6000FEF743FB3A00D2B2920812F00102B4F815
:103F70004810606CFEF739FB3A00D2B2D20812F05A
:103F80000102B4F85010E06CFEF72FFB0022218AEA
:103F9000E068FEF72AFB0120FFF736FF0122218AA5
:103FA000E068FEF722FB0120FFF72EFF0022218AA6
:103FB000E068FEF71AFB0120FFF726FF18F0010268
:103FC000218F606BFEF711FB4246D2B2520812F00D
:103FD0000102B4F84010E06BFEF707FB4246D2B294
:103FE000920812F00102B4F84810606CFEF7FDFA76
:103FF0004246D2B2D20812F00102B4F85010E06C7E
:10400000FEF7F3FA0022218AE068FEF7EEFA0120BB
:10401000FFF7FAFE0122218AE068FEF7E6FA0120A6
:10402000FFF7F2FE0022218AE068FEF7DEFA0120A7
:10403000FFF7EAFEBDE8F0812DE9FE4F8046109CB7
:10404000DDF84490129DDDF84CA0149EDDF854B0CC
:10405000169F002088F800009DF8000088F80100F5
:104060009DF8040088F802000298C8F80400BDF822
:104070003000A8F808000D98C8F80C00BDF838000A
:10408000A8F810000F98C8F83400A8F83840C8F80D
:104090003C90A8F84050C8F844A0A8F84860C8F878
:1040A0004CB0A8F85070282088F85500062088F8F1
:1040B00052000C2088F85300142088F85400322055
:1040C000FFF7A2FE002233214046FFF71FFF052025
:1040D000FFF79AFE002233214046FFF717FF052025
:1040E000FFF792FE002232214046FFF70FFF052026
:1040F000FFF78AFE002298F852104046FFF706FFAD
:10410000002298F853104046FFF700FF002298F86D
:1041100054104046FFF7FAFE002298F8551040462A
:10412000FFF7F4FE002201214046FFF7EFFE0022D8
:1041300002214046FFF7EAFEBDE8F78FF8B504001C
:104140000D001600002069465A4A13680B602900CA
:104150006278C9B2914202D36178491E0D003100E4
:10416000A278C9B2914202D3A178491E0E00310053
:10417000C9B2022905DA69463200D2B28F5CEF1962
:1041800005E069463200D2B2895C69180F1F2078B9
:10419000102807D1002257F08001C9B22000FFF794
:1041A0003FFE09E02078002806D1002257F0800168
:1041B000C9B22000FFF7AAFEF1BD38B504000D001A
:1041C0002078102806D101222900C9B22000FFF76B
:1041D00027FE08E02078002805D101222900C9B275
:1041E0002000FFF793FE31BD38B504000D0028789C
:1041F000002805D029782000FFF7DFFF6D1CF6E7C7
:1042000031BD10B504002078102805D1002201210D
:104210002000FFF705FE07E02078002804D10022E7
:1042200001212000FFF772FE1420FFF7EDFD10BD05
:1042300001000800C0B2002801D1012038E00800C8
:10424000C0B2012801D10A2032E00800C0B2022821
:1042500001D164202CE00800C0B2032802D14FF441
:104260007A7025E00800C0B2042802D142F2107032
:104270001EE00800C0B2052801D10F4818E0080070
:10428000C0B2062801D10D4812E00800C0B20728CC
:1042900001D10B480CE00800C0B2082801D1094840
:1042A00006E00800C0B2092801D1074800E001205B
:1042B0007047000038080108A086010040420F0046
:1042C0008096980000E1F50500CA9A3B2DE9F84F69
:1042D00082468B46002500200A260027B046B946B4
:1042E000BBF1000F08D5DBF100042D212A00D2B26A
:1042F0000AF802106D1C00E05C46200000214246D6
:104300004B4601F001FC002901D1002808D0A6FB92
:10431000080106FB091107FB081180468946ECE7F6
:10432000404649460A22002301F0EEFB06000F003A
:10433000002F01D1002E28D02000002132003B00A8
:1043400001F0E2FB30302900C9B20AF801006D1C0F
:10435000A0465FF000092000002132003B0001F080
:10436000D3FBA6FB002306FB013307FB0033B8EBAE
:10437000020079EB03010400300039000A22002317
:1043800001F0C2FB06000F00D2E72800C0B2BDE872
:10439000F28F2DE9F74F04001D000D9E5FF0000B1A
:1043A0002900C9B29DF80800091A491C5846C0B234
:1043B000814207DB5846C0B2305C002802D01BF1B6
:1043C000010BEDE728009DF80810C0B28842C0F04C
:1043D0008A809DF804209DF808102000FFF7AEFEAB
:1043E0005FF000089DF80890B5EB090919F1010983
:1043F0004946C9B25846C0B2091A022091FBF0F7EB
:104400009DF83000002803D0022843D01FD36AE073
:104410009DF808A028005146C0B2C9B2884215D301
:104420005846C0B200280AD04046C0B2315C2000D5
:10443000FFF7C3FEBBF1010B18F1010803E02021D7
:104440002000FFF7BAFE1AF1010AE3E74BE09DF8FE
:1044500008A028005146C0B2C9B2884219D35846B4
:104460004946C0B2C9B288420AD34046C0B2315CA4
:104470002000FFF7A2FEBBF1010B18F1010803E0D9
:1044800020212000FFF799FEB9F101091AF1010A74
:10449000DFE728E09DF808A028005146C0B2C9B265
:1044A00088421FD33800C0B2002813D15846C0B28A
:1044B00000280AD04046C0B2315C2000FFF77DFEE4
:1044C000BBF1010B18F1010809E020212000FFF7E2
:1044D00074FE04E020212000FFF76FFE7F1E1AF11A
:1044E000010AD9E7FFE7BDE8F78F2DE9FF4F85B057
:1044F00014220021684602F079F8002700240020E9
:1045000000261399002902D5139D6D4200E0139DEA
:1045100013996846FFF7DAFE8346002D4ED09DF8CA
:104520005000FFF785FE01008D4204D20A2045436A
:10453000761C002DF8D13000C0B2002821D058469A
:104540006A460300DBB21A4412F8012C2D2A03D06C
:104550000200D2B2002A08D130226B460400E4B235
:104560001A551BF1010B761EE5E76A460300DBB224
:104570001A4412F8012C6B460400E4B21A55401E8E
:10458000DEE70A20B1FBF0F45E46002C16D00A20CC
:10459000B4FBF0F4684669463200D2B2114411F817
:1045A000011C3200D2B28154761E002CEDD12E2196
:1045B0003200D2B281541BF1010BE6E79DF82000D6
:1045C0009DF81C108842C0F08F809DF818209DF83F
:1045D0001C100598FFF7B2FD5FF000089DF8200061
:1045E0009DF81C90B0EB090919F101094946C9B2BF
:1045F0005846C0B2091A022091FBF0F79DF8480016
:10460000002803D0022845D020D36DE09DF81CA0DF
:104610009DF820005146C9B2884216D35846C0B210
:1046200000280BD068464146C9B2415C0598FFF7A7
:10463000C4FDBBF1010B18F1010803E0202105982E
:10464000FFF7BBFD1AF1010AE2E74DE09DF81CA05F
:104650009DF820005146C9B288421AD358464946AF
:10466000C0B2C9B288420BD368464146C9B2415C68
:104670000598FFF7A2FDBBF1010B18F1010803E05B
:1046800020210598FFF799FDB9F101091AF1010AF6
:10469000DEE729E09DF81CA09DF820005146C9B234
:1046A000884220D33800C0B2002814D15846C0B286
:1046B00000280BD068464146C9B2415C0598FFF717
:1046C0007CFDBBF1010B18F1010809E020210598E0
:1046D000FFF773FD04E020210598FFF76EFD7F1EB4
:1046E0001AF1010AD8E7FFE709B0BDE8F08F25000D
:1046F00070B50400FFF782FB0500260016F1010FDC
:1047000002D0044800688619FFF778FB401BB042CE
:10471000FAD370BD040000202DE9F84F8AB00600DE
:1047200014001D00DDF850905FF0000A5FF00008F3
:1047300000271E2100220DF1080B5846FFF742FA10
:10474000DFF8C023D2E90001CDE9000102A8009002
:10475000002D09D1002C07D130203168B28888544F
:10476000B088401CB08068E0002D01D1002C1AD028
:10477000200029000A22002301F0C6F990462000FB
:1047800029000A22002301F0BFF904000D0018F1EE
:1047900030000099BDF804208854BDF80400401C86
:1047A000ADF80400E0E75FF0000BBDF80400022163
:1047B00090FBF1F0594689B281421FDA0098BDF8AA
:1047C00004100844594689B24942084410F8010CC3
:1047D00007000098BDF804100844594689B24942C0
:1047E000084400995A4692B2895C00F8011C00986E
:1047F000594689B247541BF1010BD6E74946C9B265
:10480000684600F01DF800210800BDF8042080B2C1
:1048100090420DD23068B28810440A0092B2009BD8
:104820008C461FFA8CFC13F80C308354491CEBE7C0
:10483000B288BDF804008218B2800BB0BDE8F08FDA
:104840002DE9F84785B005000E005FF0000914213E
:1048500000226C462000FFF7B5F9002400275FF026
:1048600000080020A988012903D129680978302986
:1048700003D03100C9B2002900D1A7E03100C9B28C
:10488000AA8889B2914235D3694630222300DBB22F
:10489000CA54641C2E222300DBB2CA54641CAA88AA
:1048A000B21A170000231A00BC465FFA8CFC92B2C1
:1048B0001FFA8CFC624508D23022A4465FFA8CFCB9
:1048C00001F80C20641C5B1CEDE700221300B5F816
:1048D00004C09BB2634543D22B6894461FFA8CFCFC
:1048E00013F80C30A4465FFA8CFC01F80C30641C01
:1048F000521CEBE7A988891B884600210A00434621
:10490000DBB292B29BB29A420CD22A680B009BB2E5
:10491000D25C6B46A4465FFA8CFC03F80C20641C46
:10492000491CEBE76B462E22A4465FFA8CFC03F889
:104930000C20641C4246D2B21100B5F804C089B202
:1049400061450DD2296894461FFA8CFC11F80C10B1
:10495000A4465FFA8CFC03F80C10641C521CEBE7B5
:10496000A1464946C9B2B1F1010A504680B20028B9
:1049700015D06846514689B2415C302906D051466F
:1049800089B2405C2E2800D1641E08E0514689B2ED
:10499000405C302800D1641EBAF1010AE5E7280026
:1049A00000F017F8002001002200D2B289B292B2C2
:1049B00091420BD2A9884A1CAA806A4603009BB286
:1049C000D25C2B6889B25A54401CECE706B0BDE8B3
:1049D000F08710B400210A00838892B29A4206D26E
:1049E000002203680C00A4B21A55491CF3E7002208
:1049F000828010BC704770B40300002200240020A5
:104A000000252A000E00D2B2F6B2B24220D22A000D
:104A1000D2B29A5C302A0ADB2A00D2B29A5C3A2AD5
:104A200005DA2A00D2B29A5C303A140001E0002282
:104A300014002A00D2B2002A03D12200D2B2100000
:104A400004E00A262200D2B206FB00206D1CD8E743
:104A500070BC704710B4040013005A1E9BB2002BA8
:104A600002D02170641CF7E710BC704770B50400D9
:104A70000D0016002000C0B2032804DA310089B20C
:104A8000280000F096F870BD38B504000D0028002D
:104A900001F0B6FD020092B229002000C0B2FFF77B
:104AA000E5FF31BD70B504000D001600320092B272
:104AB00029002000C0B2FFF7D9FF134A1068002870
:104AC00004D0310089B228001268904770BD70B5DB
:104AD00004000D00280001F093FD020092B22900AD
:104AE0002000C0B2FFF7C2FF074E3068002807D091
:104AF000280001F085FD010089B228003268904746
:104B000070BD0000300801089833002010B5364C05
:104B100000223649200001F035FF3549200001F020
:104B20003EFF002010BD0020704703001800C0B2F7
:104B3000002810D001280FD002280ED003280DD055
:104B400004280CD020280BD021280AD0222809D0F4
:104B5000232808D008E007E006E005E004E003E0D1
:104B600002E001E000E0FFE70020704770B50400BC
:104B70000D001D4E2100300001F011FF300001F04A
:104B800036FF1C48828800210068FFF763FF1A483F
:104B90002968818000218288914204D2625C036886
:104BA0005A54491CF7E701211448FDF74FFB002038
:104BB00070BD2DE9F04104000D0000260A4FD7F822
:104BC0009082D8F81402002801D0012009E02A00C0
:104BD00092B22100380001F0D5FE380001F0E6FE67
:104BE000C0B2BDE8F08100007424002088190020C4
:104BF00088150020A00B0020980B00200C0200203C
:104C000010B50400002C01D1012035E0A069002876
:104C1000FFD194F84100002805D1002084F840001D
:104C2000200000F06DFC242084F841002068C0685A
:104C300030F400502168C860200000F08DFB20682F
:104C4000006930F49040216808612068406930F0C4
:104C50002A00216848612068C06850F4005021682B
:104C6000C86000206064202084F84100202084F87F
:104C7000420000206063002010BD10B50400002C2D
:104C800001D101201BE0242084F841002068C06885
:104C900030F400502168C860200000F083FC002040
:104CA0006064002084F84100002084F84200002065
:104CB000206300206063002084F84000002010BDC5
:104CC0002DE9FC4706000D0017009846002496F8D1
:104CD0004100202851D1002D03D0380080B2002897
:104CE00001D101204AE000207064212086F84100B3
:104CF000FFF784F88146B784F784B068B0F5805F29
:104D000005D13069002802D10024AA4602E02C0017
:104D10005FF0000AF08C00281ED0CDF800804B46D2
:104D200000228021300000F0AFF9002801D00320DC
:104D300024E0002C08D1BAF80000C005C00D31688D
:104D400048601AF1020A03E0207831684860641C68
:104D5000F08C401EF084DDE7CDF800804B46002249
:104D60004021300000F090F9002801D0032005E038
:104D7000202086F84100002000E00220BDE8F687F0
:104D800070B505000C00160095F84200202810D1DF
:104D9000002C03D0300080B2002801D1012009E0AE
:104DA00000202863320092B22100280000F0B4F9FC
:104DB00000E0022070BD2DE9FC470600306807685E
:104DC0003068D0F80C803068D0F8149000200025AE
:104DD00017F00F04002C08D1B80606D55FEA8860EA
:104DE00003D5300000F03DFA4CE1002C00F080804B
:104DF0005FEAC97002D418F4907F79D017F00100EF
:104E0000C0B2002806D05FEAC85003D5706C50F0DD
:104E100001007064780708D519F00100C0B20028BD
:104E200003D0706C50F002007064B80708D519F018
:104E30000100C0B2002803D0706C50F00400706410
:104E400038070BD55FEA886004D419F00100C0B2BE
:104E5000002803D0706C50F008007064706C00285B
:104E600045D0B80605D55FEA886002D5300000F06D
:104E7000F8F930684069800910F001000500706C95
:104E8000000701D4002D2DD0300000F067F9306804
:104E90004069400622D53068143050E8000F30F0E9
:104EA00040000100306810F1140242E800100028B0
:104EB000F1D1F06B00280DD00FF20930F16B48638F
:104EC000F06B01F0B3FE002811D0F06BF16B496B71
:104ED00088470CE0300000F0B5FB08E0300000F03F
:104EE000B1FB04E0300000F0ADFB00207064C9E0CD
:104EF000306B012840F0B480F80640F1B1805FEAE1
:104F0000C86040F1AD8000200090306800680090DB
:104F100030684068009000983068406940065CD571
:104F2000F06B0068D0F804A0504680B2002853D03F
:104F30005046B18D80B288424ED2A6F82EA0F06BBA
:104F4000806920283FD030680C3050E8000F30F4E2
:104F500080700100306810F10C0242E80010002857
:104F6000F1D13068143050E8000F400840000100D3
:104F7000306810F1140242E800100028F1D13068C6
:104F8000143050E8000F30F040000100306810F19C
:104F9000140242E800100028F1D1202086F84200D7
:104FA0000020306330680C3050E8000F30F0100003
:104FB0000100306810F10C0242E800100028F1D125
:104FC000F06B01F009FE02207063B18DF08D091ABB
:104FD00089B2300000F035FB54E0B08DB6F82EA059
:104FE000B0EB0A0AF08D002839D0504680B2002874
:104FF00035D030680C3050E8000F30F4907001006C
:10500000306810F10C0242E800100028F1D130683D
:10501000143050E8000F400840000100306810F1E3
:10502000140242E800100028F1D1202086F8420046
:105030000020306330680C3050E8000F30F0100072
:105040000100306810F10C0242E800100028F1D194
:1050500002207063514689B2300000F0F2FA11E08C
:10506000380606D55FEA086003D5300000F0B6F8D0
:1050700008E0780606D55FEA486003D5300000F006
:10508000E0F8FFE7BDE8F3872DE9F04105000E00E9
:1050900017009846069C286800683040B04201D14D
:1050A000012000E000203900C9B2884231D114F15A
:1050B000010FF0D0002C05D0FEF7A0FEB0EB0800E9
:1050C0008442E8D228680C3050E8000F30F4D070E9
:1050D0000100286810F10C0242E800100028F1D10C
:1050E0002868143050E8000F40084000010028688C
:1050F00010F1140242E800100028F1D1202085F8B8
:105100004100202085F84200002085F8400003205F
:1051100000E00020BDE8F08110B4030099629A8598
:10512000DA8500205864222083F84200186900289C
:1051300005D01868C06850F480701C68E06018687A
:10514000406950F001001C6860611868C06850F048
:1051500020001C68E060002010BC704701680C3122
:1051600051E8001F31F490710A00016811F10C033D
:1051700043E800210029F1D10168143151E8001FF2
:10518000490849000A00016811F1140343E80021AD
:105190000029F1D1016B01290DD101680C3151E8D1
:1051A000001F31F010010A00016811F10C0343E8FF
:1051B00000210029F1D1202180F842100021016353
:1051C0007047000038B50400656A0020E8850020BB
:1051D000E884280000F036FA31BD0000010091F8A3
:1051E000410021282BD18868B0F5805F0DD1086976
:1051F00000280AD1086A02001088C005C00D0B689B
:105200005860086A801C086205E0086A431C0B624B
:1052100000780B685860C88C401EC88480B2002893
:105220000BD10868C06830F080000B68D86008684F
:10523000C06850F040000B68D860002000E00220F9
:10524000704710B504002068C06830F04000216845
:10525000C860202084F84100200001F0A8FD002053
:1052600010BD7CB5040094F84200222872D1A068D9
:10527000B0F5805F0DD1206900280AD10025A66A0B
:1052800020684068C005C00D3080A06A801CA06204
:1052900017E0A56A0026A068B0F5805F05D0A06879
:1052A000002806D12069002803D1206840682870B2
:1052B00004E02068406810F07F002870A06A401C5D
:1052C000A062E08D401EE08580B2002840D12068B9
:1052D000C06830F020002168C8602068C06830F4E1
:1052E00080702168C86020684069400840002168DB
:1052F0004861202084F8420000206063206B012870
:1053000021D10020206320680C3050E8000F30F0DD
:1053100010000100206810F10C0242E80010002883
:10532000F1D120680068C00608D5002000902068F0
:10533000006800902068406800900098A18D2000CF
:1053400000F07FF902E0200000F062F9002002E0A6
:10535000002000E0022076BDF8B504002068016955
:1053600031F44051E068014320680161A56820697B
:10537000054360690543E06905432068C1685148F9
:10538000014029432068C1602068416931F44071BF
:10539000A06901432068416120684B49884202D1DD
:1053A00002F0C9F801E002F0BBF8E169B1F5004F85
:1053B00044D16421192202FB00F366687600B3FB36
:1053C000F6F36426B3FBF6F302FB00F667687F0092
:1053D000B6FBF7F602FB00F7D4F804C05FEA4C0C0A
:1053E000B7FBFCF75FF0640CB7FBFCF701FB17663B
:1053F000F60032366427B6FBF7F6760016F4F87638
:1054000016EB031602FB00F367687F00B3FBF7F3AC
:1054100002FB00F267687F00B2FBF7F26427B2FB81
:10542000F7F201FB1231C90032316422B1FBF2F113
:1054300011F007018E1921688E6042E06421192263
:1054400002FB00F36668B600B3FBF6F36426B3FB19
:10545000F6F302FB00F66768BF00B6FBF7F602FB47
:1054600000F7D4F804C05FEA8C0CB7FBFCF75FF0E0
:10547000640CB7FBFCF701FB176636013236642774
:10548000B6FBF7F616F0F00616EB031602FB00F378
:105490006768BF00B3FBF7F302FB00F26768BF0069
:1054A000B2FBF7F26427B2FBF7F201FB12310901FC
:1054B00032316422B1FBF2F111F00F018E19216833
:1054C0008E60F1BDF369FFFF0038014080B54048B0
:1054D000404901604FF41651416000218160002174
:1054E000C160002101610C21416100218161002125
:1054F000C161FFF785FB002801D002F001F901BD71
:1055000038B586B004001422002101A801F06EF81D
:1055100020683049884243D12F48016851F48041C6
:105520000160006810F48040009000982B480168EA
:1055300051F002010160006810F002000090009834
:10554000C0200190022002900020039003200490CC
:105550000720059001A92248FCF7A2FE214D224810
:105560002860002068600020A8608020E86000209B
:105570002861002068612020A8610020E8612800DF
:1055800001F054FA002801D002F0BAF8E5636C6229
:1055900000220021252002F041F9252002F053F9D4
:1055A00007B030BD10B5040020680A4988420ED10A
:1055B0000948016831F480410160C0210848FCF7C6
:1055C00053FFE06B01F071FA252002F043F910BDA2
:1055D0004831002000380140203802401C38024089
:1055E000000402409031002058600240704770472C
:1055F00080B5012225492648FFF7C2FB01BD70474F
:1056000080B5FFF7F5FFFFF7F1FFFFF7F0FF01BDF2
:1056100070B504001E4821680268914210D11D4AED
:105620001A490B7815689688AB5593885B1C938054
:105630009388632B01D3002393800122FFF7A0FB03
:1056400070BD704710B50400206811490968884290
:1056500002D102201049087002211048FCF7F6FD23
:1056600010BD10B50C4C2078002801D1FFF7BFFF0A
:105670002078012803D1FFF7C2FFFFF7B7FF20789A
:10568000022801D1FFF7B4FF10BD0000EC33002069
:1056900048310020A00B0020ED3300200C02002038
:1056A00010B50400002C01D1012023E094F839004A
:1056B000002805D1002084F83800200002F025F9E8
:1056C000022084F83900211D206800F06AF90120C9
:1056D00084F83E00012084F83A00012084F83B0061
:1056E000012084F83C00012084F83D00012084F86A
:1056F0003900002010BD010091F83900012801D0C7
:10570000012030E0022081F839000868C06850F0BC
:1057100001000B68D8600868B0F1804F0ED00868AF
:10572000DFF84430984209D00868DFF840309842EA
:1057300004D00868DFF8383098420DD108688068D6
:1057400010F007000200062A0CD00868006850F02C
:1057500001000B68186005E00868006850F001005F
:105760000B681860002070470004004000080040EB
:105770000008014010B504002068006980071AD5B0
:105780002068C068800716D57FF002002168086194
:10579000012020762068806910F0030F03D02000DC
:1057A00002F0D0F805E0200002F0CDF8200002F071
:1057B000CBF8002020762068006940071AD52068C1
:1057C000C068400716D57FF00400216808610220F8
:1057D00020762068806910F4407F03D0200002F01A
:1057E000B1F805E0200002F0AEF8200002F0ACF8BD
:1057F000002020762068006900071AD52068C0685C
:10580000000716D57FF00800216808610420207683
:105810002068C06910F0030F03D0200002F092F856
:1058200005E0200002F08FF8200002F08DF8002043
:10583000207620680069C0061AD52068C068C006B6
:1058400016D57FF0100021680861082020762068B6
:10585000C06910F4407F03D0200002F073F805E027
:10586000200002F070F8200002F06EF80020207690
:1058700020680069C0070AD52068C068C00706D53F
:105880007FF00100216808612000FDF72BFD2068F2
:10589000006940060AD52068C068400606D57FF03A
:1058A000400021680861200002F04FF810BDF8B5F3
:1058B00004000D00002694F83800012801D10220D0
:1058C0006EE0012084F83800022084F83900206856
:1058D000876837F0770737F47F4720688760286844
:1058E00000284ED010284CD020284AD0302848D04C
:1058F00040283CD0502826D060282ED0702807D0D1
:10590000B0F5805F03D0B0F5005F0FD03EE03FE020
:10591000EB686A68A968206800F0B5F820688068BC
:1059200050F0770007002068876031E0EB686A6814
:10593000A968206800F0A7F82068806850F48040CB
:105940002168886024E0EA686968206800F06EF8E1
:105950005021206800F08FF81AE0EA686968206832
:1059600000F076F86021206800F085F810E0EA6821
:105970006968206800F05AF84021206800F07BF840
:1059800006E02968206800F076F801E001200600B2
:10599000012084F83900002084F838003000C0B2BB
:1059A000F2BD0368B0F1804F0BD01A4A904208D084
:1059B000194A904205D0194A904202D0184A9042A2
:1059C00003D133F070034A681343B0F1804F11D014
:1059D000104A90420ED0104A90420BD00F4A90428B
:1059E00008D00F4A904205D00E4A904202D00E4A8B
:1059F000904203D133F44073CA68134333F08003F9
:105A00000A69134303608A68C2620A6882620122DB
:105A1000426170470004004000080040000C004054
:105A200000080140000C01400010014010B4046A5D
:105A3000036A5B085B000362836933F0F00353EA97
:105A4000021334F00A040C438361046210BC7047F3
:105A500010B4046A036A33F010030362836933F4F9
:105A6000704353EA023334F0A00454EA0114836112
:105A7000046210BC7047836833F0700351F0070272
:105A800013438360704730B4846834F47F4452EA2F
:105A9000010555EA03252C43846030BC704738B5B6
:105AA0000400002C01D1012026E04CF6CC402168F6
:105AB000086045F2555021680860606821684860B8
:105AC000A06821688860FEF799F905002068C06821
:105AD00010F0030F0BD0FEF791F9401B2B28F5D3E4
