:020000040800F2
:10000000D0040020CD3200087D3000087F30000889
:1000100081300008833000088530000800000000AF
:100020000000000000000000000000008730000811
:1000300089300008000000008B3000088D30000877
:10004000193300081D330008213300082533000848
:10005000293300082D3300083133000835330008F8
:10006000393300083D3300084133000845330008A8
:10007000493300084D330008513300085533000858
:10008000593300085D330008613300086533000808
:10009000693300086D3300087133000875330008B8
:1000A000793300087D330008813300088533000868
:1000B000893300088D330008913300089533000818
:1000C000993300089D330008A1330008A5330008C8
:1000D000A9330008AD330008B1330008953000089B
:1000E000B5330008B9330008BD330008C133000838
:1000F000C5330008C9330008CD330008D1330008E8
:10010000D53300080000000000000000D9330008CB
:10011000DD330008E1330008E5330008E933000867
:10012000ED330008F1330008F5330008F933000817
:10013000FD3300080134000800000000000000004A
:1001400005340008093400080D34000800000000E0
:10015000000000000000000000000000000000009F
:100160001134000815340008193400081D34000843
:100170002134000825340008293400082D340008F3
:100180003134000835340008000000000000000091
:1001900039340008F8B50026DFF8084A206850F026
:1001A0000100206000F028FD05002068800706D4CB
:1001B00000F022FD401B0328F7D303205CE02068F9
:1001C00030F0F80050F080002060DFF8DC69316822
:1001D000DFF8D8090140316000F00EFD07003068FB
:1001E00010F00C0F08D000F007FDC01B41F2893160
:1001F0008842F4D303203FE0DFF8B409DFF8B419F4
:100200000860DFF8B409006800F0FCFC002801D0A9
:10021000012031E02168DFF8A40901402160206855
:1002200030F48020206000F0E7FC050020688001A9
:1002300006D500F0E1FC401B0328F7D303201BE0A8
:10024000002030600020DFF8781908600020DFF817
:1002500074190860DFF87009016851F41F0101602A
:100260000021016001208021B1FA81F1DFF85C29D1
:1002700012EB810210600020F2BD2DE9FE4F040058
:10028000002C01D101204CE32078C00740F1B6805A
:10029000DFF81409016811F00C0104290AD0016883
:1002A00011F00C01082928D1006810F4C030B0F515
:1002B000803F22D14FF48040B0FA80F151F020010C
:1002C000C9B24909012903D1DFF8D818096806E045
:1002D000B0FA80F1B0FA80F1DFF8F4180968B0FAEA
:1002E00080F010F01F00C140C80740F187806068AF
:1002F000002840F08380012013E36068B0F5803F60
:1003000006D1DFF8A008016851F48031016026E0D1
:10031000606800280AD1DFF88C08016831F4803168
:100320000160016831F48021016018E06068B0F577
:10033000A02F0AD1DFF86C08016851F48021016018
:10034000016851F48031016009E0DFF85808016864
:1003500031F480310160016831F48021016060680E
:10036000002825D000F048FC05004FF48040B0FA8A
:1003700080F151F02001C9B24909012903D1DFF808
:100380002418096806E0B0FA80F1B0FA80F1DFF8CD
:1003900040180968B0FA80F010F01F00C140C8078B
:1003A0002CD400F029FC401B6528DED30320B8E2E2
:1003B00000F022FC05004FF48040B0FA80F151F0CB
:1003C0002001C9B24909012903D1DFF8D81709680A
:1003D00006E0B0FA80F1B0FA80F1DFF8F4170968AE
:1003E000B0FA80F010F01F00C140C80706D500F039
:1003F00003FC401B6528DED3032092E220788007AF
:1004000040F1B380DFF8A007016811F00C0F0AD0AB
:10041000016811F00C01082935D1006810F4C030D2
:10042000B0F5004F2FD15FF08040B0FA80F151F06D
:100430002001C9B24909012903D1DFF86817096809
:1004400006E0B0FA80F1B0FA80F1DFF884170968AD
:10045000B0FA80F010F01F00C140C80704D5E06872
:10046000012801D001205CE2DFF8380701685FF065
:10047000F852B2FA82F231F0F801236913FA02F26B
:100480001143016071E0E06800283ED001205FF078
:100490000041B1FA81F1DFF83C2712EB81021060D4
:1004A00000F0AAFB05005FF08040B0FA80F151F047
:1004B0002001C9B24909012903D1DFF8E81609680A
:1004C00006E0B0FA80F1B0FA80F1DFF804170968AD
:1004D000B0FA80F010F01F00C140C80706D400F049
:1004E0008BFB401B0328DED303201AE2DFF8B4069F
:1004F00001685FF0F852B2FA82F231F0F801236934
:1005000013FA02F2114301602FE000205FF0004176
:10051000B1FA81F1DFF8BC2612EB8102106000F025
:100520006BFB05005FF08040B0FA80F151F02001D4
:10053000C9B24909012903D1DFF86816096806E044
:10054000B0FA80F1B0FA80F1DFF884160968B0FAE9
:1005500080F010F01F00C140C80706D500F04CFB2A
:10056000401B0328DED30320DBE1207800074ED5B3
:100570006069002825D001205FF00041B1FA81F1C7
:10058000DFF8482612EB8102106000F035FB050011
:100590005FF08040B0FA80F1B0FA80F1B0FA80F1FB
:1005A000DFF82C160968B0FA80F010F01F00C14087
:1005B000C8072CD400F020FB401B0328E8D30320FD
:1005C000AFE100205FF00041B1FA81F1DFF8FC25D6
:1005D00012EB8102106000F00FFB05005FF080401D
:1005E000B0FA80F1B0FA80F1B0FA80F1DFF8E015EE
:1005F0000968B0FA80F010F01F00C140C80706D5A6
:1006000000F0FAFA401B0328E8D3032089E12078A0
:10061000400740F1BC800027DFF8BC85D8F8000017
:10062000C0000DD4D8F8000050F08050C8F8000089
:10063000D8F8000010F080500190019801200700C8
:10064000DFF89895D9F80000C00513D4D9F8000058
:1006500050F48070C9F8000000F0CEFA0500D9F817
:100660000000C00506D400F0C7FA401B6528F6D389
:10067000032056E1A068012806D1DFF8640501686F
:1006800051F00101016025E0A06800280AD1DFF8DF
:1006900050050168490849000160016831F0040112
:1006A000016017E0A06805280AD1DFF83405016869
:1006B00051F004010160016851F00101016009E09D
:1006C000DFF81C050168490849000160016831F044
:1006D00004010160A068002827D000F08DFA050011
:1006E0005FF08040B0FA80F1B0FA80F151F0400143
:1006F000C9B24909022903D1DFF8E414096804E00A
:10070000B0FA80F1DFF8C8140968B0FA80F010F090
:100710001F00C140C80730D400F06EFA401B41F200
:1007200089318842DCD30320FBE000F065FA050044
:100730005FF08040B0FA80F1B0FA80F151F04001F2
:10074000C9B24909022903D1DFF89414096804E009
:10075000B0FA80F1DFF878140968B0FA80F010F090
:100760001F00C140C80708D500F046FA401B41F2FF
:1007700089318842DCD30320D3E03800C0B201289D
:1007800005D1D8F8000030F08050C8F80000A0690A
:10079000002800F0C580DFF81084D8F8000010F0C1
:1007A0000C00082800F09E80A06902286CD15FF040
:1007B0008009DFF820A40020B9FA89F11AEB810141
:1007C000086000F019FA07005FF0400BBBFA8BF0ED
:1007D00050F02000C0B24009012803D1DFF8C40363
:1007E000006806E0BBFA8BF0BBFA8BF0DFF8E003A1
:1007F0000068BBFA8BF111F01F01C840C00706D595
:1008000000F0FAF9C01B0328DED3032089E0DFF8EB
:10081000B0130A6812091201606A02430A60D8F82C
:10082000001031F47611206A0143E0690143C8F8F1
:1008300000100120B9FA89F11AEB810ACAF8000008
:1008400000F0DAF90500BBFA8BF050F02000C0B2DE
:100850004009012803D1DFF84C03006806E0BBFA29
:100860008BF0BBFA8BF0DFF868030068BBFA8BF102
:1008700011F01F01C840C00752D400F0BDF9401B61
:100880000328E0D303204CE000208021B1FA81F15D
:10089000DFF8402312EB8102106000F0ADF9050093
:1008A0004020B0FA80F151F02001C9B24909012974
:1008B00003D1DFF8F012096806E0B0FA80F1B0FA6F
:1008C00080F1DFF80C130968B0FA80F010F01F0017
:1008D000C140C80724D500F08FF9401B0328DFD39F
:1008E00003201EE0A069012801D1012019E0D8F8F9
:1008F00000000600DFF8C8020068009016F4C0305F
:10090000E16988420AD116F47010216A884205D143
:10091000009810F00F00616A884201D0012000E0C9
:100920000020BDE8FE8F2DE9F04104000D000026F7
:10093000002C01D10120D6E0DFF8A872386810F051
:100940000700A8420BD23868C008C00028433860AE
:10095000386810F00700A84201D00120C3E02078D9
:10096000800707D5DFF840120A6832F0F002A0686D
:1009700002430A602078C0077AD5606801281DD13B
:100980004FF48040B0FA80F151F02001C9B249091A
:10099000012903D1DFF80C12096806E0B0FA80F1F2
:1009A000B0FA80F1DFF828120968B0FA80F010F090
:1009B0001F00C140C8073DD4012094E060680228B0
:1009C0001CD14020B0FA80F151F02001C9B2490990
:1009D000012903D1DFF8CC11096806E0B0FA80F1F3
:1009E000B0FA80F1DFF8E8110968B0FA80F010F091
:1009F0001F00C140C8071DD4012074E05FF0804093
:100A0000B0FA80F151F02001C9B24909012902D19F
:100A10006449096805E0B0FA80F1B0FA80F16C49E8
:100A20000968B0FA80F010F01F00C140C80701D477
:100A3000012058E0DFF87081D8F80010890889009B
:100A400060680143C8F8001000F0D6F80600D8F836
:100A5000000010F00C006168B0EB810F08D000F0CE
:100A6000CBF8801B41F289318842F0D303203AE071
:100A7000386810F0070085420BD23868C008C00003
:100A800028433860386810F00700A84201D00120E0
:100A900029E02078400706D543490A6832F4E0622D
:100AA000E06802430A602078000707D53E480168E5
:100AB00031F46051226951EAC201016000F015F879
:100AC00039490968484A11F0F0015FF07063B3FAE0
:100AD00083F3D940515CC840364908603648006805
:100AE00000F090F80020BDE8F081F0B40020002173
:100AF0000022002300242C4D2D6815F00C06042E36
:100B000002D0082E02D026E0294825E0374815F407
:100B100070164FF47057B7FA87F7FE40805D0300F8
:100B200027480068324E10F00F005FF07047B7FAA8
:100B300087F7F840305C0100E80305D51C48B0FB9E
:100B4000F1F05843020004E01948B0FBF1F05843BB
:100B50000200100000E01648F0BC7047154800681D
:100B6000704780B5FFF7FAFF0F490968214A11F471
:100B7000E0615FF46003B3FA83F3D940515CC8408D
:100B800002BD80B5FFF7EAFF07490968194A11F469
:100B900060515FF4E013B3FA83F3D940515CC8406D
:100BA00002BD000000100240041002400CC0FFF81B
:100BB00000127A000400002000000020FFFFF6FE73
:100BC0002C100240301002400810024080044242C3
:100BD00024100240000042421C10024000700040FD
:100BE0002010024000200240BC3200089C32000865
:100BF000AC3200081033000801480068704700BF9D
:100C0000C800002010B504004FF47A700D4909782F
:100C1000B0FBF1F00C490968B1FBF0F000F0AEF860
:100C2000002801D001200CE0102C09D20022210064
:100C30005FF0FF3000F086F804480460002000E018
:100C4000012010BD0800002004000020000000204A
:100C500010B410F00703DFF8304122684FF6FF01AF
:100C60000A40DFF8281151EA03210A43226010BC30
:100C70007047DFF814010068C0F3022070470100DC
:100C800049B2002909D4012210F01F018A404049CD
:100C900003005BB25B0941F82320704710B40200E7
:100CA00052B2002A05D40A013A4B040064B21A5524
:100CB00008E00A01384B040064B214F00F04234426
:100CC00003F8042C10BC704770B4030013F0070441
:100CD000D4F10700052801D3042001E0D4F1070076
:100CE000251D072D01D2002500E0E51E012616FA7C
:100CF00000F0401E0140A94016FA05F56D1E2A407D
:100D00001143080070BC704710B50400601EB0F1BC
:100D1000807F01D301200EE0601E204908600F2172
:100D20005FF0FF30FFF7BAFF00201D490860072081
:100D30001C490860002010BD10B504002000FFF71A
:100D400087FF10BD2DE9F04104000D0016000027BB
:100D5000FFF78FFF8046320029004046FFF7B4FFBF
:100D60000100200040B2FFF799FFBDE8F08110B507
:100D70000400200040B2FFF782FF10BD10B5040050
:100D80002000FFF7C1FF10BD0CED00E00000FA05E8
:100D900000E100E000E400E018ED00E014E000E015
:100DA00018E000E010E000E010B50400002C01D1D4
:100DB000012035E0A0690028FFD1E06F002805D1AF
:100DC000002084F87800200000F024FD2420E06753
:100DD000206800684008400021680860200000F09A
:100DE00020FA012801D101201AE0606A002802D00F
:100DF000200000F07FFB2068406830F490402168BC
:100E000048602068806830F02A0021688860206887
:100E1000006850F0010021680860200000F0D7FB56
:100E200010BD2DE9FC4706000D0017009846F06F35
:100E3000202859D1002D03D0380080B2002801D1DC
:100E4000012052E00020C6F884002120F067FFF75F
:100E5000D3FE8146A6F85070A6F85270B068B0F57F
:100E6000805F05D13069002802D10024AA4602E043
:100E70002C005FF0000AB6F85200002822D0CDF80E
:100E800000804B4600228021300000F009FC002841
:100E900003D02020F067032027E0002C08D1BAF807
:100EA0000000C005C00D316808851AF1020A03E090
:100EB000207831680885641CB6F85200401EA6F8F8
:100EC0005200D8E7CDF800804B4600224021300088
:100ED00000F0E6FB002803D02020F067032004E0A8
:100EE0002020F067002000E00220BDE8F6872DE911
:100EF000F04706003068C7693068D0F80080306875
:100F0000D0F8089040F60F043C40002C0BD1B806F6
:100F100009D55FEA886006D5B06E002802D030009F
:100F2000B16E88477BE1002C00F0AA805FEAC970AF
:100F300005D4DFF8980518EA000F00F0A18017F03B
:100F40000100C0B200280BD05FEAC85008D50120CC
:100F500031680862D6F8840050F00100C6F88400B9
:100F6000B8070DD519F00100C0B2002808D0022042
:100F700031680862D6F8840050F00400C6F8840096
:100F800078070DD519F00100C0B2002808D0042060
:100F900031680862D6F8840050F00200C6F8840078
:100FA000380710D55FEA886004D419F00100C0B298
:100FB000002808D0082031680862D6F8840050F074
:100FC0000800C6F8840038050CD55FEA481009D53A
:100FD0004FF4006031680862D6F8840050F02000B9
:100FE000C6F88400D6F88400002848D0B80608D592
:100FF0005FEA886005D5B06E002802D03000B16E7F
:101000008847D6F88400050030688068400602D41E
:1010100015F0280F2DD0300000F08DFB306880686F
:10102000400622D53068083050E8000F30F040000C
:101030000100306810F1080242E800100028F1D1E8
:10104000706F00280DD0DFF88804716F4863706FEF
:1010500000F049FC002812D0706F716F496B88470F
:101060000DE0300000F06BFC09E0300000F067FCA0
:1010700005E0300000F063FC0020C6F88400CEE0FC
:10108000306E012840F0A980F80640F1A6805FEAA2
:10109000C86040F1A2801020316808623068806822
:1010A000400659D5706F0068D0F804A0504680B251
:1010B000002850D05046B6F8581080B288424AD224
:1010C000A6F85AA0706F8069202839D0306850E89F
:1010D000000F30F480700100326842E800100028F0
:1010E000F4D13068083050E8000F4008400001009B
:1010F000306810F1080242E800100028F1D1306891
:10110000083050E8000F30F040000100306810F166
:10111000080242E800100028F1D12020C6F8800023
:1011200000203066306850E8000F30F010000100F9
:10113000326842E800100028F4D1706F00F0AEFB76
:1011400002207066B6F85810B6F85A00091A89B22B
:10115000300000F0F5FB62E0B6F85800B6F85AA08F
:10116000B0EB0A0AB6F85A00002835D0504680B2D3
:10117000002831D0306850E8000F30F49070010042
:10118000326842E800100028F4D13068083050E896
:10119000000F400840000100306810F1080242E8EA
:1011A00000100028F1D12020C6F880000020306611
:1011B0000020B066306850E8000F30F010000100E9
:1011C000326842E800100028F4D1022070665146CF
:1011D00089B2300000F0B4FB21E0F8020AD55FEAE2
:1011E000492007D55FF4801031680862300000F0B4
:1011F000A8FB14E0380609D55FEA086006D5F06E52
:10120000002802D03000F16E884708E0780606D545
:101210005FEA486003D5300000F0C9FAFFE7BDE897
:10122000F0872DE9F84304000027A16820690143F5
:1012300060690143E069014320680268A5480240F3
:101240000A43206802602068426832F44052E06835
:10125000024320684260D4F81880206A50EA0808E7
:101260002068806830F4306058EA0000226890609E
:101270002068994A90421AD19848006810F00300FB
:10128000002805D002280CD008D3032803D00BE097
:101290005FF0010999E05FF0020996E05FF0040950
:1012A00093E05FF0080990E05FF010098DE020689E
:1012B0008B4988421ED18948006810F440300028CC
:1012C00009D0B0F5803F0CD0B0F5003F0CD0B0F5A0
:1012D000403F03D00BE05FF0000976E05FF00209C9
:1012E00073E05FF0040970E05FF008096DE05FF003
:1012F00010096AE020687B4988421ED1774800685F
:1013000010F44020002809D0B0F5802F0CD0B0F5A3
:10131000002F0CD0B0F5402F03D00BE05FF0000998
:1013200053E05FF0020950E05FF004094DE05FF028
:1013300008094AE05FF0100947E020686A498842DE
:101340001ED16648006810F44010002809D0B0F59E
:10135000801F0CD0B0F5001F0CD0B0F5401F03D09B
:101360000BE05FF0000930E05FF002092DE05FF074
:1013700004092AE05FF0080927E05FF0100924E083
:1013800020685A4988421ED15448006810F4400031
:10139000002809D0B0F5800F0CD0B0F5000F0CD0AC
:1013A000B0F5400F03D00BE05FF000090DE05FF0F7
:1013B00002090AE05FF0040907E05FF0080904E0B1
:1013C0005FF0100901E05FF01009E069B0F5004F2F
:1013D0003ED14846C0B2002808D001280AD00228D1
:1013E0000CD004280CD008280ED010E0FFF7B9FB71
:1013F00001000FE0FFF7C5FB01000BE03C4909E0ED
:10140000FFF773FB010005E04FF4004102E000210B
:1014100001200700002951D06068400810EB41000E
:101420006268B0FBF2F00600102E0ED3B6F5803FD6
:101430000BD24FF6F0723240C6F342000243150061
:10144000280080B22268D06038E00120070035E033
:101450004846C0B2002808D001280AD002280CD083
:1014600004280CD008280ED010E0FFF77AFB01000A
:101470000FE0FFF786FB01000BE01D4909E0FFF7D5
:1014800034FB010005E04FF4004102E0002101209F
:101490000700002912D0606811EB50006268B0FBB1
:1014A000F2F00600102E07D3B6F5803F04D23000CC
:1014B00080B22268D06001E0012007000020A06611
:1014C0000020E0663800C0B2BDE8F28320010004CD
:1014D00095170008F369FFEF003801403010024013
:1014E0000044004000480040004C004000500040D4
:1014F00000127A0090F82410C90707D501684A68DD
:1015000032F40032816A0A4301684A6090F824107C
:10151000890707D501684A6832F48032C16A0A43F4
:1015200001684A6090F82410490707D501684A68A5
:1015300032F48022016B0A4301684A6090F824105B
:10154000090707D501684A6832F40042416B0A4333
:1015500001684A6090F82410C90607D501688A68B6
:1015600032F48052816B0A4301688A6090F824103B
:10157000890607D501688A6832F40052C16B0A43B4
:1015800001688A6090F82410490613D501684A68FA
:1015900032F48012016C0A4301684A60016CB1F5B3
:1015A000801F07D101684A6832F4C002416C0A43C7
:1015B00001684A6090F82410090607D501684A6856
:1015C00032F40022816C0A4301684A60704738B5E2
:1015D00004000020C4F88400FFF70EFB050020681B
:1015E000006800071DD57FF07E4000902B00002290
:1015F0005FF40011200000F053F8002811D020689B
:1016000050E8000F30F080000100226842E800102E
:101610000028F4D12020E067002084F8780003201F
:101620003DE02068006840072CD57FF07E400090A8
:101630002B0000225FF48001200000F031F8002828
:1016400020D0206850E8000F30F49070010022682C
:1016500042E800100028F4D12068083050E8000F5C
:10166000400840000100206810F1080242E8001024
:101670000028F1D12020C4F88000002084F87800F0
:1016800003200CE02020E0672020C4F88000002028
:10169000206600206066002084F87800002032BDBB
:1016A0002DE9F04105000E0090461F00069C2868B9
:1016B000C0693040B04201D1012000E00020414625
:1016C000C9B2884234D114F1010FF0D0FFF794FA77
:1016D000C01B844201D3002C01D1032029E02868DB
:1016E00000684007E3D52868C06900070DD50820C9
:1016F00029680862280000F01EF80820C5F8840058
:10170000002085F87800012013E02868C0690005F2
:10171000CDD54FF4006029680862280000F00BF86E
:101720002020C5F88400002085F87800032000E020
:101730000020BDE8F081016851E8001F31F490718C
:101740000A00036843E800210029F4D10168083148
:1017500051E8001F490849000A00016811F1080317
:1017600043E800210029F1D1016E01290AD1016865
:1017700051E8001F31F010010A00036843E800211E
:101780000029F4D12021C0F8801000210166002139
:101790008166704738B50400656A0020A5F85A00D4
:1017A0000020A5F85200280000F0C9F831BD10B59E
:1017B0000400206850E8000F30F04000010022686B
:1017C00042E800100028F4D12020E0670020E06605
:1017D000200000F0B7F810BD80B52B482B49016000
:1017E0004FF416514160002181600021C160002149
:1017F00001610C214161002181610021C161002151
:10180000016200214162FFF7CFFA002801D000F009
:101810009EF901BD10B586B004001422002101A874
:1018200000F097F92068194988422AD118480168C0
:1018300051F480210160006810F48020009000982D
:101840001448016851F480210160006810F4802080
:10185000009000984FF44060019002200290002018
:101860000390032004900720059001A90A4800F086
:1018700091F9002200212720FFF764FA2720FFF7C3
:1018800076FA06B010BD00000C00002000480040B1
:101890001C1002401410024000040048010091F89E
:1018A0002100022806D004208863002081F820004F
:1018B000012017E00868006830F00E000A68106028
:1018C00008680068400840000A6810600122086C3F
:1018D0008240C86B4260012081F82100002081F81D
:1018E00020000020704738B50400002594F821003E
:1018F000022804D00420A063012005001CE0206819
:10190000006830F00E002168086020680068400818
:101910004000216808600121206C8140E06B41603B
:10192000012084F82100002084F82000606B00284A
:1019300002D02000616B88472800C0B232BD7047DA
:1019400070477047704730B4002513E050F8042BFF
:10195000D30744BFA9F101039A18091F042942F8CB
:10196000045BFAD213468C0744BF15809B1CC90741
:1019700048BF1D7050F8041B0029E7D130BC7047E8
:1019800038B500F021FA00F09BF800F049FAFFF7B3
:1019900023FF3549012000F0EBFA3449012000F023
:1019A000E7FA3349012000F0E3FA32483249096886
:1019B0000160324C3249096821600068AA2838D198
:1019C00000F0E8FA00F09CFD0123072200212D48D9
:1019D00000F048FD01231B2203212B4800F042FDAB
:1019E000012314220521294800F03CFD012319227E
:1019F0000721274800F036FD2649022000F0B8FAFA
:101A00002549022000F0B4FA244D4B21280000F0B3
:101A100013FF2349022000F0ABFA22682900214875
:101A200000F0AEFE2049022000F0A2FA124800F0B9
:101A3000DCFE1E49022000F09BFAFEF7ABFB00F033
:101A4000D3F91B48016831F4E021016019481A49B3
:101A5000096801601949006808601048006880F34F
:101A6000088808688047FEE750310008F831000810
:101A700014320008B800002000F00408BC00002068
:101A800004F0040868320008EC3200087C320008D8
:101A90008C320008303200084C3200080040000848
:101AA000E430000800980208703100089031000806
:101AB00024ED00E0C000002004400008C400002025
:101AC00000B5A5B02822002105A800F042F8142294
:101AD0000021684600F03DF8582200210FA800F0D0
:101AE00038F802200590012008901020099002206B
:101AF0000B904FF400400C905FF400200D900020FC
:101B00000E9005A8FEF7B9FB002801D000F01FF8E1
:101B10000F200090022001900020029000200390EE
:101B20000020049001216846FEF7FDFE002801D048
:101B300000F00DF804200F90002013900FA800F083
:101B40008BFE002801D000F002F825B000BD72B66F
:101B5000FEE710B5044610460A460146204601F04D
:101B600003F8204610BD30B40EE00268436802441A
:101B70000830DC0744BFA9F10104E31852F8045B04
:101B800043F8045B091FF9D150F8041B0029ECD17C
:101B900030BC7047F8B4030000250868E84000280E
:101BA00000F0E18001260F6816FA05F007403A00C0
:101BB000002A00F0D680087910F00300012804D034
:101BC000087910F0030002281DD19F685FF0030C14
:101BD0002800C0B240001CFA00FC37EA0C07D1F81C
:101BE0000CC02800C0B240001CFA00FC5CEA0707E9
:101BF0009F605868AE40B0434E68C6F30016AE40D2
:101C0000304304005C60087910F0030003280ED014
:101C1000DE6803272800C0B240008740BE438F68BB
:101C20002800C0B2400087403E433400DC600879A1
:101C300010F00300022818D12800C00803EB800030
:101C4000066A0F2715F00700C0B280008740BE4328
:101C50000F6915F00700C0B2800087403E43340092
:101C60002800C00803EB800004621E6803272800D8
:101C7000C0B240008740BE430F7917F00307280029
:101C8000C0B2400087403E4334001C60486810F4F6
:101C9000403F66D04048066856F00106066000687E
:101CA00010F00100009000983C4F2800800857F881
:101CB00020605FF00F0C15F00300C0B280001CFA2A
:101CC00000FC36EA0C06B3F1904F01D100241EE06F
:101CD0003348834201D1012419E03248834201D1C3
:101CE000022414E03048834201D103240FE02F483E
:101CF000834201D104240AE02D48834201D1052406
:101D000005E02C48834201D1062400E0072415F0A9
:101D10000300C0B28000844026432800800847F8B2
:101D20002060254C206890434F68FF0200D5104387
:101D30002060224E346894434F68BF0200D514439C
:101D400034601F4E306890434F68BF0300D5104386
:101D500030601C4E346894434F68FF0300D5144331
:101D600034606D1C19E7F1BC7047020010690B006C
:101D70009BB2184201D0012000E00020C0B27047A1
:101D80001300DBB2002B03D00B009BB2836102E097
:101D90000B009BB28362704718100240080001409C
:101DA0000004004800080048000C004800100048EB
:101DB0000014004800180048080401400C040140C9
:101DC000040401400004014080B51148016851F04D
:101DD000100101600320FEF7AFFF0F20FEF712FF96
:101DE00000F0F6FE002002BD80B50A485FF0FF312A
:101DF000016000220260084801600022026007487A
:101E000001600021016000F0FFFE002002BD000023
:101E100000200240101002400C1002402810024026
:101E2000F8B586B0142200216846FFF792FE3A48C2
:101E3000016851F480210160016811F4802105914D
:101E40000599016851F400210160016811F4002135
:101E500005910599016851F400310160016811F4A0
:101E6000003105910599016851F480110160006805
:101E700010F480100590059841F23817274E002283
:101E800039003000FFF77CFF254C00224FF4FE5153
:101E90002000FFF775FF00224FF400415FF09040F3
:101EA000FFF76EFF1F4D002204212800FFF768FF97
:101EB00000970120019000200290002003906946C5
:101EC0003000FFF767FE4FF4FE50009001200190B4
:101ED000002002900020039069462000FFF75AFE80
:101EE0004FF400400090012001900020029000205B
:101EF000039069465FF09040FFF74CFE042000908D
:101F000001200190002002900020039069462800E3
:101F1000FFF740FE07B0F0BD141002400004004877
:101F200000080048000C0048F8B504000D00160039
:101F30002000C0B203281ADA144F01224FF4805156
:101F40003800FFF71DFF052000F060FE4FF47A73A4
:101F5000320092B229000E48FEF763FF052000F020
:101F600055FE00224FF480513800FFF709FFF1BD04
:101F700038B504000D00280000F05CFE020092B2AB
:101F800029002000C0B2FFF7CFFF31BD0004004898
:101F90000C00002010B501224FF48071DFF83007EB
:101FA000FFF7EEFE00242000C0B2022806DA21006E
:101FB000C9B23F2000F009F8641CF4E700F06AF8A9
:101FC0000120DFF81017087010BD70B504000D0077
:101FD00000F0B0FADFF800674021300000F050F860
:101FE0008021300000F04CF82800C0B200F053F817
:101FF0002000C0B200F001F94FF48071300000F011
:1020000035F800F047F84FF48071300000F038F8F0
:102010002800C0B200F063F870BD70B5040000F095
:10202000F8FADFF8B4568021280000F01FF84021AC
:10203000280000F025F82000C0B200F02CF84FF482
:102040008071280000F012F800F024F8DFF814671F
:1020500000F044FB30704FF48071280000F010F85D
:102060002000C0B200F03BF8307870BD38B50400F5
:102070000D000122290089B22000FFF781FE31BD49
:1020800038B504000D000022290089B22000FFF7B6
:1020900077FE31BD704738B504002000C0B200287B
:1020A00003D0022819D00CD318E0DFF824562021E1
:1020B0002800FFF7DBFF4FF480712800FFF7E0FFF7
:1020C0000CE0DFF80C564FF480712800FFF7CEFFCC
:1020D00020212800FFF7D4FF00E0FFE731BD10B555
:1020E00004002000C0B2002803D002280ED006D37E
:1020F0000DE02021DFF8D805FFF7C2FF07E04FF41D
:102100008071DFF8CC05FFF7BBFF00E0FFE710BDF3
:1021100010B50400E00706D54FF40071DFF8B805EC
:10212000FFF7A4FF05E04FF40071DFF8AC05FFF7FF
:10213000A7FFA00706D54FF400415FF09040FFF7DE
:1021400095FF05E04FF400415FF09040FFF798FFE6
:10215000600706D54FF48061DFF87C05FFF786FF46
:1021600005E04FF48061DFF87005FFF789FF200775
:1021700006D54FF40061DFF86005FFF777FF05E053
:102180004FF40061DFF85005FFF77AFFE00606D54F
:102190004FF48051DFF84005FFF768FF05E04FF48A
:1021A0008051DFF83405FFF76BFFA00605D5042149
:1021B000DFF8B405FFF75AFF04E00421DFF8A805B3
:1021C000FFF75EFF600605D50821DFF80405FFF77D
:1021D0004DFF04E00821DFF8F804FFF751FF200667
:1021E00005D51021DFF8E804FFF740FF04E01021D7
:1021F000DFF8DC04FFF744FF10BD10B50400E00772
:1022000006D54FF40071DFF8D004FFF72FFF05E08B
:102210004FF40071DFF8C004FFF732FFA00706D5C6
:102220004FF400415FF09040FFF720FF05E04FF4CE
:1022300000415FF09040FFF723FF600706D54FF4A1
:102240008061DFF89404FFF711FF05E04FF480612F
:10225000DFF88404FFF714FF200706D54FF4006170
:10226000DFF87404FFF702FF05E04FF40061DFF8C8
:102270006804FFF705FFE00606D54FF48051DFF84C
:102280005804FFF7F3FE05E04FF48051DFF84804EF
:10229000FFF7F6FEA00605D50421DFF8CC04FFF712
:1022A000E5FE04E00421DFF8C004FFF7E9FE600664
:1022B00005D50821DFF81804FFF7D8FE04E008214F
:1022C000DFF80C04FFF7DCFE200605D51021DFF84F
:1022D0000004FFF7CBFE04E01021DFF8F403FFF762
:1022E000CFFE10BD70B5040000F024F9DFF8E863FC
:1022F00080213000FFF7C4FE40213000FFF7B6FE1A
:102300002000C0B2FFF704FFDFF8605428784021B6
:1023100090FBF1F0C0B2FFF7BEFE4FF480713000C9
:10232000FFF7A4FEFFF7B6FE4FF480713000FFF711
:10233000A7FE2878402190FBF1F0C0B2FFF7CFFE56
:102340002878401C28702878802801DB002028701D
:1023500070BD2DE9F04104000D0000200021260091
:102360002F00DFF80C241670DFF8002417705FF0E0
:1023700000084046C0B2022813DA4146C9B256F0FE
:10238000B800C0B2FFF721FE4146C9B24020FFF7B6
:102390001CFE4146C9B2C020FFF717FE18F1010824
:1023A000E7E73800C0B2402190FBF1F00100C9B26C
:1023B00056F0B800C0B2FFF708FE3800C0B24022A5
:1023C0003900C9B2402391FBF3F1C9B290FBF2F39B
:1023D00002FB130050F04000C0B2FFF7F6FDBDE86D
:1023E000F081F8B504000D000027B4F120062800A4
:1023F000C0B2012815D10020FFF774FF00200700AC
:10240000380040B205282CDADFF868133200D2B267
:102410000520424342FA87F0085CFFF763FF7F1C08
:10242000EEE72800C0B202281BD10020FFF75AFFB8
:102430007C20FFF757FF00200700380040B2052836
:102440000CDADFF830133200D2B20520424342FAF0
:1024500087F0085CFFF746FF7F1CEEE73820FFF7A8
:1024600041FFF1BD2DE9F04104000D0016001F00F1
:102470005FF000082800C0B2082821DA3100C9B294
:102480002800C0B2FFF765FF200000F0D3FB4146F3
:1024900049B2814214D23800C0B2012807D13900B4
:1024A000C9B2404640B2205CFFF79BFF05E039000F
:1024B000C9B22078FFF795FF641C18F10108E3E723
:1024C0000020FFF7AAFD10F0300F08D0DFF804025B
:1024D0000178012903D100210170FFF75BFD012084
:1024E000FFF79BFD10F0300F08D0DFF8E80101780E
:1024F000012903D100210170FFF74CFDBDE8F081F7
:1025000038B5002500242000C0B2082811DA0021C7
:102510002000C0B2FFF71DFF002005002800C0B258
:10252000802804DA0020FFF7DDFE6D1CF6E7641C4E
:10253000E9E731BD18B585B04FF400700090012077
:1025400001900120029003200390DFF88C4169463E
:102550002000FFF71FFB4FF4004000900120019086
:10256000012002900320039069465FF09040FFF73E
:1025700011FB4FF480600090012001900120029037
:102580000320039069462000FFF704FB4FF400602E
:1025900000900120019001200290032003906946E1
:1025A0002000FFF7F7FA4FF48050009001200190CF
:1025B000012002900320039069462000FFF7EAFA09
:1025C000042000900120019001200290032003903C
:1025D0006946DFF89401FFF7DDFA0820009001203A
:1025E00001900120029003200390DFF8E440694647
:1025F0002000FFF7CFFA1020009001200190012069
:1026000002900320039069462000FFF7C3FA06B04A
:1026100010BD18B585B04FF40070009000200190F7
:1026200001200290DFF8B04069462000FFF7B2FABF
:102630004FF4004000900020019001200290694674
:102640005FF09040FFF7A6FA4FF480600090002002
:1026500001900120029069462000FFF79BFA4FF499
:102660000060009000200190012002906946200047
:10267000FFF790FA4FF48050009000200190012065
:10268000029069462000FFF785FA042000900020A0
:102690000190012002906946DFF8CC00FFF77AFA3A
:1026A000082000900020019001200290DFF8C8402F
:1026B00069462000FFF76EFA10200090002001907C
:1026C0000120029069462000FFF764FA06B010BDB1
:1026D00000040048CE000020000800482DE9F84F13
:1026E0000024254E10213000FFF73FFB0500082194
:1026F0003000FFF73AFB060004211B48FFF735FBCB
:102700000700DFF878804FF480514046FFF72DFB3B
:1027100081464FF400614046FFF727FB82464FF4A5
:1027200080614046FFF721FB83464FF400415FF094
:102730009040FFF71AFBB60156EAC51656EA47164F
:1027400056EA091656EACA0656EA8B0656EA4006C3
:102750004FF400714046FFF708FB06433000C0B25B
:10276000BDE8F28FCF000020000C0048CD00002013
:10277000CC000020402E000800040048000800485B
:102780002DE9F14F8B4692460025002600240127B3
:10279000DDF80080D9461AF0030F22D15046800898
:1027A000060000F0BAFA4FF47A7000F0D8FA002070
:1027B0000500B54213D2D8F800000400220000231F
:1027C0004946022000F052FA07003800C0B2012842
:1027D00005D018F1040819F104096D1CE9E700F0AF
:1027E000ADFA3800C0B2BDE8F28F70B50400012523
:1027F00000F093FA06004FF47A7000F0B0FA30005F
:10280000C0B2002802D1200000F0F4FA4FF47A7030
:1028100000F0A5FA05000748016831F002010160E7
:10282000016831F04001016000F088FA2800C0B270
:1028300070BD00001020024070B504000D0000269D
:10284000AE4207D24FF4006000FB0640FFF7CDFF19
:10285000761CF5E770BD00002DE9F8430500002661
:10286000002400272868C00340F18E80DFF8D8825A
:10287000D8F80000C0000DD4D8F8000050F0805007
:10288000C8F80000D8F8000010F0805000900098C0
:1028900001200700DFF8B492D9F80000C00513D476
:1028A000D9F8000050F48070C9F80000FEF7A4F9D0
:1028B0000600D9F80000C00506D4FEF79DF9801B7C
:1028C0006528F6D303203CE1DFF88492D9F80000B4
:1028D00010F440700400002C44D0686810F440707C
:1028E00084423FD0D9F8000030F440700400DFF893
:1028F00064024FF400410122B1FA81F310EB83032B
:102900001A600022B1FA81F110EB81000260C9F86F
:102910000040E00726D5FEF76FF906005FF0804023
:10292000B0FA80F1B0FA80F151F04001C9B2490922
:10293000022902D1D9F8001004E0B0FA80F1DFF8E2
:1029400018120968B0FA80F010F01F00C140C807E3
:1029500008D4FEF751F9801B41F289318842DDD35A
:102960000320EEE0D9F8001031F4407168680143AB
:10297000C9F800103800C0B2012805D1D8F800000D
:1029800030F08050C8F800002878C00707D5DFF87D
:10299000CC110A6892089200A86802430A6028785D
:1029A000800707D5DFF8B4110A6832F44032E868CE
:1029B00002430A602878400707D5DFF8A0110A68AB
:1029C00032F44022286902430A602878800607D53D
:1029D000DFF888110A6832F01002E86902430A60E1
:1029E0002868800307D5DFF878110A6832F480027E
:1029F000686D02430A602878400607D5DFF85C114D
:102A00000A6832F02002286A02430A6028684003FC
:102A100007D5DFF848110A6832F04002686A0243BD
:102A20000A602878000707D5DFF830110A6832F409
:102A30004012686902430A602878C00607D5DFF8AB
:102A40001C110A6832F44002A86902430A6028682F
:102A5000800507D5DFF808110A6832F40002286BF8
:102A600002430A602878000607D5DFF8F8100A68E4
:102A700032F4F872A86A02430A602868C00507D5D4
:102A8000DFF8E0100A6832F47852E86A02430A601C
:102A90002868C00407D5DFF8C4100A6832F48072D1
:102AA000686B02430A602868800407D5DFF8AC1021
:102AB0000A6832F40072286C02430A602868C00277
:102AC00007D5DFF898100A6832F08072A86B0243CD
:102AD0000A602868800207D5DFF880100A6832F0A3
:102AE0000072E86B02430A602868400207D5DFF8ED
:102AF0006C100A6832F48062686C02430A602868CD
:102B0000000207D5DFF854100A6832F40062A86C9E
:102B100002430A602868C00107D5DFF840100A6840
:102B200032F40052E86C02430A602868800107D53D
:102B3000DFF828100A6832F40042286D02430A6068
:102B40000020BDE8F28300001C100240007000402D
:102B50002010024000044242241002403010024083
:102B6000041002402C10024062F30F2262F31F4255
:102B7000401810F0030308D0C91A1FD3DB0748BF61
:102B800000F8012D28BF20F8022D130030B41446A0
:102B90001546103928BF20E93C00FAD8490728BF5C
:102BA00020E90C0048BF40F8042D890028BF20F818
:102BB000022D48BF00F8012D30BC7047C91818BF5E
:102BC00000F8012DCB0728BF00F8012D7047000049
:102BD00081B00B48016851F001010160006810F0FC
:102BE0000100009000980748016851F08051016091
:102BF000006810F080500090009801B0704700BF4E
:102C0000181002401C1002407047000070B504000C
:102C1000FDF7F2FF0500260016F1010F02D004486F
:102C200000783618FDF7E8FF401BB042FAD370BDBC
:102C30000800002000F10103810704D010F8011BF7
:102C4000820781B1FAD10268A2F10131914311F0FA
:102C5000803104BF50F8042FF6E709BAB1FA81F1C8
:102C600000EBD100401CC01A704700002DE9F14F65
:102C700082B0894692469B4601208DF800000024D0
:102C80000025DFF85861307E012801D1022042E0A2
:102C9000012030764CF25037380000F060F8804662
:102CA0004046C0B2002832D10298012802D101204A
:102CB000050007E00298022802D10220050001E089
:102CC000042005000020040020002900C0B2C9B281
:102CD00088421CD250465946E4B2220100F0A0F8C6
:102CE000010089B22000C0B219EB400000F02DF8BD
:102CF000380000F034F88046394801684908490036
:102D000001604046C0B2002801D1641CDCE700200D
:102D100030764046C0B2BDE8FE8F002030490A68D8
:102D2000120609D5304A314B1360314B13600968E4
:102D3000090601D501210800C0B270472848016882
:102D400051F080010160002070470022234BDA61BE
:102D5000234A136853F0010313600180704738B5AC
:102D60000400FDF749FF05001E480168C9070BD59F
:102D700014F1010FF8D0002C04D0FDF73DFF401BEB
:102D80008442F1D203200FE00168890601D5202199
:102D900001600168C90602D40068400703D500F04D
:102DA00004F8012000E0002032BD00200D490A682F
:102DB000D20606D5094AD36953F00203D36150F015
:102DC00010000A68520706D5044AD36953F001037C
:102DD000D36150F0040008607047000098000020A4
:102DE000102002400C2002400420024023016745CD
:102DF000AB89EFCD0021074AD16107490A6852F03B
:102E000002020A60054A10600A6852F040020A6035
:102E1000704700009800002010200240142002405B
:102E2000D2B2203A22BF21FA02F0002170472032AC
:102E3000D141D04048409140D140484070470000C7
:102E4000000000000000005F000000070007001401
:102E50007F147F14242A7F2A1223130864623649C0
:102E60005522500005030000001C224100004122B1
:102E70001C00082A1C2A0808083E080800503000D8
:102E8000000808080808003030000020100804027C
:102E90003E5149453E00427F400042615149462132
:102EA00041454B311814127F1027454545393C4A9E
:102EB00049493001710905033649494936064949EE
:102EC000291E003636000000563600000008142285
:102ED000411414141414412214080002015109066B
:102EE000324979413E7E1111117E7F494949363E72
:102EF000414141227F4141221C7F494949417F098B
:102F00000901013E414151327F0808087F00417F9D
:102F100041002040413F017F081422417F40404052
:102F2000407F0204027F7F0408107F3E4141413E02
:102F30007F090909063E4151215E7F09192946464C
:102F40004949493101017F01013F4040403F1F2075
:102F500040201F7F2018207F631408146303047827
:102F60000403615149454300007F414102040810B8
:102F70002041417F000004020102044040404040E3
:102F8000000102040020545454787F4844443838E7
:102F900044444420384444487F3854545418087EEC
:102FA000090102081454543C7F0804047800447D4D
:102FB00040002040443D00007F10284400417F40F5
:102FC000007C041804787C080404783844444438AD
:102FD0007C14141408081414187C7C080404084891
:102FE00054545420043F4440203C4040207C1C204A
:102FF00040201C3C4030403C44281028440C505099
:10300000503C4464544C44000836410000007F00AA
:1030100000004136080008082A1C08081C2A080875
:103020006070787C7E1C362A361C303E3F3E30076E
:10303000087F0907444444447C7C4444447C7C7CB1
:1030400044447C7C7C7C447C7C7C7C7C7CFFFFFFDF
:10305000FFFF406070787C456275787C0000020557
:1030600002405C4A5C405E4448445E4054485440E0
:103070001C2A6B2A1C182C682C180000FEE7FEE79F
:10308000FEE7FEE7FEE770477047704780B500F047
:1030900009F801BD80B50248FDF729FF01BD000018
:1030A0000C00002003480168034A12788918016067
:1030B000704700BFC80000200800002010B5074975
:1030C00079441831064C7C44163404E00A68081D23
:1030D000114488470146A142F8D110BD50000000BC
:1030E00070000000755F6D61696E3A20636F7079E2
:1030F000206E657720696D61676520746F206D6152
:10310000696E0D0A000000004EF68851CEF20001F3
:10311000086840F470000860BFF34F8FBFF36F8FF3
:103120004FF00070E1EE100A704700001BE8FFFF4F
:10313000C40000000C000020000000002BEAFFFF8C
:103140000C000000C0010000000000200000000092
:103150000D0A3D3D3D3D3D3D3D3D3D3D3D3D3D3D02
:103160003D3D3D3D3D3D3D3D3D3D3D0D0A000000A9
:10317000755F6D61696E3A206572617365206D617E
:10318000726B206E657720696D6167650D0A0000BE
:10319000755F6D61696E3A206A756D20746F20618C
:1031A00070706C69636174696F6E0D0A00000000D5
:1031B00000F00DF8002801D0FFF780FFAFF300808A
:1031C0000020AFF30080FEF7DBFB00F002F80120E7
:1031D000704700F001B800000746384600F002F8DA
:1031E000FBE7000080B5AFF30080024A1100182011
:1031F000ABBEFBE7260002003D3D3D3D3D5553453E
:103200005220424F4F54204C4F414445523D3D3D8A
:103210003D0D0A003D3D3D3D3D3D3D3D3D3D3D3D7E
:103220003D3D3D3D3D3D3D3D3D3D3D3D3D0D0A006E
:10323000755F6D61696E3A2066696E64206E6577B0
:1032400020696D6167650D0A00000000755F6D61A2
:10325000696E3A206572617365206D61696E2069DF
:103260006D6167650D0A00004D414348494E452098
:10327000434F4E54524F4C204F5859005570646183
:103280007465204669726D7761726500506C656186
:10329000736520776169742E2E2E000002030405E9
:1032A000060708090A0B0C0D0E0F1010010203048B
:1032B00005060708090A0B0C0D0E0F100000000090
:1032C00000000000010203040607080901488047C6
:1032D00001480047DD320008F93200080248016861
:1032E00051F470010160704788ED00E053414F20B8
:1032F0005649455400000000AFF30080FFF704FF7B
:10330000FFF756FF1000000000127A0001000000D5
:103310000000000001020304FFF7FEBFFFF7FEBF3D
:10332000FFF7FEBFFFF7FEBFFFF7FEBFFFF7FEBFD1
:10333000FFF7FEBFFFF7FEBFFFF7FEBFFFF7FEBFC1
:10334000FFF7FEBFFFF7FEBFFFF7FEBFFFF7FEBFB1
:10335000FFF7FEBFFFF7FEBFFFF7FEBFFFF7FEBFA1
:10336000FFF7FEBFFFF7FEBFFFF7FEBFFFF7FEBF91
:10337000FFF7FEBFFFF7FEBFFFF7FEBFFFF7FEBF81
:10338000FFF7FEBFFFF7FEBFFFF7FEBFFFF7FEBF71
:10339000FFF7FEBFFFF7FEBFFFF7FEBFFFF7FEBF61
:1033A000FFF7FEBFFFF7FEBFFFF7FEBFFFF7FEBF51
:1033B000FFF7FEBFFFF7FEBFFFF7FEBFFFF7FEBF41
:1033C000FFF7FEBFFFF7FEBFFFF7FEBFFFF7FEBF31
:1033D000FFF7FEBFFFF7FEBFFFF7FEBFFFF7FEBF21
:1033E000FFF7FEBFFFF7FEBFFFF7FEBFFFF7FEBF11
:1033F000FFF7FEBFFFF7FEBFFFF7FEBFFFF7FEBF01
:10340000FFF7FEBFFFF7FEBFFFF7FEBFFFF7FEBFF0
:10341000FFF7FEBFFFF7FEBFFFF7FEBFFFF7FEBFE0
:10342000FFF7FEBFFFF7FEBFFFF7FEBFFFF7FEBFD0
:0C343000FFF7FEBFFFF7FEBFFFF7FEBF77
:04000005080032F9C4
:00000001FF
