:020000040800F2
:10000000800B0020214F0008894B00088B4B000813
:100010008D4B00088F4B0008914B0008000000003A
:10002000000000000000000000000000934B0008EA
:10003000954B000800000000974B0008994B000802
:10004000BD4F0008C14F0008C54F0008C94F000848
:10005000CD4F0008D14F0008D54F0008D94F0008F8
:10006000DD4F0008E14F0008E54F0008E94F0008A8
:10007000ED4F0008F14F0008F54F0008F94F000858
:10008000FD4F000801500008055000080950000805
:100090000D500008115000081550000819500008B4
:1000A000000000001D50000821500008A54B00086A
:1000B00025500008295000082D5000083150000834
:1000C00035500008395000083D50000841500008E4
:1000D00045500008AB4B000849500008B14B0008E0
:1000E0004D500008B74B000851500008555000080B
:1000F00059500008000000005D50000861500008E1
:100100000000000000000000655000086950000871
:100110006D50000871500008755000080000000084
:100120007950000880B500F075FE012002BD000086
:1001300010B50446DFF85C09417B072916D8DFE8D3
:1001400001F004070A150D15101300F095FD0DE0E0
:1001500000F064FD0AE000F021FD07E000F00BFD77
:1001600004E000F0FDFC01E000F0ECFC214600F0B2
:100170001AF8012010BD80B5DFF81819DFF818292A
:10018000097D19B901201076107004E0022905D10B
:1001900001201076107200F06DFE02E0014600F0C2
:1001A00002F8012002BDDFF8F40801F083B880B541
:1001B000DFF8E018487B58B100224A7300F045FA96
:1001C00000F028FE00F029FC00F03EFC00F0A5FB4A
:1001D000012002BD00206BE3022069E3042067E3F5
:1001E000062065E3012063E3032061E305205FE36C
:1001F00007205DE308205BE380B5092000F058FB91
:10020000DFF89018487B401E062806D8BDE8044059
:100210000321DFF8880801F045B801BD0A2047E353
:100220000B2045E380B5DFF86C1810B1082809D021
:1002300001BD01224A73052100F01FF8BDE801400D
:1002400000F0C5BD0EE080B5002818BF0228DFF819
:10025000441802D0082805D001BD00224A730521A8
:1002600003201DE10220487300F0EEFB00F004F8CB
:10027000BDE8014000F096BD0721032000F0E2BE7A
:1002800038B5DFF81C58DFF81C18DFF808480728D5
:1002900005F1190305F139025AD8DFE800F004A28C
:1002A0002AA257577D7DA17B05294BD8DFE801F0B5
:1002B000373B4003080E0423A3730120107041E074
:1002C0000521A1730120107210763BE000F0BCFB09
:1002D00000F023FB012806D10320607300F0B5F97C
:1002E00000F052FD2EE000F05DFD012085F8590080
:1002F00028E0A07B052825D8DFE800F0030C1115C5
:100300001A1F0021617300F09FFBFFF7B5FF00F09B
:1003100081FD17E00020A0730121197012E0012077
:10032000A07318720EE00220A0730121197409E075
:100330000320A0730121197604E00420A073012199
:1003400011701174BDE8314000F009BEA07B052892
:1003500047D8DFE800F003080D12171C08780928B9
:100360003FDA401C23E0487809283ADA401C23E0B1
:100370008878092835DA401C23E0C878092830DA63
:10038000401C23E0087909282BDA401C23E0487937
:10039000092826DA401C23E0A07B052821D8DFE8C5
:1003A00000F003080D12171C0878D0B1401E087029
:1003B00031BD4878A8B1401E487031BD887880B101
:1003C000401E887031BDC87858B1401EC87031BD1C
:1003D000087930B1401E087131BD487908B1401E1E
:1003E000487131BD0728DFF8AC1600D9704780B5D9
:1003F000DFE800F0045027502E2E3939CA7B032A3B
:100400001CD8DFE802F002090F1504234B7300F03B
:1004100043F800F09CFC11E0052000F03CF800F0EF
:10042000A5FC0BE0062000F036F800F083FC05E0A8
:100430000720487300F009F900F06AFCBDE80140AC
:1004400002E30020487300F0FFFA0721022027E0B2
:10045000C87B03281ED8DFE800F002160E12032224
:10046000CA73062012E0C87B032813D8DFE800F027
:100470000307020BF3E70122CA73042006E00220FF
:10048000C873052002E00020C8730320BDE80240C5
:1004900000F0DDBD01BD48730621022000F0D2BD91
:1004A00000F0D0FDBDE8014000F0B4BC38B507282D
:1004B000DFF8F455DFF8DC452ED8DFE800F0046FF4
:1004C0002B6F42425555217C03291FD8DFE801F0EC
:1004D000020810150222227401212972042004E06E
:1004E0000321217401202872052000F0C2FD0DE0D7
:1004F000002020740121297002E00120207428705E
:100500006188208800F019FF00F0EDF8BDE8314067
:1005100000F0E1BC207C032840D8DFE800F00202B4
:10052000030AE6E000F079FA002020740121297026
:1005300004E000F072FA01202074287000F0CBFC77
:10054000E2E0207C032829D8DFE800F01519020832
:100550002088B0F57A7F21DA401C18E06088B0F579
:100560007A7F1BDA401C18E0207C032816D8DFE8CD
:1005700000F002060A1001212174052002E000208B
:100580002074042065E02088022807DD401E2080BA
:1005900031BD6088022801DD401E608031BD000051
:1005A0000728DFF8F01400D9704738B5DFE800F00D
:1005B000044332433B3B44444A7CDFF8F044DFF8D9
:1005C000DC54DFF8EC0412B1012A10D031BD08234D
:1005D00001224B730A75022100F064FE02212846B5
:1005E00000F068FE00F031F8012060700EE0082293
:1005F00001234A730B75032100F054FE02212846A3
:1006000000F058FE00F021F801206072BDE8314092
:1006100000F078BB087C01280DD803234B7300F051
:1006200013FA07216AE0487C58B1012803D100225F
:100630004A7404200DE031BD487C10B10128F6D089
:1006400031BD01224A740520F4E70721022000F0A1
:10065000F9BCBDE8324000F0FABC000038B507280C
:10066000DFF85054DFF82C443CD8DFE800F0043BBE
:100670001C3B2B2B3434A07C10B1012807D00EE09A
:100680000121A1746976042000F0F3FC07E0002149
:10069000A1746874A08800F06CFE00F024F8BDE836
:1006A000314000F0FBBBA07C10B1012801D031BD6E
:1006B0001FE000F0B2F90020A0740121697400F07D
:1006C000EDFB21E0A07C01280CD1A088B0F57A7F59
:1006D00008DA401C05E0A07C012803D1A08808B1FD
:1006E000401EA08031BD7F2306227821032001F027
:1006F000C0B90321617300F0A7F90621FFF7CDFE11
:10070000BDE8314000F040BB01B0BDE830407F2380
:1007100006227821032001F0ACB9000038B5DFF8DB
:100720009823DFF87043072802F1210102F1410507
:1007300061D8DFE800F004A923A95E5E8484E37C2D
:10074000062B52D8DFE803F033373C04090F1700BB
:100750000422E2740120087447E00522E2740120BB
:100760000876287241E000F0FAF80620E0740121D2
:100770002970297639E00020607330E0E07C06289B
:1007800033D8DFE800F0040F14181D22280000F011
:1007900044F90320607300F057F9FFF756FF00F0AB
:1007A000F3FA22E00020E074012151741DE00120E1
:1007B000E074507619E00220E07401220A7014E01F
:1007C0000320E07401220A720FE00420E074012289
:1007D0000A742A7409E00021617300F01EF900F028
:1007E00033F9FFF732FF00F015FBBDE8314000F0B0
:1007F00050BBE07C052847D8DFE800F003080D1265
:10080000171CA07909283FDA401C23E0E079092869
:100810003ADA401C23E0207A092835DA401C23E02C
:10082000607A092830DA401C23E0A07A09282BDA04
:10083000401C23E0E07A092826DA401C23E0E07C13
:10084000052821D8DFE800F003080D12171CA07955
:10085000D0B1401EA07131BDE079A8B1401EE07159
:1008600031BD207A80B1401E207231BD607A58B10E
:10087000401E607231BDA07A30B1401EA07231BD01
:10088000E07A08B1401EE07231BD032800D97047FC
:1008900080B58048017D012909D0052100224173DE
:1008A0004274FFF7D2FEBDE8014000F05FBA01BD1F
:1008B00010B504460321FFF776FC7649487B0828EB
:1008C0002AD8DFE800F005090D1115191D212500B2
:1008D0002046BDE81040A5E42046BDE81040B2E443
:1008E0002046BDE81040CBE42046BDE8104079E545
:1008F0002046BDE81040D9E52046BDE810404FE64F
:100900002046BDE81040A9E62046BDE8104005E7B6
:100910002046BDE81040B8E710BD62490A788B79DF
:1009200000209A4202BF4A78CB799A420FD18A7846
:100930000B7A9A4202BFCA784B7A9A4207D10A7957
:100940008B7A9A4201BF4A79CB7A9A4201200022DF
:100950000A704A708A70CA700A714A7170477CB511
:1009600008220021684601F0E3F94A4881790A2902
:10097000BCBFC2790A2A23DA037A0A2BBCBF447AA5
:100980000A2C1DDA857A0A2DBCBFC67A0A2E17DA20
:1009900044488DF800108171C2718DF801200372F6
:1009A00044728572C6728DF802308DF803408DF85E
:1009B00004508DF8056006226946404801F00CFAA3
:1009C00073BD38B53D490878AA2824D18B783548BD
:1009D00083710A2BCA78C271B8BF0A2A0C790472D3
:1009E0004D7905728C790472C97901720ADA0A2983
:1009F000BCBF417A0A2905DA817A0A29BCBFC17ACB
:100A00000A2908DB00228271C2710272427282726C
:100A1000C272FFF7A4FFBDE8314022491D488A7920
:100A20008271CB79C3710A7A02724B7A43728A7AE5
:100A30008272C97A224AC1729188818021494A888A
:100A4000428009880180704712480021C1810161FC
:100A50007047B6E770B500240025104800EB051676
:100A60007278012A11D17068012430B101F0E4F9E3
:100A70007168B268401A904207D30020707001F08C
:100A8000DBF97060E8B2F16888476D1C042DE4DB87
:100A9000204670BD280700203D0400205C04002093
:100AA0004C020020400700204503002024040020C1
:100AB000A0000020680300209403002000E1030848
:100AC000E4000020F000002080B500F0A1FE01232A
:100AD00000220021DFF86C0700F05FFE012000908B
:100AE0007F230B2200210B2001F006F8012000904B
:100AF0006B230A226B21002000F0FEFF012002BDC3
:100B000070B50446DFF84067DFF840570022291D22
:100B1000304601F041FA00222946304601F0A6FA9B
:100B2000A879297E884206D02876DFF8180700F0D9
:100B3000E5FA00F0B0FA2146DFF8140700F0BAFB3E
:100B4000012070BD10B5DFF80C0700F164010A68E0
:100B50001388DFF8042700F02FF8BDE8104098E173
:100B6000DFF8F806416802890988914202D00181C4
:100B70000121417092E1DFF8E8064168028A0988A4
:100B8000914202D0018201214170C168428A0988E4
:100B9000914202D04182012141729CE110B5DFF8FF
:100BA000C40600F164010A681388DFF8BC2600F06F
:100BB00003F8BDE81040D2E11488A34203D01380AB
:100BC000012380F861308B6854881B88A34202D0CF
:100BD000538001234B710B6994881B88A34202D078
:100BE000938001234B738B69D4881B88A34202D066
:100BF000D38001234B750B6A14891B88A34202D052
:100C0000138101234B77D0F88C10538909889942BE
:100C100003D05181012180F88910704770B5DFF849
:100C20004C46DFF84C1620780D78DFF848268542D0
:100C300002F1290306D0002807BF01251D720126F5
:100C40001E70087060784D78854206D0002807BF76
:100C500001251D7601261E744870A0788B7883428A
:100C600007D04932002807BF0123137201241470F2
:100C70008870BDE8704099E170B5DFF8FC154868F0
:100C80008A8B0088904202D0888301204870C8680F
:100C9000CA8B0088904202D0C883012048724869FC
:100CA0000A8C0088904202D0088401204874DFF842
:100CB000BC450D7E2078DFF8C425854202F1310362
:100CC00006D0002807BF01251D7201261E70087678
:100CD00060784D7E854206D0002807BF01251D762D
:100CE00001261E744876A0788B7E834207D051324D
:100CF000002807BF01231372012414708876BDE811
:100D0000704073E1DFF87805012101700176B1E0F0
:100D1000DFF840050121417041740122427200F167
:100D2000510100F8712F0A700A740A760272027477
:100D30000276AEE080B5DFF84C05DFF82025012112
:100D4000417041724174517000F0A8F80AE080B51A
:100D5000DFF8340500F012F8DFF804054170417245
:100D600000F0B9F8BDE80240042070E180B5DFF87A
:100D70001C0500F003F800F0CAF8F3E70121417008
:100D8000417241744176704780B5DFF80405FFF782
:100D9000F5FF00F8211F017200F0D3F8BDE8024012
:100DA000032054E1DFF8BC040121417041740122A9
:100DB00000F149010A700A7600F169014272427637
:100DC0000A700A720A740A7680F88920C7E010B5A2
:100DD000DFF8A01400F043F81878002807BF0124BA
:100DE00014740120107258784131002807BF012285
:100DF0000A70012010769878002807BF01220A7433
:100E000001200872DFF88C04012141704172BDE8B5
:100E10001040CBE010B5DFF8641400F020F8107239
:100E20001878002807BF0124147601201074587820
:100E30004131002807BF01220A7201240C70987802
:100E4000002807BF01220A7601200874DFF8280471
:100E50000121417041724174BDE81040C6E0DFF8E5
:100E60000C3401F121020120487048724874487620
:100E70001070704738B50024DFF81C0400F056F8F5
:100E800003D100F058F800216970641C072CF3DBD3
:100E900031BD70B50025DFF8BC4363E038B50024F0
:100EA000DFF8E00300F042F803D100F044F800213D
:100EB0006970641C042CF3DBDFF8A0436078012820
:100EC00008D16068E378A2780088002100F055FD21
:100ED0000020607031BD38B50024DFF8AC0300F0AD
:100EE00025F803D100F027F800216970641C042C58
:100EF000F3DD0024DFF8680300F018F803D100F0F8
:100F00006FF800206870641C012CF3DD31BD38B52A
:100F10000024DFF8780300F009F803D100F00BF8A3
:100F200000216970641C032CF3DD31BD00EBC405A6
:100F3000697801297047EA78A9786868012300F088
:100F40002CBC38B50024D248FFF7F0FF03D1FFF7DF
:100F5000F2FF00216970641C062CF4DB31BD70B512
:100F60000025C04C04EBC5067078012806D1F27844
:100F7000B1787068FFF7E2FF002171706D1C0C2DD5
:100F8000F0DB002504EBC50000F161063178012992
:100F900008D1406E0088B2787178C0B200F0A4FE2B
:100FA000002030706D1C062DECDB70BD38B50024C0
:100FB000B048FFF7BBFF03D1FFF7BDFF0021697009
:100FC000641C0B2CF4DB0024B248FFF7AFFF03D105
:100FD00000F006F800206870641C012CF4DD31BDBF
:100FE0006868EB78AA78008800F0C7BC38B50024A0
:100FF000A248FFF79BFF0DD1FFF79DFF0021022CB8
:10100000697007D14F21032000F073FB01218C2070
:1010100000F09AFB641C0C2CEADB00249648FFF7D6
:1010200085FF0BD12878EB78AA78012868680088BA
:1010300008BF022100F0A1FC00206870641C032C92
:10104000ECDB31BD0A467F23002100F012BD10B554
:101050000446072306220021032000F00AFD002198
:10106000204600F046FBBDE8104001217E2000F044
:101070006BBB10B504467F2306227821032000F0C5
:10108000F8FC7821204600F034FBBDE81040012137
:101090007F2000F059BB38B50025804C60196119DC
:1010A000007E0A7990420DD006216943C9B200F052
:1010B00022F862190121107900F046FB60196119CC
:1010C000007908766D1C112DE8DB754D21782878A4
:1010D00081420ED0012804D100F00CF801218A20B1
:1010E00003E000F007F801218B2000F02DFB2878A9
:1010F000207031BD7821002000F0FBBA38B50446DD
:101100000020524DA978ADF800006A4600F041F881
:10111000BDF800002F2222546A46BDF80010491C79
:10112000ADF800102046697800F04CF8BDF80010CA
:101130002F2060546A46BDF80000E978401CADF8E5
:10114000000000F026F8BDF800107C2000F026F822
:10115000287900F02AF8297900F01BF800F01BF834
:10116000687900F022F8697900F013F800F013F8BC
:10117000A87900F01AF8A97900F00BF8BDF8000082
:10118000112805DAC0F111012022204401F0ECF809
:1011900031BD204616E0BDF800103A206054BDF87D
:1011A0000000401CADF8000070470A2808DABDF8BE
:1011B000000030212154BDF80010491CADF800108A
:1011C0006A46704770B5034601240A250A2601E0E5
:1011D0007543641CB1FBF5F00028F9D11088A5B265
:1011E000451906E0B1FBF6F006FB101130315955F8
:1011F000014610886D1E8542F4DA2418148070BDF3
:1012000000F018B970B500240025114800EB051650
:101210007278012A11D17068012430B100F00CFEFF
:101220007168B268401A904207D30020707000F0D5
:1012300003FE7060E8B2F16888476D1C012DE4DDA3
:10124000204670BD38010020D4060020F40600209E
:1012500000010020940300204C0700208803002098
:10126000540300204C02002058070020E400002016
:101270000D070020E4010020C001002060010020D3
:1012800035040020680300202C0300200C030020FC
:10129000DC0200203C020020240400203401002055
:1012A0003407002000EB0110012100224170426050
:1012B0000120704710B500EB01140120607000F0B0
:1012C000BBFD6060012010BD00EB011000224270E8
:1012D000012070470120704738B5044600F0ACFD8E
:1012E000DFF830512A6C6421B0FBF1F0904207D056
:1012F00000F0A2FD6421B0FBF1F0286401F03DF89C
:1013000021462846FFF7D6FF012032BD10B5424CDA
:1013100001E010B5414C014620780A2805DB404821
:10132000022101720022227005E03A48FFF7C2FF55
:101330002078401C2070012010BD3EB504460D46AB
:1013400008220021684600F0F3FC364900208DF8A1
:1013500000008DF802008C81CD818A89C8898DF8C2
:1013600001208DF80300042269462F4800F034FD67
:1013700037BD1CB5044602220021684600F0D8FCA7
:1013800028488DF80040848001226946274800F0F3
:1013900023FD13BD24490878AA280FD10B79214ACF
:1013A0001B02D38148790343D3818878000290815E
:1013B000022BC8789081BCBF0220D081FFF72DBBE3
:1013C00080B5FFF7E7FFBDE80240194800F0E3BF32
:1013D000704770B5002400250E4800EB05167278A2
:1013E000012A11D17068012430B100F025FD716827
:1013F000B268401A904207D30020707000F01CFDC4
:101400007060E8B2F16888476D1C042DE4DB20466B
:1014100070BD0000A00000207B0700207C0700209A
:1014200034070020E400002000E0030800E2030885
:101430006006002080B501224FF48071DFF8840837
:1014400001F029FA00213F2000F009F801213F2096
:1014500000F005F8DFF870180120087001BD70B5C4
:1014600004460D4600F0E6F9DFF86068402130469A
:1014700000F03EF88021304600F03AF8284600F0AF
:101480003AF8204600F0A8F84FF48071304600F09A
:101490002CF84FF48071304600F02AF82846BDE859
:1014A000704040E070B5044600F017FADFF81C58B1
:1014B0008021284600F019F84021284600F018F84D
:1014C000204600F018F800F010F900F00EF8DFF8F0
:1014D000006800F0B5FB307000F007F900F008F884
:1014E000204600F020F8307870BD012201F0D3B919
:1014F000002201F0D0B910B5DFF8C84710B10128BB
:1015000007D010BD20212046FFF7EFFF4FF4807178
:1015100005E04FF480712046FFF7E7FF20212046C9
:10152000BDE81040E4E7DFF89C2710B1012802D0A5
:101530007047202101E04FF480711046D8E770B564
:1015400000F098F802D5FFF7D0FF01E0FFF7D0FFD9
:1015500000F089F802D5FFF7C8FF01E0FFF7C8FFE8
:1015600060074FF48051304602D5FFF7BEFF01E01F
:10157000FFF7BEFF20074FF40041304602D5FFF7CA
:10158000B4FF01E0FFF7B4FFE0064FF480512846B6
:1015900002D5FFF7AAFF01E0FFF7AAFFA106DFF8D7
:1015A000340703D50421FFF7A0FF02E00421FFF771
:1015B0009FFF6006DFF80C5702D500F00AF801E043
:1015C00000F004F8200600D55CE060E00821284621
:1015D0008EE70821284688E770B500F04BF802D561
:1015E000FFF783FF01E0FFF783FF00F03CF802D52F
:1015F000FFF77BFF01E0FFF77BFF60074FF48051AF
:10160000304602D5FFF771FF01E0FFF771FF2007B9
:101610004FF40041304602D5FFF767FF01E0FFF7C6
:1016200067FFE0064FF48051284602D5FFF75DFFC3
:1016300001E0FFF75DFFA106DFF8980603D504215E
:10164000FFF753FF02E00421FFF752FF6006DFF8C7
:10165000745602D5FFF7BDFF01E0FFF7B7FF200684
:1016600000D50FE013E0DFF87066A0074FF40061CB
:10167000304670470446DFF85456E2074FF40071D5
:10168000284670472846BDE8704010212DE72846BF
:10169000BDE8704010212BE738B5044600F0CAF8C9
:1016A000DFF828568021FFF792FF4021FFF792FFD5
:1016B0002046FFF744FFDFF8244660788009FFF7F3
:1016C0001AFF00F012F8FFF710FF00F00EF8FFF716
:1016D0000FFF60788009FFF726FF6078401CC1B2D9
:1016E0008029A8BF0020607031BD4FF4807128466A
:1016F000704770B50446DFF8E40504700D46457088
:10170000002644F0B804F1B22046FFF7A8FEF1B27B
:101710004020FFF7A4FEF1B2C020FFF7A0FE761C28
:10172000F0B20128EFDD690905EB9166B609F1B267
:101730002046FFF794FEA5EB861545F04005F1B273
:10174000E8B2BDE870408AE670B50024A0F120063A
:10175000F6B2012906EB8606DFF8845507D100F0C2
:1017600067F800F015F860B20528FADB70BD0229B1
:101770000DD100F05DF87C20FFF78EFF00F008F837
:1017800060B20528FADBBDE87040382084E770BD00
:1017900060B28019641C285C7EE770B500260446A0
:1017A000082908461D4615DA1146FFF7A2FF0BE08F
:1017B00014F8010B294604E0012DF9D170B2012182
:1017C000205CFFF7C1FF761C204601F079F871B26A
:1017D0008142F1D30020FFF765FE10F0300FDFF8F3
:1017E000E84406D02078012803D100212170FFF7BA
:1017F00021FE0120FFF756FE10F0300F07D02078B1
:10180000012804D100212170BDE8704012E670BDAE
:1018100038B500250021E8B2FFF76BFF802400F007
:1018200007F8641EFBD16D1CE8B20828F2DB31BD5D
:10183000002031E778B5012285B0019202924FF481
:10184000007100F03CF800F08AF80121019102914A
:101850004FF4006202210391009200F036F801215A
:10186000019102914FF480560221039100F02CF86F
:1018700000F02FF84FF4004100910222039200F093
:1018800024F80120022101900290039100966946FC
:1018900000F069F800F01DF8042100F010F800F0E5
:1018A00058F800F016F8082100F009F800F05BF88D
:1018B00000F00FF8102100910222039244E0009101
:1018C000022203926946704700966946284600F056
:1018D0000DBF012201920292704778B585B04FF496
:1018E000007000F043F800F03AF84FF40062009204
:1018F0000021019101220292FFF7E7FF00210191EF
:1019000001224FF480560292FFF7DEFF4FF40040B1
:1019100000F02CF8FFF7DAFF00210191012202927A
:101920000096694600F01FF8042000F01FF800F050
:1019300010F8082000F01AF800F015F81020002127
:101940000090019101220292694600F00CF806B065
:1019500070BDDFF88003DFF86C4300F0C7BEDFF82E
:101960006C43DFF87453204600F0C0BE00210090A5
:10197000019101220292694670472DE9F843002542
:1019800086464FF47A7800959EFBF8F88DF8008033
:101990000C469DF800704FF47A7101FB170081B27C
:1019A000642691FBF6F68DF8016064219DF80170C4
:1019B00001FB170080B20A26B14690FBF6F09EFBB1
:1019C000F9F98DF8020006FB19EE8DF803E01946CF
:1019D0001046FFF78EFE9DF8000028B9032C03D0B7
:1019E00020208DF8000003E030308DF80000012544
:1019F00055EA070005D1022C03D020208DF8010004
:101A000003E030378DF801706D1C9DF8020005432E
:101A1000EDB21DB9012C18BF202000D130308DF857
:101A2000020001219DF80000FFF78EFE032C01D17A
:101A300000F018F89DF801000121FFF785FE022C47
:101A400001D100F00FF89DF802000121FFF77CFEA4
:101A5000012C01D100F006F89DF8030000F005F814
:101A6000BDE8F18301212E206EE630300121C0B2A5
:101A70006AE62DE9F04107460C461546984606E011
:101A8000FFF7D6FE761CF1B28845F9D27F1CF9B279
:101A90008D4205D32146F8B2FFF72BFE2646F2E72A
:101AA000BDE8F081F8B50646F5080C46174628460D
:101AB00000F085F80121012F08D1B20806EB52731E
:101AC000DB08A6EBC306B14008430BE0B20806EB07
:101AD0005273DB08A6EBC30220FA02F7FB0744BFF0
:101AE000914048407F4E307021462846FFF701FE66
:101AF0003078BDE8F240CFE52DE9F84F0D460446B9
:101B00001146012201200026A1421F4603D2611A7C
:101B10004BB2FF2201E0091B4BB2AF4203D2EF1BD5
:101B20007FB2FF2001E07F1B7FB20A99BB4222DB1C
:101B30007F004FFA87FCACEB030EAEEB03078DF88A
:101B400028108DF8002080469946E246F346F0B210
:101B5000814532DB9DF82820E9B2E0B2FFF7A2FF11
:101B60009DF800000419BBF1000F5ABFBB44454467
:101B7000D344761CEBE75B004FFA83F8A8EB070928
:101B8000AB46A9EB070A8DF828108DF80020054612
:101B900010E09DF828205FFA8BF1E0B2FFF782FF9A
:101BA000B9F1000F5DBFD1449DF800000419C14494
:101BB000AB44761CF0B28742EBDABDE8F18F70B52A
:101BC00004460D46FFF795FDFFF787FE3F4E00F0F8
:101BD00029F8402100F027F8A809FFF78CFC00F055
:101BE0002AF800F02DF800F021F8A809FFF79BFC77
:101BF00029462046FFF77DFDFFF76FFE00F012F843
:101C0000402100F010F8A809FFF775FC00F013F868
:101C100000F016F8044600F009F8A809FFF783FC65
:101C2000204670BD80213046FFF75FBC4FF48071C5
:101C30003046FFF75DBC4FF480713046FFF755BC6E
:101C40002DE9F0471F4C1021204600F01EFE0546EE
:101C50000821204600F019FE042187011D48DFF805
:101C600078A000F012FE47EAC5170446174D4FF45E
:101C70008051284600F009FE06464FF400415046C8
:101C800000F003FE80464FF48051504600F0FDFD09
:101C9000814647EA44174FF40061504647EA061769
:101CA00000F0F3FD47EAC80747EA890747EA40071B
:101CB0004FF40071284600F0E8FD0743F8B2BDE894
:101CC000F08700000004024078070020000802406E
:101CD00079070020000C0240000002407407002039
:101CE000EC4800087A07002038B50024ADF8004021
:101CF00003460A24084693FBF4F504FB15338DF8DC
:101D0000013011468DF800509DF801409DF80020EB
:101D1000303412B9FFF7EDFC05E0FFF7EAFC9DF85F
:101D20000000FFF7A2FE0121E0B2FFF70DFD31BD7B
:101D300010B5044610460A460146204600F014FB42
:101D4000204610BD2DE9F8430025012612F0030FAF
:101D5000894607461BD1940800F0D7FD00F01AF819
:101D6000A84601224E4601E03F1D6D1CA8B2C045A9
:101D700098BFA04208D256F8042B3946022000F042
:101D8000A9FD01280246EFD1164600F0D7FD3046E6
:101D9000BDE8F2834FF47A7000F0D8BD38B5044640
:101DA00000F0B3FD0546FFF7F5FF15B9204600F03A
:101DB00049FEFFF7EFFF04460648016821F4007171
:101DC0000160026822F00802026000F0B7FD2046C0
:101DD00032BD0000043C024070B5C0B000F023F8F2
:101DE0002046FFF7DBFFFFE7AA218DF800108DF8F2
:101DF0000150002004E0315C0DEB0002401C9170AA
:101E0000A842F8DBAD1CA8B22D1D2D1A800805EBE9
:101E10008005AAB269462046FFF794FF401E804124
:101E2000C00F40B070BD04460E4615464FF4807298
:101E300000216846FFF77CBF01480068704700BF7B
:101E40000000002038B5040001D1012032BD607FC0
:101E500020B900212177204600F070FE0220607733
:101E60002068C168CA0635D4CA214162532022685D
:101E7000506200F08FF801001AD12168DFF80004E9
:101E80008A6802408A60226893686568216960698F
:101E90000D4305432B4393602068E168016120688E
:101EA0000169A26841EA02410161204600F034FA6A
:101EB000010009D121680A6C22F480220A64226898
:101EC000136CA1690B431364FF22216803004A626B
:101ED00003D100E000200121617732BDF8B504464E
:101EE0000D46207F012801D10220F2BD012020777C
:101EF00002216177002A2068806815D141065CBF05
:101F00000020E870287800F01CFA0746687800F096
:101F100018FA0602A87800F014FA46EA07460643C3
:101F2000E87846EA80560DE041065CBF0020E87084
:101F30006E782978A878360246EA0146E9780643A1
:101F400046EA81562168CA204862532220684262CC
:101F500000F020F8010013D12168DFF828030640C3
:101F60000E602068826822F48022826021688A687C
:101F7000EB68286903431A438A60204600F0CCF9D5
:101F8000010004BF012161772168FF224A6200231A
:101F90002377F2BD20469EE138B500680C46816A81
:101FA00061600369C3F30E03A3600168DFF8D40224
:101FB00001400B0C03F03F032370A1700D0A890D43
:101FC0006570E1703AB9207800F0C6F900F005F8C4
:101FD00000F06AF8A070002032BD20706078BBE18C
:101FE000F8B504460E46207F012801D10220F2BD3B
:101FF000012020770221617775786ABBE80603D556
:1020000005F0EF050A357570F07800F09AF907468B
:10201000707800F096F90502B07800F092F945EA80
:1020200007450543307845EA40352068CA214162BA
:10203000532221684A62FFF7ADFF010007D12168F2
:10204000DFF8440205404D60204600F065F90100CC
:1020500004BF0121617797E7F07831782D0245EAD6
:102060000045B078054345EA4135DEE738B50C4612
:102070000168DFF8140249680140A1700D0A0B0CD9
:1020800005F01F05490BE370657001F00701217031
:1020900042B9E07800F060F9E070FFF79FFF00F0D0
:1020A00003F8A070002032BD6070A07854E12DE9E3
:1020B000F843DFF8D8810446D8F800004FF47A7668
:1020C00040093346B0FBF3F373430093207F0128AC
:1020D00008BF022073D001202077022363770D46CA
:1020E0002068D2B9806841065CBF0020E87028787B
:1020F00000F027F98146687800F023F90702A878F4
:1021000000F01FF947EA0947814695F8200000F0E2
:1021100018F9E97849EA07070EE0816848065CBFCC
:102120000021E9706F782878E9783F0247EA004794
:10213000A878074395F8200047EA8157E9692368A2
:1021400047EA006768690F43CA2207436968A869BC
:102150005A620143226853205062FF2220686B6A52
:10216000B3F5807F83682CD123F4807300F053F89B
:1021700063F4C073C36023680098401E0090009809
:10218000002842D0D868C507F6D5DF6120684164D1
:102190002068816841F4807100F043F841F4805177
:1021A00081603B48016841F400310160012183688E
:1021B00043F4003383602068426200F037F8BDE8E2
:1021C000F28323F4007300F026F863F42073C360F5
:1021D0003346D8F800004009B0FBF3F35E430096A5
:1021E00023680098401E0090009870B1D868850759
:1021F000F7D51F62206881642068816841F400710E
:1022000000F00FF841F40051CAE72068426200F084
:102210000CF80320D3E783602068C36803F08003D1
:1022200070478160206881687047032161770020D2
:102230002077704710B5044616494FF40030086007
:1022400020688268D1040BD5C268D10508D5C26860
:1022500002F0800262F4C072C260204600F088FC86
:10226000206881688A0407D5C1688A0504D500F012
:1022700013F8204600F082FC0120607710BD0000BA
:10228000BFFF8FFF7F7F7F003FFFFF000C0000201C
:102290000004014014040140C16801F0800161F4B0
:1022A0002071C160704738B504464FF657702168F9
:1022B000C860FFF7C1FD05462068C168880608D4DC
:1022C000FFF7BAFD401B40F2E9318842F4D3032006
:1022D00032BD002032BD70B5044600252068C168BB
:1022E0004A0617D4C16841F08001C160FFF7A4FD20
:1022F000064609E0FFF7A0FD801B40F2E931884265
:1023000002D30420607701252068C168480601D403
:102310002800EFD0284670BD38B504460025206857
:10232000C16821F08001C16020688168880606D4F8
:102330002046FFF7B8FF10B104206077012528463A
:1023400032BD002101E0491C0A38C2B20A2AFAD281
:1023500040EA0110C0B2704701090A2200F00F00E4
:1023600002FB0100C0B270474018491C1CBFB1F10C
:10237000010100F8012DF9D17047704738B504000C
:1023800001D1012032BD00F043F818B900F032F954
:1023900000F037FC2DE090F83910012901D0012020
:1023A0007047022180F839100168CA6842F00102C2
:1023B000CA600068B0F1804F1CBFDFF85C10884233
:1023C00007D0DFF8582090421CBFDFF85410884235
:1023D00009D1816801F00701062908D0016841F0A0
:1023E0000101016003E0026842F001020260002086
:1023F000704702206870211D206800F0FFF801205E
:10240000A871A870E870287168716870002032BDEA
:1024100004F1380568787047000400400008004067
:102420000008014010B50446206801698A0715D5E7
:10243000C1688A0712D56FF002010161012222767C
:10244000806910F0030F204602D000F0FBFB03E090
:1024500000F0F9FB00F06DF800202076206801699B
:102460004A0715D5C1684A0712D56FF0040101610A
:1024700002222276806910F4407F204602D000F0CC
:10248000E1FB03E000F0DFFB00F053F800202076D2
:10249000206801690A0715D5C1680A0712D56FF0CF
:1024A0000801016104222276C06910F0030F204662
:1024B00002D000F0C7FB03E000F0C5FB00F039F8E4
:1024C0000020207620680169CA0615D5C168CA06B1
:1024D00012D56FF01001016108222276C06910F454
:1024E000407F204602D000F0ADFB03E000F0ABFBE4
:1024F00000F01FF80020207620680169CA0708D57F
:10250000C168CA0705D56FF0010101612046FEF7D9
:102510005FFF206801694A060AD5C1684A0607D5E7
:102520006FF0400101612046BDE8104000F08CBB17
:1025300010BD204600F089BB70B5064606F138058F
:1025400000242878012801D1022070BD01202870C4
:1025500002226A70DFF80C013268936803409360CE
:102560000868020018BF102830D0202818BF302873
:102570002CD0402826D0502819D060281BD0702895
:1025800006D0B0F5805F27D0B0F5005F07D022E01D
:1025900000F02BF83068816841F0770105E000F029
:1025A00024F83068816841F48041816014E000F0D3
:1025B00018F850210BE0CA684968306800F06FF8DD
:1025C000602104E000F00DF8402100E00146306891
:1025D00000F077F800E001240120687000F00AF8AC
:1025E00070BDCA68496830684AE0CB684A68896843
:1025F00030686EE00021297020467047F0B51A4F10
:1026000003681A4C1A4D1B4EB0F1804F18BFB842E8
:1026100004D0B0421CBFA842A0420CD14A6823F0AB
:1026200070031343B0F1804F18BFB8420AD0B042D4
:1026300018BFA84206D0A0421FBF0F4CA0420F4AAD
:10264000904203D1CA6823F4407313430A6923F00C
:1026500080031343036001228B68C36209688162AF
:102660004261F0BD8800FFFF000400400008014007
:10267000000C004000080040000C01400010014028
:1026800010B5036A046A64086400046223F00A0354
:10269000846924F0F00444EA0214846123E010B554
:1026A000036A046A24F01004046223F0A00384691E
:1026B00024F4704444EA0234846143EA011303625F
:1026C00010BD826822F07002114341F00701816061
:1026D000704710B5846824F47F442143114341EAD4
:1026E0000321816010BD1943016210BD2DE9F84F2F
:1026F00000276B4A6B4B4FF00F0805460E4634E03F
:10270000694CA54214BF052404248C40674944EA5F
:102710000E0441F82C40C143946801EA040C74682B
:10272000E40248BF40EA0C0CC2F808C0D46801EAD1
:10273000040C7468A40248BF40EA0C0CC2F80CC038
:10274000546801EA040C7468A40348BF40EA0C0C06
:10275000C2F804C0146801EA040C7168C90348BFD8
:1027600040EA0C0CC2F800C07F1C316831FA07F057
:1027700000F089800124BC4014EA0100F4D04FEA43
:10278000470C032101FA0CF16FEA010E716801F0A8
:102790000309B9F1010F1CBF01F00301022912D195
:1027A000A968D6F80C900EEA010109FA0CF949EA79
:1027B0000101A960696821EA04047168C1F300118C
:1027C000B9400C436C60B900347904F00304032C65
:1027D00021D0EC68D6F808900EEA040409FA0CF946
:1027E00049EA0404EC60347904F00304022C12D1A9
:1027F000FC0805EB840401F01C09D4F820A008FAB9
:1028000009FB2AEA0B0AD6F810B00BFA09F949EAD3
:102810000A09C4F820902C680EEA040E347904F0FA
:10282000030404FA0CF444EA0E042C60746814F4F3
:10283000403F99D01C6844F001041C604FEA970C9B
:102840001C6804F00104009401F00C01009C174C7A
:1028500054F82C4008FA01FE24EA0E0E144CA5424E
:1028600008BF00240ED0134CA54208BF012409D094
:10287000114CA54208BF022404D0104CA5427FF49D
:102880003FAF032441E7BDE8F18F0069084018BF5E
:102890000120C0B2704702B909048161704700008D
:1028A00000040140203802400010024008000140AE
:1028B000000002400004024000080240000C0240F8
:1028C00000F1010310F8011B11B110F8011BFBE727
:1028D000C01A7047F8B5544C207C01280D461646A6
:1028E00001D10220F2BD012020744CF2503738464D
:1028F00000F02CF8010005D1002060612E60384600
:1029000000F024F800212174F2BD484801688A07CC
:1029100012D50168CA0706D54549464A81608260DA
:102920000168CA0706D44449444AC160C2600068CD
:10293000810701D501207047002070473B4801689E
:1029400041F00201FFE701600020704770B50446C6
:10295000FFF772FA06463A4D2868C1070AD514F106
:10296000010FF9D024B1FFF767FA801B8442F3D23C
:10297000032070BD2868810744BF022028602968B1
:10298000C8050ED4296808050BD42968880408D422
:102990002968C80405D42968480502D4296888052F
:1029A00003D500F004F8012070BD002070BD10B503
:1029B00023491D480B680022DC0505D5426942F019
:1029C000020242614FF480720B689C0505D5436991
:1029D00043F00103436142F400720B681C0505D506
:1029E000436943F00403436142F400620B689C04B2
:1029F00005D5436943F01003436142F400520B686C
:102A0000DC0405D5436943F02003436142F480525E
:102A10000B685C0505D5436943F00803436142F444
:102A200080620A6010BD000010070020043C0240D4
:102A3000EFCDAB8905040302BFAE9D8C16151413B0
:102A4000183C0240084A00215161000A07490B68FE
:102A500043F400730B6000020A6842F008020A6047
:102A6000002101607047000010070020043C024074
:102A700010B590B01422002101A8FFF759F90422E3
:102A800000216846FFF754F92822002106A8FFF725
:102A90004FF9344C344820600021FF207F22E06051
:102AA0006160A26021616161A1612046FFF7CAF9FE
:102AB00008B100F02BF90020ADF8040000220490CA
:102AC0008DF80620059201A92046FFF707FA08B104
:102AD00000F01CF901218DF800108DF801108DF81F
:102AE000021000228DF8032069462046FFF778FA8D
:102AF00008B100F00BF9002001214FF48072ADF80D
:102B000018008DF81A00079009900A900B900C900D
:102B10000D908DF838100F9206A900222046FFF77D
:102B2000C6FA08B100F0F2F800220021204600F0B9
:102B3000EFF808B100F0EAF810B010BD00680A49DB
:102B4000884200D0704780B5084801220260002109
:102B50000022292000F068F9BDE80240292000F099
:102B600080B90000D406002000280040D806474263
:102B700001480168084700006C070020704730B426
:102B8000002513E050F8042BD30744BFA9F101033B
:102B90009A18091F042942F8045BFAD213468C07DD
:102BA00044BF15809B1CC90748BF1D7050F8041B0B
:102BB0000029E7D130BC70471FB5102200216846BC
:102BC000FFF7B6F81C4C1D4820604FF416614FF417
:102BD0007A70E0600022802060616160A260226102
:102BE0002046FFF7CBFB08B100F090F84FF480507F
:102BF000009069462046FFF79FFC08B100F086F878
:102C00001FBD00680D49884200D0704780B50C4850
:102C1000026842F0100202600022006800F010001A
:102C20000090002100981B2000F0FEF8BDE8024053
:102C30001B2000F016B900006006002000100140C3
:102C400020380240704770477047704780B500F0E9
:102C500033F900F00FF800F03FF900F0E0F900F070
:102C600063FA00F0D1F9FFF703FFFFF7A5FF00F0CB
:102C7000ADFAFEE780B594B03422002107A8FFF733
:102C800057F81422002102A8FFF752F80822002169
:102C90006846FFF74DF81C48016821F4C05141F423
:102CA000006101600622012109910A910792102119
:102CB0000B91022200211191129110924FF4800188
:102CC000139107A800F09CFA08B100F01FF80F203C
:102CD00003210290039100220492059206920121A1
:102CE00002A800F06AFC08B172B6FEE701214FF4B9
:102CF000803200910192684600F0A4FD08B172B6DE
:102D0000FEE715B000BD00000070004072B6FEE79F
:102D10002DE9F84304468946207F0128164608BF5E
:102D200002203BD000F04FF820688168480540F24F
:102D3000E9380FD5FFF780F805462068C1684807D5
:102D400008D5FFF779F8401B4045F6D300F047F867
:102D5000032023E000F02AF800F02FF8C160FFF70D
:102D60006BF805462068C1684A0705D4FFF764F888
:102D7000401B4045F6D3E9E78168C908C900816076
:102D8000206881680E4386602068C0F8149020682F
:102D900000F006F82068476200F028F8BDE8F283EA
:102DA000816841F4806181600121704720688168F9
:102DB00021F48061816020687047C16801F0800162
:102DC00061F4906170470120207702216177CA2069
:102DD00022685062532120684162FF2770472068B3
:102DE00047620321617700202077704761770020D8
:102DF000207770470901020002D4294881547047A6
:102E0000284B02F00F021A4402F8041C7047264BAC
:102E100019684FF6FF020002114000F4E060084319
:102E2000224908431860704770B51F4B1C68C4F3F3
:102E300002230124C3F10705052D2EBF0F2504FA37
:102E400005F56D1E1E1D072E34BF0023DB1E294015
:102E5000994004FA03F3BDE870405B1E1A40114329
:102E6000C8E7010007D4012200F01F01104B8A407F
:102E7000400943F82020704710B5401EB0F1807F14
:102E800001D3012010BD0B4C60600F214FF0FF30CB
:102E9000FFF7B0FF0021A16007202060002010BDD7
:102EA00000E400E018ED00E00CED00E00000FA05A1
:102EB00000E100E010E000E0032010B5FFF7A7FFFD
:102EC0000F2000F045FD0024002814BF012400F06D
:102ED00061FD204610BD25002DE9F04786B0142283
:102EE00000216846FEF724FF3B483C4D0168DFF8AF
:102EF000F080DFF8F090DFF8F0A041F0040101600D
:102F000049F68014026802F00402059241F2F0369C
:102F10000599026842F00102026041F63F570368DA
:102F200003F0010305930599026842F00202026072
:102F3000036803F0020305930599026842F0080252
:102F400002600022006800F0080005902146059804
:102F50002846FFF7A0FC002231464046FFF79BFCC5
:102F6000002239464846FFF796FC002204215046CD
:102F7000FFF791FC42F2010000F038F84046FFF7FD
:102F8000B5FB00F03AF8009469462846FFF7AEFB1F
:102F900000F033F8009669464046FFF7A7FB00971C
:102FA00000F02BF869464846FFF7A0FB4FF40240BB
:102FB00000F01CF84846FFF799FB0421009101221C
:102FC000002102910391019269465046FFF78EFB62
:102FD00006B0BDE8F08700001C3802400000024047
:102FE0000008024000040240000C02400021009052
:102FF000019101220292694670470120019000224E
:10300000029203927047000080B540484049016039
:103010004FF4165200F00EF800B116E001BD80B575
:103020003C483D4901604FF4E13200F003F800B143
:103030000BE001BD00230C2142608360C36003618B
:1030400041618361C36100F0C7BCBDE80140FFF787
:103050005DBE10B586B00446142200216846FEF716
:1030600067FE20682A4A2D4990421ED1486840F4E4
:1030700080404860486800F48040059005980A68E0
:1030800042F001020A600222096801F00101059183
:103090004FF4C0610598224800F02CF8002200216E
:1030A0002520FFF7C1FE252020E01B4A90421FD1BA
:1030B000886840F480208860886800F4802005904B
:1030C00005980A6842F004020A600222096801F0C9
:1030D000040105914FF440610598124800F00AF888
:1030E000002200212720FFF79FFE2720FFF7B9FECF
:1030F00006B010BD00910192002102910322072128
:10310000049103926946FFF7F1BA0000D005002050
:103110000038014018060020004800401C380240DA
:103120000000024000080240234A2448244980B598
:10313000426000234FF4804201608360C3600261FB
:1031400043618361C361036200F0AEFF18B1BDE863
:103150000140FFF7DBBD01BD10B586B00446142267
:10316000002101A8FEF7E4FD21681548814220D125
:10317000144C216841F002012160C021206800F058
:1031800002000090122200980F4801910292002143
:103190000391032204210591049201A9FFF7A6FAE5
:1031A000A06840F40010A060A06800F40010009037
:1031B000009806B010BD0000A08601007C0500202C
:1031C000005400401C3802400004024080B5FEF765
:1031D00017F8FEF7F5F8FDF73CFC01F00DF81420A8
:1031E00001F048F8FEF70EF8FEF7F3F801F064F886
:1031F00001F0A4F901F036FAFDF72CFCF2E700002B
:103200002DE9FC47040040D0DFF80066B068B568DF
:1032100000F00C082078C10705F480350ED5B8F110
:10322000080F05D0B8F10C0F08BFB5F5803F47D1A6
:103230003068810302D56068002826D02078DFF846
:10324000D875810714D5B8F1040F04D0B8F10C0F6C
:1032500008BF002D6BD13068810702D5E0680128D6
:103260001ED17068216920F4F85040EA0120706096
:103270002078C10640F1B280B8F1000F40F097808D
:103280003068810503D5A069002800F08481206A98
:10329000716801F46041814266D200F07CFA002836
:1032A00040F079817168206A21F4604101437160C6
:1032B0007168E06921F07F4141EA006171605EE080
:1032C0006068012804D1306840F48030306013E039
:1032D00008B9306809E00528306806D140F480203C
:1032E0003060316841F4803105E020F48030306096
:1032F000316821F480213160606860B1FEF79CFD87
:1033000007463068810399D4FEF796FDC01B6528F7
:10331000F7D3032042E1FEF78FFD074630688103B3
:103320008CD5FEF789FDC01B6528F7D3F1E7E0686F
:1033300068B101213960FEF77FFD054630688107DD
:103340008FD4FEF779FD401B0228F7D9E1E73860FA
:10335000FEF772FD05463168880789D5FEF76CFDDA
:10336000401B0228F7D9D4E7716821F46041084373
:1033700000F016F9206A00F00EFA002890D1216AB8
:10338000B268490BC2F303120120491C8840DFF8E0
:103390008C14DFF87C34895CC003C8401860DFF807
:1033A0007404006800F0D4FA010017D0F6E0A069B8
:1033B00048B301213962FEF73FFD054630688105BB
:1033C00005D4FEF739FD401B0228F7D9A1E7706844
:1033D000216A20F46040084300F0E2F820780107F9
:1033E0002BD56069DFF83814D0B101220A60FEF7EE
:1033F00023FD0546706B81071FD4FEF71DFD401BA2
:103400000228F7D985E73862FEF716FD05463068D1
:103410008105E3D5FEF710FD401B0228F7D978E7B8
:103420000860FEF709FD0546706B810705D5FEF7BC
:1034300003FD401B0228F7D96BE72078410761D5CF
:10344000706A0025C10009D4706A40F08050706233
:103450000125706A00F0805000900098DFF8C49356
:10346000D9F80000C10513D4D9F8000040F48070E9
:10347000C9F80000FEF7E0FC8246D9F80000C1055B
:1034800006D4FEF7D9FCA0EB0A006528F5D340E787
:10349000A068012808D008B9706B09E00528706B96
:1034A00006D140F480607063706B40F4807005E07A
:1034B00020F480707063706B20F48060706341F260
:1034C0008939A06860B1FEF7B7FC8246706B810550
:1034D00013D4FEF7B1FCA0EB0A004845F6D318E779
:1034E000FEF7AAFC8246706B810506D5FEF7A4FCA8
:1034F000A0EB0A004845F6D30BE71DB1706A20F037
:1035000080507062606A002847D0B8F10C0F30D04C
:10351000022822D100F04DF805463068810105D51A
:10352000FEF78AFC401B0228F7D9F2E6B068A16AD0
:10353000E26A20F47D000843216B10430843B06029
:10354000012000F037F804463068810125D4FEF7E9
:1035500073FC001B0228F7D9DBE600F02AF80446CA
:103560003068810119D5FEF767FC001B0228F7D9E6
:10357000CFE601280FD0B068A26A00F480319142F2
:1035800002BF00F47011E26A914202BF00F44000F1
:10359000216B884201D0012000E00020BDE8F687C1
:1035A00070607068E16920F07F4040EA01607060FF
:1035B000704700203866FEF73FBC2DE9F843040051
:1035C00089466FD0DFF86062306800F0010048453E
:1035D00002D200F08EF865D12078DFF830528107F2
:1035E00005D5AA68A06822F0F0020243AA602178FB
:1035F000C8074FD56068022802D129688A0308E00D
:10360000032802D129688A0103E00128296802D130
:103610008A0702D446E08A0544D5A968890840EAA9
:103620008100A86041F28938FEF706FC0746606811
:1036300002280BD1A86800F00C0008282AD0FEF759
:10364000FBFBC01B4045F5D3032050E003280AD103
:10365000A86800F00C000C281CD0FEF7EDFBC01B86
:103660004045F5D3F0E701280AD1A86800F00C0026
:1036700004280FD0FEF7E0FBC01B4045F5D3E3E77D
:10368000A86810F00C0F05D0FEF7D6FBC01B404514
:10369000F6D3D9E7306800F00100814504D200F08C
:1036A00028F801D0012022E02078410705D5AA683A
:1036B000E06822F4E0620243AA602178080706D598
:1036C000A968206921F4605141EAC001A96000F0B5
:1036D00021F8AA6851494E4BC2F30312895CC840D5
:1036E0001860BDE8F2434B48006800F031B9BDE80E
:1036F000F283B9F1010F03D1306840F0040030606B
:103700003168490849EA41013160306800F0010040
:103710004845704730B54648416801F00C02042A1C
:1037200004D0082A04D00C2A04D018E0414830BD47
:10373000414830BD414AC1F38343D45C4068C1F382
:103740008152521C0023C50347BF3B48A0FB040124
:10375000384DA5FB0401BDE8304000F0B1BF006862
:10376000400B00F007000121401C01FA00F0C003EB
:1037700030BD27482D4A006813683149C3F302223F
:1037800006E02348294A006813682D49C3F3C22282
:10379000895CC840704778B5244B23491C680022D7
:1037A00014F0F00F22D1DD691E4CEE0003D5246821
:1037B00004F4C0540FE0DD6945F08055DD61DD693A
:1037C00005F080550095009D2468DD6925F0805541
:1037D00004F4C054DD61B4F5C05F08BFB0F5404FDC
:1037E00004D1086840F00400012208600B685B08FF
:1037F00042EA43030B60086800F00100904201D0E8
:10380000012072BD002072BD00000000003802409F
:103810000C0000200400002000004742384C000843
:103820008006474200700040003C024008380240D9
:10383000043802400024F40000366E012C4C0008CD
:10384000844F00082DE9FC4105462878C10775D54D
:103850003C4E706A0024C10009D4706A40F0805068
:1038600070620124706A00F0805000900098364F1A
:103870003868C10511D4386840F480703860FEF7AC
:10388000DBFA80463868C10507D4FEF7D5FAA0EB0D
:1038900008006528F6D3032051E03068696800F01D
:1038A000C04001F0C042904209D001F44030B0F570
:1038B000403F04D13268900348BF01203FD4706B71
:1038C00010F440301CBF01F4403188421BD02878EE
:1038D000C1072ED51D49706B01220A60002320F418
:1038E00040300B607063C0050DD5FEF7A5FA0746A2
:1038F000706B810507D4FEF79FFAC01B41F2893136
:103900008842F5D3C7E72878C10712D5686800F464
:103910004031B1F5403F06D1326822F0C04200F09C
:10392000C04010433060706B696801F44031084357
:1039300070631CB1706A20F0805070620020BDE896
:10394000F68100000038024000700040DC0647426B
:1039500070B50E4E0446B0680025A0B14FF47A71E0
:103960000B4AB1FBF0F11068B0FBF1F0FFF784FAFD
:1039700048B9102C07D2002221464FF0FF30FFF744
:1039800053FA746000E00125284670BD0000002055
:103990000C0000200F4881B0416841F000414160B7
:1039A000416801F0004100910099026842F0010273
:1039B0000260036803F0010300930099426842F03B
:1039C00080524260406800F080500090009801B042
:1039D000704700BF2038024038B5040001D10120F3
:1039E00032BD00F019F808B900F01AF800F01DF81F
:1039F00000F025F8FFE7416100F001F832BD2068D2
:103A0000C16841F40051C1600020686020216970E4
:103A1000A97000216163704704F140056878704720
:103A2000002129702046FFF714BB2420687020680D
:103A3000C16821F40051C160204600F0DABA206864
:103A4000016921F4904101612068416921F02A0156
:103A500070472DE9FC4106460D4696F841002028A6
:103A600014461F463FD10DB1200001D101203BE09B
:103A700000207064212186F84110FEF7DDF9B4843E
:103A80008046F48400F032F804BF306900281ABF81
:103A90002C46002500240CE03068002C12BF14F8DE
:103AA000011B35F8021BC1F308014160F08C411E77
:103AB000F1844346F08C0097002807D00022802133
:103AC000304600F09DF90028E6D005E000224021B4
:103AD000304600F095F908B1032005E0202086F873
:103AE0004100002000E00220BDE8F681B068B0F59A
:103AF000805F704710B500F130039C7C202C0AD108
:103B000009B1140001D1012010BD00241C60BDE8E2
:103B1000104000F0BFB9022010BD13680093526836
:103B200000927047216801F1140252E8001F2068DA
:103B300000F1140321F0400143E800100028704711
:103B40007CB5044621680B68CD684A6913F00F0004
:103B500007D1980661D5AA065FD52046BDE8764014
:103B6000E2E1D00702D415F4907F56D0D80705D5EE
:103B7000E90503D5606C40F001006064580705D585
:103B8000D10703D5606C40F002006064980705D54A
:103B9000D10703D5606C40F004006064180707D5B6
:103BA000A90601D4D00703D5616C41F00801616416
:103BB000606C002830D0980604D5A90644BF204682
:103BC00000F0B2F920684069616C0A0701D4400630
:103BD0001DD5204600F081F920684169480611D5BD
:103BE000FFF7A0FFFCD1E06B60B10FF23131416310
:103BF000E06B00F00BFE00280ED0E06B416BBDE8DF
:103C00007C4008472046BDE8764000F02CBE2046A8
:103C100000F029FE0020606473BD206B012804F1D0
:103C2000410240F08C80D80600D5EE0640F1878036
:103C3000002300930D6800954B6800930098496934
:103C4000480640D5E16B0868406880B20028E3D0A0
:103C5000A38D9842E0DAE085886920282DD021687C
:103C600001F10C0050E8001F236803F10C0521F45A
:103C7000807145E800100028F1D100F09CF8490857
:103C800000F11405490045E800100028F5D100F0C6
:103C900092F800F1140521F0400145E800100028D9
:103CA000F5D1202050700021216300F08AF800F047
:103CB000DDF8FAD1E06B00F087FD02206063A18D92
:103CC000E08D091A35E0A08DE18D411AE08D0028C4
:103CD0001CBF88B200286DD0206800F10C0353E8A7
:103CE000003F00F10C0623F4907346E800300028F2
:103CF000F2D1206800F1140353E8003F5B0800F1A3
:103D000014065B0046E800300028F2D120205070F5
:103D100000222263206800F10C0252E8002F00F11B
:103D20000C0522F0100245E800200028F2D1022004
:103D300060632046BDE87C4089B200F095BD18065E
:103D400029D52E0627D51078212833D1A068B0F5C3
:103D5000805F04BF2069002808D1206A0288C2F36E
:103D600008024A60206A811C216204E0206A421C29
:103D7000226200784860E08C401EE08480B2C8B9BE
:103D80002068C16821F08001C1602068C16841F0ED
:103D90004001C16073BD58060CD56B060AD5C868D2
:103DA00020F04000C860202111702046BDE8764018
:103DB00000F05BBD73BD206800F1140151E8001FE5
:103DC0007047206800F10C0151E8001F00F10C035E
:103DD0007047026802F10C0151E8002F036803F1FB
:103DE0000C047047016801F1140252E8002F5208D8
:103DF00001F11404520044E800210029F2D1704777
:103E00002DE9F041069C05460E4690461F4628685F
:103E100001683140B1420CBF0120002040451AD159
:103E200014F1010FF3D024B1FEF706F8C01B844251
:103E3000EDD200F013F821F4D07100F019F8F8D1A8
:103E400000F01AF805F14000202141708170002136
:103E50000170032000E00020BDE8F081286800F137
:103E60000C0151E8001F00F10C03704721F0100114
:103E700043E8001000287047286800F1140151E859
:103E8000001F490800F11403490043E8001000280E
:103E9000F2D1704781628285C2850021416422226D
:103EA00080F84220016921B10168CA6842F4807239
:103EB000CA6001684A6942F001024A610068C1684B
:103EC00041F02001C16000207047016801F10C023F
:103ED00052E8002F01F10C04704710B5FFF7F5FF11
:103EE00022F4907200F015F8F8D1FFF77BFF016B18
:103EF000012906D1FFF76DFF22F0100200F009F84A
:103F0000F8D1202180F842100022026310BD22F473
:103F1000807244E80021002970470000406A0021B7
:103F2000C185C18400F09FBC1CB590F842102229C5
:103F30004FD18168826AB1F5805F0AD1016969B9A0
:103F400003685968C1F308011180826A911C81627B
:103F50000FE0002904BF0169002902D103685968F4
:103F600003E00168496801F07F011170816A4A1C11
:103F70008262C18D491EC18589B241BB0168CA6890
:103F800022F02002CA600168CA6822F48072CA6006
:103F900001684A69520852004A61202180F84210A3
:103FA00000224263016B01290FD1026300F013F874
:103FB00002681168CB0604D500240094FFF7ADFD1C
:103FC0000099818D00F050FC01E000F023F9002001
:103FD00016BD022016BD016801F10C0252E8002F47
:103FE00001F10C0422F0100244E800210029F2D172
:103FF000704710B5044622681169E06821F4405109
:1040000001431161D3682248A168034020690B4332
:1040100061690343E0690B430343D3605169A069BD
:1040200021F44071014351611A498A4202D1FFF7DC
:10403000A8FB01E0FFF79DFB63682268E469192192
:1040400048436421B4F5004F0FD15B0000F024F821
:10405000C90032316420B1FBF0F0410001F4F87185
:1040600001EB031100F007000DE09B0000F014F8D5
:10407000090132316420B1FBF0F000F0F00101EBF6
:10408000031100F00F004018906010BD0000000008
:10409000F369FFFF00380140B0FBF3F06423B0FB8D
:1040A000F3F301FB13017047F8B5040025D004F1C8
:1040B0003C05697821B9002028702046FFF74CF8AC
:1040C000242169702068026852085200026020684A
:1040D000016841F4004101602068026822F4004256
:1040E0000260FFF746FB01466068DFF8F42090426B
:1040F00005D2DFF8F030994205D20120F2BDDFF899
:10410000E8008142F9D32068DFF8E0304668B1FB6F
:10411000F3F3B60943EA861646602668376A606894
:10412000904206D34FF4967043434FF47A70B3FB3A
:10413000F0F35B1CBF0943EA87133362491E23680F
:10414000DE696768974206D27F0000F043F80429D1
:1041500013D2042111E0A06820B907EB470700F053
:1041600039F805E01920474300F034F841F4804164
:1041700008050CBF012141F40041DFF8740006403E
:104180000E43DE6122681368E169206A23F0C003F0
:104190000B43034313602268DFF8580093682169DA
:1041A0000340E0680B43034393602168CA68A36936
:1041B0006069120A034343EA0222CA602068016868
:1041C00041F00101016000206860202169702063D6
:1041D000A870F2BDB1FBF7F1491CC1F30B017047A8
:1041E000A186010080841E0000093D0040420F00AE
:1041F0000030FFFF007CFFFF10B51B4C1B48012265
:104200002146FFF777FC611CBDE8104001221848E9
:10421000FFF770BC38B50546144829680268124C8F
:1042200091420CD12189642905D2636822785A54BD
:104230002189491C218101222146FFF75BFC0C48A2
:104240002968026891420ED1218A322905D2E36899
:1042500062785A54218A491C2182611CBDE8384089
:104260000122FFF747BC31BDFC04002018060020E6
:10427000D005002038B50446FDF7DEFD14F1010F2E
:10428000054602D0044988680419FDF7D5FD401B96
:10429000A042FAD331BD00BF0000002080B501214B
:1042A0001548FCF7FFFF012002BD80B5014612480A
:1042B000FDF700F8012002BD70B5002400250E486E
:1042C00000EB05167278012A11D17068012430B113
:1042D000FDF7B2FD7168B268401A904207D3002022
:1042E0007070FDF7A9FD7060E8B2F16888476D1C39
:1042F000012DE4DD204670BD9C04002001207047A4
:1043000070B5044601219D489D4D00F0ACF8287021
:1043100041F2883140B996F82100A8B9B16230461F
:104320000221FCF7C7FF0FE0687830B9B06AC828EF
:1043300002D0FBF74FFF00E0B16296F821000128A0
:1043400002D1022100F08CF83DE038B5044601218D
:1043500000F05EF880B9A86A41F28831884202D143
:10436000FBF748FF01E0FBF73DFF012100F097F864
:10437000C820A862214600E0012144E070B504464F
:104380004FF400517D487F4D00F06DF828704FF4D8
:104390007A7140B996F84100A8B9B1643046042159
:1043A000FCF788FF0FE0687830B9B06CC82802D0FD
:1043B000FBF714FF00E0B16496F84100012802D138
:1043C000042100F04DF82878687021463046FCF74B
:1043D00071FF012070BD38B504464FF4005100F064
:1043E00017F878B9A86CB0F57A7F02D1FBF716FF01
:1043F00001E0FBF7FBFE032100F051F8C820A864A0
:10440000214600E003212846FCF754FF012032BD7D
:104410005A485D4DFEF739BA70B500F043F85B4D70
:1044200000F021F828704FF47A7140B996F86100D5
:10443000A8B9B16630460621FCF73CFF0FE068786A
:1044400030B9B06EC82802D0FBF7CAFE00E0B166F2
:1044500096F86100012802D1062100F001F8B2E7C8
:104460003046FCF731BF484EFEF70FBA38B500F0C2
:1044700019F8454DFEF709FA78B9A86EB0F57A7FBC
:1044800002D1FBF7CDFE01E0FBF7B2FE052100F003
:1044900006F8C820A866214600E00521B3E72846B3
:1044A000FCF712BF04464FF400713948704770B5ED
:1044B00000F03FF8374DFFF7D6FF28704FF4FA6150
:1044C00048B996F88100C0B9C6F88810304608216E
:1044D000FCF7F0FE11E0687840B9D6F88800C828EB
:1044E00002D0FBF779FE01E0C6F8881096F881004B
:1044F000012802D10821FFF7B3FF64E738B500F0C7
:1045000018F8214DFEF7C1F988B9D5F88800B0F543
:10451000FA6F02D1FBF770FE01E0FBF765FE0721A1
:10452000FFF7BDFFC820C5F88800214600E007213D
:1045300069E704464FF400411548704770B5002400
:104540000025114800EB05167278012A11D1706818
:10455000012430B1FDF770FC7168B268401A9042D6
:1045600007D300207070FDF767FC7060E8B2F16857
:1045700088476D1C082DE4DD204670BD0008024010
:104580001005002012050020100000201405002056
:10459000000402401605002080B501464148FCF7A2
:1045A00089FE012002BD000078B500BF42A185B0A0
:1045B000D1E90023CDE90123044603AD042601958A
:1045C000009602230322012101A800F067F9364D6D
:1045D000012200F026F80520FFF74CFE334EB2888A
:1045E0003068002100F078F90020B080BDF8082084
:1045F00001992F484FF47A73FFF72BFA002200F04D
:1046000010F8284D02212846FCF74CFE03212846CD
:10461000FCF750FE21462846FCF74CFE012006B070
:1046200070BD4FF480712846FEF735B910B50146CC
:104630001E4882881B4852B11E4B1C88944205D1EB
:1046400000221A800321FCF72DFE02E01A80FCF7FD
:1046500031FE012010BD80B502211248FCF734FE66
:10466000012002BD70B5002400250E4800EB0516A0
:104670007278012A11D17068012430B1FDF7DCFB9A
:104680007168B268401A904207D300207070FDF73D
:10469000D3FB7060E8B2F16888476D1C042DE4DB41
:1046A000204670BDBC040020000002400805002028
:1046B000D005002076070020000000000000000068
:1046C000D3BBD9B1B2F5803F5BD2022A1ED98C464A
:1046D000B1FBF2F102FB11C31B0443EA1043B3FB2D
:1046E000F2FC02FB1C3380B240EA0343B3FBF2F05E
:1046F00002FB103240EA0C4000237047022A05D921
:104700008446B0FBF2F002FB10C270474AB105D1FB
:1047100000F0010249085FEA3000704700220023E0
:10472000704700F0E1B80B00020000210020704744
:10473000F7D3002200237047904271EB030CF2D3B1
:1047400070B5B1FA81F4B3FA83F52C1BA340C4F120
:10475000200532FA05F63343A2405FF00046E640FA
:1047600002E05B085FEA3202841A71EB030524BFA2
:10477000204629467641F4D302000B003000002188
:1047800070BD70B5B1FA81F4B2FA82F5C4F12004BB
:104790006419B4F12006DAD3B2405FF00044F4406B
:1047A000002502E052085FEA3303C61A71EB020EDD
:1047B00024BF3046714664416D41F3D302000B00C3
:1047C0002000290070BD000010B590F82120022AB9
:1047D00000F1380106D004230B60002180F820107E
:1047E000012010BD00F034F81468640864001460FF
:1047F00001220B7A496803F01C039A404A600021A9
:1048000000F02DF880F82010002010BD38B590F889
:1048100021200024022A00F1340103D00420486042
:10482000012413E000F014F815686D086D001560A0
:1048300001220B7B8D6803F01C039A406A6000F034
:104840000EF880F82040096801B18847204632BD43
:104850000268136823F00E03136002687047012298
:1048600080F82120704770477047704730B5034685
:104870004FF6FF7000240DE01A5D504008224508F5
:10488000C00752BF284685F4204080F00100521E28
:10489000F5D1641C8C42EFDB80B230BD38B50446E4
:1048A00025680498297021684A701A0A2568AA7038
:1048B000020A2168CB70062123681A712568687185
:1048C0002068FFF7D3FF21688871000A2268D07141
:1048D0000820A080012032BD130003D00A461946EB
:1048E000FDF742BD70470000704700000000000067
:1048F0000000005F00000007000700147F147F1411
:10490000242A7F2A12231308646236495522500054
:1049100005030000001C2241000041221C00082A5F
:104920001C2A0808083E0808005030000008080843
:104930000808003030000020100804023E514945AC
:104940003E00427F400042615149462141454B3182
:104950001814127F1027454545393C4A4949300112
:10496000710905033649494936064949291E003669
:1049700036000000563600000008142241141414BA
:1049800014144122140800020151090632497941E8
:104990003E7E1111117E7F494949363E41414122F7
:1049A0007F4141221C7F494949417F090901013E5C
:1049B000414151327F0808087F00417F410020407B
:1049C000413F017F081422417F404040407F020464
:1049D000027F7F0408107F3E4141413E7F09090963
:1049E000063E4151215E7F09192946464949493110
:1049F00001017F01013F4040403F1F2040201F7FB9
:104A00002018207F631408146303047804036151A1
:104A100049454300007F4141020408102041417F85
:104A20000000040201020440404040400001020432
:104A30000020545454787F48444438384444442037
:104A4000384444487F3854545418087E09010208F9
:104A50001454543C7F0804047800447D40002040F6
:104A6000443D00007F10284400417F40007C041832
:104A700004787C0804047838444444387C141414C2
:104A800008081414187C7C08040408485454542062
:104A9000043F4440203C4040207C1C2040201C3CE3
:104AA0004030403C44281028440C5050503C446452
:104AB000544C44000836410000007F00000041369D
:104AC000080008082A1C08081C2A08086070787C5E
:104AD0007E1C362A361C303E3F3E3007087F0907D1
:104AE000444444447C7C4444447C7C7C44447C7CFE
:104AF0007C7C447C7C7C7C7C7CFFFFFFFFFF4060F7
:104B000070787C456275787C000002050200000028
:104B1000F0B40246106895681318506803EB50040F
:104B2000C0071CD54D441AE013F8017B05F8017B42
:104B3000491EF9D198B113F8011BC6F38106032E63
:104B400008BF13F8016B01EB06214942801C294480
:104B500005D011F8016B05F8016B401EF9D1A34295
:104B60000ED013F8016B16F0030104BF13F8011BFC
:104B7000C91C30090F28DBD113F8010B0F30D7E720
:104B8000F0BC02F10C007047FEE7FEE7FEE7FEE72F
:104B9000FEE770477047704708480168491C01608C
:104BA00000F016B80648FDF73DBC0648FEF7C8BF42
:104BB0000548FEF7C5BF0548FDF73CBB7007002060
:104BC00060060020D005002018060020D406002032
:104BD00002490A68886882180A607047000000204D
:104BE00010B5074979441831064C7C44163404E06A
:104BF0000A68081D114488470146A142F8D110BD3A
:104C0000080000002400000077DFFFFF68020000BA
:104C10001805002000000000F9FEFFFF60040000FE
:104C20007005000000000020704700000304060823
:104C30000C101820300000000000000000000000F0
:104C4000010203040607080900F00DF8002801D04E
:104C5000FFF7C6FFAFF300800020AFF30080FDF741
:104C6000F5FF00F002F80120704700F001B80000E5
:104C70000746384600F002F8FBE7000080B5AFF3C6
:104C80000080024A11001820ABBEFBE7260002009C
:104C900053746174653A4F7879317C4F7879327CFE
:104CA0004F787933000000004F7879203A20202097
:104CB000202020206D672F4C000000004379636C9A
:104CC000653A2020202020205365636F6E64000029
:104CD00046726565203A2020202020205365636FAE
:104CE0006E6400002A202020202020202020202068
:104CF00020202020000000002020202A202020202A
:104D00002020202020202020000000002020202023
:104D100020202A2020202020202020200000000009
:104D20002020202020202020202A20202020202079
:104D300000000000202020202020202020202020F3
:104D40002A202020000000002020202020202020D9
:104D5000202020202020202A000000005B315D2040
:104D600044757479206379636C65204F787900000D
:104D70005B325D2043616C6962204F787920676502
:104D80006E2000005B345D204368616E67652050D3
:104D9000617373776F72640053455454494E4720D2
:104DA00043414C4942204F58590000005345545448
:104DB000494E4720445554592043594C434500001F
:104DC0005B315D204379636C653A202020202020F0
:104DD000730000005B325D2046726565203A20203A
:104DE000202020207300000053455454494E472092
:104DF000534154494C495459000000005345545400
:104E0000494E472050415353574F52440000000031
:104E1000202020456E74657220746F205361766582
:104E200020200000456E746572206E657720506109
:104E30007373776F7264000020436C69636B204565
:104E40006E7465722F45786974200000436C696345
:104E50006B20456E7465722F457869740000000000
:104E600054656D703A20202020202020204300002F
:104E7000456E7465722050617373776F72640000C1
:104E8000456E74657220746F204C6F67696E000008
:104E90002020496E636F72726563742120200000C8
:104EA0005B335D20536174696C69747900000000A4
:104EB000506C656173652043686F6F7365210000F6
:104EC0005B325D204F7879203130302500000000C2
:104ED00053656C6563742055702F446F776E0000C6
:104EE0005B315D20536174696C6974793A0000002C
:104EF0002020205375636365737320200000000039
:104F000043414C4942204F58592031303000000075
:104F1000506C656173652057616974212000000041
:104F20000148804701480047294C0008794F000894
:104F300050617373776F72643A0000005B315D20DB
:104F40004F7879203025000043414C4942204F588A
:104F5000592030004C6F6164696E672E2E2E000060
:104F6000202020446F6E6521202000002020457203
:104F7000726F722120200000AFF30080AFF3008039
:104F8000FFF762FE000000000102030449442020F4
:104F90003A00000020204F4E7C000000204F464683
:104FA0007C00000020204F4E00000000204F4646AD
:104FB0000000000053455454494E4700FFF7FEBF20
:104FC000FFF7FEBFFFF7FEBFFFF7FEBFFFF7FEBF15
:104FD000FFF7FEBFFFF7FEBFFFF7FEBFFFF7FEBF05
:104FE000FFF7FEBFFFF7FEBFFFF7FEBFFFF7FEBFF5
:104FF000FFF7FEBFFFF7FEBFFFF7FEBFFFF7FEBFE5
:10500000FFF7FEBFFFF7FEBFFFF7FEBFFFF7FEBFD4
:10501000FFF7FEBFFFF7FEBFFFF7FEBFFFF7FEBFC4
:10502000FFF7FEBFFFF7FEBFFFF7FEBFFFF7FEBFB4
:10503000FFF7FEBFFFF7FEBFFFF7FEBFFFF7FEBFA4
:10504000FFF7FEBFFFF7FEBFFFF7FEBFFFF7FEBF94
:10505000FFF7FEBFFFF7FEBFFFF7FEBFFFF7FEBF84
:10506000FFF7FEBFFFF7FEBFFFF7FEBFFFF7FEBF74
:10507000FFF7FEBFFFF7FEBFFFF7FEBF12000112F2
:105080001005120104300168FF1F09430500049058
:1050900003FD4200080110800401430008020010D3
:1050A000124B10920320127D1092042012D71092FE
:1050B00005209003194400080620126D1092072065
:1050C00012AF1092082012FD10A19083D5129021EA
:1050D0000183D9129012F418130D1390911012132A
:1050E00010D20001C0013C000213915083C90A6034
:1050F00012FA04200B010B00085356455049443264
:105100003330014231292142300130302F03300247
:105110002D30303A03F10614112E1001088C4F582F
:10512000200B0002282001002002000308604EA886
:1051300024020408A84C3014020550D62E28100270
:10514000000608901010030600072C943012070880
:10515000129C0820020800074A10120908211010AA
:10516000030A000768A408120B0812AC0810050017
:1051700000032A6407005B1001042A66081003027A
:1051800000052A6808C1E5E18410010408BC6C3000
:105190000303000508D084417C52057C52067C52F2
:1051A000077C52087C52097C720A7C20020430F091
:1051B000007C10010530F208F1036833304F68437A
:1051C00044E4EC333CF868200205340C4D681001CF
:1051D000052C2008100307000524340830040800BB
:1051E000051C484D681717702411681317800811A3
:1051F000EC131790081170434440EC334E41EC100F
:105200000104584208154C136243081003040004BB
:105210006C440834030500047645043001022DB4C3
:1052200090100103085C58219043704DF843A04E44
:10523000F833844DF83316B0601001020C98101149
:105240006013083C38154C3708C0AC7120530AACC9
:105250002032C05080020508D44D2012040842D0EC
:10526000A8334628A8740105462A8C5001020FE88D
:105270003C12E024520234820334935A2C2C52FC08
:105280002C4230883540560340560440560540565F
:10529000064056074015481339F054154847081082
:1052A000484708244857083848562E48562F48562D
:1052B0003048563148563248463348471E48D8335E
:1052C0001900903401042354D810010423600811FC
:1052D0003013236C0815484B191040230F4C689D60
:1052E000BC038F25015C031214048F3101BC032120
:1052F000108F7701BC031F60EA0C044201402101BA
:105300002C03D00700009D8C0451202110C3AB4218
:105310006083994560CC04B80B0000A945AC04CF6C
:105320002D461C044F57461C044718057457A00609
:045330007C420102B8
:0400000508004F7927
:00000001FF
